:100000000C9490000C94AF000C94AF000C94AF00D3
:100010000C94AF000C94AF000C94AF000C94AF00A4
:100020000C94AF000C94AF000C94AF000C94AF0094
:100030000C94AF000C94AF000C94AF000C94AF0084
:100040000C94AF000C94AF000C94AF000C94AF0074
:100050000C94AF000C94AF000C94AF000C94AF0064
:100060000C94AF000C94AF000C94AF000C94AF0054
:100070000C94AF000C94AF000C94AF000C94AF0044
:100080000C94AF000C94AF000C94AF000C94AF0034
:100090000C94AF000C94AF000C94AF000C94AF0024
:1000A0000C94AF000C94AF000C94AF000C94AF0014
:1000B0000C94AF000C94AF000C94AF000C94AF0004
:1000C0000C94AF000C94AF000C94AF000C94AF00F4
:1000D0000C94AF000C94AF000C94AF000C94AF00E4
:1000E0000C94AF000C94AF000C94AF000C94AF00D4
:1000F0000C94AF000C94AF000C94AF000C94AF00C4
:100100000C94AF000C94AF000C94AF000C94AF00B3
:100110000C94AF000C94AF000C94AF000C94AF00A3
:1001200011241FBECFEFD1E4DEBFCDBF1AE0A0E0A7
:10013000B2E0E4ECF3E100E00BBF02C007900D92E7
:10014000A432B107D9F72BE0A4E2BAE001C01D92B6
:10015000A737B207E1F70E9481090C94E0090C94DB
:10016000000080E00895FC0190818181909301025C
:100170008093000280E008950E94800980E0089545
:100180000E94740980E00895CF93DF93D82FC92F80
:100190000E947E09599A8D2F9C2F0E9479095998A7
:1001A0008D2F9C2F0E947F094D2F5C2F60E182E7ED
:1001B0000E94960180E0DF91CF9108950F931F93E5
:1001C000CF93DF93D82FC92F0E947E0910E000E063
:1001D00080910002909101020817190780F08D2F7D
:1001E0009C2F0E947F094D2F5C2F60E182E70E94C7
:1001F000960180E0DF91CF911F910F910895599A58
:100200008D2F9C2F0E94790959980F5F1F4FE0CFC7
:1002100081E00895282F80E046EA615008F40895AF
:10022000E22FF92F9191892728E030E087FF08C05D
:10023000880F842721503109C9F72E2F9F2FEDCF2A
:10024000880FF8CF9C01FA01DB0150E040E0421733
:1002500053071CF090E080E008958C9111969C91DA
:10026000119760ED690F6A3078F4608390ED980F14
:100270009A30D0F48295807F9081892B80834F5F64
:100280005F4F31961296E3CF6FEB690F663018F42B
:1002900097539083EBCF6FE9690F663018F081E0D8
:1002A00090E008959755F5CF9FEB980F963040F466
:1002B0008753990B64E0880F991F6A95E1F7DCCFAB
:1002C0009FE9980F963058F78755990BF3CFDB01CC
:1002D0006091840A7091850A60317105D4F4A03C64
:1002E000B105B8F496E0969FF001979FF00D1124A8
:1002F000EC5DF54F8083B283A183438354832583D0
:100300006F5F7F4F7093850A6093840A90E080E06E
:10031000089581E090E0089520E00C94670148E0A2
:1003200051E070E060E086E70C948C01FF920F933F
:100330001F93CF93DF93062FF42E152F0E94BD023B
:10034000CF2DD12F0C0F1D2F111DC017D10741F438
:100350008AE0DF91CF911F910F91FF900C94BD0225
:10036000E991E295EF70F0E0EE5FFD4F80810E9431
:10037000BD02FE013197E081EF70F0E0EE5FFD4FCE
:1003800080810E94BD02E1CFAF92BF92CF92DF92F7
:10039000EF92FF920F931F93CF93DF93CDB7DEB70A
:1003A000C154D2400FB6F894DEBF0FBECDBF0E943D
:1003B000B6024091840A5091850A24E23AE010E0A6
:1003C00000E004171507ACF040175107C9F4CF5BE4
:1003D000DD4F0FB6F894DEBF0FBECDBFDF91CF91DA
:1003E0001F910F91FF90EF90DF90CF90BF90AF9053
:1003F00008952A5F3F4FF9013697908198137DC089
:1004000026E0209FC001219F900D11249C012C5DAE
:10041000354F7901D90115968C9180FF21C0CF57B6
:10042000DE4F1882C158D1400E94B60289830E94D3
:10043000B6028A83AE014F575E4FBE016F5F7F4F9A
:1004400081E090E00E942201892B09F0C0CFCF57B4
:10045000DE4F8881C158D14090E0F70192838183BB
:100460009E012F5F3F4F5901F12CE12C26E0209F88
:10047000C001219F900D1124DC01AB5DB54F6D01D2
:10048000D6018D919C91880F991FE816F906C0F14D
:100490000E94B6028A3019F08D3009F098CF26E01C
:1004A000209FC001219F900D11248C010C5D154FE0
:1004B000F801F180AE014F575E4FBE016F5F7F4F75
:1004C0008F2D92810E942201892B09F080CFD801C3
:1004D0001396ED91FC916F2DCE018F579E4F09958C
:1004E000CF5BDD4F8883C154D240AE014F5B5D4F7F
:1004F00061E08AE70E9496016ACF0F5F1F4F61CFCC
:100500000E94B6028A3009F462CF8D3009F45FCFC1
:10051000F50181935F01FFEFEF1AFF0AB1CF88E188
:100520008093C1008BE08093C4000895CF93DF9344
:1005300000D0CDB7DEB7FC017A83698390E080E01C
:1005400029813A812817390711F481E008C02091E8
:10055000C00027FF09C08091C600808380E00F9013
:100560000F90DF91CF9108950196EACF8091C0005E
:1005700087FFFCCF8091C60008959091C00095FF41
:10058000FCCF8093C600089588E18093C90083E082
:100590008093CC000895CF93DF9300D0CDB7DEB722
:1005A000FC017A83698390E080E029813A812817F1
:1005B000390711F481E008C02091C80027FF09C065
:1005C0008091CE00808380E00F900F90DF91CF91DB
:1005D00008950196EACF8091C80087FFFCCF8091F3
:1005E000CE0008959091C80095FFFCCF8093CE0077
:1005F00008950F931F93FC01DB01408151816281BB
:1006000073810D911D912D913C9113974027512796
:1006100062277327408351836283738344815581AA
:100620006681778114960D911D912D913C911797BC
:100630004027512762277327448355836683778336
:10064000408551856285738518960D911D912D9178
:100650003C911B974027512762277327408751877A
:100660006287738744855585668577851C968D914D
:100670009D910D90BC91A02D84279527A627B72783
:1006800084879587A687B7871F910F9108950F9349
:100690001F93CF93DF93FC01EB01DA01488159816D
:1006A0006A817B810D911D912D913C91139740277B
:1006B00051276227732740835183628373834C8160
:1006C0005D816E817F8114960D911D912D913C91DC
:1006D00017974027512762277327448355836683E2
:1006E0007783488559856A857B8518960D911D917C
:1006F0002D913C911B9740275127622773274087F4
:100700005187628773874C855D856E857F851C96D2
:100710008D919D910D90BC91A02D84279527A627A2
:10072000B72784879587A687B787DF91CF911F91D9
:100730000F910895BF92CF92DF92EF92FF920F93A5
:100740001F93CF93DF93792FC62F8A019A012051EF
:100750003F4F79016032C9F088F46031B1F06831FF
:10076000A1F0F70110828FEFDF91CF911F910F91D0
:10077000FF90EF90DF90CF90BF900895603821F008
:10078000603C79F7C8E101C0C0E14C2F50E0682F10
:10079000C8010E94D709DCE1DC0FDD0FDD0F8D2FD2
:1007A00082958F708150F70180832C2F31E08BE18F
:1007B000F82ED801A20FB11DFD013497D0803196DB
:1007C000C0803196E0803196B080822F6C2F0E94DD
:1007D000CB0991113EC08C2D90E08E5E964FFC01AE
:1007E000908193274E2D50E04E5E564FFA01C08007
:1007F000EB2DF0E0EE5EF64FE080ED2DF0E0EE5EEA
:10080000F64FB080832F881F8827881F8F9D802DEB
:100810001124330F3827D92E422F4C1B400F512F54
:10082000511DFA0180818D258C9381818C25119633
:100830008C93119782818E2512968C9312978381C7
:100840008B2513968C932C5F2D1708F4B2CF80E084
:100850008BCFC93108F39031F9F68D2D90E08E5E83
:10086000964FFC01D0808C2D90E08E5E964FFC015F
:10087000C0808E2D90E08E5E964FFC01E080EB2DC7
:10088000F0E0EE5EF64FB080C7CF2F923F924F92CE
:100890005F926F927F928F929F92AF92BF92CF9210
:1008A000DF92EF92FF920F931F93CF93DF93CDB719
:1008B000DEB7E6970FB6F894DEBF0FBECDBF862E2B
:1008C000572E3A016A0120EFC20ED11CF601208199
:1008D000222309F4EBC1BC01CE0101967C010E94E8
:1008E000470311E0D8AACFA6E9AAFAAA20E1129FED
:1008F00010011124260C371C2981422F50E05A8BFD
:10090000498B2E8130E08B85682F70E07C8B6B8B60
:10091000FB01EE5EF64FC0808889E82FF0E0FE8B89
:10092000ED8BEE5EF64F4081E989FA89EE5EF64F77
:10093000B081F901EE5EF64F50815BABAD816A2F5D
:1009400070E0788F6F8B8A85E82FF0E0FA8FE98F5F
:100950008F85682F70E07C8F6B8FCB018E5E964FFA
:10096000FC01D080AC816A2F70E07E8F6D8FCB014F
:100970008E5E964FFC0150818F89988D8E5E964FCA
:10098000FC01A081898D9A8D8E5E964FFC01F081CD
:10099000FCAB8985682F70E078A36F8F8E85E82F78
:1009A000F0E0FAA3E9A38B81682F70E07CA36BA32E
:1009B000CB018E5E964FFC0190808885682F70E099
:1009C0007EA36DA3CB018E5E964FFC01F081FDAB43
:1009D0008F8D98A18E5E964FFC01F081FEAB89A1B0
:1009E0009AA18E5E964FFC01A0808D85682F70E0E5
:1009F00078A76FA38A81E82FF0E0FAA7E9A78F8193
:100A0000682F70E07CA76BA7CB018E5E964FFC0130
:100A100000818C85682F70E07EA76DA7CB018E5E6C
:100A2000964FFC0180816FA178A56E5E764FFB0129
:100A3000B08069A57AA56E5E764FFB019081EFA527
:100A4000F8A9F0801F15B0F1B983AD83FEA9F9872D
:100A5000BD862BA92A836CA96E83AA869E87CB822A
:100A60009B86DF820F87888B7DA97C8758874C8384
:100A7000A101BE016F5F7F4F882D952D0E94470316
:100A800080E0E6960FB6F894DEBF0FBECDBFDF91D3
:100A9000CF911F910F91FF90EF90DF90CF90BF907B
:100AA000AF909F908F907F906F905F904F903F900E
:100AB0002F900895E989FA89EE5EF84F4C2C442670
:100AC000F0804F24B9016E5E794FFB01F0804F2416
:100AD00049822E5E384F4B27F901208142272B890E
:100AE0003C892E5E394FF901208142274A83FBA9B8
:100AF000BF272B893C892E5E384FF9012081B22710
:100B00002D893E892E5E394FF9012081B227BB83A2
:100B100029893A892E5E394F4BA94C25F901C080AD
:100B20004C252D893E892E5E384FF901C080E42F77
:100B3000EC25EC832F89388D2E5E384F4D2D4527BF
:100B4000F90120814227298D3A8D2E5E394FF90116
:100B5000208142274D83298D3A8D2E5E384F5A27AA
:100B6000F901208152272B8D3C8D2E5E394FF901E2
:100B7000208152275E83FCA9AF272B8D3C8D2E5EF2
:100B8000384FF90120812A27AD8DBE8DAE5EB94F59
:100B9000AC91A227AF83AF89B88DAE5EB94F7CA967
:100BA0007D25DC907D25AD8DBE8DAE5EB84FDC9091
:100BB0007D257887AF8DB8A1AE5EB84F2DA92925C8
:100BC0003C912327A9A1BAA1AE5EB94F3C9123273E
:100BD00029876DA9FEA96F27A9A1BAA1AE5EB84F5A
:100BE0002C916227ABA1BCA1AE5EB94F2C916227BC
:100BF0006A872F2F2A25EBA1FCA1EE5EF84FF0812A
:100C00002F27EDA1FEA1EE5EF94FF0812F272B8754
:100C1000A924EF8DF8A1EE5EF94F9080A924EDA1F3
:100C2000FEA1EE5EF84F9080A924AC86EFA1F8A556
:100C3000EE5EF84F202F282730812327E9A5FAA55B
:100C4000EE5EF94F308123272D878B25E9A5FAA584
:100C5000EE5EF84F20818227EBA5FCA5EE5EF94FF2
:100C6000208182278E87B926EBA5FCA5EE5EF84F82
:100C70008081B826EDA5FEA5EE5EF94F8081B826ED
:100C8000BF869027EFA1F8A5EE5EF94F008190276F
:100C9000EDA5FEA5EE5EF84F00819027988BB1017F
:100CA00089A99AA90E94F9021F5F20CE8FEFE9CE91
:100CB000AF92BF92CF92DF92EF92FF920F931F936A
:100CC000CF93DF936C015B01E9017A01E114F10438
:100CD00061F480E0DF91CF911F910F91FF90EF9031
:100CE000DF90CF90BF90AF900895B601CE010E94E3
:100CF000F902A801BE01CE010E94450491E0E91A63
:100D0000F10881110EC080E1FE01D50101900D9224
:100D10008A95E1F780E1C80ED11C90E1A90EB11CC3
:100D2000D5CF81E0D7CF2F923F924F925F926F92B3
:100D30007F928F929F92AF92BF92CF92DF92EF926B
:100D4000FF920F931F93CF93DF93CDB7DEB76697D4
:100D50000FB6F894DEBF0FBECDBF7B015A018A01EA
:100D600000511F4FD8014C91442309F461C2B0E1F6
:100D70004B9FA00111244A0D5B1DBC01FE01319661
:100D80006F01CF010E944703E981F0E0EE5EF74F6B
:100D900080818983ED81F0E0EE5EF74F80818D8365
:100DA000E985F0E0EE5EF74F80818987ED85F0E020
:100DB000EE5EF74F80818D87EE85AA85B0E0AE5E4E
:100DC000B74F8C918E87AE81B0E0AE5EB74F8C91FD
:100DD0008A87AA81B0E0AE5EB74F8C918E83F0E037
:100DE000EE5EF74F80818A83EB81AB85B0E0AE5E2B
:100DF000B74F8C918B83F0E0EE5EF74F80818B874D
:100E0000EF81AF85B0E0AE5EB74F8C918F83F0E09D
:100E1000EE5EF74F80818F87EC81A885B0E0AE5EF3
:100E2000B74F8C918C83AC85B0E0AE5EB74F8C91A0
:100E30008887A889B0E0AE5EB74F8C918C87F0E0D0
:100E4000EE5EF74F8081888BD8010C910150B0E1A4
:100E50000B9F800111240A0D1B1D0A151B05F9F4B7
:100E6000A801B601C7010E94470380E066960FB64D
:100E7000F894DEBF0FBECDBFDF91CF911F910F91D0
:100E8000FF90EF90DF90CF90BF90AF909F908F90AA
:100E90007F906F905F904F903F902F900895B80192
:100EA000C6010E94F9029D808E807F8068845984EB
:100EB0004A843B842C84ED85E98BFE85FA8B2F8553
:100EC0002B8B88898C8BE981F0E04A8150E02B8163
:100ED00030E08C8190E0BF016E5E7D4FDA01AE5E46
:100EE000BB4FBE8BAD8BDB016C91AD89BE897C9114
:100EF0006727D901AE5EBC4FAC916A27DC01AE5EBC
:100F0000BA4FAC91A627B0E0AE5EB74F6C91698343
:100F1000BF016E5E7A4FDA01AE5EBD4FBE8BAD8B08
:100F2000DB016C91AD89BE897C916727D901AE5EEA
:100F3000BB4FAC916A27DC01AE5EBC4FAC91A627DB
:100F4000B0E0AE5EB74F6C916E83BF016E5E7C4FBA
:100F5000DA01AE5EBA4FBE8BAD8BDB016C91AD8911
:100F6000BE897C916727D901AE5EBD4FAC916A27DF
:100F7000DC01AE5EBB4FAC91A627B0E0AE5EB74FD2
:100F80006C916B87EE5EFB4F4E5E5C4FE081DA0149
:100F90004C91E4272E5E3A4FD9012C91E2278E5EC8
:100FA0009D4FDC018C91E827F0E0EE5EF74F8081E9
:100FB000888B692D70E0482D50E0272D30E0862D7C
:100FC00090E0DB01AE5EBD4FFA01EE5EFB4FAC91EF
:100FD000E081EA27D901AE5EBC4FFC91EF27DC012E
:100FE000AE5EBA4FFC91EF27F0E0EE5EF74FE08186
:100FF000ED83DB01AE5EBA4FFA01EE5EFD4FAC91C0
:10100000E081EA27D901AE5EBB4FFC91EF27DC01FE
:10101000AE5EBC4FFC91EF27F0E0EE5EF74FE08153
:10102000EA87DB01AE5EBC4FFA01EE5EFA4FAC918F
:10103000E081EA27D901AE5EBD4FFC91EF27DC01CC
:10104000AE5EBB4FFC91EF27F0E0EE5EF74FE08124
:10105000EF876E5E7B4F4E5E5C4FDB01EC91DA01F9
:101060004C91E4272E5E3A4FD9012C91E2278E5EF7
:101070009D4FDC018C91E827F0E0EE5EF74F808118
:101080008C83652D70E0442D50E0232D30E0822DBF
:1010900090E0DB01AE5EBD4FFA01EE5EFB4FAC911E
:1010A000E081EA27D901AE5EBC4FFC91EF27DC015D
:1010B000AE5EBA4FFC91EF27F0E0EE5EF74FE081B5
:1010C000E987DB01AE5EBA4FFA01EE5EFD4FAC91EF
:1010D000E081EA27D901AE5EBB4FFC91EF27DC012E
:1010E000AE5EBC4FFC91EF27F0E0EE5EF74FE08183
:1010F000EE87DB01AE5EBC4FFA01EE5EFA4FAC91BB
:10110000E081EA27D901AE5EBD4FFC91EF27DC01FB
:10111000AE5EBB4FFC91EF27F0E0EE5EF74FE08153
:10112000EB836E5E7B4F4E5E5C4FDB01EC91DA0130
:101130004C91E4272E5E3A4FD9012C91E2278E5E26
:101140009D4FDC018C91E827F0E0EE5EF74F808147
:101150008887B9896B2F70E0EA894E2F50E0FB89B0
:101160002F2F30E0AC898A2F90E0DB01AE5EBD4FBF
:10117000FA01EE5EFB4FAC91E081EA27D901AE5E49
:10118000BC4FFC91EF27DC01AE5EBA4FFC91EF271C
:10119000F0E0EE5EF74FE081ED87DB01AE5EBA4F27
:1011A000FA01EE5EFD4FAC91E081EA27D901AE5E17
:1011B000BB4FFC91EF27DC01AE5EBC4FFC91EF27EB
:1011C000F0E0EE5EF74FE081EA83DB01AE5EBC4FFC
:1011D000FA01EE5EFA4FAC91E081EA27D901AE5EEA
:1011E000BD4FFC91EF27DC01AE5EBB4FFC91EF27BA
:1011F000F0E0EE5EF74FE081EF836E5E7B4F4E5E78
:101200005C4FDB01EC91DA014C91E4272E5E3A4F02
:10121000D9012C91E2278E5E9D4FDC018C91E8274D
:10122000F0E0EE5EF74F80818C870051110915CEFA
:101230008FEF1CCE8F929F92AF92BF92CF92DF9290
:10124000EF92FF920F931F93CF93DF93CDB7DEB74B
:1012500060970FB6F894DEBF0FBECDBF7C016B0167
:10126000922E832E5A01A114B10411F480E013C010
:1012700080E1F701DE01119601900D928A95E1F768
:10128000A801B601C7010E94930691E0A91AB1080E
:101290008823A1F081E060960FB6F894DEBF0FBE00
:1012A000CDBFDF91CF911F910F91FF90EF90DF9015
:1012B000CF90BF90AF909F908F900895692D782D1B
:1012C000C6010E94F90280E1FE013196A92DB82DD8
:1012D00001900D928A95E1F780E1E80EF11C90E112
:1012E000C90ED11CC0CF089546E85AE060E10C94C5
:1012F0009A0346E85AE0BC010C9445040895089509
:101300000895CDB7DEB760970FB6F894DEBF0FBE75
:10131000CDBF80E1E2E1FAE0DE01119601900D928D
:101320008A95E1F70E948F02519A0E947309CE01BB
:1013300001960E9474090E948F0140EC50E060E128
:1013400070E08BE60E948C0144EC50E060E170E0BC
:1013500080E70E948C0141EB50E070E060E088E79C
:101360000E948C0121E04CEB50E062E170E08DE6E0
:101370000E94670143EB50E062E070E083E70E9467
:101380008C014EED50E060E170E086E60E948C0139
:101390000E94C401FDCF991B79E004C0991F9617E4
:1013A00008F0961B881F7A95C9F780950895FB0170
:1013B000DC0102C001900D9241505040D8F70895D1
:0413C000F894FFCFCF
:1013C4000A003031323334353637383941424344F8
:1013D4004546000E1C123836242A707E6C6248463C
:1013E400545AE0EEFCF2D8D6C4CA909E8C82A8A6C9
:1013F400B4BADBD5C7C9E3EDFFF1ABA5B7B9939D8B
:101404008F813B352729030D1F114B455759737D98
:101414006F61ADA3B1BF959B8987DDD3C1CFE5EBE8
:10142400F9F74D43515F757B69673D33212F050BF8
:10143400191776786A644E40525C06081A143E30D6
:10144400222C96988A84AEA0B2BCE6E8FAF4DED0E8
:10145400C2CC414F5D537977656B313F2D2309072A
:10146400151BA1AFBDB39997858BD1DFCDC3E9E738
:10147400F5FB9A948688A2ACBEB0EAE4F6F8D2DC16
:10148400CEC07A746668424C5E500A041618323C28
:101494002E20ECE2F0FED4DAC8C69C92808EA4AA78
:1014A400B8B60C02101E343A28267C72606E444A88
:1014B400585637392B250F01131D47495B557F714A
:1014C400636DD7D9CBC5EFE1F3FDA7A9BBB59F9158
:1014D400838D000D1A1734392E236865727F5C5191
:1014E400464BD0DDCAC7E4E9FEF3B8B5A2AF8C81A0
:1014F400969BBBB6A1AC8F829598D3DEC9C4E7EAAC
:10150400FDF06B66717C5F524548030E1914373A3F
:101514002D206D60777A5954434E05081F12313CD3
:101524002B26BDB0A7AA8984939ED5D8CFC2E1EC5F
:10153400FBF6D6DBCCC1E2EFF8F5BEB3A4A98A87EB
:10154400909D060B1C11323F28256E6374795A57FF
:10155400404DDAD7C0CDEEE3F4F9B2BFA8A5868B2F
:101564009C910A07101D3E332429626F7875565BDF
:101574004C41616C7B7655584F420904131E3D3033
:10158400272AB1BCABA685889F92D9D4C3CEEDE0FF
:10159400F7FAB7BAADA0838E9994DFD2C5C8EBE64B
:1015A400F1FC676A7D70535E49440F0215183B369F
:1015B400212C0C01161B3835222F64697E73505D73
:1015C4004A47DCD1C6CBE8E5F2FFB4B9AEA3808DBF
:1015D4009A97000B161D2C273A3158534E45747FA9
:1015E4006269B0BBA6AD9C978A81E8E3FEF5C4CFDF
:1015F400D2D97B706D66575C414A2328353E0F046F
:101604001912CBC0DDD6E7ECF1FA9398858EBFB4FE
:10161400A9A2F6FDE0EBDAD1CCC7AEA5B8B38289B6
:10162400949F464D505B6A617C771E1508033239DE
:10163400242F8D869B90A1AAB7BCD5DEC3C8F9F22E
:10164400EFE43D362B20111A070C656E737849427E
:101654005F54F7FCE1EADBD0CDC6AFA4B9B283880E
:10166400959E474C515A6B607D761F14090233389E
:10167400252E8C879A91A0ABB6BDD4DFC2C9F8F3EE
:10168400EEE53C372A21101B060D646F727948433E
:101694005E55010A171C2D263B3059524F44757E66
:1016A4006368B1BAA7AC9D968B80E9E2FFF4C5CE1E
:1016B400D3D87A716C67565D404B2229343F0E05AE
:1016C4001813CAC1DCD7E6EDF0FB9299848FBEB53E
:1016D400A8A30009121B242D363F48415A536C65B8
:1016E4007E779099828BB4BDA6AFD8D1CAC3FCF5DE
:1016F400EEE73B3229201F160D04737A6168575EAA
:10170400454CABA2B9B08F869D94E3EAF1F8C7CEFD
:10171400D5DC767F646D525B40493E372C251A1325
:101724000801E6EFF4FDC2CBD0D9AEA7BCB58A83DD
:1017340098914D445F5669607B72050C171E2128F1
:10174400333ADDD4CFC6F9F0EBE2959C878EB1B87D
:10175400A3AAECE5FEF7C8C1DAD3A4ADB6BF80896D
:10176400929B7C756E6758514A43343D262F10195D
:10177400020BD7DEC5CCF3FAE1E89F968D84BBB2A9
:10178400A9A0474E555C636A71780F061D142B227D
:1017940039309A938881BEB7ACA5D2DBC0C9F6FFB5
:1017A400E4ED0A0318112E273C35424B5059666F5D
:1017B400747DA1A8B3BA858C979EE9E0FBF2CDC4F1
:1017C400DFD63138232A151C070E79706B625D54FD
:1017D4004F46A584998D0DBDB1545003A97D19625E
:1017E400E69A459D408715EBC90BEC67FDEABFF708
:1017F400965BC21CAE6A5A41024F5CF43408937380
:10180400533F0C52655E28A10FB509369B3D2669EE
:10181400CD9F1B9E742E2DB2EEFBF64D61CE7B3E0A
:101824007197F568002C601FC8EDBE46D94BDED415
:10183400E84A6B2AE516C5D75594CF100681F044C3
:10184400BAE3F3FEC08AADBC4804DFC17563301A45
:101854000E6D4C14352FE1A2CC3957F28247ACE718
:101864002B95A098D17F667EAB83CA29D33C79E2BD
:101874001D763B564E1EDB0A6CE45D6EEFA6A8A4F3
:10188400378B324359B78C64D2E0B4FA0725AF8E54
:10189400E918D5886F7224F1C751237C9C21DDDCC3
:1018A40086859042C4AAD8050112A35FF9D0915845
:1018B40027B93813B333BB7089A7B622922049FFE6
:1018C400787A8FF88017DA31C6B8C3B07711CBFCB9
:1018D400D63AC6F8EEF6FFD6DE916002CE56E7B5EC
:1018E4004DEC8F1F89FAEFB28EFB41B35F45235352
:1018F400E49B75E13D4C6C7EF5836851D1F9E2AB14
:10190400622A0895469D30370A2F0E241BDFCD4EE0
:101914007FEA121D583436DCB45BA476B77D52DD01
:101924005E13A6B900C140E379B6D48D677294986A
:10193400B085BBC54FED869A66118AE904FEA0788E
:10194400254BA25D80053F2170F16377AF4220E50E
:10195400FDBF811826C3BE35882E9355FC7AC8BABC
:1019640032E6C0199EA344543B0B8CC76B28A7BC1A
:1019740016ADDB647414920C48B89FBD43C439316E
:10198400D3F2D58B6EDA01B19C49D8ACF3CFCAF44B
:1019940047106FF04A5C38577397CBA1E83E9661C5
:1019A4000D0FE07C71CC9006F71CC26AAE691799E2
:1019B4003A27D9EB2B22D2A907332D3C15C987AA84
:1019C40050A50359091A65D784D082295A1E7BA8C9
:1019D4006D2C52096AD53036A538BF40A39E81F3D9
:1019E400D7FB7CE339829B2FFF87348E4344C4DECC
:1019F400E9CB547B9432A6C2233DEE4C950B42FABC
:101A0400C34E082EA16628D924B2765BA2496D8BF9
:101A1400D12572F8F66486689816D4A45CCC5D650A
:101A2400B6926C704850FDEDB9DA5E154657A78D35
:101A34009D8490D8AB008CBCD30AF7E45805B8B3A6
:101A44004506D02C1E8FCA3F0F02C1AFBD03011340
:101A54008A6B3A9111414F67DCEA97F2CFCEF0B42A
:101A6400E67396AC7422E7AD3585E2F937E81C7568
:101A7400DF6E47F11A711D29C5896FB7620EAA1866
:101A8400BE1BFC563E4BC6D279209ADBC0FE78CDF5
:101A94005AF41FDDA8338807C731B11210592780C3
:101AA400EC5F60517FA919B54A0D2DE57A9F93C962
:101AB4009CEFA0E03B4DAE2AF5B0C8EBBB3C835392
:101AC4009961172B047EBA77D626E16914635521F0
:101AD4000C7D637C777BF26B6FC53001672BFED77F
:101AE400AB76CA82C97DFA5947F0ADD4A2AF9CA4A3
:101AF40072C0B7FD9326363FF7CC34A5E5F171D813
:101B0400311504C723C31896059A071280E2EB2700
:101B1400B27509832C1A1B6E5AA0523BD6B329E323
:101B24002F8453D100ED20FCB15B6ACBBE394A4C03
:101B340058CFD0EFAAFB434D338545F9027F503C83
:101B44009FA851A3408F929D38F5BCB6DA2110FFAF
:101B5400F3D2CD0C13EC5F974417C4A77E3D645DAC
:101B6400197360814FDC222A908846EEB814DE5E39
:101B74000BDBE0323A0A4906245CC2D3AC6291958D
:101B8400E479E7C8376D8DD54EA96C56F4EA657AC9
:101B9400AE08BA78252E1CA6B4C6E8DD741F4BBD6A
:101BA4008B8A703EB5664803F60E613557B986C117
:101BB4001D9EE1F8981169D98E949B1E87E9CE5534
:101BC40028DF8CA1890DBFE6426841992D0FB054DE
:101BD400BB162B7E151628AED2A6ABF7158809CFF7
:041BE4004F3C000072
:00000001FF
