:100000000080002079070000A5070000A507000078
:10001000A5070000A5070000A5070000A507000030
:10002000A5070000A5070000A5070000A507000020
:10003000A5070000A5070000A5070000A507000010
:10004000A5070000A5070000A5070000A507000000
:10005000A5070000A5070000A5070000A5070000F0
:10006000A5070000A5070000A5070000A5070000E0
:10007000A5070000A5070000A5070000A5070000D0
:10008000A5070000A5070000A5070000A5070000C0
:10009000A5070000A5070000A5070000A5070000B0
:1000A000A5070000A5070000A5070000A5070000A0
:1000B000A5070000A5070000A5070000A507000090
:1000C0000448054B10B5834203D0044B002B00D0ED
:1000D000984710BD78010020780100200000000042
:1000E00006480749091A8910CB0F591810B549104D
:1000F00003D0044B002B00D0984710BD780100209E
:10010000780100200000000010B5074C2378002B78
:1001100009D1FFF7D5FF054B002B02D0044800E0C2
:1001200000BF0123237010BD7801002000000000F3
:10013000740B0000054B10B5002B03D00449054893
:1001400000E000BFFFF7CCFF10BDC046000000007C
:100150007C010020740B0000144B002B00D1124BCB
:100160009D46402292029A1A924600218B460F46E3
:100170001148124A121A00F0B7FB0D4B002B00D0A9
:1001800098470C4B002B00D098470020002104001A
:100190000D000B4800F008FB00F03EFB200029009A
:1001A00000F02EF800F008FB00000800008000209E
:1001B0000000000000000000780100208003002003
:1001C000E50700000020704710B500F0D4FA0020C9
:1001D00010BD10B500F0C7FA002010BD70B50400C6
:1001E0000D0000F0A9F92900200000F0C0FA00F08D
:1001F0009BF922001021722000F0AAF8002070BDA7
:100200001FB510221D49684600F02AFB00F014F9C2
:1002100000F028F900F076F900F0A4FA1021684601
:1002200000F0A1FA682000F059F9652000F056F9B5
:100230006C2000F053F96C2000F050F96F2000F0B2
:100240004DF90A2000F04AF900F078F80C4A102124
:100250006B2000F06DF80B4A1021702000F068F858
:10026000094A0021782000F063F80123074A26217B
:100270006D2000F045F800F089F8FCE7500B000015
:10028000D3010000DD010000C5010000C90100002C
:10029000002070470300303BDBB2092B01D858B275
:1002A00070470300413B052B02D8373840B2F7E7CF
:1002B0000300613B052B01D85738F7E70120404286
:1002C000EEE7F7B517000C0016000190019AF31B3A
:1002D0009A4201DC0020FEBD2078FFF7DBFF05001D
:1002E0006078FFF7D7FF002807DB0234002D04DB1E
:1002F0002D01281830700136E8E70120EBE70000F7
:10030000F0B5094E070035680120092D0BDC3F29A7
:1003100009D8064C280107552018416082600373F4
:10032000002001353560F0BD34020020940100202A
:1003300010B50023FFF7E4FF10BD000010B5034A1D
:1003400000217620FFF7F4FF10BDC04691020000A7
:10035000F7B5150001912C0000F0C0F80F27019AA5
:10036000631B9A4203DC0A2000F0B8F8F7BD23783B
:10037000054E1B09F05C00F0B1F8237801343B40D6
:10038000F05C00F0ABF8EAE7600B0000F0B5B3B04A
:10039000002500F0ADF8254B25491A68AA4234DC47
:1003A00031D0234E2D0177193B7BDB070CD500F0B4
:1003B0009FF8FFF76FFF0001C4B200F099F8FFF754
:1003C00069FF2418E4B27C60002473195B685B0049
:1003D000A34220D800F08CF80A2801D00D2812D1B1
:1003E0007619756802AA12A92800FFF76AFF00288B
:1003F00009D1E9B2B36802A8984701AA1070012197
:100400007A20FFF7A5FF33B0F0BD2C010C5D8442CC
:10041000C7D00135C2E700F06BF80A28F3D00D28E9
:10042000F1D012ABE0540134CFE7C04634020020D3
:10043000940100207047000010B503220749084BC3
:1004400008005A6201321A660C681442FCD0082275
:1004500001681142FCD002225A6710BD90400E4044
:1004600000400E4030B50123144A154811680400BD
:100470000B4313600423134A11680B431360A0223B
:10048000114B52011A6080220021104BD2001A60D9
:100490000F4B104A19605A600F4A5A6103225A677B
:1004A00099670531D9600568154204D01023226888
:1004B0001A42FCD130BDD960F5E7C046C0400E40BD
:1004C00010000140B0400E40C8800840CC80084079
:1004D0000000014005100000FF0A00004022034B0D
:1004E00019691142FCD058637047C04600000140B2
:1004F0008022034B19691142FCD0D869C0B2704701
:10050000000001400423064A11680B431360802257
:100510004021044BD2045A63DA6B8A43DA63704792
:10052000B0400E40008008404021024AD36B8B430C
:10053000D3637047008008404023024AD16B0B43CD
:10054000D363704700800840F7B5254B254A1B68E8
:100550001900103118781070587850709878907091
:10056000D8780433D07004328B42F3D104211E4A70
:100570001E4801AB0024165DE6540134042CFAD168
:10058000013C21420FD19D781E78455D865D5C78E7
:100590005D70174DDF78DE708E08045DAE5DC75D5F
:1005A00074409F701C7014000C3C24781E7801313C
:1005B0007440147114000B3C5E78247874405471BC
:1005C00014000A3C9E782478744094711400093C0D
:1005D0002478DE7804327440D4702C29CAD1F7BD57
:1005E000380200203C020020480200200B000020BE
:1005F0000000002030B50A4B00011A68094B1400B6
:10060000C01810340023D15CC55C6940D15401335B
:10061000042BF8D104320430A242F3D130BDC046DD
:10062000EC0200203C02002030B5084B084C1B684F
:10063000181D19001A0010311578655D1570043207
:100640008A42F9D101338342F3D130BDEC0200205C
:100650000B0000200D4B1B6859795A785970597A54
:100660005971597B5A735972997A9A789970997B12
:100670009A729A799971D97B9A73DA78D970D97A02
:10068000D973D979DA71D9727047C046EC0200206B
:100690001B23C209534340005840C0B270470000BA
:1006A000F0B587B00020FFF7A5FF0125FFF7BCFFDD
:1006B000FFF7D0FF224B1C682300103305932378EB
:1006C000667801931800A37870400293E37803934F
:1006D000039A029B53401F0004934740FFF7D8FF43
:1006E000019B58407840207002987040FFF7D0FF7F
:1006F00046407E4066700498FFF7CAFF029B584050
:100700007840A070039B01985840FFF7C1FF039BFE
:1007100058404740059BE77004349C42CFD12800E5
:100720000135EDB2FFF766FF0A2DBFD1FFF77CFF61
:10073000FFF790FF2800FFF75DFF07B0F0BDC04650
:10074000EC02002010B5024B1860FFF7FDFE10BD53
:100750003802002010B5024B1860FFF7A1FF10BD52
:10076000EC020020704710B5FFF7ECFF10BD10B58C
:10077000FFF7F0FF10BD7047064880470649074A5B
:10078000074B9B1A03DD043BC858D050FBDCFFF736
:10079000E3FC000035040000800B00000000002096
:1007A00078010020FEE7C04610B5010000230022BA
:1007B000002000F0E7F810BD084B10B50400002B36
:1007C00002D0002100F04CF9054B1868836A002B19
:1007D00000D09847200000F0ADF9C046610A000043
:1007E000700B000070B5094B094CE41AA41009D035
:1007F000084AA518AD00ED182B68013C9847043D48
:10080000002CF9D100F09EF970BDC04674010020A3
:1008100078010020FFFFFF3F70B50D4E0D4DAD1B61
:10082000AD1006D00024A300F35801349847A54228
:10083000F9D100F081F9084E084DAD1BAD1006D07E
:100840000024A300F35801349847A542F9D170BDA4
:100850007001002070010020700100207401002050
:10086000F0B50F2A38D90D0005430C000300AD0781
:1008700036D110271500BC46103D2D092E01361823
:10088000B444276866681F605E60A768E6689F607A
:10089000DE60103310346345F3D10F2401352D0190
:1008A000491914404519032C1CD90023CE58EE5089
:1008B0000433E61A032EF9D80323043CA4080134B8
:1008C000A4002D1909191A4005D00023CC5CEC5462
:1008D00001339342FAD1F0BD0500002AF5D1FAE7C1
:1008E0000500F2E72200F8E7F0B5830746D0541E72
:1008F000002A42D0CEB20200032502E01A00013CD9
:100900003BD3531C16702B42F8D1032C2DD9FF2258
:100910000A40150215432A0415430F2C16D9270047
:10092000103F3F093E01B4461E001A0010366644CF
:10093000156055609560D5601032B242F8D10F2233
:1009400001373F01DB191440032C0ED9261FB608CE
:10095000B700BC461A001F1D674420C2BA42FCD132
:1009600003220136B6009B191440002C05D0C9B2F1
:100970001C19197001339C42FBD1F0BD1400030017
:10098000C3E7C046F0B546464F46D646C0B51F0041
:100990002F4B82B01C6805000E009046002C2DD015
:1009A00063681F2B50DC002D1CD08822A058914674
:1009B000002834D07832825894469A009146814477
:1009C000424649460A600121624699400A439446DC
:1009D00080228A466146520081504946803A8F50B3
:1009E000022D16D000205A1C02339B0062601E515B
:1009F00002B01CBC90469946A246F0BD154C1C6046
:100A0000154B002BCCD01B6801938823019AE25030
:100A1000C6E75546843281580D438550E2E70F4BB7
:100A2000002B11D08420400000E000BF00280BD034
:100A30008022002352008350043283504B46002210
:100A4000E05094466368B8E701204042D0E7C046D2
:100A50007C030020F00200200000000000000000E5
:100A6000F0B5DE4657464E464546E0B5304B85B0BC
:100A70001F6803909B460E00002F34D08823FB583C
:100A800098467B685C1E2ED49B00994643464B4497
:100A9000019300250AE04346002B04D0019B5B191B
:100AA000DB6FB34204D0043D013C1CD3002EF2D1D5
:100AB0004B467968EB18FB1801395A68A14231D0CE
:100AC00000215960002AEED07B689A464346002BED
:100AD00010D190475B467A681B68524501D1BB42F2
:100AE000E1D01F1ECAD105B03CBC90469946A24633
:100AF000AB46F0BD012380204146A3404000095889
:100B000002911942E5D00198291F415840468C4670
:100B10008221490041580291194205D1614603984A
:100B20009047D7E77C60CDE760469047D2E7C04664
:100B30007C030020FEE7C046F8B5C046F8BC08BC00
:100B40009E467047F8B5C046F8BC08BC9E46704744
:100B50002B7E151628AED2A6ABF7158809CF4F3CD1
:100B600030313233343536373839414243444546E3
:080B700010010020000000004C
:080B7800E0F5FF7F0100000021
:100B80008D01020408102040801B36637C777BF2C5
:100B90006B6FC53001672BFED7AB76CA82C97DFA71
:100BA0005947F0ADD4A2AF9CA472C0B7FD932636CE
:100BB0003FF7CC34A5E5F171D8311504C723C3182C
:100BC00096059A071280E2EB27B27509832C1A1B4F
:100BD0006E5AA0523BD6B329E32F8453D100ED20A7
:100BE000FCB15B6ACBBE394A4C58CFD0EFAAFB436D
:100BF0004D338545F9027F503C9FA851A3408F9209
:100C00009D38F5BCB6DA2110FFF3D2CD0C13EC5FA2
:100C1000974417C4A77E3D645D197360814FDC2241
:100C20002A908846EEB814DE5E0BDBE0323A0A49C1
:100C300006245CC2D3AC629195E479E7C8376D8D28
:100C4000D54EA96C56F4EA657AAE08BA78252E1C02
:100C5000A6B4C6E8DD741F4BBD8B8A703EB56648EE
:100C600003F60E613557B986C11D9EE1F8981169EA
:100C7000D98E949B1E87E9CE5528DF8CA1890DBFA4
:100C8000E6426841992D0FB054BB160010010020B8
:100C90000000000000000000000000000000000054
:100CA0000000000000000000000000000000000044
:100CB0000000000000000000000000000000000034
:100CC0000000000000000000000000000000000024
:100CD0000000000000000000000000000000000014
:100CE0000000000000000000000000000000000004
:080CF0003501000009010000BC
:020000040FE00B
:0441E800FDFFFFFFD9
:040000030000077979
:00000001FF
