:100000000C948D010C94B3010C94B3010C94B301C6
:100010000C94B3010C94B3010C94B3010C94B30190
:100020000C94B3010C94B3010C94B3010C94B30180
:100030000C94B3010C94B3010C94B3010C94B30170
:100040000C94B3010C94B3010C94B3010C94B30160
:100050000C94B3010C94B3010C94B3010C94B30150
:100060000C94B3010C94B3010C94B3010C94B30140
:100070000C94B3010C94B3010C94B3010C94B30130
:100080000C94B3010C94B3010C94B3010C94B30120
:100090000C94B3010C94B3010C94B3010C94B30110
:1000A0000C94B3010C94B3010C94B3010C94B30100
:1000B0000C94B3010C94B3010C94B3010C94B301F0
:1000C0000C94B3010C94B3010C94B3010C94B301E0
:1000D0000C94B3010C94B3010C94B3010C94B301D0
:1000E0000C94B3010C94B3010C94B3010C94B301C0
:1000F0000C94B3010C94B3010C94B3010C94B301B0
:100100000C94B3010C94B3010C94B3010C94B3019F
:100110000C94B3010C94B3010C94B3010C94B3018F
:100120000C94B3010C94B3010C94B3010C94B3017F
:100130000C94B3010C94B3010C94B3010C94B3016F
:100140000C94B3010C94B3010C94B3010C94B3015F
:100150000C94B3010C94B3010C94B3010C94B3014F
:100160000C94B3010C94B3010C94B3010C94B3013F
:100170000C94B3010C94B3010C94B3010C94B3012F
:100180000C94B3010C94B3010C94B3010C94B3011F
:100190000C94B3010C94B3010C94B3010C94B3010F
:1001A0000C94B3010C94B3010C94B3010C94B301FF
:1001B0000C94B3010C94B3010C94B3010C94B301EF
:1001C0000C94B3010C94B3010C94B3010C94B301DF
:1001D0000C94B3010C94B3010C94B3010C94B301CF
:1001E0000C94B3010C94B3010C94B3010C94B301BF
:1001F0000C94B3010C94B3010C94B3010C94B501AD
:100200000C94BB010C94DC010C94BF010C94B7015D
:1002100001020408102040801B36637C777BF26B60
:100220006FC53001672BFED7AB76CA82C97DFA59FC
:1002300047F0ADD4A2AF9CA472C0B7FD9326363F61
:10024000F7CC34A5E5F171D8311504C723C318964E
:10025000059A071280E2EB27B27509832C1A1B6EF0
:100260005AA0523BD6B329E32F8453D100ED20FC92
:10027000B15B6ACBBE394A4C58CFD0EFAAFB434D95
:10028000338545F9027F503C9FA851A3408F929D32
:1002900038F5BCB6DA2110FFF3D2CD0C13EC5F9722
:1002A0004417C4A77E3D645D197360814FDC222A28
:1002B000908846EEB814DE5E0BDBE0323A0A49065F
:1002C000245CC2D3AC629195E479E7C8376D8DD5D3
:1002D0004EA96C56F4EA657AAE08BA78252E1CA6AB
:1002E000B4C6E8DD741F4BBD8B8A703EB56648030B
:1002F000F60E613557B986C11D9EE1F8981169D98E
:100300008E949B1E87E9CE5528DF8CA1890DBFE610
:10031000426841992D0FB054BB1611241FBECFEF78
:10032000CDBFDFE3DEBF00E00CBF18BE19BE1ABEB2
:100330001BBE10E2A0E0B0E2ECE0F2E100E00BBF97
:1003400002C007900D92A032B107D9F71BBE20E280
:10035000A0E2B0E201C01D92A436B207E1F70E940C
:10036000AB080C9404090C94000080E008950E94EE
:10037000950680E008950E94910680E00895FF921E
:100380000F931F93CF93DF93EC0100E016E0FF245F
:10039000F394F801F5820E949306F801F682AE010B
:1003A00060E170E082E70E944D0280E0DF91CF9132
:1003B0001F910F91FF90089580E00895DB01FA01ED
:1003C0009F01241B350B28173907D4F52C91119662
:1003D0003C91119760ED630F6A3010F460830FC099
:1003E0006FEB630F663010F4375308C06FE9630F8B
:1003F000663018F081E090E008953755308330ED95
:10040000320F3A3018F42295207F14C03FEB320FA0
:10041000363020F430E02753310907C03FE9320F6E
:10042000363040F730E02755310964E0220F331FA2
:100430006A95E1F73081232B208331961296C0CF45
:1004400080E090E0089520912020309121202B30F1
:100450003105CCF461347105B0F495E0929FF00160
:10046000939FF00D1124EE5DFF4D808361837283B5
:10047000438354832F5F3F4F2093202030932120CC
:1004800080E090E0089581E090E008954CED51E027
:1004900060E070E086E70C942302CF92DF92EF9247
:1004A000FF920F931F93CF93DF938B01EA010E947A
:1004B000CF057E01C7018C1B9D0B80179107B4F4FB
:1004C0006701D701ED917D01E295EF70F0E0E05F0B
:1004D000FF4D80810E94CF05D601EC91EF70F0E0D6
:1004E000E05FFF4D80810E94CF05E4CF8AE0DF917D
:1004F000CF911F910F91FF90EF90DF90CF900C94D0
:10050000CF05AF92BF92CF92DF92EF92FF920F93FF
:100510001F93CF93DF93CDB7DEB7C15CD109CDBFB9
:10052000DEBF0E94C805409120205091212022E288
:1005300030E200E010E00417150754F42B5F3F4F42
:10054000F90135979081891739F00F5F1F4FF3CF6D
:100550000417150709F454C09E012F5F3F4F79011E
:10056000690125E0209FC001219F900D1124DC012D
:10057000AD5DBF4D5D01D5018D919C91880F991F97
:1005800096012E193F092817390750F40E94C80513
:100590008A30B1F18D30A1F1F60181936F01EBCF7B
:1005A0000E94C8058A3011F08D3051F525E0209F5A
:1005B000C001219F900D11248C010E5D1F4DAE01D5
:1005C0004F575F4FB701F801818192810E94DE0190
:1005D000892BB1F4D8011396ED91FC911497CE01BB
:1005E0008F579F4F1995CF53DF4F8883C15CD04001
:1005F000AE014F535F4F61E070E08AE70E944D0209
:10060000CF53DF4FCDBFDEBFDF91CF911F910F9151
:10061000FF90EF90DF90CF90BF90AF900895CF9272
:10062000EF920F931F93FC01E086E1864683578388
:10063000608371832283338304831583C2861F9171
:100640000F91EF90CF900895FC0181E88093C10055
:100650006093C4008285882321F08091C00080616E
:1006600003C08091C0008F7E8093C000208592815E
:100670008381A92FB82FCD014096223030F12285F9
:10068000211123C02D912093C3008A179B07D1F716
:10069000A081B181CD0140962D912093C2008A178F
:1006A0009B07D1F7808391838091C00084648093FD
:1006B000C0000480F581E02DCF0140962191209368
:1006C000C2008E179F07D1F718C02C912093C3004A
:1006D0001196A817B907C9F78091C000806480936C
:1006E000C000A081B181CD0140962D912093C20020
:1006F0008A179B07D1F7808391838091C1008095F1
:10070000881F8827881F0895FC018285811127C0D2
:10071000A681B781CD0140962091C2002D938A1702
:100720009B07D1F7868397838185815081878823B2
:1007300009F469C0A281B381CD0140962D91209327
:10074000C3008A179B07D1F7A081B181CD014096E4
:100750002D912093C2008A179B07D1F752C0808544
:10076000813061F40680F781E02DCF014096209121
:10077000C20021938E179F07D1F708958091C00082
:100780008B7B84608093C00091858085981303C023
:10079000A481B58103C0A081B1819097CD0140961D
:1007A0002D912093C2008A179B07D1F7A681B781AC
:1007B000CD0140962091C2002D938A179B07D1F757
:1007C000868397838185815081878823E1F080919A
:1007D000C0008B7B80648093C000A281B381CD0177
:1007E00040962D912093C3008A179B07D1F7A081D3
:1007F000B181CD0140962D912093C2008A179B07AD
:10080000D1F780839183089521E0FC0181858111D6
:1008100020E0822F08959A01205F3F4FDA01ED9189
:10082000AD01E093C3002A173B07C1F7FC014096D6
:1008300021912093C2008E179F07D1F78091C000AD
:100840008F7680688093C0008091C1008178E1F349
:100850008091C10087FD0BC0FB01CB014096209128
:10086000C20021938E179F07D1F781E0089580E0A1
:1008700008959A01205F3F4FDA01ED91AD01E093B9
:10088000C3002A173B07C1F7FC0140962191209332
:10089000C2008E179F07D1F78091C00080698093B6
:1008A000C0008091C1008178E1F38091C10087FD93
:1008B0000BC0FB01CB0140962091C20021938E1703
:1008C0009F07D1F781E0089580E0089520E220930A
:1008D000C0009C01205F3F4FFC014191CF0140933C
:1008E000C300E217F307C1F780E11092C200815004
:1008F000E1F78091C0008F7680688093C00080917E
:10090000C1008178E1F38091C10087FD0DC0FB013A
:10091000CB0140962091C3002193E817F907D1F746
:1009200081E08093C100089580E88093C10080E059
:1009300008950F93DC01F901C9014096219120939C
:10094000C2008E179F07D1F79091C0009B7A9464E4
:100950009093C00081E09A01205F3F4F002321F176
:10096000FA0191919093C3002E173F07D1F7FD0133
:10097000509691919093C200AE17BF07D1F7909116
:10098000C1009178E1F39091C10097FD0AC0FB018D
:10099000605F7F4F9091C2009193E617F707D1F700
:1009A00001C080E00150DACF9091C0009B7B909312
:1009B000C0000F910895BF92CF92DF92EF92FF9205
:1009C0000F931F93CF93DF93D901302FBB24B394A0
:1009D000EA0160967D0120E1E20EF11C332309F467
:1009E00048C0FA0121912093C300CE17DF07D1F749
:1009F0006C0120E1C20ED11CFC0121912093C200A8
:100A0000CE16DF06D1F72091C00024692093C000E4
:100A10002091C1002178E1F32091C10027FD25C07C
:100A2000E32FF0E00E171F0781F4FD018191809301
:100A3000C200EE16FF06D1F79091C0009B7F909305
:100A4000C000FB01605F7F4F09C0FC0170972191DE
:100A50002093C2008E179F07D1F7EECF8091C2007E
:100A600081936E177F07D1F701C0B12C3150C601B9
:100A7000B5CF8B2DDF91CF911F910F91FF90EF900C
:100A8000DF90CF90BF9008958093C40008959C019B
:100A9000205F3F4FFC014191CF014093C2002E17D0
:100AA0003F07C1F78091C0008F7680688093C000B7
:100AB0008091C1008178E1F38091C10087FD0BC076
:100AC000FB01CB0140962091C2002193E817F90762
:100AD000D1F781E0089580E008959C01205F3F4FA9
:100AE000FC014191CF014093C2002E173F07C1F78F
:100AF0008091C00080698093C0008091C10081789E
:100B0000E1F38091C10087FD0BC0FB01CB01409652
:100B10002091C2002193E817F907D1F781E00895E9
:100B200080E00895E0E4F6E088E0818384E0828359
:100B3000E0EAF8E083E085838BE086831782848196
:100B4000806184838481886084830895CF93DF9358
:100B50001F921F92CDB7DEB769837A8320E030E021
:100B600049815A812417350769F04091A10847FF50
:100B700006C02091A008FC01208381E004C02F5F03
:100B80003F4FEECF80E00F900F90DF91CF9108950F
:100B90008091A10887FFFCCF8091A00808959091D3
:100BA000A10895FFFCCF8093A0080895FC01608305
:100BB0007183428314861386168615860895FC0178
:100BC00062830895FC01958526859F5F937081E07F
:100BD000921301C080E008951F93CF93DF93EC013F
:100BE000162F0E94E205882379F09D85FE01E90F0A
:100BF000F11D17839F5F93709D87E881F981938131
:100C00009C7F2A81922B9383DF91CF911F9108952E
:100C1000FC012385948581E0291301C080E00895BB
:100C2000FC018485DF01A80FB11D13968C9194857A
:100C30009F5F937094870895FC0183858F5F837015
:100C40002485A081B1819C91821749F02385DF0121
:100C5000A20FB11D13969C93838781E0089580E0D5
:100C60000895CF93DF93FC0196858585A081B1819E
:100C7000981307C013968C9113978C7F13968C93BF
:100C80000AC08685EF01C80FD11D8F818C938685A0
:100C90008F5F83708687DF91CF910895FC018481F7
:100CA00070FF02C0816001C08E7F848360830895DD
:100CB000FC01848180FF04C0808190E091600895F0
:100CC000808190E00895109252001092550080911A
:100CD00050008860809350008091510083FFFCCFCA
:100CE00088ED84BF83E08093400088E080935000CB
:100CF00080E6809301068093050608950895E4E553
:100D0000F0E2DC012D91CD012193B0E2E436FB0746
:100D1000C1F7089544E550E2BC010C940B040C9417
:100D20007E060C947F060C948A060895CF93DF9379
:100D300000D01F92CDB7DEB7DC018C918983149669
:100D40008C9114978A8318968C9118978B831C9694
:100D50008C911C978C83862F8370E1E0F0E0EC0F80
:100D6000FD1FE80FF11D80818C9370E0FB0131962F
:100D7000E370FF2781E090E08C0F9D1FE80FF91FC3
:100D8000808114968C931497FB013296E370FF27B1
:100D900081E090E08C0F9D1FE80FF91F808118966D
:100DA0008C931897FB013396E370FF2781E090E066
:100DB0008C0F9D1FE80FF91F80811C968C93249641
:100DC000CDBFDEBFDF91CF9108952F923F924F921A
:100DD0005F926F927F928F929F92AF92BF92CF92CB
:100DE000DF92EF92FF920F931F93CF93DF93CDB7D4
:100DF000DEB76397CDBFDEBF7C015B01242EDB0134
:100E00008A8B9B8B2C0120E1420E511CFC018D91A1
:100E1000908189278193E415F505C9F7450130E1F3
:100E2000830E911C81E0898B3E01A1E16A0E711C49
:100E300021E0221508F081C08E010F5F1F4FD801FD
:100E4000C701FC012191CF01E22FF0E0E65EFD4FEA
:100E5000E491ED93A615B705A1F761E0CE010296E6
:100E60000E94960662E0CE0103960E94960663E019
:100E7000CE0104960E9496066701D8016C911196E6
:100E80008C911197682712963C90129713968C912B
:100E9000382636264BE182E00E949E08F8019081B8
:100EA00089278325D6018C936181828168274BE154
:100EB00082E00E949E08F801918189278325D6014E
:100EC00011968C936281838168274BE182E00E94B6
:100ED0009E08F801928189278325D60112968C936A
:100EE0006381808168274BE182E00E949E08F801BF
:100EF000938189273826D60113963C920C5F1F4FA9
:100F0000B4E0CB0ED11C0615170509F0B6CFF701DA
:100F100080E090E0D401A80FB91F30812C912327E5
:100F20002193019680319105A9F7E989EF5FE98B5B
:100F30002A94F0E18F0E911C7BCFD701EC91F0E069
:100F4000E65EFD4FE491ED93A415B505B9F761E0B8
:100F5000C70101960E94960662E0C70102960E94B0
:100F6000960663E0C70103960E949606A98930E1C0
:100F7000A39FC001112420E030E0FC01E20FF31F29
:100F8000EA0DFB1DAA89BB895C91408145274D93E1
:100F9000AA8BBB8B2F5F3F4F2031310571F76396D2
:100FA000CDBFDEBFDF91CF911F910F91FF90EF90EA
:100FB000DF90CF90BF90AF909F908F907F906F9079
:100FC0005F904F903F902F9008958F929F92AF9295
:100FD000BF92CF92DF92EF92FF920F931F93CF9326
:100FE000DF93EA016B01F5E0D694C794FA95E1F737
:100FF000EC2C860111279801295F3F4FF22EFF0C40
:10100000FF0CAB01A3E056954795AA95E1F7BC010B
:10101000CE010E94FB08DC2C2C2D30E02F1508F0AF
:101020006EC0622F70E0AB014150504C440F551F11
:10103000440F551F4C0F5D1FFA0180819181A281E1
:10104000B3812D1509F1F8E0EF1241C0E22FE770EE
:10105000E43009F03CC0E82FF0E0E65EFD4FE4919B
:101060008E2FE92FF0E0E65EFD4FE4919E2FEA2FF0
:10107000F0E0E65EFD4FE491AE2FEB2FF0E0E65E90
:10108000FD4FE491BE2F23C0D22EDE0CC82EAB2E16
:10109000E92FF0E0E65EFD4FB490EA2FF0E0E65E67
:1010A000FD4FE4919E2FEA2DF0E0E65EFD4FE491C6
:1010B000AE2FEC2DF0E0E65EFD4FE491BE2FE32F66
:1010C000F0E0E05FFD4FE4918B2D8E273F5FFB0149
:1010D000E01BF10BEE0FFF1FEE0FFF1FEC0FFD1FCC
:1010E00080809180A280B38088259925AA25BB2580
:1010F000FA0184839583A683B7832F5F8FCFDF9117
:10110000CF911F910F91FF90EF90DF90CF90BF9004
:10111000AF909F908F900895AB0160E870E00C94C1
:10112000E507AB0160EC70E00C94E507AB0160E013
:1011300071E00C94E5074AE00C94E506782F8827C7
:10114000769531F008F48627660F08F46427F8CF07
:1011500008F486270895CF93DF93CDB7DEB7609765
:10116000CDBFDEBF80E1E0E0F0E2DE01119601904C
:101170000D928A95E1F70E9463060E94920581E034
:10118000809301060E948F06CE0101960E9491066F
:1011900088E60E94CF0585E60E94CF058CE60E9476
:1011A000CF058CE60E94CF058FE60E94CF058AE02E
:1011B0000E94CF050E9446024BEB51E060E170E0D7
:1011C0008BE60E9423024FEB51E060E170E080E784
:1011D0000E94230245EB51E060E070E088E70E9446
:1011E000230247EB51E062E170E08DE60E942302AA
:1011F0000E948102FDCFFB01DC0102C001900D9233
:0C12000041505040D8F70895F894FFCFFB
:10120C002B7E151628AED2A6ABF7158809CF4F3C0E
:10121C003031323334353637383941424344454620
:00000001FF
