:020000040020DA
:10000000004000208D262000D5262000D526200087
:10001000D5262000D5262000D5262000000000008F
:10002000000000000000000000000000D5262000B5
:10003000D526200000000000D5262000D52620006F
:10004000D4262000D4262000D4262000D426200048
:1000500000000000D4262000D4262000D426200052
:10006000D426200000000000000000000000000076
:100070000000000000000000D42620000000000066
:100080000000000000000000D4262000D42620003C
:10009000D4262000D4262000D4262000D4262000F8
:1000A000D4262000D4262000D4262000D4262000E8
:1000B000D4262000D4262000D4262000D4262000D8
:1000C000D4262000D4262000D4262000D4262000C8
:1000D000D426200000000000000000000000000006
:1000E0000000000000000000000000000000000010
:1000F000D426200000000000D4262000D4262000B2
:1001000010B5054C237833B9044B13B10448AFF351
:1001100000800123237010BD8C0A00200000000025
:10012000A429200008B5034B1BB103490348AFF3D2
:10013000008008BD00000000900A0020A4292000D3
:10014000154B002B08BF134B9D46A3F5803A0021A9
:100150008B460F461348144A121A02F0F1FA0F4B5D
:10016000002B00D098470E4B002B00D09847002062
:10017000002104000D000D48002802D00C4802F0B8
:1001800099FB02F0B9FA2000290002F033FA02F0DC
:10019000A3FA00BF000008000000000000000000FB
:1001A000000000008C0A002034130020B528200035
:1001B000C12820000020704702784378002043EADD
:1001C0000223014A138070470400002008B501F0A3
:1001D00057F9002008BD08B501F028F9002008BD36
:1001E00010B5044601F02EF900F096F9204601F012
:1001F0002BF900F07FF9204601F025F92246102165
:10020000722000F093F8002010BD70B50446002560
:1002100001F018F90B4E3388AB4209D8204601F0A3
:1002200012F922461021722000F080F8002070BDE3
:1002300000F072F9204601F007F9013500F05AF993
:10024000E9E700BF04000020012070470346014495
:1002500000208B4200D1704713F8012B5040082238
:1002600010F0800F4FEA400018BF80F0A600013A5E
:10027000C0B2F5D1EDE70023F0B54F1C834201DB9E
:10028000002020E017F8135011F81340A5F13006B4
:10029000F6B2092E0BD8D654A4F13005EEB2092ED1
:1002A00014D8D45C44EA0514D4540133E6E7A5F12C
:1002B0004106052E02D8373DD554EDE7A5F161067C
:1002C000052E01D90120F0BD573DF5E7A4F1410508
:1002D000052D02D8A4F13705E3E7A4F16105052D4A
:1002E000F0D8D55C573C45EA0414DDE770B5094EFB
:1002F00034680F2C0BDCBF2909D806EB04152871D4
:100300000020C5E9021201342B74346070BD012055
:10031000FCE700BFA80A00200023FFF7E7BF002189
:100320007620014AFFF7F8BF49022000F8B51446CD
:100330000E4600F0C1F80C4F651EC4F101046319AC
:100340009E4204DCBDE8F8400A2000F0B5B815F87C
:10035000013F1B09F85C00F0AFF82B7803F00F03A6
:10036000F85C00F0A9F8EAE7C02920002DE9F04187
:10037000ADF5127D00F0A6F800232C4C2268211D5B
:100380009A4204DC07D10DF5127DBDE8F0811D0114
:100390006D5C85423DD104EB03151E012B7CDB0710
:1003A00014D500238DF8083000F08CF88DF8C800C3
:1003B00000F088F802AA8DF8C90032A90120FFF7E1
:1003C0005AFF0028DFD19DF80830AB600025A7193F
:1003D0000DF1C808BB68B5EB430F1CD300F072F8F1
:1003E0000A2801D00D28CED13444A56802AA284697
:1003F00032A9FFF740FF0028C5D1E9B2E36802A89F
:10040000984701218DF8040001AA7A20FFF78EFF9A
:10041000B9E70133B4E700F055F80A28B3D00D2846
:10042000B1D005F808000135D4E700BFA80A0020C4
:10043000012208B50020114600F094FDBDE80840F7
:10044000012000F06FBD38B5184C40F2012000F0DB
:1004500037FE204600F0E9FE154D204641F6FF71BB
:1004600000F088FF2046012100F0A0FF022228466C
:10047000202100F059FB2846202100F04BF90D4ABD
:100480002846102100F08EFB1021284600F040F98C
:1004900000F036FD602301464FF41642204600F07E
:1004A000D2FE2046BDE8384000F0B4BE00D0004087
:1004B00000A00D4008410D400146014800F023BF57
:1004C00000D0004008B5024800F011FFC0B208BDDE
:1004D00000D0004008B50421044800F0FFF8BDE852
:1004E00008400121024800F0F9B800BF00A00D400B
:1004F00000B00D4008B500220421054800F0E0F8E6
:10050000BDE8084000220121024800F0D9B800BF30
:1005100000A00D4000B00D40FF22042108B50548A1
:1005200000F0CEF8BDE8084001220348114600F073
:10053000C7B800BF00A00D4000B00D40EFF3108021
:1005400072B67047EFF310807047EFF3108062B619
:10055000704730BF704720BF704740BF704780F37F
:1005600011887047EFF311807047FEE70C4B9842FB
:1005700011D00AD8A3F5005398420ED003F580534A
:1005800098420CBF112000207047064B98420CBFC8
:10059000132000207047122070471020704700BFC2
:1005A00000B00D4000C00D40D0F8003412F0010F33
:1005B00014BF0B438B43C0F80034D0F820349207AB
:1005C0004CBF194323EA0101C0F8201470470123EE
:1005D00010B503FA01F1D0F80044C9B2D0F82024D4
:1005E000214214BF18460020114214BF02230023E9
:1005F000184310BDD0F8083412F0010F14BF0B439C
:100600008B43C0F80834D0F8043412F0020F14BF42
:100610000B438B43C0F80434D0F80C3452074CBF62
:10062000194323EA0101C0F80C147047012330B5C7
:1006300003FA01F1D0F80854C9B2D0F804442942B1
:1006400008BF00232142D0F80C2414BF0220002050
:10065000114243EA000314BF04200020184330BDB8
:10066000D0F810341943C0F810147047D0F8103483
:1006700023EA0103C0F81034704711B1D0F8180410
:100680007047D0F814047047C0F81C14704710B5B8
:10069000FFF76CFF044600F010F92046BDE810405B
:1006A00000F076B910B5FFF761FF044600F0A2F93B
:1006B0002046BDE8104000F01BB950F821007047FB
:1006C00040F82120704738B50D460022FFF76CFF37
:1006D0002946BDE83840002200F0FEBA38B50D4684
:1006E0000122FFF761FF2946BDE83840002200F0F3
:1006F000F3BA38B50D460222FFF756FF2946BDE88A
:100700003840002200F0E8BAFFF7F3BFFFF7F1BF6F
:10071000FFF7EFBF38B50D460222FFF745FF294628
:10072000BDE83840082200F0D7BA0E4B984214D0EA
:1007300003F58053984212D003F5805398420CBFC2
:10074000182300239940D0F80437012A0CBF19431D
:1007500023EA0101C0F8041770470823F2E71023C9
:10076000F0E700BF00A00D400D4B984214D003F5F8
:100770008053984212D003F5805398420CBF18233F
:10078000002319440123D0F8042703FA01F1114290
:1007900014BF1846002070470823F2E71023F0E743
:1007A00000A00D400B4B984210D003F580539842A7
:1007B0000ED003F5805398420CBF18230023D0F8C5
:1007C000102799401143C0F8101770470823F6E727
:1007D0001023F4E700A00D400C4B984211D003F514
:1007E000805398420FD003F5805398420CBF1823D2
:1007F0000023D0F81027994022EA0101C0F8101711
:1008000070470823F5E71023F3E700BF00A00D4071
:100810000C4B98420FD003F5805398420DD003F54E
:10082000805398420CBF1823002341B1D0F8180719
:10083000D840C0B270470823F7E71023F5E7D0F897
:100840002007F5E700A00D400B4B984210D003F5B0
:10085000805398420ED003F5805398420CBF182362
:100860000023D0F8182799401143C0F81817704793
:100870000823F6E71023F4E700A00D40024A1368AE
:1008800003431360704700BF94200D40024A136871
:1008900023EA00031360704794200D40FEE708B57B
:1008A000FFF753FE003818BF012008BD08B5FFF759
:1008B00045FE003818BF012008BD0B4BF0B50B4AB0
:1008C0001C68164694420CD015460024D3F800C08C
:1008D0005CF804700434B4F5237F45F8047BF7D149
:1008E0001A6046F82010F0BD08ED00E00008002076
:1008F000024B034A43F82020704700BF0008002045
:100900009D082000044B054A53F8203043F0BF6394
:1009100043F4003313607047D02920000CED00E051
:100920000020064B064A1B6803F4E06352F8041BE0
:10093000994202D001300828F8D170470CED00E050
:10094000D0292000094B20F003021344FF2210B5E8
:100950001C6A00F003002368C000824023EA0203FF
:1009600001FA00F01843206010BD00BFD02920001C
:10097000064B20F0030213441B6A00F003001B68BF
:10098000C00023FA00F0C0B2704700BFD029200099
:10099000042805D1144A136843F480331360704768
:1009A000052804D1104A136843F40033F6E70628FB
:1009B00004D10D4A136843F48023EFE70F2804D1D4
:1009C0000A4A136843F00203E8E70CD91038084BD1
:1009D000420903EB8203D3F8C420012300F01F0077
:1009E00003FA00F01060704724ED00E010E000E032
:1009F000D0292000042805D1144A136823F4803339
:100A000013607047052804D1104A136823F400339B
:100A1000F6E7062804D10D4A136823F48023EFE794
:100A20000F2804D10A4A136823F00203E8E70CD91F
:100A30001038084B420903EB8203D3F8D820012376
:100A400000F01F0003FA00F01060704724ED00E092
:100A500010E000E0D0292000022805D1114A1368D7
:100A600043F00043136070470E2804D10D4A136809
:100A700043F08053F6E70F2804D10A4A136843F085
:100A80008063EFE70CD91038074B420903EB820370
:100A9000D3F8EC20012300F01F0003FA00F01060EF
:100AA000704700BF04ED00E0D02920000E2805D1DA
:100AB0000D4A136843F00063136070470F2804D198
:100AC000094A136843F00073F6E70CD91038074B56
:100AD000420903EB8203D3F80021012300F01F0039
:100AE00003FA00F01060704704ED00E0D029200008
:100AF000FFF735BDFFF736BD024A136843F0010327
:100B00001360704798200D40024A136823F00103D8
:100B10001360704798200D40024B186800F00100E8
:100B2000704700BF98200D4000232DE9F04F174D6E
:100B3000174FDFF864C0174EDFF86080DFF860A061
:100B400005F1200EA5F14009A5F1200B41FA03F4AF
:100B5000E40708D5B84216D00AD840450DD0504514
:100B60000ED0344622600133082BEFD1BDE8F08F60
:100B70006045F6D15EF82340F4E759F82340F1E7E9
:100B80005BF82340EEE755F82340EBE7242B2000E9
:100B900000B00D4000400D4000C00D4000900D40E1
:100BA00000A00D404A4B984256D00AD8A3F50053F6
:100BB00098421DD003F58053984231D00023136032
:100BC0007047444B9842F9D1012961D0022961D084
:100BD000042961D0082961D0102973D020294FF051
:100BE000000371D0402971D0802908BF1F23E6E798
:100BF00002290FD004290FD008290FD010294FD077
:100C000020294FD040294FF000034DD0802908BF44
:100C10000723D4E70123D2E70223D0E70323CEE75B
:100C2000012911D0022911D0042911D0082911D08D
:100C300010293BD020294FF0000339D0402939D06A
:100C4000802908BF0F23BAE70823B8E70923B6E7CE
:100C50000A23B4E70B23B2E7012911D0022911D0EE
:100C6000042911D0082911D0102925D020294FF0AE
:100C7000000323D0402923D0802908BF17239EE7F3
:100C800010239CE711239AE7122398E7132396E792
:100C9000182394E7192392E71A2390E71B238EE782
:100CA00004238CE705238AE7062388E70C2386E7DD
:100CB0000D2384E70E2382E7142380E715237EE7C4
:100CC00016237CE71C237AE71D2378E71E2376E7AB
:100CD00000B00D4000C00D4000232DE9F04F174D2E
:100CE000174FDFF864C0174EDFF86080DFF860A0B0
:100CF00005F1200EA5F14009A5F1200B41FA03F4FE
:100D0000E40708D5B84216D00AD840450DD0504562
:100D10000ED0344622600133082BEFD1BDE8F08FAE
:100D20006045F6D15EF82340F4E759F82340F1E737
:100D30005BF82340EEE755F82340EBE7A42B2000B7
:100D400000B00D4080400D4000C00D4000900D40AF
:100D500000A00D40484B984243D00BD8A3F5005358
:100D600098420DD003F58053984221D0A3F5BF439C
:100D700018687047414B98424CD0A3F5FF43F7E702
:100D800002290FD004290FD008290FD010295AD0DA
:100D900020295AD040293A4B59D03A4A802908BFD5
:100DA0001346E5E7384BE3E7384BE1E7384BDFE73D
:100DB00001290ED002290ED004290ED008290ED008
:100DC000102946D020292E4B45D0402945D0314A04
:100DD000E4E7314BCCE7314BCAE7314BC8E7314B45
:100DE000C6E701290ED002290ED004290ED0082909
:100DF0000ED0102933D02029214B32D0402932D0B7
:100E0000294ACBE7294BB3E7294BB1E7294BAFE799
:100E1000294BADE701290ED002290ED004290ED0AE
:100E200008290ED0102920D02029154B1FD0402989
:100E30001FD0224AB2E7224B9AE7224B98E7224B77
:100E400096E7224B94E7224B92E7224B90E7224B06
:100E50008EE7224B8CE7224B8AE7224B88E7224B16
:100E600086E7224B84E7224B82E7224B80E7224B26
:100E70007EE7224B7CE700BF00B00D4000C00D4074
:100E800080400D409C400D4084400D4088400D4006
:100E90008C400D40BC400D40A0400D40A4400D4092
:100EA000A8400D40AC400D40DC400D40C0400D401E
:100EB000C4400D40C8400D40CC400D40FC400D40AA
:100EC000E0400D40E4400D40E8400D40EC400D4056
:100ED00090400D4094400D4098400D40B0400D4072
:100EE000B4400D40B8400D40D0400D40D4400D40BE
:100EF000D8400D40F0400D40F4400D40F8400D400A
:100F0000054B1B6803F00703013B062B9ABF034AFE
:100F100052F823000248704704200D40E42B2000C3
:100F20000048E801034A136823F4E06343EA00231E
:100F30001360704700200D40054B1B68C3F302236C
:100F4000013B062B9ABF034A52F823000248704720
:100F500004200D40E42B20000048E80101387FF414
:100F6000FDAF704770B5124B19B91C6844F40014FA
:100F70001C601C680F4B234008B943F080730029A4
:100F800014BF4FF4803600264FF480351343084ACF
:100F9000094C33431360226802F48032B24201D01C
:100FA000013D00D170BD1020FFF7D8FF2268F3E7A4
:100FB00000200D40F8FFFEFE04200D400822014BEA
:100FC0001A60FEE774200D40FFF7C3BA1A4B70B5E4
:100FD0001C6804F4E06514F0070400D065B91749F3
:100FE0000A68002C08BF42F00102002D0CBF4FF42C
:100FF0008073002313430B60114E336843F00403E6
:101000003360FFF7A6FA336823F00403336004B1BA
:101010008DB9002C0CBF6FF007034FF0FF33074969
:10102000002D0A6802EA03020CBF6FF4E0634FF080
:10103000FF3313400B6070BD04200D4000200D40B5
:1010400010ED00E0030A03F00E02042A0CBF094A67
:10105000094A03F00F031168084A00F00F0002EB81
:101060008303DB6903FA00F0084214BF012000206B
:10107000704700BF1C300D4018300D40E42B20009D
:101080000E4BC0F3032203EB8203012200F00F009A
:1010900002FA00F000225B6B82B01968014319600C
:1010A0000192019A0F2A05D91A6822EA00001860F5
:1010B00002B07047019A0132F2E700BFE42B200032
:1010C000074BC0F3032203EB82039A6C01231168E0
:1010D00000F00F0003FA00F008431060704700BFF3
:1010E000E42B2000074BC0F3032203EB8203012211
:1010F000996C00F00F000B6802FA00F023EA000080
:1011000008607047E42B2000074BC0F3032203EB79
:1011100082031A6E0123116800F00F0003FA00F039
:1011200008431060704700BFE42B2000074BC0F35A
:10113000032203EB82030122196E00F00F000B68FB
:1011400002FA00F023EA000008607047E42B200058
:10115000074BC0F3032203EB82039A6F012311684C
:1011600000F00F0003FA00F008431060704700BF62
:10117000E42B2000074BC0F3032203EB8203012280
:10118000996F00F00F000B6802FA00F023EA0000EC
:1011900008607047E42B2000014B1860704700BFC7
:1011A00058200D40024B186800F00300704700BF44
:1011B00058200D40024A136843F001031360704742
:1011C00080200D40C36A23F086030B43C36270473F
:1011D000C06A00F086007047114341637047436B5B
:1011E00003F0070003F0380308601360704730B560
:1011F000456A846A890004EB8514B1FBF4F111603F
:10120000046BA40644BF49001160C26A02F0EE02FA
:101210001A6030BDC36A43F01003C362036B43F42A
:10122000407343F001030363704783691B07FCD4D9
:10123000C36A23F01003C362036B23F4407323F0EB
:1012400001030363704738B51D46FFF7EEFFB1EBAE
:10125000021F38BF52084FEAC101B1FBF2F1036B24
:1012600001F1010135BF43F0200323F020030363A4
:101270000363CB0943620023C1F345018162C56268
:10128000836138BDC36A43F01003C3627047C36A09
:1012900023F01003C3627047036B19B143F00603D8
:1012A0000363704743F00203FAE7036B23F006037E
:1012B00003637047036B23F010030B430363704712
:1012C000006B00F010007047806980F01000C0F3E0
:1012D00000107047806980F02000C0F34010704714
:1012E0008369DB0654BF00684FF0FF3070478369A5
:1012F000DB06FCD40068704783699B065ABF016017
:1013000001200020704783699B06FCD40160704770
:10131000C36A19B143F00103C362704723F00103AC
:10132000FAE78069C0F3C000704710B5064CA042D0
:101330000CBF152416242046FFF7BFFA2046BDE84F
:101340001040FFF725BB00BF00C0004010B5064CA1
:10135000A0420CBF152416242046FFF74BFB204665
:10136000BDE81040FFF7C4BA00C00040836B0B43D8
:1013700083637047836B23EA01038363704709B17A
:10138000006C7047C06B704741647047836C0B43BF
:1013900083647047836C23EA010383647047406869
:1013A00000F00F007047002343607047C0F8C81F6B
:1013B0007047D0F8C80F7047D0F8A43043F400430A
:1013C000C0F8A4307047D0F8A43023F40043C0F82C
:1013D000A4307047C0F8A410C0F8A820704710B51A
:1013E000836900F1180403F08803802BF8D1C26AE6
:1013F00022F0860343F08203C3620160236803F096
:101400008803802BFAD1C26210BD00BF00231A46A8
:1014100004495A540133B3F5E56FFAD1024B1A70FF
:10142000704700BFD40B0020FC120020044A431E6A
:101430000F3013F8011F834202F8011BF9D17047E6
:10144000C30B0020704770471FB50346074A084981
:101450001078084A40F00B000292074ACDE90032AA
:10146000064A00F0D8F805B05DF804FBFC12002035
:10147000D40B0020B00B0020FD120020C30B002075
:10148000F0B5144B12291C7813D9134D421E00F1EC
:10149000120612F8017FB24205F8017BF9D144F03F
:1014A000200526291D7008D01A7822F040021A70F3
:1014B0000EE024F020041C70F6E70849253012F8ED
:1014C000015F824201F8015BF9D144F060041C70B5
:1014D000F0BD00BFFC120020B00B0020FD12002068
:1014E00070B504460D4AC0F101061368553B037000
:1014F00035198D4213780AD3113B084443F0010398
:1015000000F8013C136800200133136070BD25789A
:10151000333B2B4404F8013FEAE700BFAC0B00204B
:10152000704700207047002070470020704700205F
:1015300070477047002070470020704700207047B8
:1015400030B510F0010FDDE9034500D0A9B100F07E
:101550002101212900D19DB1450600D59CB101078B
:1015600001D59AB193B110F0100005D072B1002BE3
:1015700014BF00204FF4805030BD4FF40040FBE713
:101580004FF40070F8E74FF48070F5E74FF48050A7
:10159000F2E700F01803182B0FD000F00603062B1B
:1015A0000DD000F01203122B0BD000F00C030C2B0B
:1015B00007D0B0FA80F0400970470220704704203D
:1015C000704708207047030709D540EA0103DA078E
:1015D0001BD58A0701D442071AD49A0710D510F0F8
:1015E000100310D00843C3070FD501F006010229EC
:1015F0000ED010F0040F14BF00204FF400307047DD
:101600004FF400307047184670474FF48020704701
:101610004FF4002070472DE9F04F4FF00008994635
:1016200006460C469246434689B0DDF848B003AF03
:1016300007F8083008F10108B8F1130FF8D1304667
:10164000FFF7A7FF0546002847D1304694F8241736
:10165000FFF7B9FF054600283FD1149B4A46019386
:10166000139B5146009330465B46FFF769FF0546E2
:1016700098BB06F02103212B33D13946149B5A1E07
:10168000123312F8010F9A4201F8010BF9D1F00759
:101690000ED53A465146204600F0A2FC002871D1F2
:1016A00094F82437C4F8200743F0010384F8243762
:1016B00071061ED53946139B5A1E123312F8010FBC
:1016C0009A4201F8010BF9D1B20724D5394604F545
:1016D000687000F0F5FCA0B18025284609B0BDE88F
:1016E000F08F41463846FFF7FBFE0028CFD010258B
:1016F000F3E713213846FFF7F3FE0028E4D0202556
:10170000EBE794F82437C4F81C0723F0040343F0F4
:10171000020384F82437730710D5394604F568703E
:1017200000F01AFD0028D7D194F82437C4F81C071C
:1017300023F0020343F0040384F8243706F018066C
:10174000082E0CD0102EC8D15B464A46214604F51F
:10175000687000F036FE50B14FF40075BDE75B468F
:101760004A46214604F5687000F042FD60B9D4F89D
:1017700020370133C4F82037D4F81C370133C4F8BC
:101780001C37AAE74025A8E74FF48075A5E70000BD
:101790000020000000203C0400208C0A00203413AC
:1017A000002043F2BC14C0F2200443F2BC25C0F276
:1017B0002005E75D3E464FEA072786EA07064FEA1F
:1017C000072786EA07064FEA072786EA07074FF04A
:1017D00001324FF0000A03B402984FF0010101609A
:1017E00003BC03B40298016801F1010142290160C0
:1017F00003BC2ED054F8046B86FA47F6A2FA8AF896
:1018000086FA48F6B04608F0FF0815F80880C34687
:101810004FEA162808F0FF0815F808804FEA082854
:101820008BEA080B4FEA164808F0FF0815F8088005
:101830004FEA08488BEA080B4FEA166808F0FF08E1
:1018400015F808804FEA08688BEA080B43F804BBD8
:10185000C7E7A3F580734FF000061E707047009B2A
:1018600003F51373009D05F50275009E06F51776C6
:1018700003B402984FF00101016003BC03B4029865
:10188000016801F101011229016003BC08D012F8BE
:10189000014B03F8014B15F8014B06F8014BEDE73E
:1018A0007047DDF8008008F10808009F07F1B807CD
:1018B000DDF800C00CF5BA7C03B402984FF00101CA
:1018C000016003BC03B40298016801F1010112290F
:1018D000016003BC0AD017F8014B11F8013B1CF85A
:1018E000033083EA040408F8014BEBE77047DDF8A6
:1018F000008008F1B80803B402984FF001010160BC
:1019000003BC03B40298016801F1010112290160CE
:1019100003BC04D012F8014B08F8014BF1E7DDF8E5
:10192000008008F5B47812F8015B88F8005088F858
:10193000015088F8025088F80350DDF8008008F55F
:10194000B67812F8015B88F8005088F8015088F8E2
:10195000025088F80350DDF8008008F5B878177851
:1019600088F800707047009B03F5027303B4029877
:101970004FF00101016003BC03B40298016801F15A
:1019800001011229016003BC04D011F8014B03F8D6
:10199000014BF1E7009F07F5107711F8015B3D70EF
:1019A0007D70BD70FD703D68009F07F5117711F8DF
:1019B000015B3D707D70BD70FD703D68009D05F55B
:1019C00012750F782F707047A44603B402984FF039
:1019D0000101016003BC03B40298016801F1010137
:1019E0004229016003BC2ED054F8046B86EA01063C
:1019F00006F0FF0012F8017B1CF8077087EA080761
:101A00001F544FEA162000F0FF0012F8017B1CF86B
:101A1000077087EA08071F544FEA164000F0FF00DE
:101A200012F8017B1CF8077087EA08071F544FEA79
:101A3000166000F0FF0012F8017B1CF8077087EABF
:101A400008071F54C7E77047A25D02F003024FF07A
:101A5000000503B402984FF00101016003BC03B418
:101A60000298016801F101010629016003BC06D05A
:101A700085EA020600F8016B05F10105EFE7704702
:101A800043F2BC35C0F2200514F8011B01F00F0130
:101A900014F8018B08F00F0814F801BB0BF00F0BC2
:101AA00014F801AB0AF00F0A4FF0000003B40298DB
:101AB0004FF00101016003BC03B40298016801F119
:101AC00001011229016003BC1ED080EA0107EF5D0D
:101AD00087EA0807EF5D87EA0B07EF5D87EA0A07E9
:101AE000EF5D02F8017B87EA0107EF5D87EA0807EF
:101AF000EF5D87EA0B07EF5D87EA0A07EF5D03F802
:101B0000017B00F10100D7E7704703B402984FF062
:101B10000101016003BC03B40298016801F10101F5
:101B20001229016003BC0CD015F8010B1C5C1AF8DB
:101B3000006084EA060418F8044084EA06041C5491
:101B4000E9E73F681E6886EA07061E605E6886EA67
:101B500007065E609E6886EA07069E60DE6886EA83
:101B60000706DE607047009D05F5067503B4029810
:101B70004FF00101016003BC03B40298016801F158
:101B800001011229016003BC07D015F8016B13F89D
:101B90000680A65D07F80680EEE7009D05F5067550
:101BA00003B402984FF00101016003BC03B4029832
:101BB000016801F101011229016003BC06D015F88A
:101BC000016B17F8068003F80680EFE7009D05F526
:101BD0000A7503B402984FF00101016003BC03B41D
:101BE0000298016801F101011229016003BC07D0CC
:101BF00015F8016B1AF80680A65D07F80680EEE777
:101C0000009D05F50A7503B402984FF001010160CB
:101C100003BC03B40298016801F1010112290160BB
:101C200003BC06D015F8016B17F806800AF8068089
:101C3000EFE7704703B402984FF00101016003BC65
:101C400003B40298016801F101010629016003BC97
:101C500035D010F8018B4FEA88080AEB080393F897
:101C6000008093F801B088EA0B049A7884EA0204B1
:101C7000DD7884EA050488EA0B07F75D87EA080740
:101C800087EA040703F8017B8BEA0207F75D87EA1E
:101C90000B0787EA040703F8017B82EA0507BF5DAB
:101CA00087EA020787EA040703F8017B88EA050749
:101CB000F75D87EA050787EA04071F70C0E77047EA
:101CC00003B402984FF00101016003BC03B4029811
:101CD000016801F101010629016003BC35D0009AB9
:101CE00002F55B7210F8018B4FEA88080AEB0803D3
:101CF000424493F8008093F801B088EA0B049E7880
:101D000084EA0604DD7888EA060884EA050443F2DA
:101D1000BC06C0F22006345D42F6BC76C0F2200656
:101D200016F8088088EA040802F8028B82F800801E
:101D3000A2F101028BEA050816F8088088EA040877
:101D400002F8028B82F80080C0E77047D1F80C805F
:101D50004FEA382841F8108FD7F80C804FEA38281E
:101D60003E4606F11006C6F8008003B402984FF014
:101D70000101016003BC03B40298016801F1010193
:101D80000629016003BC11D013F8014B11F804C0FF
:101D90008CEA0B0C305D8CEA000C15F80CC08CEA58
:101DA000000C8CEA0A0C01F804C0E4E78C46DCF86D
:101DB000004052F8048B84EA0804ACF11008D8F80B
:101DC000008084EA0804ACF10C064CF8044B56F889
:101DD000048B84EA08044CF8044B56F8048B84EA1C
:101DE00008044CF8044B56F8048B84EA0804CCF839
:101DF00000403C69D7F8008084EA08043C61D7F8C9
:101E0000048084EA08047C61D7F8088084EA080426
:101E1000BC61D7F80C8084EA0804FC61A3F10403D8
:101E2000704743F2BC10C0F2200043F2BC21C0F264
:101E300020011278825C82F0FF021B7810F803A068
:101E400092444FEA1A2292440AF0FF0A11F80A70EB
:101E5000704703B402984FF00101016003BC03B462
:101E60000298016801F101011229016003BC07D049
:101E70001E7817F8018B86EA080603F8016BEEE777
:101E8000A3F11003704703B402984FF00101016001
:101E900003BC03B40298016801F101011229016039
:101EA00003BC04D013F8015B07F8015BF1E770474E
:101EB00003B402984FF00101016003BC03B402981F
:101EC000016801F101011229016003BC05D01E78EF
:101ED0001CF8066003F8016BF0E7704703B4029842
:101EE0004FF00101016003BC03B40298016801F1E5
:101EF00001011229016003BC18D097F800B01BF84B
:101F000000A092444FEA1A24A2440AEA0C0A1AF8E2
:101F10000160BBF1000FC8BF4FF0FF0A08BF0026E9
:101F2000B8BF4FF0000A07F8016BDDE7704742F6D3
:101F30009464C0F22004DDF8008008F55E7803B4F4
:101F400002984FF00101016003BC03B402980168DC
:101F500001F101010C29016003BC06D014F8046BE7
:101F60001CF8066048F8046BEFE77047009A02F52A
:101F7000177203B402984FF00101016003BC03B46F
:101F80000298016801F101011229016003BC14D01B
:101F900015F8014B12F804B01CF80460865D8BEA5A
:101FA000060B02F804B013F804B018F80460865D5C
:101FB0008BEA060B03F804B0E1E770473D681E6842
:101FC00086EA05061E605E6886EA05065E609E6813
:101FD00086EA05069E60DE6886EA0506DE607047D2
:101FE0004DF804ED2DE9FE1F4DF8040DFFF77FFCC1
:101FF000009B03F5BA73009F07F5B8773F78FFF7AA
:10200000D0FBDDF800C00CF5BA7CFFF790FFFFF7BE
:1020100048FC009C04F1B804009800F55D704FF096
:102020000006FFF711FD42F67442C0F22002009B49
:1020300003F51D73009C04F5BA74DDF8008008F503
:10204000B478D8F80010009E06F5B67696F80080B1
:10205000FFF7BAFC009901F10801009F07F1B807EA
:10206000009D05F51D75009A02F55E72009B03F553
:102070005D7303B402984FF00101416003BC03B4E7
:102080000298416801F101010C29416003BC10D0A4
:10209000DDF800B00BF5B47B9BF800B0DDF800A0D4
:1020A0000AF5B67A9AF800A0FFF750FE07F110077C
:1020B000E5E701BC4FF00000BDE8FE1F00BD704722
:1020C0004DF804ED2DE9FC1F4DF8041D4DF8040DED
:1020D000FFF749FC009B03F10803009F07F5127707
:1020E0003F78FFF75EFB009C04F50274009800F552
:1020F0000E704FF00006FFF7A7FC009800F50F7078
:102100004FF00106FFF7A0FC009A02F50672009B53
:1021100003F50A73FFF7B4FC42F67442C0F22002E2
:10212000009B03F58473009C04F10804A446DDF8C9
:10213000008008F51078D8F80010009E06F511769A
:1021400096F80080FFF740FC01BC02BCBDE8FC1F14
:102150004FF0000000BD70474DF804ED2DE9FC1F65
:102160004DF8041D4DF8040DFFF7FDFB009B03F136
:102170000803009F07F512773F78FFF712FB009CDA
:1021800004F50274009800F50E704FF00006FFF79A
:102190005BFC009800F50F704FF00106FFF754FC50
:1021A000009A02F50672009B03F50A73FFF768FCBC
:1021B00042F67452C0F22002009B03F58473009C27
:1021C00004F10804A446DDF8008008F51078D8F87A
:1021D0000010009E06F5117696F80080FFF7F4FBDC
:1021E00001BC02BCBDE8FC1F4FF0000000BD704701
:1021F0004DF804ED4DF8042D2DE9F01F4DF8043D88
:102200004DF8041D4DF8040DFFF729FB019A02F566
:10221000B872009B03F51273FFF703FE009B03F5F2
:102220001B73FFF7BEFA009B03F51373DDF800C0C4
:102230000CF1080CFFF73CFE009B03F51373009FA5
:1022400007F51777FFF705FE009800F51B70019959
:1022500001F108018846DDF804C00CF1B80C009BC0
:1022600003F51373009D05F50675FFF77FFE03B4B4
:1022700002984FF00101416003BC03B40298416829
:1022800001F101010B29416003BC43D0009F07F518
:102290001077009B03F51373FFF790FE009D05F583
:1022A0000675DDF8008008F58478DDF800A00AF5F1
:1022B000177A009F07F51177FFF727FC42F6746441
:1022C000C0F22004009F07F55B77FFF74CFC0098F5
:1022D00000F50E7042F6BC66C0F22006FFF7AAFCBD
:1022E000009800F50F70DDF800A00AF5137AFFF7EB
:1022F000A1FC01F110010CF1100C8846009B03F5C4
:102300001373009D05F50675009800F51B70FFF727
:102310002DFEB2E7009F07F51077009B03F51373BE
:10232000FFF74CFE009D05F50675DDF8008008F509
:102330008478DDF800A00AF5177A009F07F5117779
:10234000FFF7E3FB42F67464C0F22004009F07F538
:102350005B77FFF708FC01F110010CF1100C8846C7
:10236000009D05F50675009800F51B70FFF7FEFD52
:10237000009F07F51777009B03F51373FFF769FDBF
:1023800043F2BC10C0F2200043F2BC21C0F2200195
:10239000009C04F512742278825C4FF0FF0CACEBC9
:1023A00002021F46FFF79AFD029FFFF76CFD01BC7A
:1023B0004FF0000002BC08BCBDE8F01F04BC00BD2B
:1023C00070474DF804ED4DF8042D2DE9F01F4DF840
:1023D000043D4DF8041D4DF8040DFFF740FA019A35
:1023E00002F5B872009B03F51273FFF71AFD009B0C
:1023F00003F51B73FFF7D5F9009B03F51373DDF8A5
:1024000000C00CF1080CFFF753FD009B03F513739C
:10241000009F07F51777FFF71CFD009800F51B706C
:10242000019901F1080101F1A001DDF804C00CF1EE
:10243000B80C0CF1A00C009B03F51373009D05F57F
:1024400006758846FFF792FD03B402984FF001012C
:10245000416003BC03B40298416801F101010B29FA
:10246000416003BC6ED0009B03F5137342F6846495
:10247000C0F22004009F07F55B77DDF800A00AF5A5
:10248000177AFFF770FB009F07F51077FFF796FDAF
:10249000DDF800A00AF5177ADDF8008008F58478E9
:1024A000009D05F50675009F07F51177FFF72DFBD9
:1024B000ACF1100CA1F110018846009D05F50675E0
:1024C000009800F51B70FFF751FDDDF800A00AF53C
:1024D000177A009800F50F70FFF7F2FBDDF800A007
:1024E0000AF5177A009800F50F7042F6BC66C0F244
:1024F0002006FFF79FFB009F07F55B77009B03F526
:102500001773FFF7A6FCDDF800A00AF5137A009810
:1025100000F50E70FFF7D4FBDDF800A00AF5137A82
:1025200042F6BC66C0F22006009800F50E70FFF778
:1025300081FB009F07F55B77009B03F51373FFF7A3
:1025400088FC87E7009B03F5137342F68464C0F2AE
:102550002004009F07F55B77DDF800A00AF5177AE5
:10256000FFF701FB009F07F51077FFF727FDDDF868
:1025700000A00AF5177ADDF8008008F58478009D40
:1025800005F50675009F07F51177FFF7BEFAACF168
:10259000100CA1F110018846009D05F50675009804
:1025A00000F51B70FFF7E2FC009F07F51777FFF7B8
:1025B00050FC43F2BC10C0F2200043F2BC21C0F238
:1025C0002001009C04F512742278825C4FF0FF0C0D
:1025D000ACEB02021F46FFF781FC029FFFF753FCA2
:1025E00001BC4FF0000002BC08BCBDE8F01F04BCF9
:1025F00000BD70471FB56A4615461D4B03F1100616
:10260000144618685968083303C4B3422246F7D108
:10261000FDF70EFFFDF717FFFDF75CFFFEF7F6FE77
:102620002846FEF703FFFDF77AFE1021114A6B20C2
:10263000FDF772FE1021104A7020FDF76DFE00219B
:102640000E4A7820FDF768FE012312210C4A6D2006
:10265000FDF74CFE02210B4A7320FDF75DFE1021B1
:102660006620094AFDF758FEFDF780FEFCE700BF33
:10267000CC332000D7012000E1012000B50120006B
:10268000CD012000B90120000B022000002103E051
:102690000B4B5B58435004310A480B4B42189A428B
:1026A000F6D30A4A02E0002313600432084B9A4230
:1026B000F9D3AFF3008000F01FF8FFF79BFFFEE7B0
:1026C00000000020000000203C0400208C0A0020B4
:1026D00034130020FEE7000008B50021044600F096
:1026E00089F8044B1868C36B03B19847204600F083
:1026F00057F900BFE033200070B50D4E0D4D761B2D
:10270000B61006D0002455F8043B01349847A64281
:10271000F9D1094E094D00F047F9761BB61006D0E5
:10272000002455F8043B01349847A642F9D170BD06
:10273000EC332000EC332000F4332000EC33200095
:10274000F0B4860746D0541E002A3CD00346CAB2D5
:1027500001E0013C37D303F8012B9D07F9D1032C8D
:102760002AD9CDB245EA05250F2C45EA054534D9CD
:10277000A4F1100222F00F0C03F1200716096744A0
:1027800003F1100242E9045542E902551032BA42FF
:10279000F8D1721C14F00C0F03EB021204F00F06B8
:1027A00013D0331F23F003030433134442F8045BB4
:1027B0009342FBD106F003042CB1CAB21C4403F8C7
:1027C000012B9C42FBD1F0BC704734461346002CD1
:1027D000F3D1F8E714460346C1E71A462646E0E778
:1027E000024B13B1024800F065B8704700000000CA
:1027F000C12820002DE9F04F2C4B83B001901868C0
:102800000F4600F07DF82A4BD3F80080D8F84861D5
:102810009EB14FF001094FF0000A7468651E0CD498
:10282000013406EB84047FB1D4F80031BB420BD0F5
:10283000013D6B1CA4F10404F5D11C4B186803B0D6
:10284000BDE8F04F00F064B873682268013BAB420A
:102850000CBF7560C4F800A0002AE9D0D6F8880142
:1028600009FA05F10142D6F804B00BD1904772681D
:102870005A4512D1D8F84831B342D9D01E46002E5D
:10288000CBD1DAE7D6F88C0101420BD1D4F8801015
:102890000198904772685A45ECD0D8F84861002EEC
:1028A000BBD1CAE7D4F880009047E0E738040020A5
:1028B000E0332000002301461A46184600F02AB8EB
:1028C00038B5084B084D5B1B9C1007D0043B1D44DA
:1028D000013C55F804399847002CF9D1BDE838403F
:1028E00000F068B80000000000000000704700BF62
:1028F000704700BF704700BF704700BF704700BF00
:10290000704700BF0120704701207047704700BF2B
:10291000704700BF2DE9F047DFF880A00646DAF8DF
:10292000000098460F469146FFF7EAFF1A4B1B68D6
:10293000D3F8484124B365681F2D26DC5EB96B1CB3
:102940000235DAF80000636044F82570FFF7E0FF15
:102950000020BDE8F087012304EB8501C1F88890D1
:10296000D4F88821AB401A43022EC4F88821C1F85C
:102970000881E4D1D4F88C211343C4F88C31DEE70C
:1029800003F5A674C3F84841D5E7DAF80000FFF76D
:10299000BFFF4FF0FF30DCE7E033200038040020B9
:1029A000FEE700BF00000000F8B500BFF8BC08BC9F
:1029B0009E467047F8B500BFF8BC08BC9E467047FD
:1029C0003031323334353637383941424344454665
:1029D00000070000000600000005000000040000E1
:1029E00000030000000200000001000000000000E1
:1029F0000000000018ED00E01CED00E020ED00E01C
:102A000000E400E004E400E008E400E00CE400E09E
:102A100010E400E014E400E018E400E01CE400E04E
:102A200020E400E024E400E028E400E02CE400E0FE
:102A300030E400E034E400E038E400E03CE400E0AE
:102A400040E400E044E400E048E400E04CE400E05E
:102A500050E400E054E400E058E400E05CE400E00E
:102A600060E400E064E400E068E400E06CE400E0BE
:102A700070E400E074E400E078E400E07CE400E06E
:102A800080E400E084E400E088E400E08CE400E01E
:102A900090E400E000E100E004E100E008E100E093
:102AA0000CE100E010E100E080E100E084E100E002
:102AB00088E100E08CE100E090E100E000E200E06D
:102AC00004E200E008E200E00CE200E010E200E0D6
:102AD00080E200E084E200E088E200E08CE200E0D6
:102AE00090E200E000400D4004400D4008400D40E1
:102AF0000C400D4010400D4014400D4018400D405A
:102B00001C400D4020400D4024400D4028400D4009
:102B10002C400D4030400D4034400D4038400D40B9
:102B20003C400D4040400D4044400D4048400D4069
:102B30004C400D4050400D4054400D4058400D4019
:102B40005C400D4060400D4064400D4068400D40C9
:102B50006C400D4070400D4074400D4078400D4079
:102B60007C400D4080400D4084400D4088400D4029
:102B70008C400D4090400D4094400D4098400D40D9
:102B80009C400D40A0400D40A4400D40A8400D4089
:102B9000AC400D40B0400D40B4400D40B8400D4039
:102BA000BC400D40C0400D40C4400D40C8400D40E9
:102BB000CC400D40D0400D40D4400D40D8400D4099
:102BC000DC400D40E0400D40E4400D40E8400D4049
:102BD000EC400D40F0400D40F4400D40F8400D40F9
:102BE000FC400D400024F40000127A0000093D0072
:102BF00080841E0040420F0020A1070090D00300F7
:102C000001000000000100000000010000000001C0
:102C1000010000000400000014200D4024200D409D
:102C200034200D4044200D4054200D4008200D401C
:102C300018200D4028200D4038200D4048200D4020
:102C4000A8200D400C200D401C200D402C200D40D4
:102C50003C200D404C200D40AC200D4010200D407C
:102C600020200D4030200D4040200D4050200D40D0
:102C7000B0200D40637C777BF26B6FC53001672B12
:102C8000FED7AB76CA82C97DFA5947F0ADD4A2AF60
:102C90009CA472C0B7FD9326363FF7CC34A5E5F16E
:102CA00071D8311504C723C31896059A071280E21C
:102CB000EB27B27509832C1A1B6E5AA0523BD6B370
:102CC00029E32F8453D100ED20FCB15B6ACBBE39E0
:102CD0004A4C58CFD0EFAAFB434D338545F9027FCC
:102CE000503C9FA851A3408F929D38F5BCB6DA2185
:102CF00010FFF3D2CD0C13EC5F974417C4A77E3DB1
:102D0000645D197360814FDC222A908846EEB81406
:102D1000DE5E0BDBE0323A0A4906245CC2D3AC62C9
:102D20009195E479E7C8376D8DD54EA96C56F4EAD4
:102D3000657AAE08BA78252E1CA6B4C6E8DD741FE5
:102D40004BBD8B8A703EB5664803F60E613557B9A8
:102D500086C11D9EE1F8981169D98E949B1E87E962
:102D6000CE5528DF8CA1890DBFE6426841992D0F11
:102D7000B054BB1652096AD53036A538BF40A39E61
:102D800081F3D7FB7CE339829B2FFF87348E43444A
:102D9000C4DEE9CB547B9432A6C2233DEE4C950BA6
:102DA00042FAC34E082EA16628D924B2765BA24906
:102DB0006D8BD12572F8F66486689816D4A45CCC25
:102DC0005D65B6926C704850FDEDB9DA5E154657F8
:102DD000A78D9D8490D8AB008CBCD30AF7E458052E
:102DE000B8B34506D02C1E8FCA3F0F02C1AFBD033A
:102DF00001138A6B3A9111414F67DCEA97F2CFCE0B
:102E0000F0B4E67396AC7422E7AD3585E2F937E8A5
:102E10001C75DF6E47F11A711D29C5896FB7620EE7
:102E2000AA18BE1BFC563E4BC6D279209ADBC0FEC8
:102E300078CD5AF41FDDA8338807C731B112105975
:102E40002780EC5F60517FA919B54A0D2DE57A9F67
:102E500093C99CEFA0E03B4DAE2AF5B0C8EBBB3C5C
:102E600083539961172B047EBA77D626E1691463E0
:102E700055210C7D000D0A0704010E0B0805020FF9
:102E80000C09060300050A0F04090E03080D0207CA
:102E90000C01060B0100000002000000040000000D
:102EA00008000000100000002000000040000000AA
:102EB000800000001B000000360000000002040635
:102EC000080A0C0E10121416181A1C1E2022242692
:102ED000282A2C2E30323436383A3C3E4042444682
:102EE000484A4C4E50525456585A5C5E6062646672
:102EF000686A6C6E70727476787A7C7E8082848662
:102F0000888A8C8E90929496989A9C9EA0A2A4A651
:102F1000A8AAACAEB0B2B4B6B8BABCBEC0C2C4C641
:102F2000C8CACCCED0D2D4D6D8DADCDEE0E2E4E631
:102F3000E8EAECEEF0F2F4F6F8FAFCFE1B191F1DBD
:102F4000131117150B090F0D030107053B393F3D01
:102F5000333137352B292F2D232127255B595F5DF1
:102F6000535157554B494F4D434147457B797F7DE1
:102F7000737177756B696F6D636167659B999F9DD1
:102F8000939197958B898F8D83818785BBB9BFBDC1
:102F9000B3B1B7B5ABA9AFADA3A1A7A5DBD9DFDDB1
:102FA000D3D1D7D5CBC9CFCDC3C1C7C5FBF9FFFDA1
:102FB000F3F1F7F5EBE9EFEDE3E1E7E50004080CE9
:102FC0001014181C2024282C3034383C4044484C21
:102FD0005054585C6064686C7074787C8084888C11
:102FE0009094989CA0A4A8ACB0B4B8BCC0C4C8CC01
:102FF000D0D4D8DCE0E4E8ECF0F4F8FC1B1F1317A5
:103000000B0F03073B3F33372B2F23275B5F5357B0
:103010004B4F43477B7F73776B6F63679B9F9397A0
:103020008B8F8387BBBFB3B7ABAFA3A7DBDFD3D790
:10303000CBCFC3C7FBFFF3F7EBEFE3E736323E3A04
:1030400026222E2A16121E1A06020E0A76727E7A80
:1030500066626E6A56525E5A46424E4AB6B2BEBA70
:10306000A6A2AEAA96929E9A86828E8AF6F2FEFA60
:10307000E6E2EEEAD6D2DEDAC6C2CECA2D29252194
:103080003D3935310D0905011D1915116D69656150
:103090007D7975714D4945415D595551ADA9A5A140
:1030A000BDB9B5B18D8985819D999591EDE9E5E130
:1030B000FDF9F5F1CDC9C5C1DDD9D5D1000810188C
:1030C0002028303840485058606870788088909840
:1030D000A0A8B0B8C0C8D0D8E0E8F0F81B130B0324
:1030E0003B332B235B534B437B736B639B938B83F0
:1030F000BBB3ABA3DBD3CBC3FBF3EBE3363E262E54
:10310000161E060E767E666E565E464EB6BEA6AE9F
:10311000969E868EF6FEE6EED6DEC6CE2D253D3593
:103120000D051D156D657D754D455D55ADA5BDB58F
:103130008D859D95EDE5FDF5CDC5DDD56C647C7483
:103140004C445C542C243C340C041C14ECE4FCF47F
:10315000CCC4DCD4ACA4BCB48C849C94777F676F63
:10316000575F474F373F272F171F070FF7FFE7EF2F
:10317000D7DFC7CFB7BFA7AF979F878F5A524A42B3
:103180007A726A621A120A023A322A22DAD2CAC25F
:10319000FAF2EAE29A928A82BAB2AAA24149515953
:1031A000616971790109111921293139C1C9D1D94F
:1031B000E1E9F1F981899199A1A9B1B90000190159
:1031C00032021AC64BC71B6833EEDF036404E00EFD
:1031D000348D81EF4C7108C8F8691CC17DC21DB5E2
:1031E000F9B9276A4DE4A6729AC90978652F8A054C
:1031F000210FE12412F082453593DA8E968FDBBDE4
:1032000036D0CE94135CD2F14046833866DDFD3073
:10321000BF068B62B325E298228891107E6E48C368
:10322000A3B61E423A6B2854FA853DBA2B790A158B
:103230009B9F5ECA4ED4ACE5F373A757AF58A85016
:10324000F4EAD6744FAEE9D5E7E6ADE82CD7757A47
:10325000EB160BF559CB5FB09CA951A07F0CF66F14
:1032600017C449ECD8431F2DA4767BB7CCBB3E5A7C
:10327000FB60B1863B52A16CAA55299D97B28790FD
:1032800061BEDCFCBC95CFCD373F5BD15339843C6C
:1032900041A26D47142A9E5D56F2D3AB441192D9D8
:1032A00023202E89B47CB8267799E3A5674AEDDE02
:1032B000C531FE180D638C80C0F770070103050F40
:1032C000113355FF1A2E7296A1F813355FE1384875
:1032D000D87395A4F702060A1E2266AAE5345CE4B8
:1032E0003759EB266ABED97090ABE63153F5040C22
:1032F000143C44CC4FD168B8D36EB2CD4CD467A93E
:10330000E03B4DD762A6F10818287888839EB9D093
:103310006BBDDC7F8198B3CE49DB769AB5C457F993
:10332000103050F00B1D2769BBD661A3FE192B7D11
:103330008792ADEC2F7193AEE92060A0FB163A4E58
:10334000D26DB7C25DE73256FA153F41C35EE23D2A
:1033500047C940C05BED2C749CBFDA759FBAD56439
:10336000ACEF2A7E829DBCDF7A8E89809BB6C158E5
:10337000E82365AFEA256FB1C843C554FC1F21633C
:10338000A5F407091B2D7799B0CB46CA45CF4ADE75
:10339000798B8691A8E33E42C651F30E12365AEE5F
:1033A000297B8D8C8F8A8594A7F20D17394BDD7C94
:1033B0008497A2FD1C246CB4C752F6010C05060BC1
:1033C00009000A0D030E0F08040701022B7E1516D3
:1033D00028AED2A6ABF7158809CF4F3C00000000FD
:0433E00010000020B9
:0833E4005CCDFF7F0100000039
:0833EC00E1272000250120006B
:020000040027D3
:0CFFD400FFFFFFEF000000000000200015
:020000042000DA
:10000000000000000A0000001000002000000000B6
:1000100000000000FC02002064030020CC0300204C
:1000200000000000000000000000000000000000D0
:1000300000000000000000000000000000000000C0
:1000400000000000000000000000000000000000B0
:1000500000000000000000000000000000000000A0
:100060000000000000000000000000000000000090
:100070000000000000000000000000000000000080
:100080000000000000000000000000000000000070
:100090000000000000000000000000000000000060
:1000A0000000000000000000000000000000000050
:1000B000000000000000000001000000000000003F
:1000C0000E33CDAB34126DE6ECDE05000B00000004
:1000D0000000000000000000000000000000000020
:1000E0000000000000000000000000000000000010
:1000F0000000000000000000000000000000000000
:1001000000000000000000000000000000000000EF
:0C0430000000000000000000101300207D
:04043C00010120009A
:1008000000000000000000000000000000000000E8
:1008100000000000000000000000000000000000D8
:1008200000000000000000000000000000000000C8
:1008300000000000000000000000000000000000B8
:040000050020268D24
:00000001FF
