:10000000000003201D05000081050000850500009B
:100010007D0500007D0500007D050000000000005A
:100020000000000000000000000000008905000042
:100030007D050000000000008D0500009105000016
:1000400095050000990500009D050000A105000030
:10005000A5050000A9050000AD050000B1050000E0
:10006000B5050000B9050000BD050000C105000090
:10007000C5050000C9050000CD050000D105000040
:10008000D50500007D0500007D0500007D05000010
:100090007D0500007D0500007D0500007D05000058
:1000A000D9050000DD050000E1050000E5050000C0
:1000B000E9050000ED050000F1050000F505000070
:1000C000F9050000FD05000001060000050600001E
:1000D000090600000D060000110600007D05000065
:1000E0007D0500007D0500007D0500007D05000008
:1000F0007D0500007D0500007D0500007D050000F8
:100100007D0500007D0500007D0500007D050000E7
:100110007D0500007D0500007D0500007D050000D7
:100120007D0500007D0500007D0500007D050000C7
:100130007D0500007D0500007D0500007D050000B7
:100140007D05000015060000190600001D060000D0
:1001500021060000250600007D0500007D05000049
:100160007D0500007D050000290600002D06000029
:100170003106000035060000390600003D0600008B
:1001800041060000450600007D0500007D050000D9
:100190007D0500007D0500007D0500007D05000057
:1001A0007D0500007D0500007D0500007D05000047
:1001B0007D0500007D0500007D0500007D05000037
:1001C0007D0500007D0500007D0500007D05000027
:1003F0007D0500007D0500007D050000FFFFFFFF7B
:10040000FFFFFFFFFFFFFFFFFFFFFFFFFEFFFFFFFD
:10041000044B05481B1A062B02D9044B03B118479D
:10042000704700BF7700FF1F7400FF1F000000002F
:1004300005490648091A891001EBD171491002D00B
:10044000034B03B1184770477400FF1F7400FF1F70
:100450000000000010B5064C237843B9FFF7D8FF21
:10046000044B13B10448AFF300800123237010BD87
:100470007400FF1F000000009041000008B5084B09
:100480001BB108490848AFF300800848036813B956
:10049000BDE80840CCE7064B002BF9D09847F7E7BA
:1004A000000000007800FF1F904100007000FF1F57
:1004B00000000000134B002B08BF114B9D46A3F515
:1004C000803A00218B460F461148124A121A00F05A
:1004D00051FA0D4B002B00D098470C4B002B00D04D
:1004E00098470020002104000D000B4800F02AF975
:1004F00000F07EF92000290001F07AFF00F028F9D1
:1005000000000800000003200000000000000000C0
:100510007400FF1F7403FF1F7907000072B60E48B6
:100520000E4901600A6882F308880D4880470D492A
:100530000D4A0E4B9A42BEBF51F8040B42F8040B11
:10054000F8E70B490B4A00209142BCBF41F8040B6D
:10055000FAE762B60848804708ED00E000000000B6
:1005600059300000B84100000000FF1F7400FF1F59
:100570007400FF1F7403FF1FB5040000FFF7FEBFE8
:10058000314800473148004731480047314800476B
:10059000314800473148004731480047314800475B
:1005A000314800473148004731480047314800474B
:1005B000314800473148004731480047314800473B
:1005C000314800473148004731480047314800472B
:1005D000314800473148004731480047314800471B
:1005E000314800473148004731480047314800470B
:1005F00031480047314800473148004731480047FB
:1006000031480047314800473148004731480047EA
:1006100031480047314800473148004731480047DA
:1006200031480047314800473148004731480047CA
:10063000304800472F4800472E4800472D480047C4
:100640002C4800472C480047810500008505000024
:10065000890500008D050000910500008132000031
:1006600095320000A9320000BD320000D1320000F6
:10067000E5320000F93200000D33000021330000A4
:1006800035330000493300005D3300007133000052
:100690008533000099330000AD3300007D05000074
:1006A000593100006D310000E133000015340000C5
:1006B000412600007D2600007D050000392E000047
:1006C0007D050000652E00007D050000912E0000D4
:1006D0007D050000BD2E00007D05000049340000AE
:1006E000E92E00007D050000152F00007D050000AB
:1006F00081310000853000009531000000B50A4CC2
:100700002668054685B01C46F06852B1074B029238
:100710008DE80A0022462B46054900F055F800F006
:100720009BFE044B1A46F2E70000FF1F1041000039
:10073000204100001C41000008B513460022FFF7CD
:10074000DDFF00BF002301461A46184600F0A2BD97
:1007500008B5074B044613B1002100F003FE054B1A
:100760001868836A03B19847204601F023FE00BF52
:1007700065130000D038000038B50A4C0A4D641BE0
:10078000A4100AD004F18043013B05EB8305013C32
:1007900055F804399847002CF9D1BDE8384003F0EA
:1007A000FDBC00BFB8410000B44100000CB400B56E
:1007B00083B004AB53F8042B019300F067F903B046
:1007C0005DF804EB02B070470EB410B583B005AB12
:1007D000064C53F8042B01930146206800F056F9AB
:1007E00003B0BDE8104003B0704700BF0000FF1F1A
:1007F00070B50F4E0F4D761BB61018BF002405D0F4
:10080000013455F8043B9847A642F9D10A4E0B4DE6
:10081000761B03F0BDFCB61018BF002406D00134CF
:1008200055F8043B9847A642F9D170BD70BD00BF92
:10083000B0410000B0410000B4410000B0410000F0
:10084000844641EA000313F003036DD1403A41D3DB
:1008500051F8043B40F8043B51F8043B40F8043B9A
:1008600051F8043B40F8043B51F8043B40F8043B8A
:1008700051F8043B40F8043B51F8043B40F8043B7A
:1008800051F8043B40F8043B51F8043B40F8043B6A
:1008900051F8043B40F8043B51F8043B40F8043B5A
:1008A00051F8043B40F8043B51F8043B40F8043B4A
:1008B00051F8043B40F8043B51F8043B40F8043B3A
:1008C00051F8043B40F8043B51F8043B40F8043B2A
:1008D000403ABDD2303211D351F8043B40F8043BCA
:1008E00051F8043B40F8043B51F8043B40F8043B0A
:1008F00051F8043B40F8043B103AEDD20C3205D3DA
:1009000051F8043B40F8043B043AF9D2043208D0D1
:10091000D2071CBF11F8013B00F8013B01D30B8843
:1009200003806046704700BF082A13D38B078DD021
:1009300010F003038AD0C3F10403D21ADB071CBFF3
:1009400011F8013B00F8013B80D331F8023B20F85D
:10095000023B7BE7043AD9D3013A11F8013B00F896
:10096000013BF9D20B7803704B7843708B7883701E
:100970006046704770B4860746D0541E002A41D0A6
:10098000CAB2034602E014F1FF343BD303F8012B53
:100990009D07F8D1032C2ED9CDB245EA05250F2CA1
:1009A00045EA054519D903F110022646103E0F2EDF
:1009B00042F8105C42F80C5C42F8085C42F8045CB7
:1009C00002F11002F2D8A4F1100222F00F0204F09A
:1009D0000F041032032C13440DD91E462246043A4C
:1009E000032A46F8045BFAD8221F22F003020432DD
:1009F000134404F003042CB1C9B21C4403F8011BD6
:100A00009C42FBD170BC704714460346C2E700BF4E
:100A10009368013B002B10B4936008DBCCB21368E1
:100A2000581C1060197020465DF8044B704794699B
:100A3000A34202DBCCB20A2CF1D15DF8044B00F0EA
:100A40004DBB00BF93B1F8B514460F460646D51806
:100A500001E0AC4208D03A4614F8011B3046FFF7DB
:100A6000D7FF431CF5D1F8BD0020F8BD002070472A
:100A7000936810B5144613B95360184610BD00F0C2
:100A8000E3FE0023A360636010BD00BF2DE9F04FBB
:100A90009DB0894614460393824618B18369002BA2
:100AA00000F00A818A4B994500F00C81894B9945E9
:100AB00000F00B81884B994508BFDAF80C90B9F823
:100AC0000C30180740F1EE80D9F81030002B00F000
:100AD000E98030238DF82A302378804E00212022AF
:100AE00009918DF829200127002B00F08480252B07
:100AF000254603D117E0252B00F0858015F8013F2E
:100B0000002BF8D1B5EB040B75D022465B46494665
:100B10005046FFF797FF01306DD0099B2A785B4460
:100B20000993002A67D000234FF0FF320135049368
:100B3000079306938DF853301A93059204E0049AB4
:100B400007FA03F31343049329780522304601F092
:100B5000B7F82C46831B01350028F0D1049BD90639
:100B600044BF20228DF8532021781A0744BF2B223E
:100B70008DF853202A2969D0A1F13002092A0BD817
:100B8000079B14F8011F03EB830302EB4303A1F15E
:100B90003002092AF5D907932E293FD0504D032260
:100BA000284601F08DF838B1049B401B402202FA20
:100BB00000F003430134049321784A488DF828104B
:100BC0000622013401F07CF8002849D0464BF3B1ED
:100BD00003AB00934A46454B04A95046AFF300804F
:100BE0008046B8F1FF3F06D0099B43440993237820
:100BF000002B7FF47CAFB9F80C305B0659D4099810
:100C00001DB0BDE8F08FB5EB040B8CD07DE7039BE6
:100C1000073323F0070308330393E5E761782A29B4
:100C200004F1010026D0A1F130020023092A059326
:100C30000446B3D814F8011F03EB830302EB43030C
:100C4000A1F13002092AF5D90593A7E7039A1168A3
:100C50000432002903921FDB0791617801349BE77E
:100C600003AB00934A46214B04A9504600F0E6F836
:100C70008046B6E7039B1A680592002A03F1040335
:100C80000393B8BF4FF0FF3204F10203AEBFA17867
:100C9000A17805921C4681E7494243F0020307917F
:100CA0000493DAE74946504600F07AFA00283FF408
:100CB00010AF4FF0FF30A3E700F0A6FD044B9945BD
:100CC0007FF4F4AEDAF80490F9E6DAF80890F6E684
:100CD00014390000F4380000D438000054410000FA
:100CE0005C4100006041000000000000450A000077
:100CF00010B4044C13460A46014620685DF8044BC4
:100D0000FFF7C4BE0000FF1F2DE9F0470C469146D7
:100D10000A698968DDF820808A42B8BF0A46C9F8A6
:100D2000002094F8431006461F4611B10132C9F85D
:100D30000020236899065DD5D9F800200232C9F851
:100D40000020236813F0060F19461DD1E1688A1AA6
:100D5000002AD8BF194617DD04F1190A002505E05D
:100D6000E368D9F800209B1AAB420CDD0123524600
:100D700039463046C047013005F10105F0D14FF04A
:100D8000FF30BDE8F087216894F84330003318BF86
:100D900001238A060AD5E1185A1C302081F8430045
:100DA000224494F8451082F84310023304F14302C0
:100DB00039463046C0470130E1D0236803F00603CE
:100DC000042B29D0A36822699342C8BF4FF00009C1
:100DD00030DD9B1A99441A34002501E04D4529D095
:100DE0000123224639463046C047013005F101054E
:100DF000F4D1C4E713F0060F08D1E168D9F8002058
:100E00008A1A002AD8BF1946A6DCBDE794F84330F9
:100E1000003318BF0123C9E7D9F80010E068A368C0
:100E20002269A0EB0109934229EAE979D1DCB9F101
:100E3000000FD0D10020BDE8F08700BF2DE9F043BE
:100E40000C46097E85B06E29064617460C989846D2
:100E500004F1430C55D00FD8632900F01B8100F238
:100E6000D68000295CD0582940F0E88084F84510ED
:100E70002268DFF860E213E0732900F0FD8000F2E1
:100E800089806F2900F0E480702940F0D7802268C3
:100E900042F0200222607823DFF83CE284F84530FB
:100EA0000368150603F1040100F1FF8055064BBFEE
:100EB0001B881B6801600160D00744BF42F020021C
:100EC0002260002B40F09580226822F020022260F0
:100ED0001021002284F843206068A0600028C0F23E
:100EE0008D80226822F004022260002B67D1002846
:100EF00040F08680654608296FD0ACEB050323617E
:100F000011E023681A0600F1D38013F0400F036844
:100F1000626903F1040101601B6814BF1A801A6042
:100F2000002365462361CDF800803B4603AA214695
:100F30003046FFF7E9FE013021D02A4623693946C1
:100F40003046C04701301AD02368E06813F0020F22
:100F5000039B19D0C21A002A16DD04F119090025D5
:100F600004E0E068039BC21AAA420DDD01234A4651
:100F700039463046C047013005F10105F1D14FF047
:100F8000FF3005B0BDE8F0839842B8BF184605B001
:100F9000BDE8F08375295BD078294FD122687AE7C4
:100FA0006168A1602D200029C3F1000384F843008B
:100FB00021DB22F00402DFF81CE122600A216546F1
:100FC000B3FBF1F201FB123013461EF8002005F8C6
:100FD000012D002BF4D108298FD12368D9078CD596
:100FE000626823699A4288DC302305F8013C013DA0
:100FF00083E710216DE7DFF8DCE00A21002BDED16A
:101000009EF8003084F8423004F1420573E7642909
:1010100001D0692912D122680368150603F1040181
:1010200052D455064BBFB3F900301B680160016014
:10103000002BB5DBDFF89CE00A214DE7012384F8A3
:101040004210236104F14205002384F843306AE72B
:1010500023681A0633D413F0400F036803F1040227
:1010600015BF1B881B68026002606F2914BF0A212C
:101070000821DFF860E02CE703686268191D016051
:101080001D680021284600F01BFE00B3401B606075
:101090002061D9E703681A68191D0123016004F172
:1010A000420584F842202361CEE701601B6803E714
:1010B00003686269191D01601B681A6030E70368E4
:1010C0001A1D02601B68D0E701601B68B0E760680A
:1010D000DEE700BF684100007C410000F8B50D4626
:1010E0001446064610B18369002B42D0254B9C4222
:1010F00044D0254B9C4243D0244B9C4208BFF4680B
:10110000A389A269A2601A0722D5236903B32268C2
:101110006169D31AEDB28B422F4621DA0133A168FF
:10112000501C0139A1602060157062699A4206D096
:10113000A389DB0701D50A2D01D03846F8BD214629
:10114000304600F025FA0028F7D04FF0FF37F4E7DB
:101150002146304600F024F80028F6D12369D6E76E
:101160002146304600F014FA0028EED1226801230F
:10117000D5E700F049FB034B9C42BAD17468BFE746
:10118000B468BDE714390000F4380000D43800001A
:10119000024B0A4601461868FFF7A0BF0000FF1F78
:1011A000384B70B51D6806460C4615B1AB69002B6F
:1011B00042D0354B9C4245D0344B9C4258D0344BA6
:1011C0009C4208BFEC68B4F90C2093B219070CD507
:1011D0002069A8B113F001021ED0636900225B42AE
:1011E000A361A260F0B1002070BDDD0642D55807B2
:1011F0002AD4206942F00803A3819BB20028E9D1D8
:1012000003F42072B2F5007FE4D03046214600F0AE
:1012100011FDA3892069DDE7990758BF6269A260C3
:101220000028E0D1B4F90C301A06DDD543F04003B4
:10123000A3814FF0FF3070BD284600F0E5FA124B55
:101240009C42B9D16C68BEE7616B51B104F14403B3
:10125000994204D0304600F0E7FDB4F90C20002399
:10126000636300232069636022F024022060C1E7E9
:10127000AC68A8E742F04002092333604FF0FF302A
:10128000A28170BD0000FF1F14390000F438000077
:10129000D43800002DE9F0472E4F3C6805468846BB
:1012A00091469A46002C37D066681F2E12DD2A4BD5
:1012B000002B4AD08C20AFF300800446002844D095
:1012C0003B680360002338604360C0F8883075BB1A
:1012D000012314E08DB1D4F8880030B3D0F8007148
:1012E00040F826900123B34000EB86021F43022DF5
:1012F000C0F80071C2F880A008D0731C35460235D2
:101300006360002044F82580BDE8F087D0F8042110
:101310001343C0F80431F0E7104B114C3C60002B34
:10132000C2D01B68C4F88830BEE70B4B6BB14FF4DA
:101330008470AFF3008040B100276668C0F8007188
:10134000C0F80471C4F88800CAE74FF0FF30BDE868
:10135000F08700BF1C01FF1F00000000000000001C
:101360009000FF1F2DE9F04F83B00F460190384BDE
:10137000D3F80090B9F1000F31D09B46D9F8045052
:10138000D9F888806C1E11D4AD002E1D4E44454402
:1013900047B3B8F1000F02D0EB6F9F4222D0013C5F
:1013A000631CA5F10405A6F10406F1D1294BB3B1E4
:1013B000D9F80430002B43D1D9F800307BB1CBF8F9
:1013C0000030B8F1000F02D04046AFF3008048462D
:1013D000AFF30080DBF80090B9F1000FCED103B07D
:1013E000BDE8F08FD9F804303268013BA34216BF44
:1013F0000023C9F804403360002AD0D0D9F804A0F3
:10140000B8F1000F16D0D8F800110123A3400B4209
:1014100010D0D8F804110B420ED155F8041C0198D5
:101420009047D9F804309A45A1D1DBF800304B45FC
:10143000B5D09CE79047F4E755F8040C9047F0E7E7
:10144000CB46D9F80090B9F1000F97D1C7E700BF9C
:101450001C01FF1F0000000008B5062000F05AFE26
:10146000012000F0A7FF00BF8B891A072DE9F0418A
:101470000D46804633D44A68002A67DDEC6A002CAA
:1014800045D00022D8F80060C8F8002013F480523C
:1014900060D06A6D5F0705D569686B6B521A0BB136
:1014A0002B6CD21A0023296A4046A047441C39D02D
:1014B000AB892A692A60DB044FF000026A6043D4DA
:1014C000696BC8F8006011B305F14403994202D07A
:1014D000404600F0A9FC00206863BDE8F0810E6979
:1014E000AEB10C680E6098070CBF4B690023A41BBB
:1014F0008B600AE023463246AF6A296A4046B84705
:101500000028A4EB0004064404DD002CF2DC0020DB
:10151000BDE8F081AB8943F04003AB814FF0FF3071
:10152000BDE8F081D8F800201D2AF3D8174BD3402E
:10153000DB4313F00103EDD1A9892C696B60C90469
:101540002C60BDD5002ABBD16865B9E70A6C002ABA
:1015500094DCDCE70123296A4046A047431C02468D
:1015600002D0AB89EC6A95E7D8F80030002BF8D0B0
:101570001D2B01D0162B02D1C8F80060C7E7AB893C
:1015800043F04003AB81BDE8F08100BF0100402083
:101590000B6933B310B5044682B008B18369ABB1AF
:1015A000114B994219D0114B994218D0104B9942C6
:1015B00008BFE168B1F90C3013B9002002B010BDCA
:1015C000204602B0BDE81040FFF74EBF019100F089
:1015D0001BF90199044B9942E5D16168EAE7A168DA
:1015E000E8E70020704700BF14390000F43800001D
:1015F000D438000020B1054B01461868FFF7C8BF7A
:10160000034B0449186800F0BDBA00BF0000FF1F7B
:10161000D03800009115000000207047014900F00B
:10162000B1BA00BF911500000020704770B54A1E86
:10163000682505FB02F50E4605F1740100F03CFC3F
:10164000044640B100210C30666005F1680221605B
:10165000A060FFF78FF9204670BD00BF204B70B52A
:101660001D68AB6906465BB348356B68AC68013BE7
:1016700005D521E0013B5A1C04F168041CD0B4F9E3
:101680000C20002AF6D100254FF6FF720123E281DB
:10169000A38165662560A560656025616561A561BA
:1016A0002946082204F15C00FFF764F96563A5632D
:1016B000A564E564204670BD286828B10546D4E7D6
:1016C000284600F00FF8CFE704213046FFF7AEFFC1
:1016D00028600028F2D10C2304463360EAE700BFFB
:1016E000D03800003D4B3E491A682DE9F04F90423A
:1016F0004FF000038364C364036508BF012383B014
:1017000008BF836181620746FFF7A8FF786038460B
:10171000FFF7A4FFB8603846FFF7A0FF7D68F860C8
:1017200000240423AB812C606C60AC606C66EC819F
:101730002C616C61AC61214605F15C000822FFF769
:1017400019F9BE68DFF89CB0DFF89CA0DFF89C9028
:10175000DFF89C80C5F824B001230922C5F828A031
:10176000C5F82C90C5F830802D622146F381B281F6
:1017700034607460B460746634617461B46106F19D
:101780005C0008220193FFF7F5F8FD68366212202D
:101790000222C6F824B0C6F828A0C6F82C90C6F8D5
:1017A00030802146A881EA812C606C60AC606C6658
:1017B0002C616C61AC6105F15C000822FFF7DAF87E
:1017C000019B2D62C5F824B0C5F828A0C5F82C905F
:1017D000C5F83080BB6103B0BDE8F08FD0380000A1
:1017E0001D16000085210000AD210000E921000048
:1017F00009220000024B0349186800F0C3B900BF7A
:10180000D038000091150000836903B96AE770477A
:10181000704700BF704700BF704700BF704700BFF0
:10182000024B0349186800F087B900BF0000FF1F92
:1018300029160000024B0349186800F07DB900BF6B
:101840000000FF1F191600009368002B73D02DE9CC
:10185000F04F8B8983B00C4619070090164626D5A9
:10186000226922B313F0020035682CD04FF0000932
:10187000B04FC846B246B84543464A4628BF3B46E5
:101880000098B8F1000F50D0216AA66AB04700282E
:1018900058DDDAF808301B1A8144A8EB0008CAF8B2
:1018A0000830002BE7D1002003B0BDE8F08F2146BF
:1018B0000098FFF775FC002840F03381A389356854
:1018C00013F00200D2D113F0010945D14F46019621
:1018D00037B39A05D4F8088040F183804745C34662
:1018E000C0F0AB8013F4906F40F0AC802068BA4633
:1018F0005A46494600F034FAA2682368A2EB08026F
:101900005B44A2602360019A9368A3EB0A03D1446D
:10191000A7EB0A079360002BC5D0A389002FD8D16D
:10192000D5F800906F680835D2E7D5F80090D5F863
:10193000048008359FE70020704721460098FFF794
:1019400027FE70B3B4F90C3043F040034FF0FF3082
:10195000A38103B0BDE8F08F814633464E46A846CA
:101960009A464D464EB380B3206823696269B145FB
:10197000CB4628BFB34698425F4604D9A3681344B8
:101980009B4500F3A68093454BDB1346A76A216A6B
:1019900000982A46B847071ED4DDB9EB0709CCD01A
:1019A0000120DAF80830DB1B3D44F61BCAF808308A
:1019B000002B3FF478AF002ED5D108F1080313E9CE
:1019C000600098460833002EF9D032460A21284696
:1019D00000F076F9002800F0A1800130A0EB0509A5
:1019E000C2E720682369984202D863699F425DD2AA
:1019F000B84528BFB8464246494600F0B1F9A36849
:101A00002268A3EB08034244A36022600BB1C246E4
:101A100079E721460098FFF7BBFD002892D1C24626
:101A200071E75A46294600F09BF9A2682368A2EBA9
:101A30000B025B44A2602360AFE72068B846BA4659
:101A4000BB4655E762692068216902EB4208A0EBBA
:101A5000010A08EBD8780AF101004FEA6808384417
:101A60004045424684BF804642465B0544D5114608
:101A7000009800F021FA8346002855D0524621698B
:101A8000FEF7DEFEA38923F4906343F08003A38175
:101A90000BEB0A00A8EB0A03C4F810B0C4F81480DA
:101AA0002060A360B846BA46BB4621E76FF000410C
:101AB000B94228BF39464A4691FBF3F10098A66A1D
:101AC00003FB01F3216AB047B0F1000A3FF71BAFF7
:101AD00038E71A462946019300F042F92268019B33
:101AE00000981A4422602146FFF752FD019B00280E
:101AF0007FF428AF1F4650E7009800F03BFA83467A
:101B00000028C5D1009D2169284600F08DF9B4F95F
:101B10000C300C2223F080032A6015E706F101093E
:101B200022E74FF0FF30BFE6009A0C231360B4F9B0
:101B30000C3009E700FCFF7F2DE9F04110F1480768
:101B40001BD0884600267D68BC68013D0FD4A38960
:101B5000012B05F1FF3506D9B4F90E3001332046CB
:101B600001D0C04706436B1C04F16804EFD13F6805
:101B7000002FE8D13046BDE8F0813E463046BDE852
:101B8000F08100BF2DE9F84310F148071FD08846C7
:101B900006464FF000097D68BC68013D11D4A38959
:101BA000012B05F1FF3508D9B4F90E300133214678
:101BB000304602D0C04749EA00096B1C04F16804B2
:101BC000EDD13F68002FE6D14846BDE8F883B9461D
:101BD0004846BDE8F88300BF70B50C46B1F90E1059
:101BE000002990B015461E4613DB01AA00F038FB11
:101BF00000280EDB029A02F47042A2F50052B2FAFB
:101C000082F252094FF48063002032602B6010B0E2
:101C100070BDA38900221B06326004D5402300203A
:101C20002B6010B070BD4FF4806300202B6010B0AB
:101C300070BD00BF8A8992070B4606D501F14702A5
:101C400001211A601A6159617047F0B583B001AB88
:101C50006A460C460546FFF7BFFF00990646284630
:101C600000F02AF9B4F90C30D0B1019A124F009962
:101C7000AF6243F08003A3812060206161611AB9E3
:101C80003343A38103B0F0BD2846B4F90E1000F031
:101C9000FBFAB4F90C300028F2D043F00103EFE76F
:101CA0009A05EFD404F1470243F002030121A38116
:101CB000226022616161E5E71D160000000000005E
:101CC00001F0FF01102A2BDB10F0070F08D010F8ED
:101CD000013B013A8B422DD010F0070F42B3F6D1F1
:101CE000F0B441EA012141EA014122F007047FF00A
:101CF00000070023F0E80256083C85EA010586EA61
:101D0000010685FA47F5A3FA87F586FA47F6A5FA9C
:101D100087F68EB9EED1F0BC01F0FF0102F00702A8
:101D200032B110F8013B013A83EA010313B1F8D153
:101D30000020704701387047002D06BF3546033834
:101D4000073815F0010F07D1013015F4807F02BF6D
:101D5000013015F4C03F0130F0BC0138704700BFBE
:101D60008842F0B50DD98B1898420AD28418002AFF
:101D700051D0224613F8014D02F8014D9942F9D194
:101D8000F0BD0F2A48D941EA00039B0746D100F174
:101D9000100401F11003154653F8106C44F8106C50
:101DA00053F80C6C44F80C6C53F8086C44F8086C4D
:101DB000103D53F8046C44F8046C0F2D03F110032C
:101DC00004F11004E8D8A2F1100323F00F0302F08D
:101DD0000F0E1033BEF1030F1944034421D91E1F07
:101DE0000D467446043C55F8047B46F8047F032CEA
:101DF000F8D8AEF1040424F003040434214423444D
:101E000002F0030262B1013B0A4411F8014B03F8EE
:101E1000014F8A42F9D1F0BD0346F3E70346F2E7EA
:101E2000F0BD7246EEE700BF91B151F8043C0439B1
:101E3000002BB8BFC9181F4B1A68FAB18A4230B4D8
:101E40000AD908680C18A24226D04A60196030BC32
:101E500070478B4203D81A465368002BF9D1146897
:101E600015198D420DD006D808680C189C4219D05F
:101E70004B605160EBE70C230360E8E74A601960B0
:101E8000704709680C44111999421460DFD10ACBDC
:101E90000C4453601460DAE7146852684A602044C6
:101EA0000860D3E71C685B684B60204408605160A1
:101EB000CDE700BF2001FF1F70B5CC1C24F0030448
:101EC00008340C2C38BF0C24002C06463BDBA14206
:101ED00039D8274D296851B10A68121B04D436E05D
:101EE0001A68121B1AD519464B68002BF8D169687D
:101EF000002937D02146304600F064F8431C22D038
:101F0000C31C23F00305A84205D0291A304600F06F
:101F100059F8013017D02C602B4604E00B2A0DD95C
:101F20001A6013441C6003F10B0020F007001A1D17
:101F3000821A02D05142995070BD70BD8B420ED0B2
:101F40005A684A60EFE70C233360002070BD0B2A0B
:101F500003D84A680B462A60E5E70B46E0E70A46E5
:101F60000B46F8E7304600F02DF86860C2E700BF86
:101F70002001FF1FF8B51446F9B1C2B106460D465F
:101F800000F0AAF9844201D82846F8BD214630461F
:101F9000FFF792FF074670B122462946FEF750FC34
:101FA000294630463D46FFF73FFF2846F8BDFFF77C
:101FB0003BFF2546E8E70546E6E71146BDE8F84061
:101FC000FFF77ABF38B5074C002305460846236063
:101FD00000F0DAF9431C00D038BD2368002BFBD099
:101FE0002B6038BD7003FF1F10B580210446FFF73A
:101FF00063FF606440B1031F00227C3043F8042F6C
:102000008342FBD1002010BD4FF0FF3010BD00BF58
:10201000436C0BB100207047E6E700BF1F2909D8C9
:1020200010B5446C84B054B154F8210044F8212018
:1020300004B010BD162202604FF0FF3070470390CD
:1020400002920191FFF7D0FF20B9039B029A5C6CCA
:102050000199E9E74FF0FF30EAE700BF1F2927D8D1
:1020600020B5426C82B00546AAB152F8213093B136
:10207000012B0ED0581C07D00025084642F82150ED
:102080009847284602B020BD162301202B6002B0DD
:1020900020BD0020F6E72846019100F071F8019973
:1020A0000A460146284602B0BDE8204000F054B878
:1020B000162303604FF0FF30704700BF1F2926D85A
:1020C00020B5436C82B00546BBB153F8212003EB29
:1020D000810382B1501C0BD0012A06D0002508468E
:1020E0001D609047284602B020BD032002B020BDED
:1020F000022002B020BD0120F5E70191FFF774FF37
:1021000010B96B6C0199E0E74FF0FF30EBE74FF04F
:10211000FF307047024B01461868FFF79FBF00BFB2
:102120000000FF1F024B0A4601461868FFF776BF02
:102130000000FF1F034B1868436C0BB10020704771
:1021400052E700BF0000FF1F024B01461868FFF76F
:10215000B5BF00BF0000FF1F38B50B46074C054652
:10216000114618460023236000F0F6F8431C00D007
:1021700038BD2368002BFBD02B6038BD7003FF1FD8
:1021800000F0DAB810B50C46B1F90E1000F0AEF858
:10219000002803DB636D0344636510BDA38923F44A
:1021A0008053A38110BD00BF002070472DE9F0418E
:1021B0001646B1F90C201F46D3050C46054607D537
:1021C00000220223B1F90E1000F070F8B4F90C20CF
:1021D000B4F90E1022F48052A2813B4632462846C2
:1021E000BDE8F04100F014B810B50C46B1F90E107E
:1021F00000F05CF8A389421C0EBF23F4805343F423
:1022000080536065A38110BDB1F90E1000F016B8BF
:1022100070B50D46084C114606461A46284600235E
:10222000236000F0BFF8431C00D070BD2368002B72
:10223000FBD0336070BD00BF7003FF1F38B5074C83
:10224000002305460846236000F066F8431C00D0D2
:1022500038BD2368002BFBD02B6038BD7003FF1FF7
:1022600038B50B46074C0546114618460023236037
:1022700000F05AF8431C00D038BD2368002BFBD077
:102280002B6038BD7003FF1F38B5074C002305468F
:102290000846236000F058F8431C00D038BD23687E
:1022A000002BFBD02B6038BD7003FF1F70B50D46AF
:1022B000084C114606461A4628460023236000F0C3
:1022C00053F8431C00D070BD2368002BFBD0336053
:1022D00070BD00BF7003FF1F51F8040C0028A0F16F
:1022E0000400BCBF0B58C018704700BF70B50D4646
:1022F000084C114606461A4628460023236000F083
:102300003BF8431C00D070BD2368002BFBD033602A
:1023100070BD00BF7003FF1F024B58221A604FF0C0
:10232000FF3070477003FF1F024B58221A604FF0B6
:10233000FF3070477003FF1F024B58221A604FF0A6
:10234000FF3070477003FF1F024B58221A600020B5
:10235000704700BF7003FF1F024B58221A604FF0F6
:10236000FF3070477003FF1F024B58221A604FF076
:10237000FF3070477003FF1F024B58221A604FF066
:10238000FF3070477003FF1F044A05491368002B94
:1023900008BF0B4618441060184670472801FF1FFD
:1023A00000000020024B58221A604FF0FF307047A7
:1023B0007003FF1FFEE700BF0020704708B501F063
:1023C0007DFA002008BD08B501F06CFA002008BDB8
:1023D00010B5044600F0F6FD204601F069FA00F061
:1023E000F7FD22461021722000F0B0F8002010BD49
:1023F0001FB5224B6A4603F110066D4618685968EE
:10240000144603C40833B3422246F7D100F088FDD6
:1024100000F088FD00F0BAFD01F042FA284601F014
:1024200041FA682000F0E8FD652000F0E5FD6C2031
:1024300000F0E2FD6C2000F0DFFD6F2000F0DCFD1D
:102440000A2000F0D9FD00F079F80D4A10216B2028
:1024500000F070F80B4A1021702000F06BF80A4A67
:102460000021782000F066F80123084A12216D202F
:1024700000F044F800F08CF8FCE700BFBE38000024
:10248000C7230000D1230000B9230000BD230000B2
:1024900000207047A0F13003DBB2092B01D858B2FD
:1024A0007047A0F14103052B02D8373840B270477E
:1024B000A0F16103052B01D85738F7E74FF0FF3043
:1024C000704770B506460024B44201DB002070BDA1
:1024D00011F81400FFF7DEFF01EB440305465878BE
:1024E000FFF7D8FF002806DB002D04DB00EB05100A
:1024F00010550134E8E7012070BD0000F0B50B4E27
:102500003468092C0FDC3F290DD8DFF824E02701BF
:102510000EEB070501342B730EF807006960AA6003
:1025200034600020F0BD0120F0BD00BFCC01FF1FD2
:102530002C01FF1F0023FFF7E1BF0000024A00212A
:102540007620FFF7F7BF00BF912400002DE9F0418E
:1025500015460F4600F050FD0C4E2C46631B9F4263
:1025600004DC0A20BDE8F04100F046BDA04614F8A6
:10257000013B1B09F05C00F03FFD98F8003003F0D0
:102580000F03F05C00F038FDE8E700BF34390000CD
:102590002DE9F041B2B000F021FD274B27491A6820
:1025A0000023934203DB06D132B0BDE8F0811C0169
:1025B000645C844226D1214C1E01A7193B7BDB07BA
:1025C00022D40025A7190DF148087B68B5EB430F0D
:1025D00028D300F003FD0A2801D00D28E4D13444AB
:1025E00002AA12A96068FFF76CFF0028DCD1A3687B
:1025F00002A8984732AA012102F8C40D7A20FFF7F9
:10260000A5FFD1E70133CCE700F0E8FCFFF742FF7C
:102610000001C5B200F0E2FCFFF73CFF2844C0B265
:102620007860CEE700F0DAFC0A28BDD00D28BBD0D8
:1026300005F808000135C8E7CC01FF1F2C01FF1F7A
:1026400008B5084B196831B9074B084A08484FF4D8
:102650009561FEF753F8074B07481B689847BFF38F
:102660004F8F08BDD001FF1F56390000A23900006E
:102670008A390000DC01FF1F00F0024008B5084B5A
:10268000596831B9074B084A084840F2B341FEF790
:1026900035F8074B07481B689847BFF34F8F08BDB5
:1026A000D001FF1F44390000BB3900008A39000007
:1026B000D801FF1F00F00240064B9A79D20755BFA0
:1026C000054B064A1868187A42BFC0F342031068E7
:1026D000D8407047004006406800FF1F6400FF1F9D
:1026E00008B50E4B1B7B03F00303012B0ED004D364
:1026F000022B0B4818BF002008BD0A4B186860B9B0
:10270000094B0A4AEC210A48FDF7F8FF094B186803
:1027100018B9094B054AF121F5E708BD004006400C
:10272000006CDC02E001FF1FDB390000193A0000F9
:10273000E7390000E401FF1F013A000008B5FFF788
:10274000CFFFC0B10D4A13785178127BC3F3C20397
:1027500011F0300F20FA03F002F0030200D00AB1AA
:10276000022A08D1062B03D0072B05D0400908BD4B
:102770001423B0FBF3F008BD0C23FAE70040064039
:1027800008B5084B1B781B0609D5074B186838B9E4
:10279000064B074A07484FF4B871FDF7AFFF00201A
:1027A00008BD00BF00500640E001FF1FDB390000FC
:1027B000303A0000E739000008B50F4B1B68C3F33F
:1027C0008143022B09D0032B13D083B9FFF7D8FF25
:1027D000B0F5004F18BF002008BD084B186850B96D
:1027E000074B084A084840F28511FDF787FF002093
:1027F00008BD4FF47A7008BD00700440E401FF1F6B
:10280000013A0000473A0000E73900000D4A4168EC
:1028100041F2440310B5D15041F204040378115938
:102820001B0421F4403103F440330B43135143782C
:1028300011689B0403F4402321F440210B431360EF
:1028400010BD00BF0070044008B5104B5A789107C6
:1028500001D5002008BD9A799206FAD49B79DB064F
:1028600010D4FFF76BFF0028F3D0084AD378D27852
:10287000C3F341135B0003EBD213054A32F8133064
:10288000584308BD034B1868EDE700BF0040064001
:10289000923A00006800FF1F034B187810F0020006
:1028A00001D0FFF709BF70470040064010B50D4C3E
:1028B000A07910F0400014D0FFF712FF30B90A4B96
:1028C0000A4A0B4840F28321FDF718FF237903F0F1
:1028D0001F030133B0FBF3F0637903F01F031833D8
:1028E000584310BD004006400E3A00005D3A00001B
:1028F000E739000041F20403074AD358C3F3014308
:10290000012B02D003D2FFF79FBFFFF7CFBF032BEE
:10291000024818BF0020704700700440006CDC02C1
:10292000084B9B79C3F38103022B09D0032B03D0FF
:10293000012B03D1FFF7C0BEFFF7B8BFFFF784BF7D
:10294000FFF7CEBE0040064010B50A4B9B79DB0670
:1029500006D4FFF7F3FE04462CB90024204610BD30
:10296000054B1C68F8E7FFF7DBFFB4EBD00FF4D89A
:10297000F4E700BF004006406800FF1F08B51328B9
:1029800050D8DFE800F00D4F18212A4F33374B4F56
:102990004F3B3F43474F4F4F510A4FF47A7008BDAA
:1029A000FFF7BEFF41F24403204AD3581B0F013307
:1029B000B0FBF3F008BDFFF7B3FF41F244031B4A3D
:1029C000D358C3F30363F2E7FFF7AAFF41F24403CE
:1029D000164AD358C3F30353E9E7FFF7A1FF41F2C7
:1029E0004403124AD358C3F30343E0E7BDE8084069
:1029F000FFF780BFBDE80840FFF7DEBEBDE8084036
:102A0000FFF7A2BFBDE80840FFF746BFBDE808409A
:102A1000FFF71ABFBDE80840FFF748BFBDE8084010
:102A2000FFF7AEBE002008BD014808BD007004409D
:102A3000006CDC0210B50A490A7B0B7B00F0030432
:102A400003F0FC0323430B7302F00303834203D020
:102A500040F2DD53013B01D1002010BD00BFF9E77A
:102A60000040064008B530B90E4B0F4A0F4840F2FF
:102A70004331FDF743FE42780D4B02F01F021A71FD
:102A80005979827801F0E00102F01F020A435A717D
:102A90001A7942F0400102780A431A719A79520673
:102AA000FCD508BDD43900006F3A0000E7390000BA
:102AB00000400640036849F69702934210B522D9B8
:102AC000124CA34294BF01240224114902790B78CD
:102AD00003F0F00313430B700B78827903F05F036C
:102AE00013430C4A0B705378407903F0C30303433C
:102AF00043EA0413537028B10B78190602D5937971
:102B00009B07FCD510BD0024DFE700BF00127A0050
:102B1000005006400040064038B531B9154B164A02
:102B2000164840F2CF51FDF7E9FD154B5A7802F0F7
:102B3000FD025A701A7802F03B0242F080021A70CD
:102B40009A7902F01C02082AFAD15A790C4C02F048
:102B5000BF025A712546A3799A06FCD40846FFF7AE
:102B600081FF637943F040036371AB799B06FCD529
:102B7000002038BDD4390000803A0000E739000059
:102B800000400640084A08B5002352F8231081424D
:102B900008D00133062BF8D1044B054A0548A5217E
:102BA000FDF7ACFD184608BDA83B0000A23A0000A6
:102BB000643B00004B3B0000F8B504460D4629B9C4
:102BC000594B5A4AD0215A48FDF798FD0B681BB95A
:102BD000584B564AD121F6E75749884219D001F59A
:102BE0008051884215D001F58051884213D001F5FB
:102BF000805188420FD001F5FA21884214BF4FF06E
:102C0000FF310121A879814207DA4C4B474AD32191
:102C1000D9E70821F6E70121F4E7E879814203DAF0
:102C2000474B424AD421CEE71E01B2FBF6F6B6B2BC
:102C3000002E08BF012671015200B2FBF3F77F1A84
:102C4000BFB23944B2FBF1F2934234BFD21A9A1A9E
:102C50006421B3FBF1F303EB43039A4260D82046AF
:102C6000FFF790FF374B53F820100B0C03F1804314
:102C700003F58E2389B2186801228A4002431A6044
:102C8000E37803F0F303E370237803F0E00343EA0F
:102C90001623DBB2F6B223706670A37A07F01F0723
:102CA00003F0E0031F43A772AA7AA378920002F010
:102CB000040203F0E80313432A7912B142F0100230
:102CC0001343A3706B7922785B0103F0200302F0B9
:102CD000DF0213432370AB79E374EB796375237CD4
:102CE00043F088032374637C43F0C00363742B7A3E
:102CF0001BB1637B43F0080363736B7A1BB1637B87
:102D000043F001036373E378EA7ADBB20AB143F07C
:102D100008032A7B0AB143F00403E3700020F8BDE6
:102D200040F2F530F8BD00BFD4390000753B00001B
:102D30004B3B0000BC3A000000A00640D13A000026
:102D40000E3B0000C03B000008B530B90A4B0B4AEF
:102D50000B4840F26F11FDF7D1FC4FF4E1330360F3
:102D6000012200238371C2710371437103724372A4
:102D70008372C372037308BDD43900007F3B000027
:102D80004B3B000002794179037B807C1B0443EAC2
:102D90000123134343EA006070470A44914200D183
:102DA000704703791B06FCD511F8013BC371F5E7A9
:102DB00070B506460C4621B18D18AC4213D10020E7
:102DC00070BD124B124A134840F25321FDF796FC96
:102DD0003046FFF7D7FF03070CD441070DD4820715
:102DE0000ED4C3070FD4B37D002BF1D0F37904F8D0
:102DF000013BE2E740F2F13070BD40F2F23070BDCD
:102E000040F2F33070BD4FF47D7070BDEC3C0000BB
:102E1000953B00004B3B000008B5044A044B116889
:102E20001B6804489847BFF34F8F08BDE801FF1F98
:102E30000002FF1F00A0064008B5FFF7EDFFBFF33B
:102E40004F8F08BD08B5044A044B51681B680448FD
:102E50009847BFF34F8F08BDE801FF1F0002FF1F17
:102E600000B0064008B5FFF7EDFFBFF34F8F08BD78
:102E700008B5044A044B91681B6804489847BFF39F
:102E80004F8F08BDE801FF1F0002FF1F00C0064072
:102E900008B5FFF7EDFFBFF34F8F08BD08B5044A33
:102EA000044BD1681B6804489847BFF34F8F08BD97
:102EB000E801FF1F0002FF1F00D0064008B5FFF722
:102EC000EDFFBFF34F8F08BD08B5044A044B1169ED
:102ED0001B6804489847BFF34F8F08BDE801FF1FE8
:102EE0000002FF1F00A00E4008B5FFF7EDFFBFF383
:102EF0004F8F08BD08B5044A044B51691B6804484C
:102F00009847BFF34F8F08BDE801FF1F0002FF1F66
:102F100000B00E4008B5FFF7EDFFBFF34F8F08BDBF
:102F200000F0CEB8164A136843F4005310B513608E
:102F300052F8043C43F4006342F8043C0322134675
:102F400062F30A230F4A86B0938002A81380FFF72A
:102F5000FBFE00244FF416430293204601238DF814
:102F600013308DF814308DF80F40FFF707FD0190F6
:102F7000019A054802A9FFF71FFE06B010BD00BF69
:102F80003880044000D0044000B006400B4A13B51E
:102F9000D3680B4C23F4E06343F48073D3600123C4
:102FA0008DF8043001AA0023032120468DF8053056
:102FB00000F030F80823A36002B010BD00D0044038
:102FC00000F10F40014B08225A60704700F10F409A
:102FD000014B08229A60704700F10F4007B50122AB
:102FE0000DF107010348FFF7E3FE9DF8070003B06A
:102FF0005DF804FB00B0064007B502A9012201F804
:10300000010D0348FFF7C9FE03B05DF804FB00BFE4
:1030100000B0064010B52AB90C4B0D4A0D485F218F
:10302000FDF76CFB147801232CB942698B4022EA2E
:103030000303436110BD52788B402AB98360426913
:1030400001238B401343F4E74360F8E7D4390000D1
:10305000143C0000FB3B0000084AD2F8883043F4DF
:103060007003C2F88830064B4CF22052DA814DF6DC
:103070002812DA814FF4E9721A80704700ED00E0FF
:103080000020054008B5084B196831B9074B084ABC
:10309000084840F61601FDF731FB074B07481B684F
:1030A0009847BFF34F8F08BD0402FF1F213C00006B
:1030B000713C0000553C00000802FF1F0040024028
:1030C00008B50F4A0F4841F244034FF08271D150C6
:1030D000FFF7F0FC0C4B0D4A1A600D4A137803F011
:1030E000C70313700020FFF7A5FC0A490020FFF773
:1030F00013FD0948FFF78AFB084B094A1A6008BD0F
:1031000000700440943C0000E001FF1F1075700047
:10311000004006408F3C00009C3C00006C00FF1FFC
:1031200080841E0010B5C278D20603460C4602D435
:103130008278920607D5064A2146126818469047BB
:10314000BFF34F8F10BD034B1B689847F8E700BFD4
:103150001802FF1F1C02FF1F024B03481968FFF7EC
:10316000E1BF00BF0C02FF1F00600640024B034896
:103170005968FFF7D7BF00BF0C02FF1F0070064061
:10318000024B03489968FFF7CDBF00BF0C02FF1F39
:1031900000600E4008B5084B196831B9074B084A62
:1031A000084840F28B51FDF7A9FA074B07481B6806
:1031B0009847BFF34F8F08BD2002FF1FA43C0000BB
:1031C000F13C0000BB3C00002402FF1F00100B403C
:1031D00070B5054630B9274B274A284840F24B3195
:1031E000FDF78CFA8268017CD177C368046833B933
:1031F0002CB141680122A446BDE87040604702EB53
:10320000411241F21C0041F218015158125A02F0C9
:103210008002002AA1EB030114BF012200224FEA21
:10322000511114D0C9B26B7C5BB2994217D1EB7CBF
:10323000287D98421BD1EB7C5BB249B26974E97C72
:10324000C91A49B2E974A4B169682846D3E709B13B
:103250000139E7E7297D013901F0FF01E3E76B7CE4
:103260005BB2CB1AE9D5287D43FA80F3E5E700236A
:10327000E3E770BD073D0000523D0000393D00000E
:1032800008B5034B1868FFF7A3FFBFF34F8F08BDC6
:103290002802FF1F08B5034B5868FFF799FFBFF3DB
:1032A0004F8F08BD2802FF1F08B5034B9868FFF732
:1032B0008FFFBFF34F8F08BD2802FF1F08B5034BD8
:1032C000D868FFF785FFBFF34F8F08BD2802FF1FA7
:1032D00008B5034B1869FFF77BFFBFF34F8F08BD9D
:1032E0002802FF1F08B5034B5869FFF771FFBFF3B2
:1032F0004F8F08BD2802FF1F08B5034B9869FFF7E1
:1033000067FFBFF34F8F08BD2802FF1F08B5034BAF
:10331000D869FFF75DFFBFF34F8F08BD2802FF1F7D
:1033200008B5034B186AFFF753FFBFF34F8F08BD73
:103330002802FF1F08B5034B586AFFF749FFBFF388
:103340004F8F08BD2802FF1F08B5034B986AFFF78F
:103350003FFFBFF34F8F08BD2802FF1F08B5034B87
:10336000D86AFFF735FFBFF34F8F08BD2802FF1F54
:1033700008B5034B186BFFF72BFFBFF34F8F08BD4A
:103380002802FF1F08B5034B586BFFF721FFBFF35F
:103390004F8F08BD2802FF1F08B5034B986BFFF73E
:1033A00017FFBFF34F8F08BD2802FF1F08B5034B5F
:1033B000D86BFFF70DFFBFF34F8F08BD2802FF1F2B
:1033C00008B50368002BB4BF034B044B1B68984738
:1033D000BFF34F8F08BD00BF7402FF1F7802FF1FAD
:1033E00008B5074B196831B9064B074A074840F240
:1033F000E161FDF783F90648BDE80840FFF7E0BF4B
:103400006802FF1F9D3D0000CD3D0000843D00008F
:1034100000C0024008B5074B596831B9064B074A4E
:10342000074840F2E961FDF769F90648BDE8084040
:10343000FFF7C6BF6802FF1FAD3D0000E33D00007F
:10344000843D000000D0024008B5074B996831B9AF
:10345000064B074A074840F2F161FDF74FF906486D
:10346000BDE80840FFF7ACBF6802FF1FBD3D00008C
:10347000F93D0000843D000000C00A400A6803686E
:10348000534003604A684368534043608A688368D6
:1034900053408360CA68C3685340C36070470B6879
:1034A00010B514686340036054684B686340436020
:1034B00094688B6863408360CB68D2685340C36074
:1034C00010BD000020292DE9F0470C46154605D017
:1034D0005BD8102963D018295BD1182401462246F5
:1034E0002846FDF7ADF904F11C0C4FEA8C0C5FFA8D
:1034F0008CFC4FEA1C13013B2F4985F8F0304FF04C
:1035000001092346E818B3FBF4F204FB123212F06F
:10351000FF0210F804AC10F803EC10F8027C10F86D
:10352000016C3ED14FEAD91211F80E8011F807E074
:103530008F5D11F80A604FEA420A524402EBC20260
:1035400089EA080882EA49025FFA82F9C2461A1B30
:10355000D2B215F802808AEA080A05F803A02A44C4
:10356000043392F801808EEA080E80F801E092F8A8
:1035700002E087EA0E078770D278DBB256409C459E
:10358000C670BFD80020BDE8F087802907D0C029C9
:10359000A2E7002385F8F030FF20BDE8F087102473
:1035A0009CE7182CD3D9102A01BF11F80AA011F8F2
:1035B0000EE0CF5D8E5DCAE70F4000002DE9F04FB1
:1035C00092F8F03089B088461746002B00F06081F1
:1035D00001466846FFF763FFAE4CAF4DAF4E4FF06C
:1035E000010997F8F0304B455AD8AA4B9DF80020B6
:1035F0009DF805109A5C8DF800209DF80420595C18
:103600009A5C8DF804209DF808209A5C8DF80820BB
:103610009DF80C209A5C8DF80C209DF801208DF807
:1036200001109DF809109A5C595C8DF805109DF801
:103630000D108DF80D20595C8DF809109DF80A10B9
:103640009DF80220595C8DF802109DF80E109A5CCE
:103650008DF80A209DF80620595C8DF806109DF81B
:103660000B109A5C595C8DF80E209DF80F208DF898
:103670000F109DF80710595C8DF80B109DF8031082
:10368000595C8DF807109B5C8DF80330404607EBC2
:1036900009126946FFF703FF002009B0BDE8F08F6B
:1036A000102269460DEB0200FDF7CAF89DF81000E4
:1036B0009DF815A09DF81AC09DF81F1016F80AB0C5
:1036C0002B5C14F80C2014F801E083EA0B03534040
:1036D0008EEA03038DF80030235C8EEA030B15F8A5
:1036E0000AE08EEA0B0E16F80CB015F80CC08EEA44
:1036F0000B0E8DF801E014F80AE09DF819A083EA9A
:103700000E0382EA0E0E325C9DF8140016F80AB021
:1037100083EA0C0316F801C082EA0E0215F801E0F4
:103720009DF8131083EA0C039DF81EC08DF802303B
:1037300082EA0E022B5C8DF8032014F80C2014F89A
:1037400001E083EA0B0353408EEA03038DF8043053
:10375000235C8EEA030B15F80AE08EEA0B0E16F8CE
:103760000CB08EEA0B0E8DF805E014F80AE015F89F
:103770000CC09DF81DA083EA0E0382EA0E0E325C97
:103780009DF8180016F80AB083EA0C0382EA0E02CC
:1037900016F801C015F801E09DF8171083EA0C0334
:1037A00082EA0E029DF812C08DF807202A5C8DF87F
:1037B000063014F80C3014F801E082EA0B025A408B
:1037C0008EEA02028DF80820225C8EEA020B15F8C0
:1037D0000AE08EEA0B0E16F80CB015F80CC08EEA53
:1037E0000B0E8DF809E014F80AE09DF811A082EAAA
:1037F0000E0282EA0C0216F801C082EA0C028DF871
:103800000A20325C9DF816C09DF81B0083EA0E0367
:1038100053406A5C9DF81CE014F80C1053408DF87E
:103820000B30225C16F80AB015F80E3083EA0B0351
:103830004B4053408DF80C3014F80E3015F80AB098
:103840005A4082EA0B0216F80CB015F80CC082EA56
:103850000B028DF80D2014F80A2053404A4016F848
:103860000E1051402A5C83EA0C0316F800C0514048
:1038700083EA0C038DF80F10684607EB091109F174
:1038800001098DF80E305FFA89F9FFF7F7FDA8E618
:10389000FF2002E70F4000000F3E00000F3F000036
:1038A00070470000014A1021FFF70CBE7C02FF1F89
:1038B000014A0146FFF782BE7C02FF1F70472B7E44
:1038C000151628AED2A6ABF7158809CF4F3C0000DD
:1038D0000400FF1F000000000000000000000000C6
:1038E00000000000000000000000000000000000D8
:1038F00000000000000000000000000000000000C8
:1039000000000000000000000000000000000000B7
:1039100000000000000000000000000000000000A7
:103920000000000000000000000000000000000097
:1039300000000000303132333435363738394142F7
:1039400043444546735F73616948616E646C655BAF
:10395000305D5B315D00735F73616948616E646CFB
:10396000655B305D5B305D00696E7374616E6365CD
:10397000203C2041525241595F53495A4528735FB8
:10398000736169426173657329002E2E2F2E2F6893
:10399000616C2F6B3234662F66736C5F7361692EB6
:1039A0006300493253305F54785F447269766572C0
:1039B00049525148616E646C657200493253305F00
:1039C00052785F44726976657249525148616E64FB
:1039D0006C657200636F6E66696700675F7874611B
:1039E0006C3046726571002E2E2F2E2F68616C2F61
:1039F0006B3234662F66736C5F636C6F636B2E6320
:103A000000675F7874616C333246726571006D6374
:103A100067706C6C30636C6B00434C4F434B5F477B
:103A200065744D6367457874436C6B4672657100CD
:103A3000434C4F434B5F4765744F7363304572434C
:103A40006C6B4672657100434C4F434B5F47657426
:103A5000457233326B436C6B4672657100434C4F59
:103A6000434B5F476574506C6C3046726571004320
:103A70004C4F434B5F456E61626C65506C6C30001F
:103A8000434C4F434B5F5365745062654D6F6465A3
:103A900000008002DC020005B80580079508000AD6
:103AA000710B696E7374616E6365203C2075617281
:103AB000744172726179436F756E7400636F6E66E4
:103AC00069672D3E62617564526174655F4270730F
:103AD0000046534C5F464541545552455F5541524F
:103AE000545F4649464F5F53495A456E2862617399
:103AF0006529203E3D20636F6E6669672D3E7478B0
:103B00004669666F57617465726D61726B004653EA
:103B10004C5F464541545552455F554152545F46AE
:103B200049464F5F53495A456E28626173652920A3
:103B30003E3D20636F6E6669672D3E72784669660A
:103B40006F57617465726D61726B002E2E2F2E2F70
:103B500068616C2F6B3234662F66736C5F756172AF
:103B6000742E6300554152545F476574496E7374F7
:103B7000616E636500554152545F496E697400552A
:103B80004152545F47657444656661756C74436F58
:103B90006E66696700554152545F52656164426CBC
:103BA0006F636B696E67000000A0064000B00640BE
:103BB00000C0064000D0064000A00E4000B00E40FD
:103BC0000A0034100B0034100C0034100D003410B7
:103BD0000A0028100B002810696E7374616E63650B
:103BE000203C2041525241595F53495A4528735F46
:103BF0006770696F426173657329002E2E2F2E2F17
:103C000068616C2F6B3234662F66736C5F67706906
:103C10006F2E63004750494F5F50696E496E69745B
:103C200000735F666C657863616E48616E646C6595
:103C30005B305D002128626173652D3E4D4352204B
:103C4000262043414E5F4D43525F4D4449535F4DE3
:103C500041534B29002E2E2F2E2F68616C2F6B3273
:103C600034662F66736C5F666C657863616E2E6375
:103C70000043414E305F4472697665724952514843
:103C8000616E646C657200060000010000000000B7
:103C9000010000001075700000000000000000002E
:103CA00000001100735F7364686348616E646C6543
:103CB0005B305D0068616E646C65002E2E2F2E2FC8
:103CC00068616C2F6B3234662F66736C5F73646847
:103CD000632E630068616E646C652D3E636F6D6D6D
:103CE000616E640068616E646C652D3E6461746130
:103CF00000534448435F44726976657249525148A3
:103D0000616E646C65720068616E646C6520213D53
:103D1000204E554C4C00696E7374616E6365203C97
:103D20002041525241595F53495A4528735F656497
:103D30006D61426173657329002E2E2F2E2F6861ED
:103D40006C2F6B3234662F66736C5F65646D612E09
:103D5000630045444D415F48616E646C6549525152
:103D600000696E7374616E6365203C20415252415C
:103D7000595F53495A4528735F6473706942617390
:103D8000657329002E2E2F2E2F68616C2F6B323415
:103D9000662F66736C5F647370692E6300675F647F
:103DA00073706948616E646C655B305D00675F6469
:103DB00073706948616E646C655B315D00675F6458
:103DC00073706948616E646C655B325D0053504985
:103DD000305F44726976657249525148616E646C15
:103DE000657200535049315F447269766572495279
:103DF0005148616E646C657200535049325F447281
:103E00006976657249525148616E646C657200C68C
:103E1000F8EEF6FFD6DE916002CE56E7B54DEC8F98
:103E20001F89FAEFB28EFB41B35F452353E49B75C4
:103E3000E13D4C6C7EF5836851D1F9E2AB622A0812
:103E400095469D30370A2F0E241BDFCD4E7FEA1298
:103E50001D583436DCB45BA476B77D52DD5E13A604
:103E6000B900C140E379B6D48D67729498B085BB30
:103E7000C54FED869A66118AE904FEA078254BA20B
:103E80005D80053F2170F16377AF4220E5FDBF8182
:103E90001826C3BE35882E9355FC7AC8BA32E6C0C0
:103EA000199EA344543B0B8CC76B28A7BC16ADDBF3
:103EB000647414920C48B89FBD43C43931D3F2D511
:103EC0008B6EDA01B19C49D8ACF3CFCAF447106FBE
:103ED000F04A5C38577397CBA1E83E96610D0FE02E
:103EE0007C71CC9006F71CC26AAE6917993A27D943
:103EF000EB2B22D2A907332D3C15C987AA50A50365
:103F000059091A65D784D082295A1E7BA86D2CA521
:103F100084998D0DBDB1545003A97D1962E69A456F
:103F20009D408715EBC90BEC67FDEABFF7965BC2B6
:103F30001CAE6A5A41024F5CF434089373533F0C31
:103F400052655E28A10FB509369B3D2669CD9F1BA2
:103F50009E742E2DB2EEFBF64D61CE7B3E7197F531
:103F600068002C601FC8EDBE46D94BDED4E84A6B12
:103F70002AE516C5D75594CF100681F044BAE3F36D
:103F8000FEC08AADBC4804DFC17563301A0E6D4CAB
:103F900014352FE1A2CC3957F28247ACE72B95A01C
:103FA00098D17F667EAB83CA29D33C79E21D763BEC
:103FB000564E1EDB0A6CE45D6EEFA6A8A4378B326A
:103FC0004359B78C64D2E0B4FA0725AF8EE918D50F
:103FD000886F7224F1C751237C9C21DDDC8685909B
:103FE00042C4AAD8050112A35FF9D0915827B93865
:103FF00013B333BB7089A7B622922049FF787A8F1A
:10400000F88017DA31C6B8C3B07711CBFCD63A6363
:104010007C777BF26B6FC53001672BFED7AB76CA1E
:1040200082C97DFA5947F0ADD4A2AF9CA472C0B743
:10403000FD9326363FF7CC34A5E5F171D831150450
:10404000C723C31896059A071280E2EB27B27509B9
:10405000832C1A1B6E5AA0523BD6B329E32F8453EC
:10406000D100ED20FCB15B6ACBBE394A4C58CFD0B1
:10407000EFAAFB434D338545F9027F503C9FA85181
:10408000A3408F929D38F5BCB6DA2110FFF3D2CD54
:104090000C13EC5F974417C4A77E3D645D197360F1
:1040A000814FDC222A908846EEB814DE5E0BDBE0FE
:1040B000323A0A4906245CC2D3AC629195E479E7AE
:1040C000C8376D8DD54EA96C56F4EA657AAE08BA3C
:1040D00078252E1CA6B4C6E8DD741F4BBD8B8A70F4
:1040E0003EB5664803F60E613557B986C11D9EE19F
:1040F000F8981169D98E949B1E87E9CE5528DF8CDC
:10410000A1890DBFE6426841992D0FB054BB16003E
:104110002C2066756E6374696F6E3A200000000093
:10412000617373657274696F6E2022257322206635
:1041300061696C65643A2066696C6520222573228A
:104140002C206C696E65202564257325730A000098
:1041500043000000232D302B20000000686C4C0031
:1041600065666745464700003031323334353637AF
:104170003839414243444546000000003031323373
:104180003435363738396162636465660000000093
:10419000F8B500BFF8BC08BC9E467047F8B500BF34
:0841A000F8BC08BC9E46704704
:0841A8000CC3FF7F01000000C1
:0441B0007D0400008A
:0441B40055040000AE
:1041B8000400FF1F0000000014390000F43800005C
:1041C800D4380000000000000000000000000000DB
:1041D8000000000050410000000000000000000046
:1041E80000000000000000000000000000000000C7
:1041F80000000000000000000000000000000000B7
:1042080000000000000000000000000000000000A6
:104218000000000000093D0000800000000040018F
:044228000000000092
:040000030000051DD7
:00000001FF
