:100000000C9434000C9451000C9451000C94510049
:100010000C9451000C9451000C9451000C9451001C
:100020000C9451000C9451000C9451000C9451000C
:100030000C9451000C9451000C9451000C945100FC
:100040000C9451000C9451000C9451000C945100EC
:100050000C9451000C9451000C9451000C945100DC
:100060000C9451000C94510011241FBECFEFD8E026
:10007000DEBFCDBF11E0A0E0B1E0EAE1FDE002C0EB
:1000800005900D92A032B107D9F724E0A0E2B1E0CB
:1000900001C01D92A030B207E1F70E943B060C940C
:1000A0008B060C94000080E008950E940D0280E011
:1000B00008950E94090280E00895CF93DF93EC0138
:1000C000409A0E940B024098AE0160E170E082E726
:1000D0000E94E70080E0DF91CF91089580E00895CD
:1000E00090ED980F9A3010F4892F08959FEB980F98
:1000F000963010F4875308959FE9980F963010F4C6
:10010000875508958FEF0895BF92CF92DF92EF92B7
:10011000FF920F931F93CF93DF936C017A01EB0152
:100120008A01C8018E199F098C159D05A4F4888148
:100130000E947000B82E89810E94700087FD0EC059
:100140002296B7FC0BC090E1B99E800D1124F801F6
:1001500081938F01E6CF80E090E002C081E090E0E3
:10016000DF91CF911F910F91FF90EF90DF90CF9093
:10017000BF900895A0912001B0912101AA30B1054E
:10018000CCF460347105B0F496E09A9FF0019B9F27
:10019000F00D1124EE5DFE4F8083728361835483E2
:1001A000438325831196B0932101A093200180E021
:1001B00090E0089581E090E0089520E00C94BA006A
:1001C0004EE650E060E070E086E70C94DD00CF92F0
:1001D000DF92EF92FF920F931F93CF93DF938B01E8
:1001E000EA010E9400027E01C7018C1B9D0B801753
:1001F0009107B4F46701D701ED917D01E295EF70AD
:10020000F0E0E05FFE4F80810E940002D601EC9199
:10021000EF70F0E0E05FFE4F80810E940002E4CFCB
:100220008AE0DF91CF911F910F91FF90EF90DF90C7
:10023000CF900C940002AF92BF92CF92DF92EF92D8
:10024000FF920F931F93CF93DF93CDB7DEB7C15CBF
:10025000D1090FB6F894DEBF0FBECDBF0E94F901E1
:10026000409120015091210122E231E000E010E0B4
:10027000041715075CF52A5F3F4FF9013697908107
:10028000891321C026E0209FC001219F900D1124D9
:100290009C012E5D3E4F6901D90115968C9180FF1E
:1002A0001AC00E94F9010E947000F82EF29430EFFB
:1002B000F3220E94F9010E9470008F0D90E0F60178
:1002C0009283818308C00F5F1F4FD2CF0417150799
:1002D00009F455C0D7CF9E012F5F3F4F69017901C7
:1002E00026E0209FC001219F900D1124DC01AD5D0F
:1002F000BE4F5D01D5018D919C91880F991F97018B
:100300002C193D092817390750F40E94F9018A3049
:10031000B1F18D30A1F1F70181937F01EBCF0E9404
:10032000F9018A3011F08D3051F526E0209FC0018F
:10033000219F900D11248C010E5D1E4FAE014F5771
:100340005F4FB601F801818192810E948400892B60
:10035000B1F4D8011396ED91FC911497CE018F570B
:100360009F4F0995CF53DF4F8883C15CD040AE01CA
:100370004F535F4F61E070E08AE70E94E700CF5380
:10038000DF4F0FB6F894DEBF0FBECDBFDF91CF9128
:100390001F910F91FF90EF90DF90CF90BF90AF90A3
:1003A000089588E18093C10089E18093C400089595
:1003B000CF93DF9300D0CDB7DEB77A83698320E097
:1003C00030E049815A812417350769F04091C00017
:1003D00047FF06C02091C600FC01208380E004C0D6
:1003E0002F5F3F4FEECF81E00F900F90DF91CF91C5
:1003F00008958091C00087FFFCCF8091C6000895CA
:100400009091C00095FFFCCF8093C60008950C9496
:100410000F020C9410020C941B020C9439020895E4
:10042000E2E6F2E0DC012D91CD012193B2E0E2376A
:10043000FB07C1F708950F931F93CF93DF938C01B0
:10044000C0E1D2E0FE01DC018D91819382E0E032D7
:10045000F807D1F70E94B0058991F80181938F01C7
:10046000F2E0C032DF07C1F7DF91CF911F910F910A
:100470000895E0E2F2E0DC012D91CD012193B2E09C
:10048000E233FB07C1F70895637C777BF26B6FC59E
:100490003001672BFED7AB76CA82C97DFA5947F087
:1004A000ADD4A2AF9CA472C0B7FD9326363FF7CC63
:1004B00034A5E5F171D8311504C723C31896059A00
:1004C000071280E2EB27B27509832C1A1B6E5AA023
:1004D000523BD6B329E32F8453D100ED20FCB15B0E
:1004E0006ACBBE394A4C58CFD0EFAAFB434D338577
:1004F00045F9027F503C9FA851A3408F929D38F54B
:10050000BCB6DA2110FFF3D2CD0C13EC5F97441781
:10051000C4A77E3D645D197360814FDC222A9088F8
:1005200046EEB814DE5E0BDBE0323A0A4906245C84
:10053000C2D3AC629195E479E7C8376D8DD54EA9E9
:100540006C56F4EA657AAE08BA78252E1CA6B4C6B5
:10055000E8DD741F4BBD8B8A703EB5664803F60E0E
:10056000613557B986C11D9EE1F8981169D98E94FD
:100570009B1E87E9CE5528DF8CA1890DBFE6426816
:1005800041992D0FB054BB1600020406080A0C0E48
:1005900010121416181A1C1E20222426282A2C2E6B
:1005A00030323436383A3C3E40424446484A4C4E5B
:1005B00050525456585A5C5E60626466686A6C6E4B
:1005C00070727476787A7C7E80828486888A8C8E3B
:1005D00090929496989A9C9EA0A2A4A6A8AAACAE2B
:1005E000B0B2B4B6B8BABCBEC0C2C4C6C8CACCCE1B
:1005F000D0D2D4D6D8DADCDEE0E2E4E6E8EAECEE0B
:10060000F0F2F4F6F8FAFCFE1B191F1D1311171572
:100610000B090F0D030107053B393F3D33313735DA
:100620002B292F2D232127255B595F5D53515755CA
:100630004B494F4D434147457B797F7D73717775BA
:100640006B696F6D636167659B999F9D93919795AA
:100650008B898F8D83818785BBB9BFBDB3B1B7B59A
:10066000ABA9AFADA3A1A7A5DBD9DFDDD3D1D7D58A
:10067000CBC9CFCDC3C1C7C5FBF9FFFDF3F1F7F57A
:10068000EBE9EFEDE3E1E7E5000D0A0704010E0BEE
:100690000805020F0C0906030C05060B09000A0DDC
:1006A000030E0F08040701028D0102040810204008
:1006B000801B3636292F3BE0321BE8EAF6E0112496
:1006C000E30FF11D8491A2E3B2E00D901D902D90F7
:1006D0003D904D905D906D907D908D909D90AD90F2
:1006E000BD90CD90DD90ED90FD9008E814E02227BC
:1006F0003327F801ED0DF21F349108260326F80187
:10070000EE0DF21F34911326F801EF0DF21F349114
:100710002326F801EC0DF21F349133264024512496
:100720006224732484249524A624B724C824D924BD
:10073000EA24FB24A2E3B2E00D921D922D923D9299
:100740004D925D926D927D928D929D92AD92BD92F1
:10075000CD92DD92ED92FD92089500E013E022E447
:1007600032E040E152E0C2E5D2E00024112422242C
:1007700033245524A0E2B2E050961D902C9070E1F5
:1007800066274990DA01A40DB51D6C915C925C90CE
:10079000D901A40DB51D3C9061256325B12FA82F6B
:1007A0000C90A62F8C9183258225DA01A40DB51D0E
:1007B0005C925C908C937A9519F7662788270024C1
:1007C00011242224332408959F93AE0160E072E047
:1007D00082E592E0002400E11FE0DC01A10FB01DE2
:1007E0002C91DA01A20FB01D3C91DB01A20FB01DCC
:1007F0003C931A950A9589F748E856E000E11FE016
:10080000DC01A10FB01D2C91DB01A20FB01D3C91AA
:10081000FA01E20FF01D2491DE01A20FB01D3C93FE
:100820001A950A9569F79F910895002411242224AE
:10083000332444245524EE27FF2708E815E0A0E2DE
:10084000B2E050966C916370660F660FAE01362F62
:10085000EA01C30FD41D0880302C198001241A80AE
:1008600001241B800124202C088019800124F80118
:10087000E00DF51D00240490022418800124088254
:1008800009801A800124F801E00DF51D0024049070
:1008900002241980012409820A801B800124F801A6
:1008A000E00DF51D0024049002241A8001240A8220
:1008B0000B800324F801E00DF51D002404900224B0
:1008C0001B8001240B82362FEA0124E03227C30F5C
:1008D000D41D0880302C198001241A8001241B802B
:1008E0000124202C088019800124F801E00DF51D59
:1008F00000240490022418800124088209801A80B0
:100900000124F801E00DF51D002404900224198053
:10091000012409820A801B800124F801E00DF51DE5
:100920000024049002241A8001240A820B800324EC
:10093000F801E00DF51D0024049002241B80012421
:100940000B82362FEA0128E03227C30FD41D08801E
:10095000302C198001241A8001241B800124202CB2
:10096000088019800124F801E00DF51D0024049091
:10097000022418800124088209801A800124F801C9
:10098000E00DF51D00240490022419800124098241
:100990000A801B800124F801E00DF51D002404905D
:1009A00002241A8001240A820B800324F801E00D3E
:1009B000F51D0024049002241B8001240B82362F95
:1009C000EA012CE03227C30FD41D0880302C198097
:1009D00001241A8001241B800124202C0880198006
:1009E0000124F801E00DF51D002404900224188074
:1009F0000124088209801A800124F801E00DF51D08
:100A00000024049002241980012409820A801B809A
:100A10000124F801E00DF51D0024049002241A8041
:100A200001240A820B800324F801E00DF51D002447
:100A3000049002241B8001240B8200241124222410
:100A400033243327089562E372E040E152E0E2E5A7
:100A5000F2E0332780E1DB01EA012191A20FB31F0D
:100A6000C20FD31F0C911881102718838A9599F70C
:100A70000895A0E2B2E00D91102F0F7012951F7033
:100A80002C91322F2F7032953F70A2E5B2E0E8E949
:100A9000F6E0AF017FE080E12224672F6027FA01B2
:100AA000E60FF21D64916127FA01E60FF21D6491D1
:100AB0006227FA01E60FF21D64916327FA01E60F3F
:100AC000F21D64916D937A958A9539F70027112765
:100AD0009801A901BA01CB01DC01FD010895E0E212
:100AE000F2E070964191508128E834E0A0E0B3E054
:100AF00022246627A0E06A2F6427F901E60FF21D81
:100B0000649165276C93A395B1F744275527662711
:100B10000895E2E4F2E0A0E2B2E040E15D91519399
:100B20004A95E1F75527089540E152E062E472E00A
:100B3000002420E13FE0A2E5B2E0A30FB01D1C902D
:100B4000DA01A10DB01DEB01C10DD01D0C91188172
:100B500001270C933A952A9571F7002711270895DC
:100B6000FF93EF93DF93CF93BF93AF939F938F93B5
:100B70007F936F935F934F933F932F931F930F93A5
:100B8000FF92EF92DF92CF92BF92AF929F928F929D
:100B90007F926F925F924F923F922F921F920F928D
:100BA000A2E6B2E00D901D902D903D904D905D908D
:100BB0006D907D908D909D90AD90BD90CD90DD908D
:100BC000ED90FD90A2E3B2E00D921D922D923D9228
:100BD0004D925D926D927D928D929D92AD92BD925D
:100BE000CD92DD92ED92FD9244DF79DF92DF9CDFC2
:100BF0009BE029DF9A95B1DDC0E1D2E0E5DDC2E4FA
:100C0000D2E0E2DD492F4A9531F0C0E1D2E00DDEBD
:100C1000C2E4D2E00ADE4EDD16DF9A9561F7C2E447
:100C2000D2E0E0E1F2E040E1099110810127019377
:100C30004A95D1F70F901F902F903F904F905F9063
:100C40006F907F908F909F90AF90BF90CF90DF90EC
:100C5000EF90FF900F911F912F913F914F915F91D6
:100C60006F917F918F919F91AF91BF91CF91DF91C4
:100C7000EF91FF910895CF93DF93CDB7DEB76097E3
:100C80000FB6F894DEBF0FBECDBF80E1E0E0F1E02B
:100C9000DE01119601900D928A95E1F70E94D10133
:100CA000389A0E940702CE0101960E94090288E646
:100CB0000E94000285E60E9400028CE60E9400026B
:100CC0008CE60E9400028FE60E9400028AE00E94E9
:100CD00000020E94E00049E550E060E170E08BE630
:100CE0000E94DD004DE550E060E170E080E70E9489
:100CF000DD0043E550E060E070E088E70E94DD0041
:100D000021E045E550E062E170E08DE60E94BA0026
:0A0D10000E941B01FDCFF894FFCFF5
:100D1A002B7E151628AED2A6ABF7158809CF4F3C05
:100D2A003031323334353637383941424344454617
:00000001FF
