:1000000000000420653700008D370000990F0000C4
:100010009137000093370000953700000000000082
:100020000000000000000000000000009737000002
:1000300099370000000000009B3700009D3700004A
:10004000312600009F370000412600009F37000046
:100050009F3700009F3700006D1E00009F37000093
:100060009F3700009F3700009F3700009F37000038
:100070009F3700009F3700009F3700009F37000028
:100080009F3700002D0900009F3700009F370000B8
:10009000CD0900009F3700009F3700009F37000008
:1000A0009F3700009F3700009F3700009F370000F8
:1000B0009F3700009F370000000000000000000094
:1000C0009F3700009F3700009F3700009F370000D8
:1000D0009F3700009F3700009F3700009F370000C8
:1000E0009F3700009F370000793B000000000000B0
:1000F000000000009F370000000000009F37000054
:1001000000000000000000000000000000000000EF
:1001100000000000000000000000000000000000DF
:1001200000000000000000000000000000000000CF
:1001300000000000000000000000000000000000BF
:1001400000000000000000000000000000000000AF
:10015000000000000000000000000000000000009F
:10016000000000000000000000000000000000008F
:10017000000000000000000000000000000000007F
:10018000000000000000000000000000000000006F
:10019000000000000000000000000000000000005F
:1001A000000000000000000000000000000000004F
:1001B000000000000000000000000000000000003F
:1001C000000000000000000000000000000000002F
:1001D000000000000000000000000000000000001F
:1001E000000000000000000000000000000000000F
:1001F00000000000000000000000000000000000FF
:100200000348044B834202D0034B03B118477047A5
:100210007000002070000020000000000548064922
:10022000091A891001EBD171491002D0034B03B1B7
:100230001847704770000020700000200000000088
:1002400010B5064C237843B9FFF7DAFF044B13B11E
:100250000448AFF300800123237010BD700000201C
:1002600000000000444C000008B5044B1BB10449D9
:100270000448AFF30080BDE80840CFE7000000006D
:1002800074000020444C0000134B002B08BF114B9E
:100290009D46A3F5803A00218B460F461148124A2D
:1002A000121A03F0BDFE0D4B002B00D098470C4BEB
:1002B000002B00D098470020002104000D000B48BF
:1002C00003F0ACFD03F0DEFD2000290000F030F863
:1002D00003F0AAFD00000800000004200000000058
:1002E0000000000070000020E4040020513E0000E7
:1002F0000020704708B503F033FA002008BD00BFA6
:1003000008B503F029FA002008BD00BF38B504463F
:100310000D4600F053FA2946204603F01FFA00F07C
:1003200053FA22461021722000F0B4F9002038BDA3
:1003300000B51F4B0FCB85B06C4684E80F0000F072
:10034000C9F900F01FFA00F033FA03F003FA1021A4
:10035000204603F001FA682000F050FA652000F012
:100360004DFA6C2000F04AFA6C2000F047FA6F203A
:1003700000F044FA0A2000F041FA00F025F80D4A96
:1003800010216B2000F03AF80B4A1021702000F089
:1003900035F80A4A0021782000F030F80123084A95
:1003A00026216D2000F044F800F060F8FCE700BF63
:1003B000D0460000010300000D030000F102000020
:1003C000F50200000020704709490B68092B0EDC7C
:1003D0001801084A30B4084C762515540244002010
:1003E000C2E9010401330B60107330BC70477047E1
:1003F0002C0100208C000020C5030000F0B40A4C42
:100400002368092B0DDC3F290BD8084F1E01BD19AD
:10041000C5E90112B8550020013328732360F0BCF0
:1004200070470120F0BC70472C0100208C00002098
:10043000F0B40C4D2C68092C10DC3F290ED8DFF8E5
:1004400028C027010CEB0706C6E9011201343373FB
:100450000CF807002C600020F0BC70470120F0BCB5
:10046000704700BF2C0100208C0000202DE9F041D6
:10047000B0B000F0AFF9844B1B68002B40F3ED8067
:10048000824D2A78824200F0EA80012B41D02A7CFA
:10049000824200F0E680022B3BD095F82020824279
:1004A00000F0E180032B34D095F83020824200F038
:1004B000DC80042B2DD095F84020824200F0D780BC
:1004C000052B26D095F85020824200F0D280062BD2
:1004D0001FD095F86020824200F0CD80072B18D005
:1004E00095F87020824200F0C880082B11D095F852
:1004F0008020824200F0C380092B0AD095F890201A
:10050000824200F0BE800A269E4205D130B0BDE88E
:10051000F0811E469E42F9D05C4D3601AB191A7B24
:10052000D2074CD45B685B0011D010AF3C4605EBA2
:10053000060800F04FF90A28E8D00D28E6D004F8A4
:10054000010BD8F80420E31BB3EB420FF1D300F00A
:1005500041F90A2801D00D28D8D1AB1959680029D2
:10056000D8BF684662DD10AC684604EB410C074614
:1005700018E05AB294F801E0AEF13003DBB2092B77
:1005800005D9AEF14103052B3AD8AEF137035BB282
:10059000B2F1FF3FBAD0023403EB0213A44507F8CF
:1005A000013B43D02278A2F13003DBB2092BE0D922
:1005B000A2F14103052B2BD8373A52B2DAE70227D2
:1005C00000231B01DCB200F005F9A0F13003DBB21F
:1005D000A0F14102092BD2B209D9A0F16103052A89
:1005E000D9B2A0F13703A0F157001AD8DBB22344E7
:1005F000012FDBB202D1AA19536094E70127E0E78B
:10060000AEF16103052B81D8AEF157035BB2BFE7B2
:10061000A2F16103052B9ABF573A52B24FF0FF3255
:10062000A8E7052994BFC3B2FF23E0E73544C9B268
:10063000AB68174D984704467A2000F0DFF8C4F302
:10064000071304F00F04E85C00F0D8F8285D00F010
:10065000D5F80A2000F0D2F858E7002654E7002623
:100660005BE7012659E7022657E7032655E70426EC
:1006700053E7052651E706264FE707264DE70826EC
:100680004BE7092649E700BF2C0100208C00002021
:10069000E046000070B50E46144600F0AFF8002E9C
:1006A00010DD013C0A4D264414F8013F1B09E85CAB
:1006B00000F0A4F8237803F00F03E85C00F09EF844
:1006C000A642F1D10A20BDE8704000F097B800BF03
:1006D000E046000038B501F04BF900283CD100207D
:1006E00001F042FA98BB002001F05EF900F038FBFF
:1006F00018B11C4A2A2100F001F91B491B4B1C4C64
:10070000C1F810450024C3F810451A4A1A480124BC
:100710004FF08045C3F84045C3F800421C604FF4D9
:100720000033C2F81005C2F814150320C2F80445BE
:10073000C5F85C3500F094F8104B114A4FF4806115
:100740005160C3F80045BDE8384003F0D3B8054A0E
:10075000242100F0D3F8C6E7024A222100F0CEF8A7
:10076000BDE700BF1047000000600040009000405F
:10077000032A030000F001404091004000A0025015
:1007800000E100E008B5064A0649074800F0F2FD1E
:1007900000B908BD054A5C21BDE8084000F0AEB8CC
:1007A00030470000F04600004447000010470000BA
:1007B0004FF0A0430322C3F8082770474FF0A0432F
:1007C0000422C3F8082570474FF0A0430422C3F861
:1007D0000C25704700B585B04FF47A730093012261
:1007E00000230DF10F01044800F0A8FF9DF80F0051
:1007F00005B05DF804FB00BF4447000000B585B0BC
:1008000004A94FF0FF3301F8010D012200930348C2
:10081000002300F05DFE05B05DF804FB44470000D6
:1008200000231A461946014802F0BABF7804002096
:1008300010B582B002AA102442F8080D0823002146
:100840000248019402F0EAFF02B010BD78040020D3
:10085000034601461022014803F006B87804002040
:10086000C30700D470474FF0A04310B403224FF0E9
:1008700080744FF480004FF48031C3F86027C3F8D0
:100880005827C3F84027C3F80845C3F80805C3F83C
:1008900008155DF8044B704730B482B001248DF820
:1008A0000740154B9DF80750186044F20104A04220
:1008B00059609A6014D044F20201884208D072B69E
:1008C0009DF80730002BFBD162B602B030BC7047F8
:1008D000DA60DA6812889A61DA685268DA61EEE7FB
:1008E0001A611A6992685A611A6912689A611A69DA
:1008F0005268DA61E3E700BF8001002000B583B0F1
:1009000002900091019244F2010071466A4600F0A3
:1009100003F803B000BD00BF72B6034B1B68DB07D2
:1009200000D500BEFFF7B8BFF0ED00E0F8B5204AF3
:10093000204B0024C2F84041C2F84441C2F848416B
:10094000C2F84C41C2F80041C2F804411B6833B3FD
:100950001949D2F804550A68AD1A1A6825F07F457E
:10096000AA4227460DD8197CDE69AD1A144419B184
:100970001F74D3E9052090471EB133461A68AA4276
:10098000F1D90E490E4A0B7812789A4208D00D49D7
:100990000D4A41F823404FF48013C2F80031F8BDEE
:1009A000531CDBB2022B08BF00230B70EFE700BF24
:1009B00000100140C0020020BC020020B90200204B
:1009C000B8020020B002002000E100E02DE9F04F65
:1009D0008C4A8D4913780978DFF85082994285B0A6
:1009E000D8F800A000F07B810133DBB2022B08BFF6
:1009F000002386481370864A076852F823107B1834
:100A000023F07F4300240360534626462046A44635
:100A1000ABB11A688A4200F26581DC68C3F800C095
:100A2000891A1044DA6934B13D1825F07F45C3E9CD
:100A30000154DE611E4613460124002BE9D1002C2F
:100A400040F07C8101230093724B734FDFF8E091FB
:100A500043F00103019355464FF0000B46B3D6E92E
:100A600001C13446F669694B6C481A68ACEB020365
:100A700023F07F43834248D80B44236000220121A6
:100A8000C4E90122E2612174002D5DD02A689A42F6
:100A90004DD2284603E00A689A424FD20846C169FF
:100AA0009B1A0029F7D12360E161C461002ED6D1E1
:100AB00078783978884264D00B4603EB43034C1CAA
:100AC000BA7807EBC303E1B28A421A79397004BFDE
:100AD00000213970022A9C6844D0032A38D0012AA8
:100AE000E8D1227C002AE5D1D3F80CC0C4F804C0B8
:100AF0001969A1605869E06099F800009B69A361D9
:100B00000028B0D062609446ADE7A2EB0C0222F060
:100B10007F428A4202D28B1A2360AFE70023012270
:100B2000C4E90033A360E36122746DB12A68C8F898
:100B30000040D31A2B60E56125468FE7D21A0A6080
:100B40002360E161C461B1E7C8F80040254685E74C
:100B5000002DAFD000232B74ED69002DFBD1C8F818
:100B60000050A5E74DB1AC422B4603D1E4E09442DE
:100B70002FD01346DA69002AF9D100232374884262
:100B80009AD1BBF1000F01D1554553D0002D56D15C
:100B9000234E244A1F4C4FF480334FF40031012779
:100BA000C2F880103C43C6F848334FF43C60C6F8A6
:100BB00008337760A047154BB7604FF43C601D6069
:100BC000A047194B1D70002389F8003005B0BDE81F
:100BD000F08FA34200F09180E0692168D86100287D
:100BE00000F086802A4603680B440360AA424FF057
:100BF00000033978787823741CBF15464FF0010B39
:100C0000BDE700BFB8020020B9020020BC020020EE
:100C1000B002002070470000A0010020FEFF7F000E
:100C20000010014000E100E0AD020020C002002001
:100C3000AC020020009B002BC5D0002DA8D0434B58
:100C4000434A1C68D2F80465424FD5F800A03978B1
:100C5000331B23F07F43DD1CB9B93F493F4B4FF4B1
:100C60008030C2F844034FF00108C2F804034FF487
:100C70000030C1F8800143F001030860C2F8008031
:100C80004FF43C60984787F80080AA452CBF04EBDE
:100C90000A0363192E4923F07F43C1F84035D1F888
:100CA0000425921B9B1B22F07F4223F07F430332DB
:100CB0009A4288D9294BD1F80425C1F8402543F040
:100CC00001034FF43C609847234B4FF40032C3F8C4
:100CD0000021002389F8003005B0BDE8F08F002620
:100CE0000096B1E674BB521A1A6001230093ABE67A
:100CF000002339787878237441E71946EA69C8F8FF
:100D0000002092B9CDE90231114BDFF840C001203B
:100D10009860019B89F80000CCF800204FF43C60FB
:100D20009847DDE90231D8F80020C8690968D86120
:100D300000287FF458AF59E72946DFE7C8F80030AC
:100D40009A467FE6C8F800309A46CCE7BC020020FD
:100D500000100140AD02002000E100E070470000FB
:100D60002DE9F8431F4D204E204FDFF898804FF4B7
:100D700080334FF400324FF001090024C6F8802080
:100D800047EA0907C5F848334FF43C60C5F8083313
:100D9000C5F80490B847C5F808904FF43C60C8F80F
:100DA0000040B847124A134B13491C601470134B90
:100DB000134A0C700B2114701C8099704FF4801230
:100DC000E023C6F8802186F814333260C5F8084560
:100DD00086F81133D5F80435C8F800302046BDE850
:100DE000F88300BF0010014000E100E07047000000
:100DF000AD020020C0020020B8020020A0010020A7
:100E0000B9020020BC020020074B9B784BB132B1E5
:100E100028B10368187C20B959745A6170470720BB
:100E200070470820704700BFA00100202DE9F8435B
:100E3000224CA378002B35D0002833D0042934D994
:100E400043697BB3437C0646012B4FF000000CBF87
:100E5000884680461746894600F06AF86378A1788C
:100E600022785D1CEDB2A94208BF0025AA421FD01E
:100E700003EB430304EBC3030121114A9E60197184
:100E8000D2F80425DA600020C3E904989F616570F8
:100E900000F068F80B4B4FF48012C3F800210020DB
:100EA000BDE8F8830820BDE8F8830720BDE8F88393
:100EB000002000F057F80420F2E700BFA001002056
:100EC0000010014000E100E070B5174DAB7823B38E
:100ED00018B343690BB3002404740646204600F09F
:100EE00027F86A78A8782978531CDBB2984208BFA3
:100EF0002346994213D002EB420205EBC2020221C3
:100F00009660204611716B7000F02CF8074B4FF47F
:100F10008012C3F80021204670BD082070BD204615
:100F200000F020F8042070BDA001002000E100E0E6
:100F300008B5EFF30583C3F308032BB172B6074A74
:100F400013680133136008BDEFF31483DB07F5D595
:100F50000349432000F062F8F0E700BFC40200201C
:100F60007847000008B5EFF30583C3F3080333B1F6
:100F7000074A1368013B136003B962B608BDEFF37B
:100F80001483DB07F4D50349512000F047F8EFE75D
:100F9000C4020020784700001EF0040F1CBFEFF3CE
:100FA00009800AE0EFF308800849094A884201D81D
:100FB000904202D88D464FF000006B46854608B53A
:100FC000044B9847BDE808409D4670470000042048
:100FD00000E00320FD0F0000BFF34F8F0549064BD3
:100FE000CA6802F4E0621343CB60BFF34F8F00BFC7
:100FF000FDE700BF00ED00E00400FA0508B5054A72
:10100000054B996ADB6A1368DB0700D500BEFFF762
:10101000E3FF08BDF0ED00E000ED00E000B583B0B7
:101020006A46ADF80000019144F202000021FFF78A
:1010300073FC03B05DF804FB50E8002F0B4640E85A
:10104000003C9CF0000FF7D1104670472DE9F047A7
:101050000F461546044600284CD0002F51D015B934
:101060002846BDE8F0870020FFF762FF237C002BB5
:1010700073D1D4F808904D4528BF4D460020FFF7A6
:1010800057FF2268136851688B4240D9A26802F169
:1010900001088844A8EB03080020FFF763FF2368DA
:1010A000A6685968E268586863680136761AAE42E5
:1010B00002FB003033D305FB02F2394602F016FF83
:1010C0002268A16853682B448B4296BF5368002363
:1010D0005B19536022681368506883421AD8C31A98
:1010E0009168994238BF93600020FFF73BFF284684
:1010F000BDE8F08726494FF4B470FFF78FFF002F4B
:10110000ADD1234940F26910FFF788FFA7E7A1EBB3
:101110000308C1E7A16801310144CB1AE0E702FBF3
:1011200006FA5246394602F0E1FEE2686068AE1BFC
:1011300002FB06F207EB0A0102F0D8FE2268A9EBD7
:101140000803AB425660C5D22268A16853688B423F
:1011500034BF013300231360BCE70020D4F80880BB
:10116000FFF7E6FE2268136851688B420ED9A26829
:10117000561C0E44F61A0020FFF7F4FEA8EB0603F7
:101180009D4228BF1D46D4F8089077E7CE1AF2E7B3
:10119000C84700002DE9F04188461446054600285E
:1011A00036D0B8F1000F3BD014B92046BDE8F0812D
:1011B0000020FFF7BDFE2A6813685068834225D9D6
:1011C000A96801310144CB1A176856686968EA6852
:1011D0009C4228BF1C46B74284BFAE680136F61B4E
:1011E000B44202FB071121D802FB04F2404602F090
:1011F0007DFEA9682A6827448F4288BF00271760B0
:101200000020FFF7AFFE2046BDE8F081C31ADBE700
:101210000F4940F2D510FFF701FFB8F1000FC3D11D
:101220000B494FF4EB70FFF7F9FEBDE706FB02F741
:101230003A46404602F05AFEEA686968A61B08EB87
:10124000070002FB06F202F051FE2B681E60D7E792
:10125000C847000010B5044660B10020FFF768FEE3
:1012600020680C22002102F0DBFE0020BDE81040C7
:10127000FFF778BE024940F2EF10FFF7CFFEECE730
:10128000C847000001230370704700BF70B50578A0
:10129000012D0C460BD02ED3022D2BD14B691B6890
:1012A000DB683BB329462046BDE8704018474B69D0
:1012B000027A1B6841685B6806461868FFF7C6FE3D
:1012C000337A834263691B6838D8DA6822B12946C9
:1012D0002046904763691B68244922789B68885C94
:1012E00059685A7A002831D104F10C0001F0C8FC89
:1012F000002835D170BD4B691B685968DA684E68A3
:101300009D6812B100212046904730462A7A29680C
:10131000FFF740FF0028EDD0144A23782968D35CFA
:10132000C2B2CBB904F10C0001F00CFC0028E1D0F2
:101330000F49B220BDE87040FFF770BEDB68002B9C
:10134000D8D020460321BDE870401847201D02F088
:101350003DF80028CED003E0201D01F09DFFE5E719
:1013600003499B20BDE87040FFF758BEC40400202D
:101370009C48000070B50E4688B01546044640B142
:1013800039B132B163691B685BB18526304608B05C
:1013900070BD4A49BF20FFF741FE63691B68002BFF
:1013A000F3D12B782BB16B68002B6CD0AB68002B82
:1013B00069D031462022684602F098FD2B78404AD9
:1013C0000494A3F10206002BB6FA86F64FEA5616ED
:1013D000694608BF002220468DF81D6000F008FC19
:1013E00006460028D2D163691D6065692B685B6879
:1013F0004BB15868FFF72EFF63691B685B6818687C
:10140000FFF728FF656915F1080F51D00023AB6085
:10141000BFF35F8F65692B1D45D000236B60BFF361
:101420005F8F009B626903210133117320D0019A01
:101430006369013222D01B68224D1A782178022A72
:10144000685C0BD048BB04F10C0001F0EFFC636951
:101450001B681A78002A99D02278A85C9B68596882
:101460005A7AA8B904F10C0001F00AFC06468DE78F
:101470006269137B23F002031373D8E71A7B22F00F
:1014800001021A7382E70D49C920FFF7C7FD90E7F3
:10149000201D01F09BFF064678E70B494FF41570BD
:1014A000FFF7BCFDD3E709497220FFF7B7FDB4E7AA
:1014B00006497220FFF7B2FDA8E700BF9C48000074
:1014C0008D120000C40400205448000010480000A1
:1014D0002DE9F04F0E4685B017469A46044600287F
:1014E00000F0D48060690368002B00F0D980027B93
:1014F000950740F18680002F7ED006F06042B2F161
:10150000005F03D01B78022B00F0E0800121043043
:10151000FFF792FD0546BFF35F8F002876D10E9B43
:101520008DF80C50591C13D01A464FF4FA704FF432
:1015300000430021E3FB02014FF47A72002302F022
:101540003BFF0428804600F2C38001238DF80C3055
:1015500004F10C03DFF8E081CDE9007A3D46A246B4
:101560009B46DAF8142012681178002950D19AF8B5
:10157000002018F80220FF2DA94628BF4FF0FF09D0
:10158000002A76D14A463146584601F0DBFA002857
:1015900077D1B5EB09054E440BD0DAF81420126868
:1015A000117811B1126902B190479DF80C20002A00
:1015B000D7D05446DDE9007ABAF1000F02D07F1B84
:1015C000CAF800709DF80C3013B90E9B013376D128
:1015D0006469231D00F094806368012B03D0534994
:1015E0009320FFF71BFDBFF35F8F002363601DB1E6
:1015F0009DF80C30002B67D10025284605B0BDE8CA
:10160000F08F0825284605B0BDE8F08F1125F4E7D6
:10161000D2E901174C682A4620463146FFF716FDED
:101620009AF8002018F802208146EAB9584601F0DD
:101630001BFB0028ADD120463A7A3968FFF7AAFD96
:101640000446002836D09AF80020396818F80200BD
:10165000E2B250BB584601F075FA002899D03449DF
:101660007A20FFF7DBFC94E70AF1040001F0A0FE0A
:10167000DFE74A4631460AF1040001F00DFE00287A
:1016800087D02B496920FFF7C9FC82E74FF4A67089
:101690002749FFF7C3FC60690368002B7FF427AF7D
:1016A0008025284605B0BDE8F08F0AF1040001F05E
:1016B000F3FDD2E71E497820FFF7B0FCC3E7A3692A
:1016C0001868FFF701FC83E70D2596E7102594E7DE
:1016D000D4F81890174A29464846FFF795FB054667
:1016E00098B16469221D1BD06368012B03D00F4998
:1016F0009320FFF793FCBFF35F8F002363607CE7C9
:101700000A499220FFF78AFC66E74146D9F80000B3
:1017100003AAFFF78BFB054600283FF419AFE0E76B
:1017200002499220FFF77AFCDEE700BF1048000074
:101730009C48000085120000C40400202DE9F04FF1
:1017400087B08B46CDE902230546002800F08B8048
:1017500068690368002B00F09080037BD9077BD574
:10176000029B23B90024204607B0BDE8F08F012179
:101770000830FFF761FC0446BFF35F8F002870D18B
:10178000109B8DF814005A1C13D01A464FF4FA70AF
:101790004FF400430021E3FB02014FF47A7200236F
:1017A00002F00AFE0428064600F2A98001238DF803
:1017B00014306B69029A1B680192694F1A7805F11F
:1017C0000C08EAB15B68019A18685946FFF7E2FC19
:1017D0008246019BB3EB0A03D344019364D06B6947
:1017E0009DF814101B681A78002953D142B1196969
:1017F0000029E6D088476B691B681A78002AE1D176
:10180000019BFF2B28BFFF239A461E465C4605F12D
:10181000040911E0404601F001FB03460122214684
:101820004046B3B1002ED4D02B78FB5C53BB01F003
:1018300027FA70B90134013E2B78FB5C4846002B37
:10184000E8D001F099FE0346012221464046002BD4
:10185000E8D1AAEB060ABCE70824204607B0BDE899
:10186000F08F11247FE740F2A3103E49FFF7D6FB2B
:1018700068690368002B7FF470AF8024204607B0AE
:10188000BDE8F08F01222146484601F09FFD002867
:10189000D0D0DEE742B1324A2B78D35C002B55D151
:1018A00005F10C0001F0E8FA039A1AB1DDE9011321
:1018B0005B1A13609DF8143013B9109B013319D1D2
:1018C0006C6914F1080F32D0A368012B03D02649AC
:1018D0009320FFF7A3FBBFF35F8F0023A360019B5F
:1018E000002B3FF43FAF9DF81430002B3FF43AAF8C
:1018F0000D2438E7EB691868FFF7E6FAE0E7EF69CF
:101900001A4A21463846FFF77FFA0446A0B16D69AE
:1019100015F1080F1ED0AB68012B03D0124993209C
:10192000FFF77CFBBFF35F8F0023AB601BE70E4923
:101930009220FFF773FBC7E73146386805AAFFF727
:1019400075FA044600283FF434AFE0E7281D01F0A3
:101950001BFEA9E704499220FFF760FBDBE700BF0D
:10196000C40400209C4800001048000085120000BC
:1019700070B50B4C25787DB90A486560A560256176
:10198000E56000F079F9064600F08EF9012384F84D
:1019900020502370304670BD8526304670BD00BF94
:1019A000C8020020AD1A000038B51D4C237805464A
:1019B000002B30D0A37803F0FF00B3B115B16B68F2
:1019C000012098470020FFF7B3FAE36800200133B5
:1019D000E360FFF7C7FAE36803B138BD114940F28D
:1019E0000310BDE83840FFF719BBFFF7A1FA65B156
:1019F000226942B1954208D0134601E09D4204D0CD
:101A00001B68002BFAD12A602561E368002BDCD12A
:101A100000F070F9D9E70349E720FFF7FFFAC9E7BB
:101A2000C8020020E448000038B51E4C2378054663
:101A3000002B30D0637803F0FF00B3B115B16B68B1
:101A4000002098470020FFF773FA636800200133F5
:101A50006360FFF787FA636803B138BD12494FF43A
:101A6000A070BDE83840FFF7D9BAFFF761FA65B159
:101A7000A26842B1954208D0134601E09D4204D0CD
:101A80001B68002BFAD12A60A5606368002BDCD1AB
:101A900000F052F9D9E704494FF49270FFF7BEFA0B
:101AA000C8E700BFC8020020E448000070B570B16C
:101AB00001281BD1294C2369A0703BB11A6822610F
:101AC0005B68012098472369002BF7D170BD234C38
:101AD000A36801226270002BF8D01A68A2605B68CC
:101AE00000209847A368002BF7D1EFE7022824D005
:101AF0000328EBD1194C237853B3636813B3002048
:101B0000FFF716FA6368013B6360656815B900F07A
:101B100031F965700020FFF725FA94F82030E2696A
:101B20000021DBB284F82010002ACFD0042B0CBF98
:101B300003200220BDE8704010470948BDE870400E
:101B4000FFF772BF07494FF4A370FFF767FAD6E7B4
:101B5000044940F24510FFF761FACEE7C8020020C1
:101B6000DC020020E448000008B5054B002808BF4F
:101B7000184600F09DFC10B9024B01221A7008BDF6
:101B80002C490000EC02002030B585B00478094AE9
:101B9000094B45688DF80040047AC068039053F8FB
:101BA000213001958DF8084052F821106846984779
:101BB00005B030BDF0020020F802002030B585B03D
:101BC000047845688DF80040D0E90240064A074B8A
:101BD000039053F8213001958DF8084052F82110F8
:101BE0006846984705B030BDF0020020F80200209A
:101BF0002DE9F043DFF8748006784B7F08F8063053
:101C00000D46074696460FCD89B06C460FC495E841
:101C10000F003D78DFF85890DFF858C018F80550ED
:101C200049F826E084E80F004CF82600049665B1D8
:101C3000BEF1000F0B4A694607F1040008BF0022FD
:101C400001F0B8F909B0BDE8F083BEF1000F064A13
:101C5000694607F10C0008BF002200F00FFE09B032
:101C6000BDE8F083891B0000BD1B0000C4040020F8
:101C7000F8020020F002002010B5044650B1084BD5
:101C8000187928B9012298711C6058711A7110BD19
:101C9000852010BD0349A220FFF7C0F9EFE700BF80
:101CA000000300203049000008B50E4B1B799BB1A2
:101CB0000D4B1A68D20706D40122E02183F80013E5
:101CC000C3F880211A604FF08041084B00200122A8
:101CD000C1F818051A7008BD0549BB20FFF79EF929
:101CE000E6E700BF0003002000E100E0C60400209A
:101CF0003049000010B50C4B1B7982B01BB90B4961
:101D0000E520FFF78BF90A4B0A4A002119601B688E
:101D10000193019C4FF0804102200123C1F804038C
:101D2000136002B010BD00BF000300203049000066
:101D3000040100400800004000B50B4B1B7983B044
:101D40001BB90A49FA20FFF769F9094B00221A600A
:101D50001B68019301994FF080430122C3F80423CB
:101D60001A6003B05DF804FB000300203049000056
:101D70000001004010B50C4C237973B10B4B0122CC
:101D80001A604FF08042D2F80C3403F00113B3F123
:101D9000011FF8D00023637110BD05494FF4817015
:101DA000FFF73CF9EAE700BF000300200400004011
:101DB0003049000010B5274B1A6884B07AB1002171
:101DC000254A19601B68507900934FF08041012328
:101DD000009CC1F8083310B91168537188471F4B34
:101DE0001A686AB100221A601B6801934FF08042A2
:101DF0000221194B0198C2F808131B68012098476B
:101E0000174B1A686AB100221A601B6802934FF0E0
:101E100080421021104B0298C2F808131B68022060
:101E20009847104B1A689AB10F480B49002202607C
:101E30001A601B6803934FF080430820039CC3F88B
:101E400008030B688A71032004B0BDE810401847EE
:101E500004B010BD00010040000300200401004058
:101E6000100100400C010040340C00402DE9F04FFF
:101E700000238BB0CDE90433D04A1168012900F06A
:101E800079821E46CE4B1A68012A00F06582CD4B3E
:101E90001A68012A00F05282CB4B1A68012A00F01E
:101EA0003F82CA4B1A68012A00F02C82C84B1A687C
:101EB000012A00F01982C74B1A68012A00F0068235
:101EC000C54B1A68012A00F0DE81C44B1A68012A4A
:101ED00000F0EB8116F0FF0F1AD0C14F012500244E
:101EE000A30003F180432E4203F5C0434FEA4505AA
:101EF0000BD0D3F8100557F82420D3F81015C0F3F1
:101F00000520C1F3014102B190470134082CE7D10B
:101F1000002E02DB0BB0BDE8F08FB14EDFF8C8B287
:101F20004FF0FF33CDE9083396F960300DF1180A10
:101F300000225C1CCAF80420069200F0FC80DFB28C
:101F400027F0C0080AAB4FEAD80103EB010907F0FC
:101F5000070219F8083C0125954013EA050425D02D
:101F600006EB0802BB0992F9302056F82220002A1D
:101F700000F06481032B00F06481B8F12F0F00F2B0
:101F8000E980B8F11F0F00F2EE8041464FF0A04704
:101F900007EB810719F8184CD7F800172C40C1F34C
:101FA000014140F03E81032900F0508296F96130F2
:101FB000581C35D0DDB225F0C0080AAB4FEAD80175
:101FC00003EB010905F0070219F8083C01279740C7
:101FD0003B4225D006EB0802AB0992F9302056F8B7
:101FE0002220002A00F03381032B00F03381B8F166
:101FF0002F0F00F2C980B8F11F0F00F2CE804146CA
:102000004FF0A04505EB810519F8180CD5F800171D
:102010003842C1F3014140F0C480032900F0F78148
:1020200096F96230591C35D0DDB225F0C0080AABF4
:102030004FEAD80103EB010905F0070219F8083C43
:10204000012797403B4225D006EB0802AB0992F9E5
:10205000302056F82220002A00F00C81032B00F0DB
:102060000C81B8F12F0F00F28280B8F11F0F00F23F
:10207000878041464FF0A04505EB810519F8180C03
:10208000D5F800173842C1F3014140F0AF80032971
:1020900000F09E8196F963305A1C31D0DBB223F0F8
:1020A000C0070AAAF90802EB010803F0070018F8B4
:1020B000082C012585402A4222D0F2194FEA9319B3
:1020C00092F9302056F82220002A00F0C980B9F198
:1020D000030F00F0C9802F2F2FD81F2F36D83B4673
:1020E0004FF0A04101EB830318F8180CD3F8001748
:1020F0002842C1F3014140F08680032900F0468167
:10210000002C3FF407AF4FF0A0430499D3F81035EB
:10211000DBF81025994203D1059991423FF4FAAEBC
:1021200006990493079B0592CDE9081396F9603050
:102130005C1C7FF404AF002438E72A4940F2C71042
:10214000CDE90032FEF76AFFDDE9003203F01F033C
:102150005946C7E7234940F2C710CDE90023FEF7EF
:102160005DFFDDE9002307F01F015F4610E71D4911
:1021700040F2C710CDE90032FEF750FFDDE9003232
:1021800005F01F015D4677E7164940F2C710CDE91B
:102190000032FEF743FFDDE9003205F01F015D4626
:1021A00030E702297FF43CAF032B00F06D81002A59
:1021B0003FF436AF19464046904731E70061004092
:1021C00004610040086100400C6100401061004063
:1021D00014610040186100401C6100407C610040B7
:1021E00008030020784900000003005002297FF412
:1021F00051AF032B00F04B81002A3FF44BAF19463F
:102200004046904746E702297FF47AAFB9F1030FC1
:1022100000F04081002A3FF473AF494638469047AA
:102220006EE7022987D1032B00F037810024002AB2
:102230003FF4BCAE194640469047B7E6032B7FF407
:102240007AAF1AF8010028430AF8010095E6032B3B
:102250007FF4E6AE1AF8010038430AF80100C6E63A
:10226000B9F1030F7FF44CAF1AF8010028430AF8C4
:10227000010030E7032B7FF40DAF1AF8010038435B
:102280000AF80100EDE6864AD2F8042315067FF528
:102290001CAE00221A601B680293029B814B1A68D5
:1022A000012A46F080067FF415AE00221A601B68F2
:1022B00003934FF0A042039BD2F810257A4B04926F
:1022C000D3F81035059346F0004603E6744AD2F879
:1022D000042357067FF5F4AD00221A601B680293B1
:1022E000029B46F04006EBE56D4AD2F804239206C5
:1022F0007FF5E1AD00221A601B680293029B46F055
:102300002006D8E5664AD2F80423D1067FF5CEAD83
:1023100000221A601B680293029B46F01006C5E576
:102320005F4AD2F8042310077FF5BBAD00221A6084
:102330001B680293029B46F00806B2E5584AD2F8A1
:10234000042354077FF5A8AD00221A601B6802938E
:10235000029B46F004069FE5514AD2F804239507F4
:102360007FF595AD00221A601B680293029B46F030
:1023700002068CE54A49D1F8046316F001063FF4E1
:1023800081AD136013680293029B7BE5B9F1030FE3
:102390007FF440AF4FF400352F2F08D9434940F266
:1023A000C710CDE90023FEF739FEDDE90023D3F89D
:1023B000001721F44031C3F80017D3F80017013497
:1023C0002943E4B2C3F80017002A7FF426AF9AE647
:1023D000032B7FF411AF4FF40037B8F12F0F08D95A
:1023E000324940F2C710CDE90032FEF717FEDDE9B1
:1023F0000032D5F8001721F44031C5F80017D5F8A0
:10240000001701343943E4B2C5F80017F4E6032B92
:102410007FF4CDAE4FF40037B8F12F0F08D9234920
:1024200040F2C710CDE90032FEF7F8FDDDE90032D9
:10243000D5F8001721F44031C5F80017D5F800177A
:1024400001343943E4B2C5F80017B0E6032B7FF43A
:10245000EEAE4FF40034B8F12F0F08D9134940F213
:10246000C710CDE90023FEF7D9FDDDE90023D7F839
:10247000001721F44031C7F80017D7F8001721439F
:10248000C7F800170124D2E64FF44037C4E74FF4F1
:102490004037A2E74FF440357EE74FF44034DAE7A7
:1024A000006000407C61004000030050784900005B
:1024B00010B50446F8B1124A1378D3B923781149FC
:1024C0004FF08040C3F34003C0F88035237803F019
:1024D0000103C0F878350B68DB0706D40123E02040
:1024E00081F80003C1F880310B60012313700020D4
:1024F00010BD852010BD04496C20FEF78FFDDAE782
:10250000C704002000E100E0B449000070B54FF0BE
:102510008043D3F8044366070BD5D3F8082103F5AD
:10252000847332B10022394D1A602B68002B49D0D8
:102530009847A5060AD5364B1A683AB10022354DA0
:102540001A602B68002B59D00020984760060AD5E6
:10255000314B1A683AB100222E4D1A602B68002BBD
:1025600045D00120984721060AD52C4B1A683AB16C
:1025700000222B4D1A602B68002B31D00020984789
:10258000E20509D5274B1A6832B10022244D1A60A2
:102590002B68F3B101209847A3050BD5224B1A688D
:1025A00042B100221E4C1A60236823B10220BDE80C
:1025B0007040184770BD1D494FF49670FEF72EFD10
:1025C0002368F3E719494FF48370FEF727FD2B6862
:1025D000AEE7164940F22510FEF720FD2B68D9E73B
:1025E00012494FF48F70FEF719FD2B68C6E70F49AB
:1025F00040F21510FEF712FD2B68B2E70B494FF4BD
:102600008770FEF70BFD2B689EE700BF7403002068
:102610001401004078030020180100401C01004014
:102620007C0300202001004024010040B449000048
:1026300008B5FFF76BFFBDE80840FFF7BBBB00BF65
:1026400010B5074C236813B1BDE810401847054981
:102650005120FEF7E3FC2368BDE81040184700BF97
:1026600080030020FC49000010B5044682B090B100
:10267000104B984202D0002002B010BD0020019102
:10268000FEF756FC0C4B01991C795CB10020FEF75B
:1026900069FC1120F0E709497720FEF7BFFC2046CE
:1026A00002B010BD0122204619601A71FEF75AFCD3
:1026B0002046E1E70020004080030020FC490000A4
:1026C00030B56C4AD2F8043399058BB066D5D2F890
:1026D0002431002B62D00023C2F82431D2F82431F7
:1026E00003934FF40171644B0398C2F8081393F8F5
:1026F000291009B9012151605E4902228DF8182084
:10270000D1F88024C1F880249869D9680992002200
:10271000CDE90710C3E90622D3E9001406A8A047B3
:10272000544AD2F81C31BBB1534B186A59698842DC
:1027300069D350480022C0F81C21D0F81C01019038
:10274000019849B198688DF8182008915A6107904E
:10275000D3E9001206A89047464AD2F84431DBB1CB
:102760000021454BC2F84411D2F8440193F82910D6
:102770000090009809B1012111609A6962B10022AC
:10278000586AD9689A610122CDE907108DF818209E
:1027900006A8D3E9001290470BB030BD354AD2F8F5
:1027A00004335B07BCD5D2F80831002BB8D0324BCC
:1027B000996900293CD00021C2F80811D2F808110B
:1027C00004910499D868596AD2F8182542545A6A73
:1027D000996901325A625A6A8A42A1D1DA69196842
:1027E000002A2ED0D8685D6A1C699A610790002281
:1027F0000120DC60DA615A628DF8180008955B6888
:1028000006A898478CE793F8280000F0FF040028FA
:102810008FD1C2F81C41D2F81C11029102999C6818
:10282000186A196A205C01311962C2F81C0593E725
:10283000C2F80811D2F8080105900598D2F81825B9
:10284000C9E793F8292012B90A4A01205060094AC1
:102850004FF40170C2F80803586ADA68089000243F
:10286000012007928DF818005A689C6106A89047CD
:1028700056E700BF00200040880300202DE9F04704
:10288000054684B091460C46002900F00E812E7951
:10289000A44F2C2303FB067393F82A30002B40F03F
:1028A0009A80A1492868FFF7DFFE8046002840F0A3
:1028B0008C80D4F800A0BAF1FF3F40F09280D4F8A9
:1028C00004A0BAF1FF3F10D0BAF12F0F00F2FB8045
:1028D000BAF11F0F86BF0AF01F0A944B4FF0A043B6
:1028E0000AF5E07A002243F82A202B68A269C3F88F
:1028F0002425217D637D2A680B43C2F86C35D4E919
:1029000000122B68C3F81425C3F80C15237D012B86
:1029100000F08E802C2303FB06F3FA18C2F8049013
:102920002269FA50B9F1000F3BD02B68247F80490F
:102930000022C3F81C21D3F81C3102932B680298A3
:10294000C3F84421D3F844212B680392039AC3F8B7
:1029500004132B68072C4FEA133A4FFA8AF900F256
:10296000CF806401B9F1000FE4B2C0F2CE8009F16A
:10297000604303F5614383F800432A68120B42F376
:10298000C40323F0604323F0030303F1604303F522
:10299000614302F01F02012101FA02F2C3F8802113
:1029A0001A6029682C2303FB0676042000230122E9
:1029B000C1F80005404686F82A20C6E9063386F8A5
:1029C0002930736104B0BDE8F0874FF0110840462C
:1029D00004B0BDE8F0874FF00808404604B0BDE8F9
:1029E000F087BAF12F0F00F29680BAF11F0F86BF61
:1029F0000AF01F0A4D4A4FF0A042012303FA0AF3DE
:102A0000C2F80835D4F800A0BAF12F0F52D8BAF1A5
:102A10001F0F54D84FF0A0420AF5E07A032342F882
:102A20002A30D4F804A0BAF1FF3F7FF44DAF5CE741
:102A3000D4F808A0BAF1FF3F0FD0BAF12F0F48D851
:102A4000BAF11F0F86BF0AF01F0A384B4FF0A043A0
:102A50000AF5E07A002243F82A20E3685A1C1DD0C8
:102A60002F2B3CD81F2B86BF03F01F032F494FF09D
:102A7000A041012202FA03F3C1F80835D4F80CA0F2
:102A8000BAF12F0F33D8BAF11F0F35D84FF0A0434A
:102A90000AF5E07A032243F82A20E3682A68A1684D
:102AA000C2F80835C2F8101534E72249AA20FEF70B
:102AB000B5FAECE6204940F2C710FEF7AFFA0AF08B
:102AC0001F0A1A4AA8E71C4940F2C710FEF7A6FAE7
:102AD000FEE6194940F2C710FEF7A0FAB0E7164922
:102AE000019340F2C710FEF799FA019BBAE7124929
:102AF00040F2C710FEF792FA0AF01F0A0B4BC7E725
:102B00000E496B20FEF78AFA2BE70D4B0AF00F0AED
:102B100053441C7631E7084940F2C710FEF77EFAAD
:102B200063E700BF88030020C126000000030050B7
:102B300080000200444A000078490000884A0000F2
:102B4000FCEC00E02DE9F041454D06792C2303FB18
:102B5000065384B093F82A30012B04460F46904662
:102B600034D1002F74D0B8F1000F67D021792C2315
:102B700003FB01514869002866D103FB065301217C
:102B800018629F6083F82800C3F814802268C2F896
:102B90001C01D2F81C7122680297029F9160226882
:102BA000D3F808C0C2F81C01D2F81C110191019998
:102BB000D3F820E0196A5F681CF80EE00131196251
:102BC000C2F81CE557B104B0BDE8F081254940F2D8
:102BD0001510FEF723FA002FC5D139E01A6A58699B
:102BE0002168904204D81AE093F82820002A35D1B1
:102BF000D1F81C21002AF7D0C1F81C71D1F81C2192
:102C00000392039AD3F820E01A6A1CF80EE001320E
:102C10001A62C1F81CE51A6A8242E9D32168D1F828
:102C20001C31002BFBD00123CB6000202C2303FBA5
:102C3000065500236B6104B0BDE8F081094940F2FC
:102C40001710FEF7EBF991E7112004B0BDE8F08111
:102C500004494FF48B70FEF7E1F984E70F20E5E7B4
:102C600088030020444A00000379044A2C2101FB18
:102C700003235869003018BF0120704788030020E3
:102C80002DE9F041634E04792C2303FB046386B0E5
:102C900093F82A30012B05460F46904639D1002F74
:102CA00000F0AB80B8F1000F3FD02C2303FB04638E
:102CB0005A6822B12B684FF40171C3F808132C2312
:102CC00003FB0463996969B1D96951B3002A00F023
:102CD0009A802B684FF401721120C3F8042306B0C8
:102CE000BDE8F08193F82920C3F81880DF605962AD
:102CF000D961002A6FD02C2202FB04622968536834
:102D0000CBB14FF40173C1F80433002006B0BDE825
:102D1000F081414940F26910FEF780F9002FC1D1DE
:102D20006BE01F61C3F81C80E5E73B4940F26B1084
:102D3000FEF774F9B9E7C1F84431D1F8443103938F
:102D4000039B2B68D3F82401D3F80871D3F84411FE
:102D500057B9002936D10028F4D02C2303FB046492
:102D60000023A3610320D1E70028F6D161BB90695D
:102D700090B1C3F80811D3F8081104910499D068F0
:102D8000516AD3F818354354536A91690133536239
:102D9000536A9942D5D808E0C3F80801D3F808115E
:102DA00005910599D3F81835536A2C2303FB046465
:102DB000002394F82900A36138B32A68012118463A
:102DC0001160A3E70028C8D12C2303FB046400236F
:102DD000A3610F209AE72B68C3F82421D3F82411AC
:102DE0002B6801910199C3F80821D3F808212B68B9
:102DF0000292012202991A607DE707494FF4B570EB
:102E0000FEF70CF94EE7112080E72B6801225A608B
:102E10007CE700BF88030020444A00000368D3F821
:102E20000801003018BF0120704700BF114A037924
:102E30002C2101FB032393F82930D3B930B4046863
:102E400082B0C4F82431D4F8245104680095009D60
:102E5000C4F80831D4F80841036801940124019DA5
:102E60001C60037901FB032282F8294002B030BCC8
:102E7000704770478803002003684FF40172C3F85D
:102E80000823036801225A60704700BFF0B5474B22
:102E9000D3F8242189B0002A54D00021C3F824118A
:102EA000D3F82421029202228DF81020029AD3F83E
:102EB00080043F4AC3F880040790D3F83C05D368E8
:102EC0008DF81800C2E9061105931168536804A82B
:102ED0009847364BD3F84421BAB10020344AC3F89E
:102EE0004401D3F8444191690194019C69B1D3F83C
:102EF0003C458DF81840D368906101240593116812
:102F000053688DF8104004A89847284BD3F8202127
:102F1000B2B10021264AC3F82011D3F820415069EC
:102F20000094009C60B1D3F84C0593688DF81800AC
:102F30008DF810105161059304A8D2E90013984749
:102F400009B0F0BDD3F810110029C2D0C3F8102188
:102F5000D3F810111648039103998169D3F83C45C1
:102F60008C42B6D1C569C768D0E90016E4B295B104
:102F7000D3F800C285612CF02005C261C3F800526D
:102F80000369C36001228DF8184005978DF8102061
:102F900004A8B0479DE7012385618DF81840059787
:102FA0008DF8103004A8B04793E700BF0020004020
:102FB000B40300202DE9F04F054687B092460C4639
:102FC000002900F01D812F79AB4E4FEAC70808EBAE
:102FD000070306EB830393F82030002B40F0A68014
:102FE000A6492868FFF740FB8146002840F09880FA
:102FF000D4F800B0BBF1FF3F40F09E80D4F804B09D
:10300000BBF1FF3F10D0BBF12F0F00F20781BBF1E6
:103010001F0F86BF0BF01F0B994B4FF0A0430BF512
:10302000E07B002243F82B202B68A269C3F82425FB
:10303000217D637D2A680B43C2F86C35D4E90021F9
:103040002B68C3F80C25C3F81415237D012B00F061
:103050009A8008EB07039B00F218C2F804A02269CB
:10306000F250BAF1000F49D02A68247F8549002325
:10307000C2F81031D2F8102102922A680298C2F8E0
:103080002031D2F8202103922A680398C2F8243113
:10309000D2F8242104922A680498C2F84431D2F864
:1030A00044212B680592059AC3F804132B68072C5A
:1030B0004FEA133B4FFA8BFA00F2CD806401BAF16C
:1030C000000FE4B2C0F2CC800AF1604303F5614323
:1030D00083F800432A68120B42F3C40323F06043D1
:1030E00023F0030303F1604303F5614302F01F0281
:1030F000012101FA02F2C3F880211A60474406EB6D
:1031000087062A6801200023082186F82000484607
:10311000C2F80015C6E90633736107B0BDE8F08F49
:103120004FF01109484607B0BDE8F08F4FF008098D
:10313000484607B0BDE8F08FBBF12F0F00F2968034
:10314000BBF11F0F86BF0BF01F0B4D4A4FF0A04283
:10315000012303FA0BF3C2F80835D4F800B0BBF131
:103160002F0F52D8BBF11F0F54D84FF0A0420BF5D0
:10317000E07B032342F82B30D4F804B0BBF1FF3FCF
:103180007FF441AF50E7D4F808B0BBF1FF3F0FD058
:10319000BBF12F0F48D8BBF11F0F86BF0BF01F0BE1
:1031A000374B4FF0A0430BF5E07B002243F82B2078
:1031B000E268531C1DD02F2A3CD81F2A86BF02F07C
:1031C0001F022F494FF0A041012303FA02F2C1F878
:1031D0000825D4F80CB0BBF12F0F33D8BBF11F0F6B
:1031E00035D84FF0A0430BF5E07B032243F82B20AA
:1031F000E2682B68A168C3F80825C3F8101528E712
:103200002149BC20FDF70AFFDDE6204940F2C71046
:10321000FDF704FF0BF01F0B194AA8E71B4940F20A
:10322000C710FDF7FBFEF2E6184940F2C710FDF7A4
:10323000F5FEB0E71549019240F2C710FDF7EEFE2A
:10324000019ABAE7114940F2C710FDF7E7FE0BF00B
:103250001F0B0B4BC7E70E496B20FDF7DFFE2DE779
:103260000C4B0BF00F0B5B441C7633E7074940F225
:10327000C710FDF7D3FE63E7B40300208D2E0000D6
:103280000003005010030200C44A00007849000007
:10329000884A0000FCEC00E02DE9F0430779424D3C
:1032A000FE00F31905EB830383B093F82030012B64
:1032B00004468846914640D1B8F1000F53D0B9F189
:1032C000000F47D0237913B9B9F5803F04D33749AC
:1032D0004FF48870FDF7A2FE08F06043B3F1005F81
:1032E00034D1237903EBC30305EB8303586900282A
:1032F0003FD1F31905EB83030121C3F81490C3F800
:1033000008802268C2F82001D2F8202101922268A8
:10331000DDF804C0C2F85801D2F8582100922268A2
:10332000DDF800C0C2F84485C2F848952268916073
:103330005B6813B303B0BDE8F0831C4940F20D1085
:10334000FDF76CFEB8F1000FB9D10CE0102003B00E
:10335000BDE8F083154940F20F10FDF75FFE2379B9
:10336000002BB9D0B3E711494FF48770FDF756FE33
:10337000A5E7112003B0BDE8F083236800E08AB917
:10338000D3F82011D3F858210029F8D0002A14BF0F
:103390000F2000203E4405EB860500236B6103B03F
:1033A000BDE8F0830F20F5E7B4030020C44A000015
:1033B0000379054A03EBC30302EB8303586900302A
:1033C00018BF0120704700BFB40300202DE9F0436F
:1033D0000679DFF8A081F400A31908EB830383B01A
:1033E00093F82030012B05460F46914650D1002F0F
:1033F00000F0A880B9F1000F00F09A802B7913B982
:10340000B9F5803F04D35A494FF4AD70FDF706FE7D
:1034100007F06043B3F1005F40F08680A31908EB2A
:1034200083035A6822B12B684FF40471C3F8081360
:10343000344408EB8404A369002B31D1C4F81890FC
:10344000E760E3612A68C2F81031D2F810112A68E7
:1034500001910199C2F84431D2F844212B680092BD
:10346000009AC3F83475C3F838952B6801221A60A6
:103470002C792B68E5002A1908EB82025268F2B118
:103480004FF40472C3F80423002003B0BDE8F083B6
:10349000374940F25710FDF7C1FD002FAAD151E086
:1034A000E3691BB3002A53D02B684FF40472C3F8AE
:1034B00004231120E9E700294CD1002851D1D3F889
:1034C0001021D3F84411D3F82401002AF3D02C445E
:1034D00000284FF0000308EB840814BF03201846AF
:1034E0009942C8F8183018BF0F20CEE72761C4F8FA
:1034F0001C902A68C2F81031D2F810112A68019184
:103500000199C2F84431D2F844212B680092009A04
:10351000C3F83475C3F838952A68D2F8003243F0FE
:103520002003C2F80032A3E7102003B0BDE8F08307
:103530000F4940F25910FDF771FD2B79002B3FF434
:1035400067AF60E70A494FF4AC70FDF767FD51E7DC
:1035500011209AE72C4408EB84080F20C8F81820A3
:1035600093E72C4408EB84080320C8F818108CE774
:10357000C44A0000B40300200368D3F810010030EF
:1035800018BF0120704700BF036801225A607047CE
:1035900010B44FF080414FF080520020C1F80C0170
:1035A0005E4BC1F81001C1F83805D2F80414C3F815
:1035B0002015D2F80814C3F82415D2F80C14C3F857
:1035C0002815D2F81014C3F82C15D2F81414C3F827
:1035D0003015D2F81814C3F83415D2F81C14C3F8F7
:1035E0004015D2F82014C3F84415D2F82414C3F8B7
:1035F0004815D2F82814C3F84C15D2F82C14C3F887
:103600005015D2F83014C3F85415D2F83414C3F856
:103610006015D2F83814C3F86415D2F83C04C3F826
:103620006805D2F840043E49C3F86C050968D2F831
:103630004424C3F87025082924D04FF08043D3F8E0
:103640000024D20744BF6FF00102C3F80024354ABA
:10365000D2F8883043F47003C2F88830BFF34F8F3C
:10366000BFF36F8F4FF01023D3F80022002A23DB23
:10367000D3F80432002B1FDB2B4B2C4A1A605DF869
:10368000044B70472A4B1B68002BD6D129482A4A85
:103690002A4C04602A492B4BFB20C2F818050A6803
:1036A0001B68294822F00F0203F00F0313434FF465
:1036B00000720B600260C0E7244B0122C3F80425AE
:1036C000D3F80024002AFBD04FF0102312221F4908
:1036D000C3F80022D1F80034002BFBD04FF01022A9
:1036E00012211A4BC2F80412D3F80024002AFBD08E
:1036F00000221649C3F80425D1F80034002BFBD072
:10370000BFF34F8F0749124BCA6802F4E0621343BC
:10371000CB60BFF34F8F00BFFDE700BF00C000408C
:103720003001001000ED00E0000000200090D00308
:10373000340100108C56004000F000404881030026
:10374000E40E0040580200104096024000E00140A4
:103750000400FA05FDF764B8FDF76AB8FDF778B81C
:10376000704700BF0649074A074B9B1A03DD043B1D
:10377000C858D050FBDCFFF70BFFFCF785FD0000BD
:10378000504C00000000002070000020FEE7FEE723
:10379000FEE7FEE7FEE7FEE7FEE7FEE7FEE7FEE701
:1037A00048B1032A03D9052A01D0174870470129D7
:1037B00004D9164870474FF4700070470BB1144895
:1037C0007047022A70B5054614460E4611D0052AE8
:1037D0000FD04C2100F034F9052C11D94FF0FF32F5
:1037E000002001232A626E62E86228636B63AB6388
:1037F00070BD0EB1074870BD4C21284600F020F97D
:10380000054B53F82420EBE70200F0000600F0001F
:103810000E00F0001200F0000C4B000038B122B195
:1038200009B10E487047082B04D00D4870474FF47B
:10383000700070475368102B01D00A487047136816
:10384000002BF2D010B51346012282620C461030D4
:1038500093E8060000F0F2F8204610BD0500F000E5
:103860000400F0000300F00018B159B122B91A4861
:1038700070474FF47000704738B512F00F0403D052
:10388000154838BD15487047056A25F00405032D15
:1038900001D0D3B11C461346224600F0DDF9104B8F
:1038A000984214D005D8B0F5710F12D00BD838B9A2
:1038B00038BD0C4B984206D005D301339842DFD077
:1038C0004FF4750038BD084838BD084838BD084871
:1038D00038BD4FF47000EBE70A00F0000800F0007C
:1038E0000200F1000400F1000200F0000900F00005
:1038F0000600F00010B500F029F810B104242046AD
:1039000010BD00F0F1F8B0B90C4B1B681B0EF02B8A
:1039100006D10B4A0B4B12689A4208D0062400E0ED
:10392000052400F0E7F800F04FF8204610BD064BE4
:1039300004461860E3E70324F5E700BF28B9025006
:1039400024BA02500000E0200CBA025008B5002151
:103950004FF4004000F06EF808B1012008BD124895
:1039600000F072F878B9114800F06EF898B9104B71
:103970000E4A10481A6000F067F880B90E4B0D4AE5
:103980001A60002008BD0D4800F042F8074800F01A
:103990005BF80028EBD00A4800F03AF8E7E709485E
:1039A00000F036F8EAE700BFDC040020D004002075
:1039B000D8040020D4040020C8040020244B0000B8
:1039C000404B00005C4B000070B50E4E0E4D0F4C8E
:1039D00000F032F8304600F045F83046042100F09F
:1039E0002FF8284600F03EF82846042100F028F879
:1039F000204600F037F820460421BDE8704000F072
:103A00001FB800BFDC040020D0040020D404002034
:103A1000BFF34F8F0549064BCA6802F4E0621343B7
:103A2000CB60BFF34F8F00BFFDE700BF00ED00E0AC
:103A30000400FA0500207047704700BF00F056BA36
:103A40000A46002100F0ECBA10B5044610B100207F
:103A5000206010BD0248FFF7DBFF0020206010BD92
:103A60007C4B000010B5044610B10020206010BD52
:103A70000248FFF7CDFF0020206010BD7C4B000006
:103A800010B50446B8B1BFF35B8F2368BFF35B8FFB
:103A9000012BF8D00122BFF35B8F54E8003F44E8CC
:103AA00000210029F9D1BFF35B8F012BF3D1BFF3C4
:103AB0005F8F002010BD0248FFF7AAFFE3E700BFB9
:103AC000A04B000010B5044620B1BFF35F8F00206B
:103AD000206010BD0348FFF79BFFBFF35F8F0020FE
:103AE000206010BDC04B0000014B002018607047E3
:103AF000D803002000207047014B1860704700BFBA
:103B000008BA0250014B1860704700BF04BA025057
:103B100010B5044682B0C0B1124A134BC1431160C4
:103B20001B680193019B18420AD1104A20BFBFF3C2
:103B30005B8F1368BFF35B8F0193019B1C42F5D031
:103B40000B4B1C60019802B010BD0A48FFF760FFE4
:103B5000044A054B4FF0FF3111601B680193019B34
:103B6000E3E700BF04BA025000BA0250D8030020B5
:103B700008BA0250E04B00000B490C4B0C4A4FF0C6
:103B8000FF3008601B68BFF35B8F52E8001F42E8FC
:103B900000300028F9D1BFF35B8F9942F3D1BFF316
:103BA0005F8F044A1360704704BA025000BA025093
:103BB000D803002008BA025038B51E4B1E49012216
:103BC00005461A600B68002BFCD11C4B1A68002AB2
:103BD000FCD11B4B1A68002AFCD11A4B1A68002A28
:103BE000FCD1194B1C68002CFCD14FF0FF30FFF7C3
:103BF00083FF2B6A23F00403032B0CBF802040209B
:103C0000FFF780FF114B1C602B6A23F00402032A8C
:103C100018BF6C6A0E4A9B0003F01C0304F00104F9
:103C2000234313602B6A072B02D10A4B01221A602F
:103C3000002038BD00B9025070B4025020BD0250BF
:103C400020BC025038BD025038BC0250BCB40250F7
:103C5000C0B402507CB4025060B3F8B5446B24B9D0
:103C6000B3F5805F06D35848F8BD012C02D1B3F5F7
:103C7000803FF8D204460E4654484FF0FF311D46AF
:103C80001746FFF7FDFEC0B9514A01231360226AAF
:103C9000072A16D94F4B1C68002CFCD14C4B4B48C3
:103CA0001C60FFF70FFF0028DED04B48FFF7B0FE87
:103CB0002046F8BD4FF4710070474848FFF7A8FE52
:103CC000E2E7934013F08F0FE4D0636A012BE1D851
:103CD000636B012BDED8A36B012BDBD82046FFF7EB
:103CE0006BFF0028D6D1A36A012B5DD056D3022BDF
:103CF00054D0236A5A1E062A0FD8DFE802F0043196
:103D0000040E0E0E0400364B22681A6062685A6078
:103D1000A2689A60E268DA60236A23F00403032B46
:103D200031D0A36B012B49D02E4A2F4B1760202096
:103D30001D60636B012B2CD02C4A2D4B16601D602F
:103D4000FFF7E6FE234A1368002BFCD1236A013BF0
:103D5000062B12D8DFE803F0140614111111140019
:103D6000244BD1E7234A244B126822601A68626010
:103D70005A68A26008331B68E3600123236389E764
:103D8000174A1E4BF0E7636B012B01D01020D3E7DD
:103D900040201B4A1B4B16601D60D1E71A491B4A85
:103DA0000B6001231360A4E7194B22691A60626952
:103DB0005A60A2699A60E269DA609AE7154A164B7E
:103DC000176080201D60B4E70500F100DC040020CE
:103DD00010B8025010B90250284C0000104C0000DE
:103DE00040B4025030BD025034BD025030BC0250CD
:103DF00034BC025060B4025064B4025044B4025067
:103E000028BC02502CBC025038BA025078B4025080
:103E100000B4025028BD02502CBD025000230146C0
:103E20001A46184600F010BA08B5074B044613B1FD
:103E3000002100F05BFA054B1868836A03B19847CC
:103E4000204600F0B7FA00BFED420000404C0000F1
:103E500038B50A4C0A4D641BA4100AD004F1804303
:103E6000013B05EB8305013C55F804399847002CCC
:103E7000F9D1BDE8384000F025BC00BF700000203B
:103E80006C00002070B50D4E0D4D761BB61006D09F
:103E90000024013455F8043B9847A642F9D1094E55
:103EA000094D761B00F008FCB61006D00024013442
:103EB00055F8043B9847A642F9D170BD6800002030
:103EC000680000206C00002068000020024B0146C2
:103ED000186800F043B900BF04000020024B0146FF
:103EE000186800F0E7B800BF04000020844641EAEB
:103EF000000313F003036DD1403A41D351F8043B62
:103F000040F8043B51F8043B40F8043B51F8043BB3
:103F100040F8043B51F8043B40F8043B51F8043BA3
:103F200040F8043B51F8043B40F8043B51F8043B93
:103F300040F8043B51F8043B40F8043B51F8043B83
:103F400040F8043B51F8043B40F8043B51F8043B73
:103F500040F8043B51F8043B40F8043B51F8043B63
:103F600040F8043B51F8043B40F8043B51F8043B53
:103F700040F8043B51F8043B40F8043B403ABDD2C2
:103F8000303211D351F8043B40F8043B51F8043B64
:103F900040F8043B51F8043B40F8043B51F8043B23
:103FA00040F8043B103AEDD20C3205D351F8043BF3
:103FB00040F8043B043AF9D2043208D0D2071CBFBF
:103FC00011F8013B00F8013B01D30B8803806046E8
:103FD000704700BF082A13D38B078DD010F003035E
:103FE0008AD0C3F10403D21ADB071CBF11F8013BCE
:103FF00000F8013B80D331F8023B20F8023B7BE71D
:10400000043AD9D3013A11F8013B00F8013BF9D247
:104010000B7803704B7843708B78837060467047E1
:10402000F0B4860743D0541E002A3ED0CAB20346DD
:1040300002E014F1FF3438D303F8012B9D07F8D1C7
:10404000032C2BD9CDB245EA05250F2C45EA0545B1
:1040500016D9A4F110073F0903F1200606EB071655
:1040600003F1100242E9045542E902551032B2420E
:10407000F8D104F00F040137032C03EB07130DD91B
:104080001E462246043A032A46F8045BFAD8221F49
:1040900022F003020432134404F003042CB1C9B229
:1040A0001C4403F8011B9C42FBD1F0BC7047144632
:1040B0000346C5E779B338B551F8043C0C1F002B13
:1040C000B8BFE418054600F063F9234B1A682AB11B
:1040D000A2420DD921686018824230D06260284621
:1040E0001C60BDE8384000F055B9A34203D81A4619
:1040F0005368002BF9D111685018A04213D00BD887
:1041000021686018834220D0636054602846BDE86F
:10411000384000F03FB970470C232B602846BDE8BB
:10412000384000F037B920680144501883421160CC
:10413000ECD1D3E90003014453601160E6E7D2E912
:104140000002014462602160C9E7D3E90003014431
:10415000636021605460D9E7DC030020F8B5CD1C12
:1041600025F0030508350C2D38BF0C25002D06461B
:104170003ADBA94238D82A4F00F00AF93A6852B11E
:1041800013685B1B04D433E023685B1B25D52246F0
:104190005468002CF8D1796800293BD02946304674
:1041A00000F040F8431C2AD0C41C24F00304A042B1
:1041B00005D0211A304600F035F801301FD02560B7
:1041C000304600F0E7F804F10B0020F00700231D53
:1041D000C31A01D05A42E250F8BD0B2B0BD8A242B1
:1041E00015D063685360EBE70C2333600020F8BD03
:1041F0000B2B0BD9144623601C442560E0E70C23ED
:104200003046336000F0C6F80020F8BD54683C60CA
:104210001446D5E7304600F005F87860BEE700BFE9
:10422000DC03002038B5074C002305460846236010
:1042300000F0B2F8431C00D038BD2368002BFBD03F
:104240002B6038BDE00400202DE9F843234C25689D
:104250000DB36C681F2C3DDC984691460F46064610
:1042600088B1D5F8880028B3D0F8003140F8249000
:104270000122A24000EB84011343022EC0F800315A
:10428000C1F8808010D0A31C01346C6045F8237005
:104290000020BDE8F883124E124D2560002ED8D0C4
:1042A0003468C5F88840D4E7D0F804311A43C0F820
:1042B0000421E8E70C4B6BB14FF48470FFF706FE66
:1042C00040B100236C68C0F80031C0F80431C5F873
:1042D0008800CBE74FF0FF30DBE700BF7004002021
:1042E00000000000E4030020CD3E00002DE9F04F67
:1042F000264E83B0356801908B464FF001080027A9
:10430000A5B16C68D5F888A0013C0FD4BBF1000FB3
:104310000FD0BAF1000F06D0A3000AEB0302D2F8C7
:1043200080205A4506D014F1FF34EFD203B0BDE827
:10433000F08FA3006A682B44511E9A68A1420CBFFB
:104340006C609F60002AEED0D5F80490BAF1000F9F
:1043500008D1904769683268494501D1AA42E2D044
:104360001546CDE7DAF8001108FA04FC1CEA010F43
:10437000EFD0DAF804315AF824101CEA030F02D106
:1043800001989047E6E708469047E3E7700400206D
:10439000704700BF704700BF044A05491368002BEF
:1043A00008BF0B461844106018467047740400207C
:1043B000E8040020FEE700BF53B94AB9002908BF4E
:1043C00000281CBF4FF0FF314FF0FF3000F072B9F2
:1043D000ADF1080C6DE904CE00F006F8DDF804E05C
:1043E000DDE9022304B070472DE9F047089E04463A
:1043F0008846002B4BD18A42154667D9B2FA82F221
:104400004AB1C2F1200701FA02F320FA07F79540FA
:1044100047EA030894404FEA154E230CB8FBFEF719
:104420001FFA85FC0EFB178843EA084307FB0CF1D3
:10443000994209D9EB1807F1FF3080F01B819942AE
:1044400040F21881023F2B445B1AA4B2B3FBFEF08A
:104450000EFB103344EA034400FB0CFCA44509D9CD
:104460002C1900F1FF3380F00781A44540F204814C
:1044700002382C4440EA0740A4EB0C0400271EB18C
:10448000D4400023C6E900433946BDE8F0878B429B
:1044900009D9002E00F0EB800027C6E9000138465C
:1044A0003946BDE8F087B3FA83F7002F47D18B4236
:1044B00002D3824200F2FA80841A61EB03030120E6
:1044C0009846002EE0D0C6E90048DDE702B9FFDEDD
:1044D000B2FA82F2002A40F08F80491B4FEA154E53
:1044E0001FFA85F80127B1FBFEFC230C0EFB1C1103
:1044F00043EA014308FB0CF1994207D9EB180CF190
:10450000FF3002D2994200F2CD808446591AA3B2FC
:10451000B1FBFEF00EFB101443EA044408FB00F864
:10452000A04507D92C1900F1FF3302D2A04500F2B3
:10453000B6801846A4EB080440EA0C409FE7C7F198
:10454000200CBB4022FA0CFE4EEA030E01FA07F4DF
:1045500020FA0CF521FA0CF34FEA1E482543B3FB71
:10456000F8F92C0C08FB19331FFA8EFA44EA0343BE
:1045700009FB0AF49C4202FA07F200FA07F10BD990
:104580001EEB030309F1FF3080F087809C4240F26C
:104590008480A9F1020973441B1BADB2B3FBF8F090
:1045A00008FB103345EA034400FB0AFAA24508D988
:1045B0001EEB040400F1FF336BD2A24569D9023827
:1045C000744440EA0940A0FB0289A4EB0A044C456C
:1045D000C2464B4654D351D0002E69D0B1EB0A05E8
:1045E00064EB030404FA0CFCFD40FC404CEA0505B6
:1045F000C6E90054002747E7C2F1200320FA03F779
:10460000954001FA02F021FA03F34FEA154E3843C0
:10461000010CB3FBFEF71FFA85F80EFB173341EAD6
:10462000034107FB08F38B4204FA02F407D9691827
:1046300007F1FF3C2FD28B422DD9023F2944CB1AE0
:1046400081B2B3FBFEF00EFB103341EA034100FBE5
:1046500008F38B4207D9691800F1FF3C17D28B424F
:1046600015D902382944C91A40EA07473BE73746BB
:10467000304609E70746E7E61846FBE64145ABD278
:10468000B8EB020A69EB0E0201381346A4E7604654
:10469000E9E7184695E76746D1E781467CE70238A7
:1046A0002C4447E7ACF1020C2B442FE7384608E7CF
:1046B0003746E9E6704700BFF8B500BFF8BC08BC54
:1046C0009E467047F8B500BFF8BC08BC9E467047D0
:1046D0002B7E151628AED2A6ABF7158809CF4F3C16
:1046E0003031323334353637383941424344454628
:1046F0002D0000002F000000FFFFFFFFFFFFFFFF66
:10470000000000000000000000509D0007000000B5
:104710002E2E2F68616C2F6E726635323834302F32
:104720006E726635323834305F68616C2E6300001B
:104730000000000000000000000000000000000079
:104740000000000000000000002000400000000009
:1047500000200040000000003001002068470000F9
:1047600064470000400100206001002000000000BC
:104770000338FDD8704700002E2E2F68616C2F6E15
:10478000726635323834302F6E72665F73646B5FD9
:1047900031352E302E302F636F6D706F6E656E74F5
:1047A000732F6C69627261726965732F7574696CBD
:1047B0002F6170705F7574696C5F706C6174666F87
:1047C000726D2E63000000002E2E2F68616C2F6E1C
:1047D000726635323834302F6E72665F73646B5F89
:1047E00031352E302E302F636F6D706F6E656E74A5
:1047F000732F6C69627261726965732F717565756B
:10480000652F6E72665F71756575652E63000000B9
:104810002E2E2F68616C2F6E726635323834302F31
:104820006E72665F73646B5F31352E302E302F638E
:104830006F6D706F6E656E74732F6C6962726172EA
:104840006965732F6D757465782F6E72665F6D7410
:10485000782E68002E2E2F68616C2F6E72663532AE
:104860003834302F6E72665F73646B5F31352E3073
:104870002E302F696E746567726174696F6E2F6E6A
:104880007266782F6C65676163792F6E72665F64FC
:1048900072765F756172742E680000002E2E2F688C
:1048A000616C2F6E726635323834302F6E72665FEF
:1048B00073646B5F31352E302E302F636F6D706FE8
:1048C0006E656E74732F6C69627261726965732FA5
:1048D00073657269616C2F6E72665F736572696170
:1048E0006C2E63002E2E2F68616C2F6E726635322F
:1048F0003834302F6E72665F73646B5F31352E30E3
:104900002E302F696E746567726174696F6E2F6ED9
:104910007266782F6C65676163792F6E72665F646B
:1049200072765F636C6F636B2E63000000000000A3
:104930002E2E2F68616C2F6E726635323834302F10
:104940006E72665F73646B5F31352E302E302F6D63
:104950006F64756C65732F6E7266782F64726976FA
:104960006572732F7372632F6E7266785F636C6FFC
:10497000636B2E63000000002E2E2F68616C2F6E7B
:10498000726635323834302F6E72665F73646B5FD7
:1049900031352E302E302F6D6F64756C65732F6E30
:1049A0007266782F68616C2F6E72665F6770696FD0
:1049B0002E6800002E2E2F68616C2F6E72663532C5
:1049C0003834302F6E72665F73646B5F31352E3012
:1049D0002E302F6D6F64756C65732F6E7266782F35
:1049E000647269766572732F7372632F6E72667864
:1049F0005F706F7765722E63000000002E2E2F68A7
:104A0000616C2F6E726635323834302F6E72665F8D
:104A100073646B5F31352E302E302F6D6F64756C83
:104A200065732F6E7266782F647269766572732F64
:104A30007372632F7072732F6E7266785F70727309
:104A40002E6300002E2E2F68616C2F6E7266353239
:104A50003834302F6E72665F73646B5F31352E3081
:104A60002E302F6D6F64756C65732F6E7266782FA4
:104A7000647269766572732F7372632F6E726678D3
:104A80005F756172742E63002E2E2F68616C2F6E1D
:104A9000726635323834302F6E72665F73646B5FC6
:104AA00031352E302E302F696E74656772617469EE
:104AB0006F6E2F6E7266782F6E7266785F676C7598
:104AC000652E68002E2E2F68616C2F6E726635324F
:104AD0003834302F6E72665F73646B5F31352E3001
:104AE0002E302F6D6F64756C65732F6E7266782F24
:104AF000647269766572732F7372632F6E72667853
:104B00005F75617274652E63000000000000000094
:104B1000010000000300000002000000FFFFFFFF93
:104B2000070000004661696C20746F206372656144
:104B300074652053594D206D757465780A00000026
:104B40004661696C20746F206372656174652041F1
:104B500053594D206D757465780A00004661696C83
:104B600020746F206372656174652047656E5665B9
:104B700063206D757465780A0000000043616E273C
:104B80007420696E697469616C697A65206D7574E9
:104B900065782C20776173204E554C4C0D0A00002F
:104BA00043616E2774206C6F636B206D757465783C
:104BB0002C20776173204E554C4C0D0A00000000EC
:104BC00043616E277420756E6C6F636B206D757416
:104BD00065782C20776173204E554C4C0D0A0000EF
:104BE000536153695F48616C57616974496E7465BC
:104BF00072727570742063616E74207761697420BD
:104C0000666F72206E6F7468696E670A000000003C
:104C10004661696C20746F206163717569726520EB
:104C20006D757465780A00004661696C20746F20A8
:104C300072656C65617365206D757465780A000036
:084C4000080000200000000044
:084C480040B6FF7F01000000EF
:104C50000090D003080000200000000000000000C9
:104C60000000000000000000000000000000000044
:104C70000000000000000000000000000000000034
:104C80000000000000000000000000000000000024
:104C90000000000000000000000000000000000014
:104CA0000000000000000000000000000000000004
:104CB0000000000000000000690200004102000046
:04000003000037655D
:00000001FF
