:0200000460009A
:10000000464346420004015600000000010303007D
:1000100000000000000000000000000000000000E0
:1000200000000000000000000000000000000000D0
:1000300000000000000000000000000000000000C0
:1000400000000000000406000000000000000000A6
:100050000000800000000000000000000000000020
:100060000000000000000000000000000000000090
:100070000000000000000000000000000000000080
:10008000EB04180A063204260000000000000000FD
:100090000000000000000000000000000000000060
:1000A0000000000000000000000000000000000050
:1000B0000000000000000000000000000000000040
:1000C0000000000000000000000000000000000030
:1000D0000000000000000000000000000000000020
:1000E0000000000000000000000000000000000010
:1000F0000000000000000000000000000000000000
:1001000000000000000000000000000000000000EF
:1001100000000000000000000000000000000000DF
:1001200000000000000000000000000000000000CF
:1001300000000000000000000000000000000000BF
:1001400000000000000000000000000000000000AF
:10015000000000000000000000000000000000009F
:10016000000000000000000000000000000000008F
:10017000000000000000000000000000000000007F
:10018000000000000000000000000000000000006F
:10019000000000000000000000000000000000005F
:1001A000000000000000000000000000000000004F
:1001B000000000000000000000000000000000003F
:1001C000000100000010000000000000000000001E
:1001D000000004000000000000000000000000001B
:1001E000000000000000000000000000000000000F
:1001F00000000000000000000000000000000000FF
:10020000FFFFFFFFFFFFFFFFFFFFFFFFFFFFFFFFFE
:10021000FFFFFFFFFFFFFFFFFFFFFFFFFFFFFFFFEE
:10100000D10020410020006000000000000000002E
:1010100020100060001000600000000000000000D0
:10102000000000600000800000000000FFFFFFFFE4
:10103000FFFFFFFFFFFFFFFFFFFFFFFFFFFFFFFFC0
:10104000FFFFFFFFFFFFFFFFFFFFFFFFFFFFFFFFB0
:10105000FFFFFFFFFFFFFFFFFFFFFFFFFFFFFFFFA0
:10106000FFFFFFFFFFFFFFFFFFFFFFFFFFFFFFFF90
:1020000000000220592300601D230060D14F0060B2
:1020100000000000000000000000000000000000C0
:10202000000000000000000000000000212300600C
:10203000000000000000000023230060A95D006094
:10204000FB4F0060035000600B50006013500060B5
:102050001B500060235000602B5000603350006024
:102060003B500060435000604B5000605350006094
:102070005B500060635000606B5000607350006004
:102080007B500060835000608B5000609350006074
:102090009B500060A3500060AB500060B3500060E4
:1020A000BB500060C3500060CB500060D350006054
:1020B000DB500060E3500060EB500060F3500060C4
:1020C000FB500060035100600B5100601351006031
:1020D0001B510060235100602B51006033510060A0
:1020E0003B510060435100604B5100605351006010
:1020F0005B510060635100606B5100607351006080
:102100007B510060835100608B51006093510060EF
:102110009B510060A3510060AB510060B35100605F
:10212000BB510060C3510060CB510060D3510060CF
:10213000DB510060E3510060EB510060F35100603F
:10214000FB510060035200600B52006013520060AC
:102150001B520060235200602B520060335200601B
:102160003B520060435200604B520060535200608B
:102170005B520060635200606B52006073520060FB
:102180007B520060835200608B520060935200606B
:102190009B520060A3520060AB520060B3520060DB
:1021A000BB520060C3520060CB520060D35200604B
:1021B000DB520060E3520060EB520060F3520060BB
:1021C000FB520060035300600B5300601353006028
:1021D0001B530060235300602B5300603353006097
:1021E0003B530060435300604B5300605353006007
:1021F0005B530060635300606B5300607353006077
:102200007B530060835300608B53006093530060E6
:102210009B530060A3530060AB530060B353006056
:10222000BB530060C3530060CB530060D3530060C6
:10223000DB530060E3530060EB530060F353006036
:10224000FB530060035400600B54006013540060A3
:102250001B540060235400602B5400603354006012
:102260003B540060435400604B5400605354006082
:102270005B540060635400606B54006073540060F2
:102280007B540060835400608B5400609354006062
:102290009B540060A3540060AB540060B3540060D2
:1022A000BB540060C3540060CB540060D354006042
:1022B000DB540060E354006058AD00600000002073
:1022C0000800000058AD00600000000000000000A1
:1022D00058AD0060000020200000000058AD0060F4
:1022E000000000800000000058AD00600000E081A8
:1022F000000000000800002074030000000000003F
:10230000000000000000202000000000000000800D
:10231000000000000000E08100000000FEE7FEE792
:10232000FEE7FEE7FEE7FEE70023934209D210B482
:1023300050F8044B41F8044B04339342F8D310BCDB
:102340007047704700238B4204D2002240F8042BD0
:102350000433F8E77047FFFF10B572B601F009F9D2
:102360000D4B07E003F10C049A6859681868FFF7F1
:10237000DBFF2346094A9342F4D306E01C46596822
:1023800054F8080BFFF7DEFF2346054A9342F5D3C6
:1023900062B600F051F8FEE7B8220060F422006057
:1023A0001C2300600020704702784378002043EA35
:1023B0000223014A138070470000002008B504F092
:1023C0007BFC002008BD08B504F066FC002008BDB9
:1023D00010B5044604F05EFC03F0D7FC204604F080
:1023E00063FC03F0D9FC204604F055FC2246102182
:1023F000722000F0DFF8002010BD70B500250D4EF2
:10240000044604F047FC3388AB4209D8204604F068
:1024100042FC22461021722000F0CCF8002070BD52
:1024200003F0B3FC204604F03FFC013503F0B4FC9C
:10243000E9E700BF000000201FB51E4B6A4603F10C
:10244000100615461868083353F8041C1446B342A6
:1024500003C42246F6D103F0ECFC03F063FC03F066
:1024600093FC04F011FC284604F016FC00F09BF8E5
:10247000114A10216B2000F093F8104A10217020AF
:1024800000F08EF80E4A0021782000F089F8012330
:102490000C4A12216D2000F06DF80B4A02217320C6
:1024A00000F07EF8094A1021662000F079F800F06B
:1024B000A1F8FCE75C7E0060C7230060D1230060C8
:1024C000A5230060BD230060A9230060FB230060FA
:1024D000012070470346014400208B4200D1704721
:1024E00013F8012B5040082210F0800F4FEA4000F3
:1024F00018BF80F0A600013AC0B2F5D1EDE7F0B503
:1025000000234F1C834201DB002020E017F813500A
:1025100011F81340A5F13006F6B2092E0BD8D654A7
:10252000A4F13005EEB2092E14D8D45C44EA0514A7
:10253000D4540133E6E7A5F14106052E02D8373D14
:10254000D554EDE7A5F16106052E01D90120F0BDB6
:10255000573DF5E7A4F14105052D02D8A4F1370553
:10256000E3E7A4F16105052DF0D8573CD55C45EAB9
:102570000414DDE770B5094E34680F2C0BDCBF295D
:1025800009D806EB04150134287100202B7434603F
:10259000C5E9021270BD0120FCE700BF0800002061
:1025A0000023FFF7E7BF024A00217620FFF7F8BFBC
:1025B000D1240060F8B514460D4F0E4603F0CAFB57
:1025C000651EC4F1010463199E4204DC0A20BDE8C3
:1025D000F84003F0BFBB15F8013F1B09F85C03F09E
:1025E000B9FB2B7803F00F03F85C03F0B3FBEAE7C9
:1025F0006D7E00602DE9F0412E4CADF5127D03F0AB
:10260000BAFB00232268211D9A4204DC07D10DF594
:10261000127DBDE8F0811D016D5C85423DD104EB6A
:1026200003151E012B7CDB0714D500238DF8083021
:1026300003F0A1FB8DF8C80003F09DFB02AA8DF802
:10264000C90032A90120FFF75AFF0028DFD19DF809
:102650000830AB600025A7190DF1C808BB68B5EBC1
:10266000430F1CD303F087FB0A2801D00D28CED1DD
:10267000344402AA32A9A5682846FFF740FF002883
:10268000C5D1E9B2E36802A8984701AA8DF8040011
:1026900001217A20FFF78EFFB9E70133B4E703F099
:1026A0006AFB0A28B3D00D28B1D005F8080001351F
:1026B000D4E700BF0800002038B5C3B2C0F304253A
:1026C000820EC0F34C3003F18043A940A840202A79
:1026D00003F57C231C6881EA040100EA010080EA1A
:1026E0000400186006D9074B40F20B41064A074820
:1026F00002F0FCFE05D00123054993408A6C1A4282
:10270000FCD138BD7D7E0060C87E00609B7E00608D
:1027100000C00F4038B5C3B2C0F30425820EC0F329
:102720004C3003F18043A940A840202A03F57C23C4
:102730001C6881EA040100EA010080EA04001860D4
:1027400006D9074B40F2E631064A074802F0CEFEB2
:1027500005D00123054993408A6C1A42FCD138BD4B
:102760007D7E0060D57E00609B7E006000C00F40D3
:102770000749032210B5040A00F01F0051F8243065
:1027800002FA00F023EA000041F8240010BD00BF67
:1027900068C00F4038B5DD4C0020DD4A4FF480356D
:1027A000D4F8C03223F48033C4F8C032D94B1A6055
:1027B00000F088FF00F0CAFF012000F0B1FFD64A08
:1027C0000121D648136823F0FF0343F07F03136011
:1027D000FFF7A0FF0121D248FFF79CFF0021D1485D
:1027E000FFF76AFF4FF48870FFF7C2FF4FF4847061
:1027F000FFF7BEFF40F21620FFF7BAFF4FF4067056
:10280000FFF7B6FF40F20E20FFF7B2FF0121C648E6
:10281000FFF752FF0021C548FFF74EFF0021C448D3
:10282000FFF74AFF4FF48A70FFF7A2FF4FF48B7057
:10283000FFF79EFF1820FFF79BFF1A20FFF798FF76
:102840004FF48670FFF794FF0121BA48FFF734FF79
:1028500040F20260FFF78CFF0121B748FFF72CFF21
:102860000021B648FFF756FF40F20460FFF780FFF3
:102870000121B348FFF720FF0021B248FFF74AFFCC
:102880004FF44170FFF774FF07214FF21400FFF778
:1028900013FF0021AC48FFF73DFF0021AB48FFF7D5
:1028A00039FF40F20270FFF763FF0121A848FFF7EC
:1028B00003FF0121A748FFF72DFF40F20220FFF799
:1028C00057FF0121A448FFF7F7FE0021A348FFF7B7
:1028D00021FF4FF48070FFF74BFF4FF48170FFF73B
:1028E00047FF4FF48270FFF743FF4FF48370FFF709
:1028F0003FFF04219A48FFF7DFFE02219948FFF7C6
:1029000009FF1620FFF734FF02219748FFF7D4FE96
:1029100002219648FFF7FEFE40F21250FFF728FF13
:1029200003219348FFF7C8FE01219248FFF7C4FE38
:1029300000219148FFF7EEFE40F21450FFF718FF18
:1029400003218E48FFF7B8FE01218D48FFF7B4FE42
:1029500000218C48FFF7DEFE40F21650FFF708FF1B
:1029600003218948FFF7A8FE01218848FFF7A4FE4C
:1029700000218748FFF7CEFE40F20620FFF7F8FE61
:102980004FF40270FFF7F4FE40F20A20FFF7F0FE6A
:1029900000218048FFF790FE00217F48FFF7BAFE34
:1029A0000E20FFF7E5FE1220FFF7E2FE40F2067070
:1029B000FFF7DEFE1020FFF7DBFE1420FFF7D8FE46
:1029C0004FF4E160FFF7D4FE01217448FFF774FE75
:1029D00002217348FFF79EFE4FF4A360FFF7C8FE85
:1029E0001C20FFF7C5FE0C20FFF7C2FE4FF48C70D1
:1029F000FFF7BEFE40F20230FFF7BAFE40F20630AB
:102A0000FFF7B6FE40F21A50FFF7B2FE40F20E603A
:102A1000FFF7AEFE00216348FFF74EFE002162483B
:102A2000FFF778FE40F20A30FFF7A2FE01215F486F
:102A3000FFF742FE03215E48FFF73EFE05215D4899
:102A4000FFF768FE40F20E50FFF792FE01215A4850
:102A5000FFF732FE07215948FFF72EFE03215848A1
:102A6000FFF758FE40F20250FFF782FE0121554861
:102A7000FFF722FE07215448FFF71EFE03215348AB
:102A8000FFF748FE4FF44070FFF772FE01215048F7
:102A9000FFF712FE07214F48FFF70EFE03214E48B5
:102AA000FFF738FE00214D48FFF734FE4C4800F098
:102AB000B7FE4C4B4C481D6000F0DCFE1B21002093
:102AC00001F08EF91021012001F08AF9182102206D
:102AD00001F086F91021032001F082F9434B1D60BB
:102AE00000F0CCFF424B1D60D4F8703123F400435A
:102AF000C4F87031D4F8703123F40003C4F8703195
:102B0000236F43F40053236774E000BF00800D403F
:102B100000366E015402002000C00F40186C008087
:102B20001439001414EA00041468008010E0004016
:102B300014FB00801CE0078024EB00801C30008028
:102B400024F000801C3100801427008014260080AF
:102B500018FD0080186800803CEB00803C69008014
:102B600018FA00801864008024790080186E0080B4
:102B700028E6008028E007801C6A00802CE60080A0
:102B80002CE007801C6C008028F6008028F007806D
:102B90001C6E008038F307803832008020E2078006
:102BA0002068008024E007802426008038EC008024
:102BB00018F7008038EF008030F9008030F6008090
:102BC0003074008030EC008030E900803067008095
:102BD00028E9008028F90080207300800C20008004
:102BE000E47E006004800D40EC7E006034800D4087
:102BF00074800D40D4F8A03023F40053C4F8A03002
:102C0000D4F8A03023F4E0332B43C4F8A0300023E1
:102C1000C4F8B0300123C4F8C030D4F8A030D4F8E0
:102C2000702123F4415342F0404223F03F03C4F8A3
:102C3000702143F4022343F01F03C4F8A030D4F8FA
:102C4000A030002BFBDA4FF480354A4B1D6000F0BA
:102C5000B3FF494B1D60D4F8E03023F0030343F089
:102C60000103C4F8E030D4F8E03043F40053C4F872
:102C7000E030D4F8E03023F00C03C4F8E030D4F8AE
:102C8000E03043F48013C4F8E030D4F8E03043F48B
:102C90000013C4F8E03000F09BFE384B03213848A5
:102CA0001D60236A43F400532362FFF733FD0021C4
:102CB0003448FFF72FFD00213348FFF72BFD00219B
:102CC0003248FFF727FDD4F8603123F01F03C4F822
:102CD00060312F4B1A6E22F070021A661A6E22F0C3
:102CE0000F0242F001021A661A6E22F460021A669E
:102CF0001A6E22F4F81242F490121A661A6E22F436
:102D000080721A661A6E22F080021A661A6E22F01B
:102D100080721A66A3F5A0235A6822F007025A604F
:102D20005A6822F038025A605A6822F0C0025A608B
:102D30005A6822F440725A605A6822F440625A601B
:102D40009A6822F09F6222F4E0229A605A6822F484
:102D500000525A605A6822F480425A605A6922F03E
:102D600080525A615A6922F000525A61094B0A4A4C
:102D70001A6038BDA8800D40E4800D4024800D40CD
:102D80001872008014390014186C00801C26008012
:102D900000C00F400400002000366E01FFF7FABCAF
:102DA0000E4A136843F00C0313B51360002401238B
:102DB00001AA0E210A48ADF804308DF8064001F052
:102DC0001BFA0223074A136053600522064B1A6060
:102DD000064B5A6F5C6702B010BD00BF78C00F4051
:102DE00000801B40EC801F40F4801F4000C00A4060
:102DF000FFF7D6BF38B504460D4631B90F4B40F248
:102E000031310F4A0F4802F071FB20B90E4B40F2EE
:102E100036310B4AF6E71022002104F04FFF2B7ADF
:102E2000012B237306D1E96804F10800BDE838409E
:102E300000F064B943F2215038BD00BF70840060D7
:102E4000C27F0060127F0060537F006010B530B910
:102E50000E4B40F2AA310E4A0E4802F047FBEFF348
:102E6000108372B602680AB9446824B183F31088EB
:102E700043F2225010BD83F31088037B012B02D153
:102E8000083000F06BF92046F4E700BF537F006084
:102E9000D57F0060127F0060034610B530B90C4B3F
:102EA00040F2E7310B4A0C4802F020FB21B90B4BF2
:102EB0004FF47A71074AF6E700200860EFF31084B8
:102EC00072B65A6801325A6084F310880B6010BDE4
:102ED000537F0060EA7F0060127F0060607F0060C7
:102EE00008B5034630B90D4B40F202410C4A0D487B
:102EF00002F0FCFA026822B90B4B40F20741084A83
:102F0000F5E7EFF3108072B6516811B151680139DD
:102F1000516080F310880020186008BD607F006059
:102F200008800060127F00603C84006008B530B902
:102F30000E4B40F221410E4A0E4802F0D7FA21B959
:102F40000D4B40F222410A4AF6E7EFF3108272B6C7
:102F5000036823B182F3108843F2225008BD016058
:102F600082F3108808601846F8E700BF537F0060BE
:102F700027800060127F00606C7F006008B530B968
:102F80000C4B40F241410C4A0C4802F0AFFA036886
:102F900013B11A68824204D0094B40F24641064AF6
:102FA000F2E7EFF3108172B60020186081F3108809
:102FB000106008BD6C7F006044800060127F00607C
:102FC000777F006010B530B9124B40F20E31124AD3
:102FD000124802F08BFA21B9114B40F20F310E4A20
:102FE000F6E722B90F4B4FF444710B4AF0E7006843
:102FF00020B90D4B40F21531074AE9E7037B012B5D
:1030000004D10830BDE8104000F0BAB843F22150B6
:1030100010BD00BF607F006062800060127F0060B2
:10302000B47F0060BB7F00603C84006010B530B9A5
:10303000124B40F21F31124A124802F057FA21B9DE
:10304000114B4FF448710E4AF6E722B90F4B40F28C
:1030500021310B4AF0E7006820B90D4B40F22631D0
:10306000074AE9E7037B012B04D10830BDE8104093
:1030700000F0AAB843F2215010BD00BF6C7F006081
:1030800076800060127F0060B47F0060BB7F0060CC
:103090003C84006008B530B9084B40F22751084A1B
:1030A000084802F023FA037B012B04D10830BDE865
:1030B000084000F0ADB843F2215008BD537F0060D6
:1030C00089800060127F006008B530B9084B40F27B
:1030D0004A51084A084802F009FA037B012B04D13F
:1030E0000830BDE8084000F0ABB843F2215008BDFD
:1030F000537F0060A5800060127F00601FB529B972
:10310000124B8B21124A134802F0F0F918B9124BF6
:103110008C210F4AF7E7CA7A4B688DF80A200A7BA0
:103120008DF80B200A68CDE900230B89ADF8083033
:103130008B7A69468DF80C3000F09AF843F22153EF
:10314000002818BF184605B05DF804FBC080006079
:1031500010810060CD800060537F006008B528B901
:10316000044BC821044A054802F0C0F900F0DEF81B
:10317000002008BD537F006020810060CD8000608A
:1031800010B530B90B4B40F20B110B4A0B4802F053
:10319000ADF921B90A4B4FF48671074AF6E722B917
:1031A000084B40F20D11044AF0E7BDE8104000F072
:1031B00005B900BF537F006032810060CD800060A0
:1031C000B47F0060BB7F006010B530B90B4B40F29C
:1031D00019110B4A0B4802F089F921B90A4B4FF437
:1031E0008D71074AF6E722B9084B40F21B11044AD9
:1031F000F0E7BDE8104000F0B3B800BF537F0060B7
:1032000043810060CD800060B47F0060BB7F0060C0
:1032100008B530B9074B40F27711074A074802F06A
:1032200065F900F0F5F843F22153002818BF18465D
:1032300008BD00BF537F006053810060CD800060F7
:1032400008B530B9074B40F28711074A074802F02A
:103250004DF900F0EFF843F22153002818BF18464B
:1032600008BD00BF537F00606C810060CD800060AE
:1032700070B50C4686B0054628B9264BE721264A8C
:10328000264802F033F919B9254BE821224AF7E71D
:103290000B7B082B03D9234BE9211F4AF0E71E4A79
:1032A00002EB830316461B6913B91F4BEA21E7E7BC
:1032B00001A801F09BF963680193237A012B21D1C6
:1032C00002238DF8083001A9637A5A1E53425341F4
:1032D00022688DF80B30A37A003B18BF01238DF8CC
:1032E0001530E37A003B18BF01238DF81430237B9F
:1032F00006EB8306306901F065F840B9237B2B703B
:1033000006B070BD022B0CBF03230023D9E742F6A1
:10331000AF70F5E73C8400602C820060848100601F
:1033200070840060BB8100600482006008B530B921
:10333000074B4FF49871074A074802F0D7F8027814
:10334000064B03EB8203186901F032F9002008BD37
:103350003C84006060820060848100602C82006098
:1033600010B530B90F4B40F245110F4A0F4802F02B
:10337000BDF821B90E4B4FF4A3710B4AF6E722B901
:103380000C4B40F24711084AF0E700780A4B03EB78
:103390008003186901F08CFB002842F6AF7008BF6B
:1033A000002010BD3C8400606F820060848100605A
:1033B00003840060BB7F00602C82006010B530B9D0
:1033C0000D4B4FF4AD710D4A0D4802F08FF821B945
:1033D0000C4B40F25B11094AF6E722B90A4B4FF455
:1033E000AE71064AF0E70078084B03EB80031869DA
:1033F00001F040FB002010BD3C840060878200602B
:103400008481006003840060BB7F00602C820060C8
:1034100008B530B9044B4FF4B771044A044802F0C0
:1034200065F8002008BD00BF3C8400609C820060FD
:103430008481006000207047474AF8B5546914F051
:10344000007437D0936903F44053B3F5805F2DD0F7
:10345000B3F5005F22D05BBBA2F510321169C9033E
:1034600016D5126912F4404F3C4A08BF13463A4A37
:103470005469C4F3C2640134B3FBF4F4364B384AE4
:103480005B69C3F382230133B4FBF3F31360F8BD2C
:103490001369344A13F0020F334BE6E7334B1B6BCF
:1034A00013F4404F2D4B18BF0023E0E72B4BDEE712
:1034B0000023DCE72D4B294E1A6812F4803F1A686E
:1034C0002CD012F4404F18BF00261A6B1B6BD2038E
:1034D00029D513F4404F214D18BF0025234F002359
:1034E0001E49386D3A6EA0FB010104F0D3F91A4A67
:1034F0002844936903F44023B3F5002F24D019D84E
:103500003BB3B3F5802FB9D1D7F80041C4F30544DC
:103510001223B0FBF4F003FB00F4AFE702F07F02EC
:1035200056437608D1E713F0010F0F480D4D18BF31
:103530000546D3E7B3F5402FA0D1136903F0070385
:103540000133B6FBF3F499E7D7F8004104F03F04E8
:10355000DEE7044692E700BF00C00F4000366E0170
:103560000400002000389C1C00A4781F00800D403F
:1035700070474549454A464B70B59A600B8923F020
:1035800001031B041B0C0B81424B1A8922F0010220
:103590001204120C1A810A88560705D50A8822F0EF
:1035A00004021204120C0A801A88550705D51A88DD
:1035B00022F004021204120C1A80374B1A68940489
:1035C0005BD5364A5A604FF6FF729A601A6822F04D
:1035D000A00242F020021A60314B1A68D00703D5CE
:1035E0001A6822F001021A60294B5A69910315D416
:1035F0005A6912F4003211D1BFF34F8FBFF36F8FAE
:10360000C3F85022BFF34F8FBFF36F8F5A6942F454
:1036100000325A61BFF34F8FBFF36F8F1C4B5A6953
:10362000D20327D45A6912F4803223D1C3F88420FC
:10363000BFF34F8FD3F8802043F6E074C2F3C90084
:10364000C2F34E32520102EA0406014646EA81758F
:103650000139C3F86052F9D2203A12F1200FF2D1A9
:10366000BFF34F8F5A6942F480325A61BFF34F8FD4
:10367000BFF36F8FFFF77CFF70BD4CF220525A6092
:103680004DF628129EE700BF00800B40002000602E
:1036900000ED00E000000D4000C00B4020C528D91F
:1036A00010E000E0044BD3F87032DB0602D4034B89
:1036B000186870470248704700800D40540200208F
:1036C00000366E0108B528B10D4BA2210D4A0E48F7
:1036D00001F00CFF0D4B4FF08042C3F85821D3F896
:1036E0007022D103FBD54FF48032C3F85421D3F8B4
:1036F00050211204FBD54FF48032C3F8582108BD85
:10370000B2820060F4820060C182006000800D40DF
:10371000024B4FF08042C3F85421704700800D40A7
:10372000044B102210B9C3F874227047C3F87822F2
:10373000704700BF00800D40034AD2F8703243F05A
:103740000103C2F87032704700800D40034AD2F87E
:10375000703223F00103C2F87032704700800D40D0
:10376000104AD2F8803043F00303C2F8803002F5EB
:10377000F212D2F8403143F00203C2F840310A4B52
:1037800000BF013BFCD1094A0120D2F8203123F4CB
:10379000F85323F0010343F4B85343F00103C2F894
:1037A0002031704700C00F40801A060000800D4095
:1037B000114AD2F8803043F00303C2F8803002F59A
:1037C000F212D2F8403302F5007243F00203C2F85D
:1037D00040310A4B00BF013BFCD1094A0120D2F81D
:1037E000203123F4F85323F0010343F4B85343F09A
:1037F0000103C2F82031704700C00F40801A060054
:1038000000800D40054A136923F04003136102F55F
:103810008052136B43F080431363704700800D4068
:103820000F4B02791968920321F4E03192B20A43F6
:1038300042F480321A601968026821F4415102F0A2
:103840007F0221F03F010A4342F400521A601A68D5
:10385000002AFCDA1A6822F480321A60704700BF2E
:1038600000800D40024B4FF480521A60704700BF39
:1038700000800D40184B027B196B920321F4E0315C
:1038800092B20A4342F480321A63196B027821F42F
:10389000405102F0010221F001010A43C18942F4C2
:1038A00000521A63426822F040421A65826822F090
:1038B00040421A66428AC2F30E0242EA0142017C89
:1038C000C90389B20A431A641A6B002AFCDA1A6B1C
:1038D00022F480321A63704700800D40024B4FF48F
:1038E00080521A63704700BF00800D400F4B427832
:1038F0001969920321F4E03192B20A4342F4803212
:103900001A611969027821F44151520021F0020133
:1039100002F002020A4342F441521A611A69002A73
:10392000FCDA1A6922F480321A61704700800D4077
:10393000002307B5ADF804300F4B1A69920416D571
:103940001A6942F040021A610C4B01201A6B22F0F6
:1039500000421A631A6B22F080421A6300221A6036
:103960001A6B42F4C6121A6303B05DF804FB01A897
:10397000FFF7BCFFE8E700BF00800D4000900D405E
:10398000014B00221A61704700800D400F4B4278B6
:10399000196A920321F4E03192B20A4342F4803270
:1039A0001A62196A027821F44151520021F0020191
:1039B00002F002020A4342F441521A621A6A002AD1
:1039C000FCDA1A6A22F480321A62704700800D40D5
:1039D000014B00221A62704700800D40254A037B8C
:1039E000116F9B0321F4E0319BB20B4343F480330E
:1039F0001367436823F04043C2F88030836823F0A4
:103A00004043C2F89030116F037821F4415103F024
:103A10007F0321F03F010B43417808291FD006D8CE
:103A2000022922D004291DD043F481131FE010295C
:103A3000FAD143F400531048D2F8701121F4000178
:103A400021F400410143C2F870111367094B1A6F4A
:103A5000002AFCDA1A6F22F480321A67704743F4A6
:103A60000223E8E743F48113E5E743F4022300204F
:103A7000E2E700BF00800D4000808000024B4FF461
:103A800080521A67704700BF00800D40284A037BB0
:103A9000D2F8A0109B0321F4E0319BB20B4343F416
:103AA0008033C2F8A030436823F04043C2F8B030FE
:103AB000836823F04043C2F8C030D2F8A0100378E6
:103AC00021F4415103F07F0321F03F010B43417882
:103AD000082922D006D8022925D0042920D043F471
:103AE000811322E01029FAD143F400534FF04040F3
:103AF000D2F8701121F040410143C2F87011C2F8B0
:103B0000A0300B4BD3F8A020002AFBDAD3F8A0207A
:103B100022F48032C3F8A020704743F40223E5E783
:103B200043F48113E2E743F402230020E0E700BFFF
:103B300000800D40024B4FF48052C3F8A020704724
:103B400000800D40437982789B0002F0030203F06D
:103B50000C0310B51343174CC278D4F8E01092034D
:103B600021F4E03192B20A4342F48032C4F8E020FA
:103B700002780AB143F4005302790AB143F4801386
:103B800042780AB143F400130A4AD2F8E01021F453
:103B9000805121F00F010B43C2F8E0301346D3F8F7
:103BA000E020002AFBDAD3F8E02022F48032C3F8C8
:103BB000E02010BD00800D40024B4FF48052C3F84E
:103BC000E020704700800D407FB5794B044604AD7E
:103BD0000FCB05E90F00C4F30B4204F01F0002F104
:103BE000804202F558221368C34013F001031BD032
:103BF000136813F4404F1AD1FFF754FD05461368BC
:103C000013F4803340F0D1806A4A944250D022D8D5
:103C1000A2F5A002944200F0C5800AD80D2C37D03E
:103C2000A2F5801294423AD0184604B070BD002527
:103C3000E5E7614A9442F7D1604C206D226EA5FB06
:103C4000000103F027FE236BDB074CBF1623142370
:103C50006B430344E8E75A4A944200F09B8011D832
:103C6000584A94425CD002F580029442DCD1534B16
:103C700004AAD3F8E03003F0030302EB830353F804
:103C8000103CD1E75049514A8C4208BF1346CBE75C
:103C90004A4B1B6803F07F036B435B08C4E7474B49
:103CA0001B6913F0020F14BF162314236B43BBE7E9
:103CB000424C266FD4F88000D4F8902006F07F069E
:103CC000A5FB000103F0E6FD226F6E4302F4C01273
:103CD0003318B2F5002F16D0B2F5801F01D0A2B96B
:103CE0009B08D4F870213A490A40B2F5000F9BD0E6
:103CF00012D8002A98D0B2F5004FCED0354B40F202
:103D0000D931354A05E05B08EBE7324B40F2C5316B
:103D1000314A324801F0EAFB8A42EFD19B0883E73F
:103D2000264CD4F8A060D4F8B000D4F8C02006F037
:103D30007F06A5FB000103F0ADFDD4F8A0206E4383
:103D400002F4C0123318B2F5002F18D0B2F5801F5C
:103D500001D0B2B99B08D4F8702102F04042B2F110
:103D6000004F3FF461AF11D8002A3FF45DAFB2F1CC
:103D7000804F92D0174B40F21A41174AC9E75B08AF
:103D8000E9E7144B40F20641134AC2E7B2F1404F53
:103D9000C4D0EFE7094B04AAD3F8E03003F00C03DA
:103DA00013446CE7054B1B6A7BE72B463CE700BFDF
:103DB0000C8300600D0070000D00300000800D408D
:103DC0001400E0000D00A0001500E00040787D0127
:103DD00000808000EC8200601C830060C182006073
:103DE000C000BF2301F03F018340814010B5074C64
:103DF000D4F8002122EA03028023834011431343B5
:103E0000C4F80031C4F8001110BD00BF00800D409F
:103E1000044AC3008020D2F8001198400843C2F839
:103E20000001704700800D40C000BF2301F03F013A
:103E30008340814010B5074CD4F8F02022EA0302F9
:103E40008023834011431343C4F8F030C4F8F010CA
:103E500010BD00BF00800D40044AC3008020D2F88E
:103E6000F01098400843C2F8F000704700800D4001
:103E700010B504461348FFF7A7FE032C1FD8DFE850
:103E800004F0020C1218104BD3F8003103F03F037A
:103E9000B0FBF3F01223584310BD0B4BD3F80031A5
:103EA000C3F30523F4E7084BD3F80031C3F305430C
:103EB000EEE7054BD3F80031C3F30563E8E70020D4
:103EC000E8E700BF0D00300000800D4010B5204C29
:103ED0006069A36910F000701AD003F44053B3F581
:103EE000805F07D0B3F5005F0ED07BB91948FFF7AC
:103EF0006BFE01E0FFF7D6FB154B5B69C3F3C263B2
:103F00000133B0FBF3F00DE01348F0E70020F3E7D6
:103F100003F44023B3F5002F15D004D86BB1B3F5EB
:103F2000802F0FD010BDB3F5402FFBD10D20FFF730
:103F30004BFE236903F00703E2E70748BDE81040A2
:103F4000FFF742BE0220BDE81040FFF791BF00BF5F
:103F500000C00F400D0010000D00300008B5FFF745
:103F6000B5FF044B5B69C3F382230133B0FBF3F06D
:103F700008BD00BF00C00F4008B5FFF7EFFF044BBE
:103F80005B69C3F301230133B0FBF3F008BD00BF4D
:103F900000C00F4010B5084CE269530608D5FFF782
:103FA00081FBE36903F03F030133B0FBF3F010BD85
:103FB000FFF7E2FFF5E700BF00C00F4010B5044671
:103FC0001348FFF701FE032C1FD8DFE804F0020CB2
:103FD0001218104BD3F8F03003F03F03B0FBF3F0AE
:103FE0001223584310BD0B4BD3F8F030C3F3052315
:103FF000F4E7084BD3F8F030C3F30543EEE7054B85
:10400000D3F8F030C3F30563E8E70020E8E700BF2A
:104010000D00100000800D4010B50C4C63695A066D
:1040200010D563691B0609D50120FFF7C7FF636937
:10403000C3F302430133B0FBF3F010BD0220FFF7DE
:1040400017FFF4E7FFF742FFF1E700BF00C00F40A2
:1040500017280DD8DFE800F00E0E101214163D18C8
:104060001B1D20222426282A2D2F31333537393B9A
:1040700000207047FFF772BFFFF7CEBFFFF77CBF8E
:10408000FFF788BFFFF70EBB0D20FFF79DBD12485D
:10409000FBE70020FFF792BF0120FBE70220F9E7D2
:1040A0000320F7E70D48F0E70D48EEE70020FFF7A3
:1040B000DFBE0120FBE70220F9E70320F7E709480C
:1040C000E3E70948E1E70948DFE70948DDE7094890
:1040D000DBE74FF4004070470D0010000D0020009A
:1040E0000D0030000D00E0001400E0001500E000BD
:1040F0000D0070000D00A00013B5002401A8ADF85C
:104100000440FFF743FC084B01201A6B22F00042E9
:104110001A631A6B22F080421A631C601A6B42F415
:10412000C6121A6302B010BD00A00D40054A136A02
:1041300023F04003136202F50052136B43F08043F7
:104140001363704700800D401F2908B505D9084B3F
:104150007121084A084801F0C9F9012303FA01F165
:1041600003681AB923EA0101016008BD1943FBE79E
:104170002D830060948300603783006010B50124B4
:10418000C3690F2902F1FF3204FA01F488BF103924
:1041900023EA0403C36194BF00F10C0300F1100390
:1041A000042A0BD8DFE802F0030B151D2400480099
:1041B00003211A68814022EA0101196010BD4C00F8
:1041C00003201A680121A04022EA0002A140114305
:1041D000F3E74C0003201A680221A04022EA000203
:1041E000F4E749000322186802FA01F10143E4E709
:1041F000C3691C43C461E1E7F8B5174604460E469F
:10420000244A002352F8041B8C422BD001330A2B82
:10421000F8D1214B3921214A214838E0214A032392
:1042200052F82010AB400B4342F820300125626960
:10423000B54022EA0502EB4362613A784AB9626806
:1042400013406360BA7831462046BDE8F840FFF776
:1042500095BF7A7831462046FFF776FF63681D43A5
:104260006560EFE7052BE1D80F4A02EB4303B3F992
:1042700038104B1CDAD0B1F5006F4FEA112001F075
:104280001F05CBD3094B443240F22D41084801F0C1
:104290002DF900BFA48300606E830060EA83006094
:1042A0003783006068C00F409483006061830060C2
:1042B0009B7E0060B0F5006F38B54FEA102400F027
:1042C0001F0506D3094B40F22D41094A094801F068
:1042D0000DF909480322A94050F82430AA4023EAE6
:1042E0000203194340F8241038BD00BF6183006009
:1042F0008C8500609B7E006068C00F4038B529B98E
:104300000D4BBF210D4A0E4801F0F0F883691D05E1
:1043100008D403F012039C1E6342634100249442BC
:1043200002D138BD0123F9E7C5690BB105F07F055E
:104330000D550134F3E700BFFB8300609E850060EC
:104340000884006008B5034AA021034B034801F02C
:10435000CDF800BFB585006034840060088400603B
:1043600008B5084A0346002052F8041B994208D0B9
:1043700001300928F8D1044B7E21044A044801F099
:10438000B5F808BDD885006043840060FC850060F6
:104390000884006008B529B9074B8B21074A0848F3
:1043A00001F0A4F8488C0B8C80B2CA699BB2984289
:1043B00088BF9B18181A08BD348400600F860060FF
:1043C000088400602DE9F84F04460D4629B96F4B6B
:1043D000F5216F4A6F4801F089F80B681BB96E4BE5
:1043E000F6216B4AF6E7097A042903D96B4BF821C9
:1043F000674AEFE7697A042903D9694BF921644ACE
:10440000E8E74FF00A0E00264FEA830998460EFBB4
:1044100002FA4FF0040C37465FFA8CFBBAFBF9F155
:1044200005319944B1FBFEF189B2012938BF012160
:104430000CFB01F00CF1010CB2FBF0F0834234BF35
:10444000C01A181A40459EBF80465E460F46BCF112
:10445000210FE1D16422B3FBF2F303EB43034345A5
:10446000C0F090802046C7F30C07FFF779FF4D4B53
:10447000032103EB4000B0F9B400FFF71BFFA36872
:10448000321F013E43F00203032A4FEA0666A3608F
:10449000A36806F0F85623F00203A360236998BFCF
:1044A00043F4003323F01F2323F0FF031E433E4356
:1044B0002661236923F000532361A269EB7B22F478
:1044C000E26229791B0222F0070203F4E0630A4347
:1044D0001A43AB7B9B0003F0040313436A79012A60
:1044E0004BD1002946D023F40063A361EB79226904
:1044F0005B0322F4005203F40053134323616A7AEE
:104500002B7A43EA0243E362A36A43F08803A3627F
:10451000A36A43F44043A3626B7B2A7B1B01616A5D
:10452000520103F0100302F0200213430B436362B5
:10453000AB7A1BB1636A43F008036362EB7A1BB189
:10454000636A43F001036362A979174B174A002994
:1045500018BF1A46636913432A7C6361A3690AB1D1
:1045600043F400236A7C0AB143F480230020A36152
:10457000BDE8F88F43F40063B7E70029B5D043F0F6
:104580001003B2E740F22150F2E700BF68840060F8
:104590003486006008840060778400609184006045
:1045A000D98400608C85006000C01FE000C01FC07F
:1045B00010B5C36A13F4E06FFBD143695B02FCD50D
:1045C0004369002443F0C02343F4F813436184613A
:1045D000FFF7C6FE044B214603EB4000BDE8104048
:1045E000B0F9B40066E600BF8C85006008B530B94C
:1045F000084B40F20921084A084800F077FF0023E1
:104600004FF4E13243820382C0E90023C0E9023360
:1046100008BD00BF688400605286006008840060A6
:104620002DE9F04731B92A4B40F23621294A2A4870
:1046300000F05CFF4FF00A0C00234FEA81088E4621
:104640000CFB02F904271E465FFA87FAB9FBF8F45F
:1046500005348844B4FBFCF4A4B2012C38BF012417
:1046600007FB04F50137B2FBF5F5A94234BF6D1A1B
:104670004D1B75459EBFAE4653462646212FE3D1BE
:104680006422B1FBF2F101EB410171451CD9816952
:104690001C1F8269013B032CC6F30C0622F4402246
:1046A0004FEA0363826103F0F853026998BF42F452
:1046B000003222F01F2222F0FF0213433343036132
:1046C00081610020BDE8F08740F22150FAE700BF89
:1046D000218500606A860060088400600A0221F07B
:1046E000FF0102F4404302F4407210B50469234311
:1046F0000361836A23F4403313438362836919435C
:10470000816110BD0A02036921F0FF0110B502F4B6
:10471000404402F4407223EA04030361836A23EAFB
:10472000020323F440338362836923EA0101816138
:1047300010BD03691B0A03F0C002836A8069C3F3DA
:10474000012320F07040134320F4732020F47F6095
:1047500020F00F00184370474269836A1B0C03F076
:10476000C30343EA020070472DE9F04705460C46B3
:1047700031B9A84B40F26B51A74AA84800F0B6FEE9
:10478000FFF7EAFF07462846FFF7D3FF3E038046C0
:104790000CD56A69A24B4E6A134043F400236B6147
:1047A00026B18B6A40F21D522846B047F80221D547
:1047B00018F4801F1ED0EE6A4FF0020AC6F3026999
:1047C000236913B1B9F1000F34D16B6943F480133D
:1047D0006B61236923B14FF480112846FFF792FFE4
:1047E00023693BB1666A2EB1A36A40F22252214688
:1047F0002846B047B90215D518F4001F12D0EE6A4A
:104800004FF0020AC6F3026623690BB1002E3AD1BB
:10481000A369002B00F09E804FF00009013EF6B224
:10482000FF2E58D13A0200F19F807B0200F1D88020
:10483000BDE8F08723694B4523D22669F6B232469C
:10484000E1682846FFF75AFDE3683344E3602369D3
:104850009B1BA9EB060623615FFA86F92369002BEF
:10486000AED14FF00261284684F82DA0FFF74AFF31
:10487000666A002EA4D0A36A40F217522146B047C0
:104880009EE74E46DBE72369B34222D222695FFAF4
:1048900082F9E1684A462846A6EB0906FFF72EFD95
:1048A000E368F6B24B44E3602369A3EB0903236199
:1048B0002369002BA8D1D4F8249084F82DA0B9F155
:1048C000000FA1D0A36A40F2175221462846C847DC
:1048D0009AE7B146DDE721462846FFF75BFDE3692D
:1048E000013B98420AD1D4F824A0BAF1000F05D0B8
:1048F000A36A40F21C5221462846D047214628464A
:10490000FFF748FDE269531E984206D1638C9BB2C3
:104910000133934214D1A4F82290238C94F82E00F2
:104920009BB2EA69A16908B102F07F02CA54238CE4
:10493000E2699BB20133934207D1A4F820906DE75E
:10494000638C01339BB26384E7E7238C01339BB212
:10495000238463E72369002B7FF464AF4FF0026187
:104960002846FFF7CFFE5DE718F4000F3FF45DAF78
:10497000EE6AC6F30226C6F10406F6B26368002B9F
:104980003FF453AF002E3FF450AF6368B3421DD2E3
:104990006368DBB22268DAB1D1188A421CD122687E
:1049A000F61A1A44F6B222606268D21A626063682C
:1049B000002BE3D184F82C304FF48001AB692846FA
:1049C00023F40003AB61FFF789FED7E73346E1E745
:1049D000144BB121144AD0E612F8010BE861DCE770
:1049E00018F4800F3FF424AF94F82C30002B7FF4A0
:1049F0001FAF4FF480012846FFF784FE666A002E41
:104A00003FF416AFA36A2146B44640F21652BDE801
:104A1000F0476047348400607D8600600884006051
:104A20000000E03FFB8300609686006010B50B0439
:104A3000846A03F4403324F44034234301F00044F7
:104A40008362436923F0404323F4F8132343084C63
:104A50000C40234301F4404423F440432343436187
:104A6000FFF77AFE084240F21A5008BF002010BD3E
:104A700000001F4008B531B10A4491420AD1436990
:104A80005B02FCD508BD074B40F23931064A0748A6
:104A900000F02CFD43691B02FCD511F8013BC361FA
:104AA000EBE700BFFB830060AE8600600884006017
:104AB0002DE9F84304460D4631B9324B40F25E31E0
:104AC000314A324800F012FD866931050CD406F0F7
:104AD0001206B31E5E425E41AF1840F21A58BD4244
:104AE0003FD10020BDE8F8830126F5E72046FFF717
:104AF00033FE10F4002F814609D04FF400212046E8
:104B0000FFF794FF00283AD040F21A50EAE710F479
:104B1000803009D04FF480312046FFF787FF00280E
:104B20000CBF4FF4A460404619F4003F0AD04FF484
:104B300000312046FFF77AFF40F21F5300280CBFD8
:104B40001846404619F4802F09D04FF480212046A2
:104B5000FFF76CFF0028D7D140F21E50C2E70028B3
:104B6000C0D1E36A13F0E06FC0D016B9E369DBB2DD
:104B700002E0E36903F07F0305F8013BAFE740F291
:104B80001D50AFE7FB830060C386006008840060AF
:104B90002DE9F041064690461F460C4631B91D4BA3
:104BA00040F2CA311C4A1D4800F0A0FC85692A0564
:104BB0002DD405F01205AB1E5D425D41302200216F
:104BC000204603F07BF80223304684F82E5084F808
:104BD0002D300023C4E9098784F82C30FFF7C0FB8F
:104BE0000F4B104A43F820405A620F4B03EB400032
:104BF000B0F96831002B08DB5909012203F01F03CB
:104C000002FA03F3094A42F82130BDE8F081012598
:104C1000D4E700BF34840060D78600600884006059
:104C20000C010020694700608C85006000E100E015
:104C300008B531B90B4B40F20B410B4A0B4800F061
:104C400055FC22B90A4B40F20C41074AF6E7C1E98C
:104C5000062300230B844B844FF00261BDE808401B
:104C6000FFF73CBD34840060068700600884006064
:104C70003385006010B50C4631B90A4B40F2234130
:104C8000094A0A4800F032FC91F82D30022B03D17A
:104C90004FF00261FFF736FD002323846384C4E9EB
:104CA000063310BD348400602587006008840060EE
:104CB00010B531B9164B40F24641164A164800F07D
:104CC00015FC22B9154B40F24741124AF6E7146829
:104CD00024B9134B4FF489610E4AEFE7536823B9A7
:104CE000104B40F249410B4AE8E791F82C20012A89
:104CF0000BD00C608B604B60012381F82C304FF49B
:104D00000001FFF7EBFC002010BD40F21450FBE760
:104D1000348400604387006008840060468500603A
:104D2000538500606685006010B50C4631B9084BAC
:104D300040F26D41074A084800F0D8FB4FF44001AB
:104D4000FFF7E0FC0023636084F82C3010BD00BF47
:104D500034840060628700600884006008B531B95F
:104D60000B4B40F285410B4A0B4800F0BFFB22B9C8
:104D70000A4B40F28641074AF6E7486891F82C3022
:104D800023B18B681B1A0020136008BD0620FCE7C6
:104D9000348400607B870060088400607B8500604D
:104DA0002DE9F843814690461F460C4631B93A4BEF
:104DB00040F2B641394A3A4800F098FB22B9394BE3
:104DC00040F2B741354AF6E7136823B9364B4FF442
:104DD0009761324AEFE7566826B9344B40F2B94141
:104DE0002E4AE8E791F82D20032A4FD08D69002D37
:104DF00041D04FF40011FFF785FC2146FFF7CAFAB6
:104E00000546C0B1B0424FF0000328BF35461946F1
:104E1000761B608CA26980B2105CD8F80020D05458
:104E20000133608CE26980B2013090421ED161840E
:104E30009D42EED146B1D8F8003066612B44E36064
:104E40000323266184F82D304FF400114846FFF704
:104E500045FC36B9666A26B1A36A40F2175221466C
:104E6000B047B7B100203D60BDE8F883628C0132E5
:104E700092B26284DCE7CB6003230E614E6181F85D
:104E80002D304FF00361FFF729FCEAE740F215509F
:104E9000EAE73846E8E700BF34840060978700609F
:104EA0000884006046850060538500606685006068
:104EB00010B50C4631B9094B40F23251084A094845
:104EC00000F014FB8B691BB94FF00361FFF71AFC6C
:104ED00000232361022384F82D3010BD3484006048
:104EE000B98700600884006008B531B90C4B40F206
:104EF0004F510C4A0C4800F0F9FA22B90B4B4FF411
:104F0000AA61084AF6E7086991F82D30022B17BF0D
:104F10004B6906201B1A002018BF136008BD00BF94
:104F200034840060D5870060088400607B85006061
:104F30007047024B02485A6A596810470C0100201A
:104F400000401840024B03485A6A9968104700BF56
:104F50000C01002000801840024B03485A6AD968AF
:104F6000104700BF0C01002000C01840024B03484E
:104F70005A6A1969104700BF0C010020000019404F
:104F8000024B03485A6A5969104700BF0C010020C0
:104F900000401940024B03485A6A9969104700BF04
:104FA0000C01002000801940024B03485A6AD9695D
:104FB000104700BF0C01002000C01940024B0348FD
:104FC000D3E90812104700BF0C01002000001A406E
:104FD00004207146084202D0EFF3098001E0EFF3AC
:104FE000088081690A884BF6AB639A4200D0FEE7DD
:104FF0000231816120210160704708B5FDF793F906
:1050000008BD08B5FDF78FF908BD08B5FDF78BF9A8
:1050100008BD08B5FDF787F908BD08B5FDF783F9A8
:1050200008BD08B5FDF77FF908BD08B5FDF77BF9A8
:1050300008BD08B5FDF777F908BD08B5FDF773F9A8
:1050400008BD08B5FDF76FF908BD08B5FDF76BF9A8
:1050500008BD08B5FDF767F908BD08B5FDF763F9A8
:1050600008BD08B5FDF75FF908BD08B5FDF75BF9A8
:1050700008BD08B5FDF757F908BD08B5FDF753F9A8
:1050800008BD08B5FDF74FF908BD08B5FDF74BF9A8
:1050900008BD08B5FDF747F908BD08B5FFF749FF9A
:1050A00008BD08B5FFF74EFF08BD08B5FFF754FF70
:1050B00008BD08B5FFF75AFF08BD08B5FFF760FF48
:1050C00008BD08B5FFF766FF08BD08B5FFF76CFF20
:1050D00008BD08B5FFF772FF08BD08B5FDF723F955
:1050E00008BD08B5FDF71FF908BD08B5FDF71BF9A8
:1050F00008BD08B5FDF717F908BD08B5FDF713F9A8
:1051000008BD08B5FDF70FF908BD08B5FDF70BF9A7
:1051100008BD08B5FDF707F908BD08B5FDF703F9A7
:1051200008BD08B5FDF7FFF808BD08B5FDF7FBF8A9
:1051300008BD08B5FDF7F7F808BD08B5FDF7F3F8A9
:1051400008BD08B5FDF7EFF808BD08B5FDF7EBF8A9
:1051500008BD08B5FDF7E7F808BD08B5FDF7E3F8A9
:1051600008BD08B5FDF7DFF808BD08B5FDF7DBF8A9
:1051700008BD08B5FDF7D7F808BD08B5FDF7D3F8A9
:1051800008BD08B5FDF7CFF808BD08B5FDF7CBF8A9
:1051900008BD08B5FDF7C7F808BD08B5FDF7C3F8A9
:1051A00008BD08B5FDF7BFF808BD08B5FDF7BBF8A9
:1051B00008BD08B5FDF7B7F808BD08B5FDF7B3F8A9
:1051C00008BD08B5FDF7AFF808BD08B5FDF7ABF8A9
:1051D00008BD08B5FDF7A7F808BD08B5FDF7A3F8A9
:1051E00008BD08B5FDF79FF808BD08B5FDF79BF8A9
:1051F00008BD08B5FDF797F808BD08B5FDF793F8A9
:1052000008BD08B5FDF78FF808BD08B5FDF78BF8A8
:1052100008BD08B5FDF787F808BD08B5FDF783F8A8
:1052200008BD08B5FDF77FF808BD08B5FDF77BF8A8
:1052300008BD08B5FDF777F808BD08B5FDF773F8A8
:1052400008BD08B5FDF76FF808BD08B5FDF76BF8A8
:1052500008BD08B5FDF767F808BD08B5FDF763F8A8
:1052600008BD08B5FDF75FF808BD08B5FDF75BF8A8
:1052700008BD08B5FDF757F808BD08B5FDF753F8A8
:1052800008BD08B5FDF74FF808BD08B5FDF74BF8A8
:1052900008BD08B5FDF747F808BD08B5FDF743F8A8
:1052A00008BD08B5FDF73FF808BD08B5FDF73BF8A8
:1052B00008BD08B5FDF737F808BD08B5FDF733F8A8
:1052C00008BD08B5FDF72FF808BD08B5FDF72BF8A8
:1052D00008BD08B5FDF727F808BD08B5FDF723F8A8
:1052E00008BD08B5FDF71FF808BD08B5FDF71BF8A8
:1052F00008BD08B5FDF717F808BD08B5FDF713F8A8
:1053000008BD08B5FDF70FF808BD08B5FDF70BF8A7
:1053100008BD08B5FDF707F808BD08B5FDF703F8A7
:1053200008BD08B5FCF7FFFF08BD08B5FCF7FBFF9B
:1053300008BD08B5FCF7F7FF08BD08B5FCF7F3FF9B
:1053400008BD08B5FCF7EFFF08BD08B5FCF7EBFF9B
:1053500008BD08B5FCF7E7FF08BD08B5FCF7E3FF9B
:1053600008BD08B5FCF7DFFF08BD08B5FCF7DBFF9B
:1053700008BD08B5FCF7D7FF08BD08B5FCF7D3FF9B
:1053800008BD08B5FCF7CFFF08BD08B5FCF7CBFF9B
:1053900008BD08B5FCF7C7FF08BD08B5FCF7C3FF9B
:1053A00008BD08B5FCF7BFFF08BD08B5FCF7BBFF9B
:1053B00008BD08B5FCF7B7FF08BD08B5FCF7B3FF9B
:1053C00008BD08B5FCF7AFFF08BD08B5FCF7ABFF9B
:1053D00008BD08B5FCF7A7FF08BD08B5FCF7A3FF9B
:1053E00008BD08B5FCF79FFF08BD08B5FCF79BFF9B
:1053F00008BD08B5FCF797FF08BD08B5FCF793FF9B
:1054000008BD08B5FCF78FFF08BD08B5FCF78BFF9A
:1054100008BD08B5FCF787FF08BD08B5FCF783FF9A
:1054200008BD08B5FCF77FFF08BD08B5FCF77BFF9A
:1054300008BD08B5FCF777FF08BD08B5FCF773FF9A
:1054400008BD08B5FCF76FFF08BD08B5FCF76BFF9A
:1054500008BD08B5FCF767FF08BD08B5FCF763FF9A
:1054600008BD08B5FCF75FFF08BD08B5FCF75BFF9A
:1054700008BD08B5FCF757FF08BD08B5FCF753FF9A
:1054800008BD08B5FCF74FFF08BD08B5FCF74BFF9A
:1054900008BD08B5FCF747FF08BD08B5FCF743FF9A
:1054A00008BD08B5FCF73FFF08BD08B5FCF73BFF9A
:1054B00008BD08B5FCF737FF08BD08B5FCF733FF9A
:1054C00008BD08B5FCF72FFF08BD08B5FCF72BFF9A
:1054D00008BD08B5FCF727FF08BD08B5FCF723FF9A
:1054E00008BD08B5FCF71FFF08BDFFFF0C4607B558
:1054F0001946009223460246024800F03DF900BEDC
:10550000FDE700BFF487006001460122034808B5AB
:10551000FDF78CFD003818BF012008BD4C010020AC
:1055200010B50C46014630B90B4B4FF4D0710B4A05
:105530000B48FFF7DBFF24B90A4B40F2A111074AE1
:10554000F6E722460848FDF73DFD00280CBF20463F
:105550004FF0FF3010BD00BF32880060B08800609F
:105560003D880060728800604801002010B50C463C
:10557000014630B90C4B40F2E9110C4A0C48FFF7D8
:10558000B5FF24B90B4B4FF4F571084AF6E70A4B07
:10559000186840B122460948FDF714FD00280CBFE9
:1055A00020464FF0FF3010BD32880060C488006094
:1055B0003D880060728800605C0200204801002085
:1055C0002DE9F843002506460C4690461F46A9469D
:1055D000BD4201DBBDE8F88321684B1C7F2B04D959
:1055E0003046FFF7C3FFC4F800902368013506F882
:1055F0000380236801332360EAE7F8B50E460546C9
:1056000030B9154B4FF40B71144A1548FFF76EFF74
:10561000144B1B68E3B100242F193846FFF774FFC1
:1056200098B92B5D0D2B01D00A2B0CD114B93C700D
:10563000A642F1DCA6424FF0000316BF2D192B55F0
:105640006B702046F8BD0134F2E74FF0FF34F1E70C
:105650004FF0FF34F5E700BF7C880060E088006011
:105660003D8800605C02002008B530B9084B4FF45B
:105670001A71084A0848FFF739FF084B1B6813B135
:10568000FFF742FF10B14FF0FF3008BD0120FCE7EB
:105690003A880060F48800603D8800605C02002069
:1056A00010B588B0CDE90431012300218DF81A002E
:1056B0009A42ADF818108DF81B308DF81C308DF81B
:1056C00008202ED1184C04AB1C222046039302F074
:1056D000F5FA694620462461FDF78CFB30B1134B87
:1056E0004FF43D71124A1348FFF700FF04F1140113
:1056F0002069FDF7D1FB20B10C4B40F2FE210C4A92
:10570000F1E704F118012069FDF710FC20B1074B07
:1057100040F20931064AE6E72269074B1A6008B0F1
:1057200010BD43F22150FAE7340100208888006060
:105730000D8900603D8800605C02002010B50B4CB4
:1057400023694BB104F11400FDF7CAFB23691BB1B7
:1057500004F11800FDF712FC206928B1FDF776FB73
:1057600010B9034B20611860002010BD34010020E7
:105770005C020020002070470FB400B5A3B00021E8
:105780007C2203A8029102F099FA094B186850B1E3
:1057900025A9084B02AA2498019100F079F8014646
:1057A00002A8FFF7E3FE23B05DF804EB04B07047F6
:1057B0005C020020C155006007B50121019001A8DD
:1057C000FFF7D4FE03B05DF804FB0FB430B589B029
:1057D000002111220CAC03A8029154F8045B02F0E2
:1057E0006DFA142102A8FFF708FF2246294602A8F5
:1057F000019400F059F909B0BDE8304004B0704799
:105800000FB410B5A2B000217C2203A8029102F0CF
:1058100055FA0D4B1C6884B125A90C4B02AA24989B
:10582000019100F035F802A9044602460848FDF748
:10583000C9FB002818BF4FF0FF34204622B0BDE856
:10584000104004B0704700BF5C020020C1550060EA
:1058500048010020002307B50DF107008DF807303F
:10586000FFF702FF9DF8070003B05DF804FB00BFDF
:10587000036800221B78202B04D0093B042B01D99C
:10588000D0B2704703680132591C01605B78F2E7BF
:105890002DE9F04F00258DB00746904699460C46FD
:1058A0002E464FF00A0A02953A781AB902980DB0BE
:1058B000BDE8F08F252A3AD0BB46012302A9404615
:1058C000C8470BF10107EFE70AFB03230F46303B04
:1058D0007A78791CA2F130000928F5D92E2A05D151
:1058E0000F4611F8012F303A092AF9D97A7807F1D1
:1058F000010BA2F16200642AC0B21AD0692A18D042
:1059000002F0DF01462921D058291FD0132803D8DF
:105910006449C140CF0719D4632A40F0A38054F8EA
:10592000042B0123D2B202A94046C847C9E700238D
:10593000CEE7002154F8047B03AE8DF80C10002F45
:1059400045D1302101258DF80D102E44582A52D012
:10595000782A69D10027002554F8041B03AE8DF87E
:105960000C50002949D1302101258DF80D102E440D
:10597000132819D84B4921FA00F0C10714D56F2A12
:1059800054F8040B52D0622A52D0702A0CBF102255
:105990000A22002103AE8DF80C1000284AD13022D3
:1059A00001258DF80D202E445B1B202202A94046C4
:1059B000C847002E85D037463E4617F80129002AF1
:1059C0003FF47FAF012302A94046C847F4E74FF0F8
:1059D000010C3D4697FBFAF70AFB1755002DB4BFA3
:1059E000C5F13005303506F80C5065460CF1010C58
:1059F000002FEED1A9E70127ADE7002F4FF0010CF2
:105A000014BF4FF0370E4FF0570E01F00F05090984
:105A1000092D94BF3035754406F80C5065460CF1DD
:105A2000010C0029F1D1A2E70127A1E70822B0E784
:105A30000222AEE7002F4FF0010714BF4FF0370CE2
:105A40004FF0570C0146B0FBF2F002FB1015092D88
:105A500094BF303565448A42F5553D4607F101074C
:105A6000F0D9A0E7732A1AD154F8047B0193002FD0
:105A70003FF427AF3846013F02F082F9019B05460B
:105A800020221B1A02A94046C84717F8012F002AF6
:105A90003FF417AF012302A94046C847F5E70123A9
:105AA00041E700BF016008002DE9F7430378154680
:105AB000CDE90010002B00F02681002742F22006DD
:105AC000009B1B78002B00F0AC80019B1B78002B07
:105AD00000F0A7806846FFF7CBFE044618B101A886
:105AE000FFF7C6FEECE7009B1A4612F8011B2529BA
:105AF00002D1597825290BD10092019A5978107852
:105B0000884240F08E800132023301920093D7E741
:105B10000092804681460A22009B08F07C0019789A
:105B2000002972D100287CD0002C08BF63240828EB
:105B300000F08180202800F09B80042871D155F866
:105B4000042B01991444A242019B02D0187800282A
:105B50006BD18B42B4D00137B2E7582961D1013300
:105B600048F020084FF010090093D5E7642958D178
:105B700048EA060801334FF00A090093CCE76F3971
:105B8000C8B209284DD809294BD801A050F821F0F6
:105B9000DB5B0060235C0060235C0060235C0060D2
:105BA000055C0060235C0060D55B0060235C0060E6
:105BB000235C00605F5B00609CBB009954430B4614
:105BC000303C13F8010B009304444B78303B092B15
:105BD000F3D9A1E748F02008CCE7013348F02008CA
:105BE0004FF00809009397E7013348F020088146F9
:105BF000009391E7012C48F0040838BF01240133D9
:105C0000009389E748F00808F9E700288CD1692952
:105C1000EAD0B4D86329EDD0A8D839299DD82F2946
:105C2000CAD8384603B0BDE8F083581C01901B78F1
:105C300002F8013B87E701A8FFF71AFE55F8043B7D
:105C400001981C44A342019A06D0117811F0DF0F8D
:105C500002D00939042905D882423FF431AF00222D
:105C60001A7078E7511C0191127803F8012BE9E7CB
:105C700001A8FFF7FDFD19F0EF0F0DD1019B1A7878
:105C8000302A49D15A7802F0DF02582A3ED1023335
:105C9000023C4FF010090193019B1A782B2A08D07F
:105CA0002D2A09D10133013C4FF0FF3C0193002123
:105CB00018E00133013C01934FF0010CF7E7A3F129
:105CC0003002D2B2092A05D9A3F16102052A14D8FB
:105CD000573BDAB2914504F1FF3408D9013001FB9A
:105CE00009210190019803780BB1002CE7D101FB49
:105CF0000CF155F8043B19602DE7A3F14102052A88
:105D0000F5D8373BE5E74FF0FF378AE7B9F1000FE9
:105D100008BF4FF00809BFE7B9F1000F08BF4FF007
:105D20000A09B9E77FB501A8FEF760FC4FF41643F6
:105D3000064A01A9019340F201130548ADF8143059
:105D4000FEF740FB07B05DF804FB00BF00B4C404DD
:105D500000401840024B5A691202FCD5D8617047C6
:105D600000401840411E08B511F8010F00B908BDE8
:105D7000FFF7F0FFF8E7034B5A699202FCD5D869A8
:105D8000C0B2704700401840704701220E21014800
:105D9000FEF7DAB900801B4000220E210148FEF711
:105DA000D3B900BF00801B40034B1A6812B11A68B8
:105DB000013A1A60704700BF60020020024B186071
:105DC0001A68002AFCD170476002002007B56846B7
:105DD00000F092FA6946064800F097FA054B4FF436
:105DE00080321A6000221A7103B05DF804FB00BF14
:105DF00000C02F40540100200246102301490248F0
:105E000000F0B8B85401002000C02F40704707B51B
:105E100010220346044900920246044800F0D4F8D8
:105E200003B05DF804FB00BF5401002000C02F4008
:105E3000704708B5FCF7B4FFFCF7B0FFFDF7FCFABC
:105E4000FFF770FF054BDB6C1B0702D50448FFF71B
:105E500089FF0248BDE8084000F0F4BD00400D4055
:105E60001D890060024BD86C00F00800704700BF2D
:105E700000400D40014B0822DA64704700400D409D
:105E800080B588B000AFF860B9607A60FB681A69C5
:105E9000BB681B681A40BB681B689A4264D000F05C
:105EA000B7FC3861FB681A69BB681B681340002B9C
:105EB00052D10023BB6100237B61BB681B68B3F533
:105EC000002F2AD0B3F5002F30D8B3F5802F1BD088
:105ED000B3F5802F2AD8B3F5803F03D0B3F5003F48
:105EE00009D023E0FB6803F58073BB61FB6803F511
:105EF00088737B611BE0FB6803F5A073BB61FB68E3
:105F000003F5A8737B6112E0FB6803F5C073BB6106
:105F1000FB6803F5C8737B6109E0FB6803F5E07378
:105F2000BB61FB6803F5E8737B6100E000BFBB6900
:105F3000002B0ED07B69002B0BD07A68BB691A60EE
:105F4000BFF34F8F00BFBFF36F8F00BF7B6901228C
:105F50001A600023FB6102E041F62C23FB613869E3
:105F600000F05AFCFB6901E041F62C23184620376B
:105F7000BD4680BD30B50D790446281F012805D8DF
:105F8000206980F08050C0F3007030BD12F0030033
:105F900018D1102B16D11368062DCB6053680B61F6
:105FA00093684B61D3688B61EFD02D0105F030050C
:105FB0002566136823675368236793682367D3684C
:105FC0002367E2E70420E0E72DE970458AB041F657
:105FD0002C2A04460E4690460021202202A81D4687
:105FE00001F06CFE109B02AA31462046CDE9005319
:105FF000434600F00AF85045F4D018B9314620461F
:1060000000F0C6F90AB0BDE8708570B4DDE903653B
:106010000F2D31D92C072FD18C68556104F47C04E5
:1060200044F4917CC2E90336C2F804C00B79042B16
:1060300009D144F4A4644FF47F4344F00204936014
:10604000546070BC1CE7052B08D144F4A4644FF4E1
:106050007E4344F0020493605460F2E7062B05BFD0
:1060600044F4126401F10C031B0244F002040ABF61
:10607000936193605460E4E7042070BC70472DE99D
:1060800070458AB041F62C2A04460E4690460021FF
:10609000202202A81D4601F011FE109B02AA3146E3
:1060A0002046CDE90053434600F00AF85045F4D0AD
:1060B00018B93146204600F06BF90AB0BDE870858A
:1060C00070B4DDE903650F2D31D92C072FD18C6811
:1060D000556104F47C0444F0220CC2E90336C2F892
:1060E00004C00B79042B09D144F484644FF47F433A
:1060F00044F002049360546070BCC1E6052B08D1E3
:1061000044F484644FF47E4344F00204936054608A
:10611000F2E7062B05BF44F4026401F10C031B02F5
:1061200044F002040ABF936193605460E4E70420E2
:1061300070BC70472DE9704B8DB041F62C2B044696
:10614000884691460021202204A81D46159E01F094
:10615000B5FD149B04AA414620460296CDE90053A2
:106160004B4600F00AF85845F3D018B9414620468E
:1061700000F00EF90DB0BDE8708B70B5DDE904E6F6
:10618000069D0F2E45D9340743D18C6804F47C0456
:1061900044F4487C4CF0020CC2F804C04FF0100CE0
:1061A000C2E904E6C2E902C30B79042B0BD144F423
:1061B000E4644FF61073956144F0020493605460F8
:1061C000BDE870405CE6052B09D144F4E4644FF669
:1061D0001063956144F0020493605460F0E7062B6D
:1061E00011D101F11C0305F1100455F8046BA5420F
:1061F00043F8046BF9D101F10C039361536843F444
:1062000000635360DCE71B02956143F01003936069
:10621000D6E7042070BD2DE9704B8DB041F62C2BD4
:106220000446884691460021202204A81D46159E5A
:1062300001F044FD149B04AA414620460296CDE994
:1062400000534B4600F00AF85845F3D018B94146C0
:10625000204600F09DF80DB0BDE8708B70B5DDE90B
:1062600004E6069D0F2E45D9340743D18C6804F40B
:106270007C0444F4087C4CF0020CC2F804C04FF0DB
:10628000100CC2E904E6C2E902C30B79042B0BD15E
:1062900044F4C4644FF61073956144F002049360B3
:1062A0005460BDE87040EBE5052B09D144F4C464AB
:1062B0004FF61063956144F0020493605460F0E778
:1062C000062B11D101F11C0305F1100455F8046BE4
:1062D000A54243F8046BF9D101F10C0393615368B3
:1062E00043F400635360DCE71B02956143F0100345
:1062F0009360D6E7042070BD0122002302708270F3
:106300000F224370C27003717047144A136843F43C
:1063100040631360124B03604FF042530360FF234E
:106320008361036913F0FF0FFBD1FF230A78C0F8E4
:106330002831C0F86831C0F8A831C0F8E8314B788E
:106340009B0543EAC2530A7913438A7843EA4253CE
:106350000360CB780362034B0365704768C00F404E
:10636000000080F08401002008B5064BD0220021F7
:106370000360054801F0A2FC044A136823F440635B
:10638000136008BD000080F08401002068C00F4049
:106390000A68036932EA0303FBD0B2F5802F27D0E5
:1063A00014D8B2F5803F19D0B2F5003F1BD00023BE
:1063B00019460B4313F47F0F4FF0FF0383611CD189
:1063C000036913F0FF03FBD118467047B2F5002FA5
:1063D000EDD1D0F8E011D0F8D031EAE7D0F82011B3
:1063E000D0F81031E5E7D0F86011D0F85031E0E78F
:1063F000D0F8A011D0F89031DBE7036913F0FF0F5C
:10640000FBD1D10302D5FF23C0F82831930302D575
:10641000FF23C0F86831510302D5FF23C0F8A8312B
:10642000130304D5FF23C0F8E83101207047012091
:10643000704702288CBF042000207047022A05D82C
:1064400021B100280CBF04200020704704207047B1
:1064500039B130B190F88430022B8CBF0420002079
:1064600070470420704791F88430022B9BBF4FF493
:10647000805300200420C1F88C30704770B40C4663
:10648000D1F8B4109C46039E8D68D4F88C3005F486
:106490007C051D4345F04205556094F88450012D5C
:1064A0000BD14FF40035956090340023C2F80CC036
:1064B0009461C2E9043670BCE2E40DB99560F3E77B
:1064C000022D02D14FF48035F8E7012070BC7047EF
:1064D0002DE970438AB041F62C2905460C46164634
:1064E0000021202202A8984601F0E8FB334602AAC8
:1064F00021462846CDF80080FFF7C0FF4845F5D07B
:10650000D4F8B4102846FFF743FF0023C4F88C30BA
:106510000AB0BDE870832DE9704FD1F880B0824693
:10652000884691461C46BBF1000F29D0CBF180066E
:10653000494608EB0B00324601F026FB8023424619
:1065400041465046FFF7C4FF0546B0B9803CB14410
:106550005C4434F03F0609D033464A464146504633
:10656000FFF7B6FF054640B9B144A41B2246494691
:10657000404601F009FBC8F880402846BDE8708F0E
:106580000125E6E7D1F88C300A4643F40053C1F800
:106590008C30D1F880309BE7D0F8B4301B68B3F56D
:1065A000802F30B51CD006D8B3F5803F1AD0B3F594
:1065B000003F19D030BDB3F5002FFBD10B4A00F1DD
:1065C000900302F120051446083303CCAC4243F893
:1065D000080C43F8041C2246F5D120681860E9E74E
:1065E000034AECE7034AEAE7034AE8E7940100209C
:1065F000C801002030020020FC010020D0F8B43097
:106600001B68B3F5802F30B51BD006D8B3F5803F9B
:1066100019D0B3F5003F18D030BDB3F5002FFBD132
:106620000B4B00F1900400F1B0022068083454F8DC
:10663000041C1D46944203C52B46F6D120682860F1
:10664000EAE7044BEDE7044BEBE7044BE9E700BF57
:1066500094010020C801002030020020FC0100202D
:1066600010B50C4611461A46FFF7E8FE58B981F8F6
:1066700084300123C1F88000086081F88530C1F8BA
:106680008800C1F8B44010BD2DE9704381460C4626
:1066900090461E46CBB311462046FFF7D9FE05466D
:1066A00090B9D4F88830D4F880003344C4F88830E6
:1066B0008319802B0BD83246204401F065FAD4F8B8
:1066C00080303344C4F880302846BDE8708394F8A5
:1066D0008530022B15D094F88430022B17D84FF454
:1066E0008053C4F88C30022384F885303346424608
:1066F00021464846FFF70FFF05462046FFF74CFFAF
:10670000E2E72046FFF77AFFF0E71D46DCE70425C5
:10671000DAE72DE978470D468246114614462846A9
:106720009946FFF795FE804608BB95F88530012B0A
:1067300020D195F88430022B49D84FF48053C5F806
:106740008C3095F88430022B96BF224A0026D65C06
:10675000D5F88820E2B98BB1012B08D11E4B03F18B
:10676000200253F8041B934244F8041BF9D140461D
:10677000BDE878872846FFF741FFE2E7174B03F1B2
:10678000140253F8041B934244F8041BF9D1EEE7BA
:1067900029465046FFF7F6FE8046B9F1000F06D0B5
:1067A000D9F80030B34294BF1E46C9F800602E44A9
:1067B000013CB54205D1E8220021284601F07EFACD
:1067C000D5E796F88F30013E04F8013FF1E74FF02E
:1067D0000408CCE72A8900602D8900604D8900609B
:1067E00030B5BBB01D46134604466A46FFF738FF76
:1067F00060B93E9B2A4669462046FFF745FF28B907
:1068000069462046DDE93F23FFF783FF3BB030BDFB
:10681000EFF3108072B6704780F310887047054818
:1068200040F22D4100F1370208B500F1490356301E
:10683000FEF75CFE2A8900607FB5034628B9254B28
:106840005F21254A2548FEF751FE254A6C4602F194
:1068500008061068083252F8041C2546B24203C5E7
:106860002C46F6D11068127928602A711A88A2F293
:10687000B271812928D89878411E0B2924D819791A
:10688000172921D859793B291ED899793B291BD83A
:10689000910706D16424B2FBF4F104FB112189B203
:1068A00039B94FF4C874B2FBF4F104FB112292B26F
:1068B00012B91D228DF8022004AADB78104410F8CA
:1068C000102C9A4200D313B9002004B070BD0120EF
:1068D000FBE700BFAB8900600A8A0060BC890060EA
:1068E000268A006070B5034688B028B91F4B7F2107
:1068F0001F4A2048FEF7FAFD1F4A01AC02F11806B4
:106900001068083252F8041C2546B24203C52C46D2
:10691000F6D112882A80DA781C88A2F52F2140F25D
:106920006D129878A1F6B62102FB041208A901EBBA
:10693000400102EB940231F81C1C0A44A10702F149
:10694000FF3502D1022898BF951E5A794FF4616035
:106950001979C2EB0212920000FB012298790244DD
:10696000064800FB052008B070BD00BFAB89006081
:10697000338A0060BC890060548A00608051010045
:10698000F0B50B4685B0064629B9294B9D21294A09
:106990002948FEF7ABFD294A6C4602F1080C254652
:1069A0001068083252F8041C2746624503C73C466B
:1069B000F6D110684FF461641279386020483A715A
:1069C000B6FBF0F100FB11604A1CB0FBF4F104FBD4
:1069D00011003C241971B0FBF4F104FB1100597152
:1069E00040F2B271987140F26D10198004469042E5
:1069F00019880CD3890704BF1D218DF802100121CD
:106A0000685C90420ED39970DA7005B0F0BD013128
:106A1000121A89B211F0030F198014BF20464FF4E7
:106A2000B770E4E70131121A0D29E9D1ECE700BF94
:106A3000AB8900606E8A0060BC890060268A0060B5
:106A400080510100024B43660823C364704700BFB6
:106A5000666173417047836B23F001038363704762
:106A600008B530B9064B4FF4A571064A0648FEF743
:106A70003DFD0023C0F801300370436008BD00BF36
:106A8000E98900608F8A0060BC89006070B50446A7
:106A90000D4631B9144B4FF4B771144A1448FEF740
:106AA00025FD866B836B23F001038363A36BD907FA
:106AB000FCD42846FFF7C0FEA0B12846FFF712FF1E
:106AC000F2074FEA50434FEAC0302365606501D4B6
:106AD000002070BDA36B43F00103A363A36BDB072E
:106AE000FCD5F5E70420F4E7AB890060AD8A0060CF
:106AF000BC89006038B5034631B9094B40F29311A7
:106B0000084A0948FEF7F2FC00201D6D04465A6D44
:106B1000D00B40EA4540A042F7D1BDE838402FE70E
:106B2000AB890060C68A0060BC89006070B504460D
:106B30000D4631B9144B4FF4D671144A1448FEF780
:106B4000D5FC866B0846FFF777FEC8B12846FFF7ED
:106B5000C9FE00230246256D1846616DCB0B43EA42
:106B600045438342F7D19A420CD9A36B23F0020329
:106B7000A363A06B10F00200FBD1A265A66370BDF9
:106B80000420FCE70120FAE7F8890060DF8A006052
:106B9000BC89006008B531B9054B4FF4EC71054A6A
:106BA0000548FEF7A3FC806DBDE80840E8E600BF9D
:106BB000AB890060F58A0060BC890060C06C00F0A1
:106BC00001007047806B00F002007047012909D175
:106BD000836C23F4006343EAC2228264836C43F42F
:106BE000007383647047012903D1836C23F400731D
:106BF00083647047012903D1C06CC0F34020704703
:106C000000207047C36C012943F40073C36403D1AF
:106C1000C36C43F40073C364704708B531B90E4BBD
:106C200040F217110D4A0E48FEF760FC0B7843B195
:106C30004B689B0203F4F8438363836B43F48073D4
:106C4000836308480121836C23F400738364BDE8E7
:106C50000840FFF7D7BF00BFE98900600B8B0060D9
:106C6000BC89006000400D40C16D006E704700237C
:106C700010B551F8234003F11A02013300EB8202F0
:106C8000082B5460F5D110BD014800F017B800BFC3
:106C9000640200207047704701468022014800F0DE
:106CA0001CB800BF640200200346024601210148CF
:106CB00000F0DEBC64020020704700BF4FF48C720D
:106CC000002100F0FBBF20B100F58C730022984238
:106CD00000D1704700F8012BF9E7C02AF0B54BD07E
:106CE000B2F5807F4AD0802A40F0ED800A23520915
:106CF0000360044600F1080301EB820244F8043FFC
:106D00008A423DD103680C2B4BD00E2B00F08280C1
:106D10000A2B2FD16D4D00F1A00629464269103093
:106D200055F8044BC2F3072350F8087C0B447C4011
:106D300093F82830634001EB126494F8284083EA0A
:106D4000044351FA82F494F8284083EA0463C2F3BE
:106D500007440C4494F8284083EA042350F8044C78
:106D6000836063400468C3606340036153404361D0
:106D70008642D3D10020A8E00C23B8E70E23B6E763
:106D80008B78043111F8035C1B0443EA052311F8E6
:106D9000045C2B4311F8015C43EA056344F8043FAB
:106DA000AEE74A4C00F1C0052146C269183054F8DC
:106DB000046BC2F3072350F8107C0B447E4093F819
:106DC0002830734001EB126696F8286083EA064388
:106DD00051FA82F696F8286083EA0663C2F3074602
:106DE0000E4496F8286083EA062350F80C6C836002
:106DF000734050F8086CC360734050F8046C036132
:106E0000734006684361734083615340C3618542A8
:106E1000CBD1AFE72D4D00F1E0062946446A203082
:106E200055F8042BC4F3072350F8187C0B447A4020
:106E300050F8087C93F82830534001EB146292F824
:106E4000282083EA024351FA84F292F8282083EA48
:106E50000263C4F307420A4492F8282083EA02231B
:106E600050F8142C8360534050F8102CC3605340EA
:106E700050F80C2C0361534051FA83F2436192F8AD
:106E800028207A4001EB136797F8287082EA07629E
:106E9000C3F30727C3F307430F440B4497F8287045
:106EA00093F8283082EA072282EA034350F8042C40
:106EB000836153400268C36153400362634043628D
:106EC0008642ABD156E76FF01F00F0BD208B00600B
:106ED0002DE9F04FC9B004460D46164602A8FFF74B
:106EE000EDFE04F108033246294602A86360FFF76D
:106EF000F4FE8046002837D1029E039B350106F13F
:106F0000FF3A03EB061236495B595046103A2660A9
:106F1000A3605369E3609369236104F1180301934B
:106F2000D3699646636104F128030028A3F1100C8D
:106F300021DC002EA5F11005019BD8BF002501988A
:106F400003EB05016FF00F0303FB0AFAD8BF4FF004
:106F5000000A02EB0A0352F80A2042515A684A60BA
:106F60009A688A60DB68CB6002A8FFF7ACFE4046F7
:106F700049B0BDE8F08FAEF1040B5BF8044F51FA55
:106F800084F797F8289001EB146797F8287001EBC5
:106F9000890901EB8707D9F82891D7F8287589EA7C
:106FA0000709C4F30727C4F307440F440C4497F8B8
:106FB000287094F8284001EB870701EB8404D7F888
:106FC0002879D4F8284D89EA070767404CF8047BF4
:106FD0009C45D2D10138AEF1100E1033A5E700BFA9
:106FE000208B0060436800682DE9F04F1C6840105A
:106FF0000E688DB04D68013866405C688F686540EA
:107000009C68009003F1300084EA070BCF68D968D0
:10701000C14B794050F8107C4FEA156A50F8204C6B
:1070200020300197F7B203EB8A0A03EB8707DAF8FF
:1070300030A43F6B87EA040E0F0E50F83C4C03EB74
:107040008707D7F830748EEA070EC5F3072703EBDE
:107050008707D7F830788EEA070ECBF3074703EBA4
:107060008707D7F8307C8EEA070EEFB2C5F30745E5
:1070700003EB870703EB85053F6B5FFA8EF887EA22
:10708000040C370E50F8384C03EB8707D7F83074F0
:107090008CEA070CCBF3072703EB8707D7F8307888
:1070A0008CEA070CC1F3074703EB8707D7F8307C5E
:1070B0008CEA070C5FFA8BF703EB8707CCF3072901
:1070C0003F6B674050F8344C87EA0A07C1F3072A40
:1070D000C9B203EB8A0A03EB8101DAF830A8096B25
:1070E00087EA0A07C6F3074A61404FEA1B64C6F302
:1070F000072603EB8A0A03EB840403EB8606DAF81F
:1071000030ACD4F8304487EA0A076140D6F83048FA
:10711000C7F3074AC7F3072B6140D5F8304C6140ED
:1071200050F82C4CC1F307460D0E02945FFA8CF414
:1071300003964FEA1E66049650F8286C0596FEB238
:107140003F0E0696C1F30726C9B20796CEF307464F
:10715000CEF3072E08964FEA1C66CCF3074C09962F
:1071600050F8246C0B9100990A96002977DC6B4B40
:107170000198984499449A441D4498F828601C4406
:1071800099F828109B44464002989E449C4486EA05
:1071900001269AF828101F4486EA014695F828101F
:1071A00094F8285086EA01669BF8281045400A9C0E
:1071B000167085EA01250399194491F8281085EA8B
:1071C00001450499194491F8281085EA0165079949
:1071D0001944157191F828800699194491F82800EE
:1071E000059948400899194480EA082091F8281028
:1071F00080EA01400999194491F8281080EA016059
:107200000B99194497F8283091F8281061409EF89E
:10721000284081EA04219CF8284081EA044181EA5F
:107220000363310A5170310C360E9170290AD67001
:107230005171290C10722D0E9171010A1373517244
:10724000010C000ED5719172190AD0720020517391
:10725000190C1B0E9173D3730DB0BDE8F08F03EBC7
:10726000880803EB8505D8F8306003EB8909D5F869
:10727000301403EB8A0A03EB84044E400199256B1A
:1072800003EB8B0B4E40D9F83018099C03EB8707B2
:107290004E40DAF8301C03EB8408D7F830744E40C7
:1072A000049903EB8E0E03EB810103EB8C0CD1F8F8
:1072B00030144D4002994D40DBF830184D40039991
:1072C00003EB8101D1F8301C4D40069903EB81019D
:1072D0000C6BD8F830144C4005994C40079903EBDF
:1072E0008101D1F830184C40089903EB8101D1F8A5
:1072F000301C84EA010B0B9903EB8101096B794087
:107300000A9F7940DEF830787940DCF8307C7940AB
:10731000009F013F00977DE6189C0060208B006075
:10732000436800682DE9F04F1C6840100D688DB06F
:107330004E68013865405C688F6866409C680090C4
:1073400003F1300084EA070BCF68D968C64B794057
:10735000EFB250F8104C4FEA116A203003EB870768
:10736000019450F8404C03EB8A0AD7F82871DAF8F8
:1073700028A587EA040C370E50F8344C03EB870736
:10738000D7F828758CEA070CC1F3072703EB8707AA
:10739000D7F828798CEA070CCBF3074703EB87076C
:1073A000D7F8287D8CEA070CCFB2C1F3074103EB75
:1073B000870703EB8101D7F828715FFA8CF8D1F8C1
:1073C000281D87EA040E2F0E50F8384C03EB870770
:1073D000D7F828758EEA070ECBF3072703EB87074C
:1073E000D7F828798EEA070EC6F3074703EB87071D
:1073F000D7F8287D8EEA070E5FFA8BF703EB870735
:10740000CEF30729D7F82871674050F83C4C87EA3B
:107410000A07C6F3072AF6B203EB8A0A03EB8606CD
:10742000DAF828A9D6F8286187EA0A07C5F3074AD7
:1074300066404FEA1B6403EB8A0AC5F3072503EB9A
:107440008404DAF828AD03EB8505D4F8284587EAEB
:107450000A076640D5F82849CEF30745C7F3074A1F
:107460006640CCF3072403953D0E4E4050F82C1C8B
:10747000049550F8285C4FEA166B0291F1B205951D
:10748000FDB20695C6F307250795CCF307454FEAED
:107490001C6C08954FEA1E65099550F8245C0A9506
:1074A0005FFA8EF5C7F3072EC6F307470B95009DCD
:1074B000002D77DC6D4B019E984499449A44194401
:1074C00018F8C85C9B4419F8C80C1C44754011F8A6
:1074D000C86C02999E4485EA00251AF8C80C4E40F3
:1074E000039985EA00451BF8C80C19441F4485EA36
:1074F000006514F8C80C9C4486EA002611F8C80CF4
:10750000049986EA00461570194411F8C80C0799C9
:1075100086EA00661944167111F8C80C06991944D8
:1075200011F8C84C05994C400899194484EA002484
:107530000A9811F8C81C84EA01440999194411F801
:10754000C81C84EA01640B9919441CF8C83C11F862
:10755000C81C41401EF8C80C81EA002117F8C80C6D
:1075600081EA0041002081EA0363290A5170290C55
:107570002D0E9170310AD5705171310C1472360E86
:107580009171210A13735172210C240ED6719172DC
:10759000190AD4725173190C1B0E9173D3730DB069
:1075A000BDE8F08F03EB880803EB8B0BD8F828516C
:1075B00003EB8909DBF8286503EB8A0A03EB8101F9
:1075C0007540019E03EB84047540D9F8286903EBEC
:1075D0008C0C7540DAF8286DDCF828C503EB8E0EAC
:1075E0007540049E03EB870703EB8608D1F82861FA
:1075F000D7F8287DD8F828154E4002994E40D4F887
:107600002819099C4E40039903EB840803EB810180
:10761000D1F8281D4E40069903EB8101D1F828418D
:10762000D8F828154C4005994C40079903EB810187
:10763000D1F828194C40089903EB8101D1F8281D95
:1076400084EA010B0B990A9C03EB8101D1F8281104
:1076500081EA0C01DEF828C96140009C81EA0C0136
:10766000013C7940009473E6208B006010AD00600F
:1076700010B40C4611461A46012C02D110BCFFF77B
:10768000B1BC10BCFFF74CBE2DE9FF4714461F46A6
:1076900080468A462207DDE90C355BD103EB0409FD
:1076A000002955D10F351C4604AE4C45A5F10F02FB
:1076B00003D1002004B0BDE8F0872346EE4604F174
:1076C000100A1868083353F8041CF4465345ACE814
:1076D0000300E646F5D121464046FFF721FEA5F11D
:1076E0001003791E13F8012F11F8010FAB4282EA43
:1076F00000021A70F6D1EC463A466346083203CBD4
:10770000B34242F8080C42F8041C9C46F5D11034F0
:107710001035CAE70023CA5CF85C4240EA540133E2
:10772000102BF8D12B462A4651464046FFF7A0FFC2
:107730003B4605F1100255F8041B954243F8041B23
:10774000F9D1103CA9EB0401351B002CE2D1B0E7C4
:107750002E19F7E76FF02100ACE72DE9F047DDE9DE
:10776000085681461F46DDF828A006EB02081C6873
:1077700011B3464522D024B92A4629464846FFF788
:1077800031FC2B5D16F8012B53400AF8013B2B55B9
:10779000013404F00F04ECE724B92A462946484690
:1077A000FFF720FC2B5D16F8012B53400AF8013B34
:1077B0002A55013404F00F044645EDD100203C6009
:1077C000BDE8F0872DE9F04F87B080460E461C4695
:1077D00003F1100A0DF1150BDDE91059AF18BD4288
:1077E00003D1002007B0BDE8F08F23460DF1040C53
:1077F0001868083353F8041C6246534503C2944684
:10780000F6D1224621464046FFF7ECFB16B92B780D
:107810008DF8143015F8012B012E237883EA02032A
:10782000224609F8013B08BF8DF814300DF105031D
:1078300053F8041B5B4542F8041BF9D1CFE72DE94F
:10784000F84F164681469B46DDF830A03468DDE9E6
