:020000040800F2
:1000000000000120B52A0008052B0008052B000878
:10001000052B0008052B0008052B00080000000038
:10002000000000000000000000000000052B000898
:10003000052B000800000000052B00080B16000827
:10004000052B0008052B0008052B0008052B0008D0
:10005000052B0008052B0008052B0008052B0008C0
:10006000052B0008052B0008052B0008052B0008B0
:10007000052B0008052B0008052B0008052B0008A0
:10008000052B0008052B0008052B0008052B000890
:10009000052B0008052B0008052B0008052B000880
:1000A000052B0008052B0008052B0008052B000870
:1000B000052B00080000000000000000052B0008D0
:1000C000052B0008052B0008052B0008052B000850
:1000D000052B0008052B0008052B0008052B000840
:1000E000052B0008052B00080000000000000000A0
:1000F0000000000000000000000000000000000000
:1001000000000000052B000800000000052B00087F
:100110000000000000000000052B0008052B00086F
:10012000052B0008052B0008052B0008052B0008EF
:10013000052B000800000000000000000000000087
:10014000052B0008052B0008052B0008052B0008CF
:10015000052B0008052B0008052B0008052B0008BF
:10016000052B0008052B0008052B000800000000E7
:10017000052B0008052B0008052B0008052B00089F
:10018000052B0008052B0008052B000800000000C7
:1001900010B5054C237833B9044B13B10448AFF3C1
:1001A00000800123237010BD080000200000000023
:1001B000502B000808B5034B1BB103490348AFF3AC
:1001C000008008BD000000000C000020502B00083B
:1001D00043F21814C0F6000443F21825C0F60005D7
:1001E000E75D3E464FEA072786EA07064FEA0727FC
:1001F00086EA07064FEA072786EA07074FF001322B
:100200004FF0000A03B402984FF00101016003BCF3
:1002100003B40298016801F101014229016003BCA5
:100220002ED054F8046B86FA47F6A2FA8AF886FABA
:1002300048F6B04608F0FF0815F80880C3464FEAB4
:10024000162808F0FF0815F808804FEA08288BEAFE
:10025000080B4FEA164808F0FF0815F808804FEA27
:1002600008488BEA080B4FEA166808F0FF0815F8F3
:1002700008804FEA08688BEA080B43F804BBC7E71D
:10028000A3F580734FF000061E707047009B03F5C6
:100290001373009D05F50275009E06F5177603B4ED
:1002A00002984FF00101016003BC03B40298016899
:1002B00001F101011229016003BC08D012F8014BC1
:1002C00003F8014B15F8014B06F8014BEDE77047B9
:1002D000DDF8008008F10808009F07F1B807DDF895
:1002E00000C00CF5BA7C03B402984FF00101016024
:1002F00003BC03B40298016801F1010112290160F5
:1003000003BC0AD017F8014B11F8013B1CF803306D
:1003100083EA040408F8014BEBE77047DDF800803E
:1003200008F1B80803B402984FF00101016003BC62
:1003300003B40298016801F101011229016003BCB4
:1003400004D012F8014B08F8014BF1E7DDF800800A
:1003500008F5B47812F8015B88F8005088F801506D
:1003600088F8025088F80350DDF8008008F5B67868
:1003700012F8015B88F8005088F8015088F80250A4
:1003800088F80350DDF8008008F5B878177888F809
:1003900000707047009B03F5027303B402984FF09E
:1003A0000101016003BC03B40298016801F101017D
:1003B0001229016003BC04D011F8014B03F8014B72
:1003C000F1E7009F07F5107711F8015B3D707D7034
:1003D000BD70FD703D68009F07F5117711F8015B56
:1003E0003D707D70BD70FD703D68009D05F5127516
:1003F0000F782F707047A44603B402984FF00101A4
:10040000016003BC03B40298016801F101014229B3
:10041000016003BC2ED054F8046B86EA010606F096
:10042000FF0012F8017B1CF8077087EA08071F54C9
:100430004FEA162000F0FF0012F8017B1CF807704D
:1004400087EA08071F544FEA164000F0FF0012F831
:10045000017B1CF8077087EA08071F544FEA1660F3
:1004600000F0FF0012F8017B1CF8077087EA08070C
:100470001F54C7E77047A25D02F003024FF000056A
:1004800003B402984FF00101016003BC03B4029869
:10049000016801F101010629016003BC06D085EA6B
:1004A000020600F8016B05F10105EFE7704743F222
:1004B0001835C0F6000514F8011B01F00F0114F8FF
:1004C000018B08F00F0814F801BB0BF00F0B14F8A8
:1004D00001AB0AF00F0A4FF0000003B402984FF08E
:1004E0000101016003BC03B40298016801F101013C
:1004F0001229016003BC1ED080EA0107EF5D87EA84
:100500000807EF5D87EA0B07EF5D87EA0A07EF5DF3
:1005100002F8017B87EA0107EF5D87EA0807EF5DD4
:1005200087EA0B07EF5D87EA0A07EF5D03F8017BB7
:1005300000F10100D7E7704703B402984FF00101C2
:10054000016003BC03B40298016801F101011229A2
:10055000016003BC0CD015F8010B1C5C1AF800609C
:1005600084EA060418F8044084EA06041C54E9E707
:100570003F681E6886EA07061E605E6886EA070610
:100580005E609E6886EA07069E60DE6886EA070669
:10059000DE607047009D05F5067503B402984FF0C4
:1005A0000101016003BC03B40298016801F101017B
:1005B0001229016003BC07D015F8016B13F80680FF
:1005C000A65D07F80680EEE7009D05F5067503B405
:1005D00002984FF00101016003BC03B40298016866
:1005E00001F101011229016003BC06D015F8016B6D
:1005F00017F8068003F80680EFE7009D05F50A75F9
:1006000003B402984FF00101016003BC03B40298E7
:10061000016801F101011229016003BC07D015F83E
:10062000016B1AF80680A65D07F80680EEE7009DCC
:1006300005F50A7503B402984FF00101016003BC8F
:1006400003B40298016801F101011229016003BCA1
:1006500006D015F8016B17F806800AF80680EFE758
:10066000704703B402984FF00101016003BC03B46A
:100670000298016801F101010629016003BC35D02F
:1006800010F8018B4FEA88080AEB080393F8008002
:1006900093F801B088EA0B049A7884EA0204DD78C2
:1006A00084EA050488EA0B07F75D87EA080787EA0A
:1006B000040703F8017B8BEA0207F75D87EA0B0763
:1006C00087EA040703F8017B82EA0507BF5D87EA32
:1006D000020787EA040703F8017B88EA0507F75D4C
:1006E00087EA050787EA04071F70C0E7704703B46D
:1006F00002984FF00101016003BC03B40298016845
:1007000001F101010629016003BC35D0009A02F510
:100710005B7210F8018B4FEA88080AEB0803424429
:1007200093F8008093F801B088EA0B049E7884EA7D
:100730000604DD7888EA060884EA050443F2180610
:10074000C0F60006345D42F61876C0F6000616F8CC
:10075000088088EA040802F8028B82F80080A2F17F
:1007600001028BEA050816F8088088EA040802F8F6
:10077000028B82F80080C0E77047D1F80C804FEA06
:10078000382841F8108FD7F80C804FEA38283E46B9
:1007900006F11006C6F8008003B402984FF001017C
:1007A000016003BC03B40298016801F1010106294C
:1007B000016003BC11D013F8014B11F804C08CEA9E
:1007C0000B0C305D8CEA000C15F80CC08CEA000CA8
:1007D0008CEA0A0C01F804C0E4E78C46DCF800401F
:1007E00052F8048B84EA0804ACF11008D8F80080B1
:1007F00084EA0804ACF10C064CF8044B56F8048B60
:1008000084EA08044CF8044B56F8048B84EA080484
:100810004CF8044B56F8048B84EA0804CCF80040EA
:100820003C69D7F8008084EA08043C61D7F804806A
:1008300084EA08047C61D7F8088084EA0804BC6173
:10084000D7F80C8084EA0804FC61A3F10403704724
:1008500043F21810C0F6000043F21821C0F6000160
:100860001278825C82F0FF021B7810F803A0924499
:100870004FEA1A2292440AF0FF0A11F80A707047F0
:1008800003B402984FF00101016003BC03B4029865
:10089000016801F101011229016003BC07D01E7833
:1008A00017F8018B86EA080603F8016BEEE7A3F15F
:1008B0001003704703B402984FF00101016003BCBC
:1008C00003B40298016801F101011229016003BC1F
:1008D00004D013F8015B07F8015BF1E7704703B43C
:1008E00002984FF00101016003BC03B40298016853
:1008F00001F101011229016003BC05D01E781CF82A
:10090000066003F8016BF0E7704703B402984FF0FC
:100910000101016003BC03B40298016801F1010107
:100920001229016003BC18D097F800B01BF800A092
:1009300092444FEA1A24A2440AEA0C0A1AF8016007
:10094000BBF1000FC8BF4FF0FF0A08BF0026B8BFB9
:100950004FF0000A07F8016BDDE7704742F6F054EC
:10096000C0F60004DDF8008008F55E7803B4029854
:100970004FF00101016003BC03B40298016801F16A
:1009800001010C29016003BC06D014F8046B1CF8AB
:10099000066048F8046BEFE77047009A02F517729B
:1009A00003B402984FF00101016003BC03B4029844
:1009B000016801F101011229016003BC14D015F88E
:1009C000014B12F804B01CF80460865D8BEA060B3C
:1009D00002F804B013F804B018F80460865D8BEADE
:1009E000060B03F804B0E1E770473D681E6886EA2D
:1009F00005061E605E6886EA05065E609E6886EAF9
:100A000005069E60DE6886EA0506DE6070474DF8E2
:100A100004ED2DE9FE1F4DF8040DFFF77FFC009B50
:100A200003F5BA73009F07F5B8773F78FFF7D0FB5F
:100A3000DDF800C00CF5BA7CFFF790FFFFF748FC2B
:100A4000009C04F1B804009800F55D704FF00006BA
:100A5000FFF711FD42F6D032C0F60002009B03F50D
:100A60001D73009C04F5BA74DDF8008008F5B478B5
:100A7000D8F80010009E06F5B67696F80080FFF7CD
:100A8000BAFC009901F10801009F07F1B807009D29
:100A900005F51D75009A02F55E72009B03F55D7306
:100AA00003B402984FF00101416003BC03B4029803
:100AB000416801F101010C29416003BC10D0DDF84F
:100AC00000B00BF5B47B9BF800B0DDF800A00AF590
:100AD000B67A9AF800A0FFF750FE07F11007E5E795
:100AE00001BC4FF00000BDE8FE1F00BD70474DF88F
:100AF00004ED2DE9FC1F4DF8041D4DF8040DFFF722
:100B000049FC009B03F10803009F07F512773F782B
:100B1000FFF75EFB009C04F50274009800F50E7070
:100B20004FF00006FFF7A7FC009800F50F704FF09C
:100B30000106FFF7A0FC009A02F50672009B03F580
:100B40000A73FFF7B4FC42F6D032C0F60002009BF5
:100B500003F58473009C04F10804A446DDF80080CA
:100B600008F51078D8F80010009E06F5117696F872
:100B70000080FFF740FC01BC02BCBDE8FC1F4FF049
:100B8000000000BD70474DF804ED2DE9FC1F4DF845
:100B9000041D4DF8040DFFF7FDFB009B03F1080356
:100BA000009F07F512773F78FFF712FB009C04F5D2
:100BB0000274009800F50E704FF00006FFF75BFC22
:100BC000009800F50F704FF00106FFF754FC009AF3
:100BD00002F50672009B03F50A73FFF768FC42F604
:100BE000D042C0F60002009B03F58473009C04F120
:100BF0000804A446DDF8008008F51078D8F8001045
:100C0000009E06F5117696F80080FFF7F4FB01BC14
:100C100002BCBDE8FC1F4FF0000000BD70474DF85E
:100C200004ED4DF8042D2DE9F01F4DF8043D4DF86D
:100C3000041D4DF8040DFFF729FB019A02F5B87267
:100C4000009B03F51273FFF703FE009B03F51B7374
:100C5000FFF7BEFA009B03F51373DDF800C00CF13B
:100C6000080CFFF73CFE009B03F51373009F07F58C
:100C70001777FFF705FE009800F51B70019901F149
:100C800008018846DDF804C00CF1B80C009B03F5A0
:100C90001373009D05F50675FFF77FFE03B40298F8
:100CA0004FF00101416003BC03B40298416801F1B7
:100CB00001010B29416003BC43D0009F07F5107769
:100CC000009B03F51373FFF790FE009D05F5067575
:100CD000DDF8008008F58478DDF800A00AF5177AC1
:100CE000009F07F51177FFF727FC42F6D054C0F6B6
:100CF0000004009F07F55B77FFF74CFC009800F5B8
:100D00000E7042F61866C0F60006FFF7AAFC0098BF
:100D100000F50F70DDF800A00AF5137AFFF7A1FCCB
:100D200001F110010CF1100C8846009B03F51373C0
:100D3000009D05F50675009800F51B70FFF72DFE68
:100D4000B2E7009F07F51077009B03F51373FFF7D9
:100D50004CFE009D05F50675DDF8008008F58478E9
:100D6000DDF800A00AF5177A009F07F51177FFF765
:100D7000E3FB42F6D054C0F60004009F07F55B7712
:100D8000FFF708FC01F110010CF1100C8846009DE2
:100D900005F50675009800F51B70FFF7FEFD009F36
:100DA00007F51777009B03F51373FFF769FD43F20F
:100DB0001810C0F6000043F21821C0F60001009C94
:100DC00004F512742278825C4FF0FF0CACEB020247
:100DD0001F46FFF79AFD029FFFF76CFD01BC4FF025
:100DE000000002BC08BCBDE8F01F04BC00BD704799
:100DF0004DF804ED4DF8042D2DE9F01F4DF8043D9C
:100E00004DF8041D4DF8040DFFF740FA019A02F564
:100E1000B872009B03F51273FFF71AFD009B03F5F0
:100E20001B73FFF7D5F9009B03F51373DDF800C0C2
:100E30000CF1080CFFF753FD009B03F51373009FA3
:100E400007F51777FFF71CFD009800F51B70019957
:100E500001F1080101F1A001DDF804C00CF1B80CAA
:100E60000CF1A00C009B03F51373009D05F50675AE
:100E70008846FFF792FD03B402984FF001014160EC
:100E800003BC03B40298416801F101010B294160E0
:100E900003BC6ED0009B03F5137342F6E054C0F61A
:100EA0000004009F07F55B77DDF800A00AF5177ACC
:100EB000FFF770FB009F07F51077FFF796FDDDF851
:100EC00000A00AF5177ADDF8008008F58478009D07
:100ED00005F50675009F07F51177FFF72DFBACF1BF
:100EE000100CA1F110018846009D05F506750098CB
:100EF00000F51B70FFF751FDDDF800A00AF5177A29
:100F0000009800F50F70FFF7F2FBDDF800A00AF57E
:100F1000177A009800F50F7042F61866C0F60006C2
:100F2000FFF79FFB009F07F55B77009B03F51773A7
:100F3000FFF7A6FCDDF800A00AF5137A009800F58B
:100F40000E70FFF7D4FBDDF800A00AF5137A42F625
:100F50001866C0F60006009800F50E70FFF781FBDA
:100F6000009F07F55B77009B03F51373FFF788FC81
:100F700087E7009B03F5137342F6E054C0F60004C4
:100F8000009F07F55B77DDF800A00AF5177AFFF7F9
:100F900001FB009F07F51077FFF727FDDDF800A0A4
:100FA0000AF5177ADDF8008008F58478009D05F5CC
:100FB0000675009F07F51177FFF7BEFAACF1100C2C
:100FC000A1F110018846009D05F50675009800F511
:100FD0001B70FFF7E2FC009F07F51777FFF750FC47
:100FE00043F21810C0F6000043F21821C0F60001C9
:100FF000009C04F512742278825C4FF0FF0CACEB7D
:1010000002021F46FFF781FC029FFFF753FC01BC61
:101010004FF0000002BC08BCBDE8F01F04BC00BDDE
:101020007047000053B94AB9002908BF00281CBF07
:101030004FF0FF314FF0FF3000F06CB9ADF1080C0C
:101040006DE904CE00F006F8DDF804E0DDE90223E6
:1010500004B070472DE9F047089E0D4604468E46C1
:10106000002B40F082808A42174646D9B2FA82F2BB
:101070004AB1C2F1200105FA02F320FA01F19740CA
:1010800041EA030E94404FEA1748230CBEFBF8FCDC
:10109000B9B208FB1CEE43EA0E430CFB01F0984288
:1010A0000AD9FB180CF1FF3580F01681984240F206
:1010B0001381ACF1020C3B441B1AA4B2B3FBF8F051
:1010C00008FB103344EA034400FB01F1A14209D9B3
:1010D0003C1900F1FF3380F00181A14240F2FE8013
:1010E00002383C44641A40EA0C4000211EB1D4404E
:1010F0000023C6E90043BDE8F08702B9FFDEB2FA7B
:1011000082F2002A4FD1CB1B4FEA174E1FFA87F805
:101110000121B3FBFEFC250C0EFB1C3345EA034505
:1011200008FB0CF3AB4207D97D190CF1FF3002D25A
:10113000AB4200F2E7808446ED1AA3B2B5FBFEF0A5
:101140000EFB105543EA054408FB00F8A04507D9FB
:101150003C1900F1FF3302D2A04500F2D7801846B7
:10116000A4EB080440EA0C40C0E78B4208D9002EEB
:1011700000F0AF800021C6E900050846BDE8F08711
:10118000B3FA83F100294BD1AB4202D3824200F281
:10119000B780841A65EB030301209E46002EAAD077
:1011A000C6E9004EA7E7C2F1200C01FA02F397400E
:1011B00020FA0CF04FEA174E21FA0CFC1843BCFB46
:1011C000FEF1050C0EFB11CC1FFA87F845EA0C4521
:1011D00001FB08F3AB4204FA02F409D97D1901F1CD
:1011E000FF3C80F08B80AB4240F2888002393D4466
:1011F000EB1A85B2B3FBFEF00EFB103345EA034554
:1012000000FB08F3AB4207D97D1900F1FF3C71D216
:10121000AB426FD902383D44EB1A40EA014178E70E
:10122000C1F1200C8B4022FA0CF71F4320FA0CF47A
:1012300005FA01F34FEA174E25FA0CF51C43230C6F
:10124000B5FBFEF91FFA87F80EFB195543EA054571
:1012500009FB08FAAA4502FA01F200FA01F308D9DB
:101260007D1909F1FF3047D2AA4545D9A9F10209F4
:101270003D44A5EB0A05A4B2B5FBFEF00EFB1055EC
:1012800044EA054400FB08F8A04507D93C1900F1E1
:10129000FF352DD2A0452BD902383C4440EA094005
:1012A000A4EB0804A0FB02894C45C6464D4619D361
:1012B00016D05EB1B3EB0E0264EB050404FA0CFC2D
:1012C000CA404CEA0202CC40C6E900240021BDE835
:1012D000F087314630460EE7AC46EDE6184601E7AA
:1012E0004345E6D2B8EB020E69EB07050138E0E7AB
:1012F0002846D3E760468FE78146BAE7614677E73D
:1013000008464BE7ACF1020C3D4415E702383C447B
:1013100026E700BF704700BF00207047027843787F
:1013200043EA0223014A0020138070470000002096
:1013300008B501F047FA002008BD08B501F00CFA25
:10134000002008BD10B5044601F020FA00F0C6F9EF
:10135000204601F01DFA00F0C8F9204601F017FA06
:1013600022461021722000F0CDF8002010BD0000B0
:1013700070B5044601F00AFA0B4E00253388AB42E3
:1013800009D8204601F003FA22461021722000F00D
:10139000B9F8002070BD00F0A1F9204601F0F8F97D
:1013A000013500F0A2F9E9E7000000201FB51E4B4F
:1013B0006A4603F11006154618685968144603C4B6
:1013C0000833B3422246F7D100F021F900F03AF990
:1013D00000F072F901F0B0F9284601F0BDF900F013
:1013E00089F8124A10216B2000F080F8104A102171
:1013F000702000F07BF80F4A0021782000F076F88A
:101400000D4A012312216D2000F05AF80B4A0221E7
:10141000732000F06BF80A4A1021662000F066F88D
:1014200000F090F8FCE700BF283300083B130008E9
:101430004513000819130008311300081D13000894
:101440007113000801207047F0B500234F1C834240
:1014500001DB002020E017F8135011F81340A5F12C
:101460003006F6B2092E0BD8D654A4F13005EEB2F0
:10147000092E14D8D45C44EA0514D4540133E6E7A9
:10148000A5F14106052E02D8373DD554EDE7A5F16B
:101490006106052E01D90120F0BD573DF5E7A4F105
:1014A0004105052D02D8A4F13705E3E7A4F1610554
:1014B000052DF0D8D55C573C45EA0414DDE7000063
:1014C00070B5094E34680F2C0BDCBF2909D806EB28
:1014D0000415C5E90212013428712B743460002010
:1014E00070BD0120FCE700BF240000200023FFF7AF
:1014F000E7BF0000024A00217620FFF7F7BF00BFD8
:1015000045140008F8B514460E4600F00FF90C4FCC
:10151000651EC4F1010463199E4204DCBDE8F84075
:101520000A2000F003B915F8013F1B09F85C00F030
:10153000FDF82B7803F00F03F85C00F0F7F8EAE70A
:10154000682B00082DE9F0412E4CADF5127D00F01E
:10155000D3F822680023211D9A4204DC07D10DF53F
:10156000127DBDE8F0811D016D5C85423DD104EB2B
:1015700003151E012B7CDB0714D500238DF80830E2
:1015800000F0BAF88DF8C80000F0B6F802AA8DF89D
:10159000C90032A90120FFF757FF0028DFD19DF8CD
:1015A0000830AB600025A7190DF1C808BB68B5EB82
:1015B000430F1CD300F0A0F80A2801D00D28CED18B
:1015C000344402AAA56832A92846FFF73DFF002847
:1015D000C5D1E9B2E36802A8984701AA8DF80400D2
:1015E00001217A20FFF78EFFB9E70133B4E700F05D
:1015F00083F80A28B3D00D28B1D005F808000135CA
:10160000D4E700BF24000020704700F0B7B810B541
:1016100096B0002403224FF4A02305A8CDE90523AA
:101620000894109400F050F902230F21CDE9001323
:1016300068462146CDE90244049400F097FB72B657
:1016400016B010BD10B5022388B04FF4C062CDE9CA
:1016500003230122CDE90523144C07230793E36CF0
:101660001343E364E36C1340019303A94FF09040EC
:10167000019B00F031FC0E480E494FF41643C0E9BF
:1016800000130023C0E90233036183610C2343612B
:10169000236E43F480432366236E03F48043029356
:1016A000029B00F070FF08B010BD00BF00100240A8
:1016B0003C010020003801407FB54FF480520123E7
:1016C000CDE9012300210223CDE903134FF090401F
:1016D00001A900F001FC07B05DF804FB01224FF402
:1016E00080514FF0904000F0BBBC00224FF480517D
:1016F0004FF0904000F0B4BC37B50A4D0A4C41F2AF
:10170000883301220DF10701284600F09CFE18B92C
:101710009DF8070003B030BD236A43F0080323623D
:10172000EDE700BF3C0100200038014007B541F261
:1017300088338DF8070001220DF10701024800F0FF
:101740005FFF03B05DF804FB3C01002038B50A4B95
:10175000054618684FF47A73B0FBF3F000F0D6FF3B
:10176000044638B9024629464FF0FF3000F09CFF8E
:10177000204638BD0120FCE704000020024A13681F
:1017800001331360704700BFB4010020024B18689A
:10179000421C1A60704700BFB401002037B51E4DCF
:1017A000AB6DDA00044618D500F076FFB0F5007F87
:1017B00023D1802C29D9A02C8CBF022401241749C5
:1017C0000A6822F0070222430A60086800F0070056
:1017D000001B18BF012003B030BDAB6D43F0805338
:1017E000AB65AB6D03F080530193019B00F054FF98
:1017F000AB6D23F08053AB65D8E7802C07D808D0B9
:10180000A4F170035C425C41D9E70024D7E70324CC
:10181000D5E70224D3E700BF0010024000200240B9
:10182000264B9A68D96812F00C0205D00C2A15D103
:1018300001F00301012919D119682148090755BF91
:10184000D3F894101968C1F30321C1F3031150F8C0
:10185000210092B30C2A0AD000207047042A2BD012
:10186000082A0CBF4FF4E100002070470020D9681F
:10187000DA6801F00301C2F30212022902F1010247
:1018800005D0032912D0D968C1F3062103E0D96835
:101890000C48C1F30621DB68B0FBF2F0C3F34163EF
:1018A000013348435B00B0FBF3F07047D9684FF455
:1018B000E100C1F30621EEE7024870470010024044
:1018C000782B00080024F4002DE9F743054608B9F9
:1018D000012046E0A84C0368A668E768DB0606F02E
:1018E0000C0607F0030772D51EB10C2E51D1012F43
:1018F0004FD12368980702D5AB69002BE8D0236845
:10190000286A190756BFD4F8943023681B0903F0DE
:10191000F003984228D9FFF741FF0028D8D1236867
:1019200043F00803236023682A6A23F0F00313437B
:1019300023606368EA6923F47F4343EA0223636018
:10194000FFF76EFFA3688D4AC3F30313D35C03F064
:101950001F03D8408A4B18600F20FFF7F7FE0028BE
:1019600035D003B0BDE8F083236843F0080323605B
:10197000236823F0F003034323606368EA6923F4D8
:101980007F4343EA02236360FFF708FF0028D7D0B4
:101990009EE7AB69002B3AD0236843F00103236034
:1019A000FFF7F4FE804623689A0728D5236843F0A2
:1019B0000803236023682A6A23F0F003134323609B
:1019C0006368EA6923F47F4343EA022363602B6878
:1019D000D8072DD42B6899076BD42B68180700F112
:1019E000A0802B68590700F1CD802B68990600F183
:1019F0003681AB6A002B40F05C810020B1E7FFF735
:101A0000C5FEA0EB08000228CDD90320A9E7236872
:101A100023F001032360FFF7B9FE804623689B078C
:101A2000D5D5FFF7B3FEA0EB08000228F6D9ECE706
:101A3000082E03D00C2E08D1032F06D123689A0359
:101A4000C8D56B68002BC5D142E76B68B3F5803F02
:101A500010D1236843F480332360FFF797FE80465C
:101A600023689B03B6D4FFF791FEA0EB080064281F
:101A7000F6D9CAE7B3F5A02F04D1236843F4802335
:101A80002360E6E7226822F480322260226822F492
:101A900080222260002BE0D1FFF778FE8046236889
:101AA000980397D5FFF772FEA0EB08006428F6D9DB
:101AB000ABE7042E03D00C2E10D1022F0ED12368D9
:101AC000590503D5EB68002B3FF402AF63682A6920
:101AD00023F0F85343EA026363607EE7EB687BB16F
:101AE000236843F480732360FFF750FE07462368A2
:101AF0005A05EBD4FFF74AFEC01B0228F7D984E74A
:101B0000236823F480732360FFF740FE07462368B1
:101B10005B057FF562AFFFF739FEC01B0228F6D9DF
:101B200073E76B699BB1D4F8943043F00103C4F8B8
:101B30009430FFF72BFE0746D4F894309A073FF510
:101B400050AFFFF723FEC01B0228F5D95DE7D4F89C
:101B5000943023F00103C4F89430FFF717FE0746D2
:101B6000D4F894309B077FF53CAFFFF70FFEC01B06
:101B70000228F5D949E700BF00100240B02B000849
:101B800004000020A36DD80029D4A36D43F0805336
:101B9000A365A36D03F080530193019B4FF00108EF
:101BA000714F3B68D9051DD5AB68012B2BD1D4F8FB
:101BB000903043F00103C4F89030FFF7E7FD41F2A5
:101BC00088390746D4F890309B0742D5B8F1000F0A
:101BD0003FF40BAFA36D23F08053A36505E74FF0EF
:101BE0000008DDE73B6843F480733B60FFF7CEFD00
:101BF00081463B68DA05D7D4FFF7C8FDA0EB0900A2
:101C00000228F6D901E7052B06D1D4F8903043F02D
:101C10000403C4F89030CAE7D4F8902022F00102FF
:101C2000C4F89020D4F8902022F00402C4F8902048
:101C3000002BC2D1FFF7AAFD41F288390746D4F83C
:101C400090309807C2D5FFF7A1FDC01B4845F6D9D3
:101C5000DBE6FFF79BFDC01B4845B3D9D5E66B6AB1
:101C60009BB1D4F8983043F00103C4F89830FFF7E3
:101C70008DFD0746D4F898309A073FF5BAAEFFF7C6
:101C800085FDC01B0228F5D9BFE6D4F8983023F0B3
:101C90000103C4F89830FFF779FD0746D4F898306F
:101CA0009B077FF5A6AEFFF771FDC01B0228F5D993
:101CB000ABE60C2E3FF40CAE022B236823F08073AE
:101CC000236036D1FFF762FD0646236898012AD4C7
:101CD000D5E90D23DB0643EA0223EA6A13432A6BA4
:101CE000013A43EA0213EA6B5208013A43EA4253CB
:101CF0002A6C5208013A43EA4263E360236843F0E6
:101D000080732360E36843F08073E360FFF73EFD78
:101D10000546236899013FF570AEFFF737FD401B7C
:101D20000228F6D971E6FFF731FD801B0228CCD9D5
:101D30006BE623681A015EBFE36823F00303E360E8
:101D4000E36823F0887323F48033E360FFF71EFD1C
:101D5000054623689B017FF550AEFFF717FD401B3A
:101D60000228F6D951E600BF007000402DE9F0418D
:101D70000D46044610B90120BDE8F081404A1368C1
:101D800003F007038B4229D32368D90731D4216894
:101D90008A075AD43A4A136803F00703AB425CD867
:101DA00011F0040F374D63D10B0706D5AB682269DC
:101DB00023F4605343EAC203AB60FFF731FDAB6825
:101DC000314AC3F30313BDE8F041D35C03F01F03B2
:101DD000D8402E4B18600F20FFF7B8BC136823F0D3
:101DE00007030B431360136803F007038B42C2D150
:101DF000CAE76268234E032A33681AD113F0007FC2
:101E0000B9D0B36823F003031343B360FFF7BEFCFC
:101E100041F288380746B368626803F00C03B3EBFD
:101E2000820FB4D0FFF7B2FCC01B4045F3D90320AA
:101E3000A2E7022A02D113F4003FE1E712B913F03E
:101E4000020FDDE713F4806FDAE70E4AA0689368AB
:101E500023F0F003034393609CE7136823F0070328
:101E60002B431360136803F00703AB4283D197E75A
:101E7000AB68E26823F4E0631343AB6094E700BF10
:101E80000020024000100240B02B00080400002097
:101E9000054B064A9B68C3F30223D35C044A1068CF
:101EA00003F01F03D840704700100240A82B000821
:101EB00004000020054B064A9B68C3F3C223D35C91
:101EC000044A106803F01F03D84070470010024016
:101ED000A82B0008040000202DE9F74FDFF87C81D3
:101EE0005C4C00234FF001090A6832FA03F502D175
:101EF00003B0BDE8F08F09FA03FA1AEA020200F013
:101F00009E804D6825F0100EBEF1020F14D14FEAED
:101F1000D30C00EB8C0C03F0070BDCF820604FEACD
:101F20008B0B0F2707FA0BF726EA07070E6906FA4D
:101F30000BF63E43CCF82060D0F800B04FEA430CDB
:101F4000032606FA0CF72BEA070BFE4305F00307FE
:101F500007FA0CF70EF1FF3E47EA0B07BEF1010F3F
:101F6000076011D8876806EA070ECF6807FA0CF7F2
:101F700047EA0E078760476827EA0A0AC5F3001791
:101F80009F4047EA0A074760C76837408E6806FAED
:101F90000CF63E43C660EE0051D5D8F8606046F0BE
:101FA0000106C8F86060D8F8606023F0030707F105
:101FB000804706F0010607F58037019603F0030E0F
:101FC000019EBE684FEA8E0E4FF00F0C0CFA0EFC0D
:101FD000B0F1904F26EA0C0C33D01F4EB04232D0F5
:101FE00006F58066B04230D006F58066B0422ED04D
:101FF00006F58066B0420CBF0426072606FA0EF6E8
:1020000046EA0C06BE602668D74315F4803F0CBF35
:102010003E4016432660666815F4003F0CBF3E4004
:1020200016436660A66815F4801F0CBF3E40164339
:10203000A660E668AD0254BF3E401643E660013339
:1020400052E70026DAE70126D8E70226D6E703267C
:10205000D4E700BF00040140000400480010024023
:102060000AB181617047816270477047F8B5C169F4
:10207000036882681D680446006902436069024380
:10208000A3480A43284002431A605A68E06822F4D1
:10209000405202435A609F4AA06993421CBF226A81
:1020A00010439A6822F4306202439A609A4A93423B
:1020B00018D19A4BD3F8883003F00303013B022B6D
:1020C00000F2FE80964AD35CB1F5004F40F0DE800E
:1020D000082B00F2D880DFE803F0AAC2C5D6CED61E
:1020E000D6D6D1008F4A934208D18C4BD3F88820A2
:1020F0008B4B02F00C021344DB78E5E78A4A9342EB
:1021000020D1864BD3F8883003F03003202B00F029
:10211000DD800CD8002B00F0E980102B00F0E0806F
:10212000B1F5004F00F0AF8001250020EAE0302B30
:10213000F6D1B1F5004F00F0A1806368580800F5B2
:102140000040DBE0734A9342EAD1744BD3F88850E5
:1021500005F44065B5F5006F2BD009D87DB1B5F514
:10216000806F22D001250023C4E918332846F8BD2A
:10217000B5F5406FF6D108254FF4004004E0FFF7B5
:1021800087FE002800F09A80626802EB42038342D7
:10219000E8D8B0EB023FE5D8082D45D8DFE805F0D8
:1021A0000C4422442E4444443B00FFF739FB0425F1
:1021B000E7E75E480225E7E7FFF76AFE62684FF44B
:1021C000807156080027E1FB00670023304639463E
:1021D000FEF728FF564BA0F540729A42C2D82368FA
:1021E000D860C0E753485508002140194FF000035C
:1021F00041F10001FEF716FF0025EBE7FFF710FBAA
:1022000062684FF4807156080027E1FB00670023E5
:1022100030463946EEE7500810F500004FF0000355
:102220002CBF01210021E5E701250020D2E7FFF7BF
:102230002FFE61684A0802EB4003B3FBF1F39BB247
:102240000025A3F110014FF6EF7291428AD823F0D6
:102250000F022168C3F342031343CB6083E7FFF708
:1022600029FEE6E76268530803F1F47303F590432F
:10227000B3FBF2F3E3E7FFF7D3FADAE76268530858
:1022800003F58033F4E701250023DAE7082B3FF656
:102290004BAF01A252F823F0F3220008C722000836
:1022A000D322000829210008E7220008292100087C
:1022B00029210008292100083B210008054652E792
:1022C000B1F5004FCBD0FFF7F5FD14E0B1F5004FAD
:1022D000C8D06368580800F5740000F510500DE090
:1022E000B1F5004FC7D0FFF79BFA04E0B1F5004FFE
:1022F0009DD0FFF7CDFD636800EB5300B0FBF3F01A
:10230000002580B2A0F110024FF6EF7365E700BF21
:10231000F369FFEF008000400038014000100240E8
:10232000C02B000800440040004800400024F40096
:10233000FFFC0F00000024F4436ADA0710B506D54D
:102340000168846A4A6822F4003222434A609C078A
:1023500006D50168C46A4A6822F4803222434A6082
:10236000590706D50168046B4A6822F4802222438B
:102370004A601A0706D50168446B4A6822F4004295
:1023800022434A60DC0606D50168846B8A6822F421
:10239000805222438A60990606D50168C46B8A6818
:1023A00022F4005222438A605A060FD50168046C59
:1023B0004A6822F480122243B4F5801F4A6005D196
:1023C0004A68446C22F4C00222434A601B0606D5C8
:1023D0000268816C536823F400230B43536010BDE3
:1023E0002DE9F041DDF8188004460E4615461F46DB
:1023F0002268D36936EA03030CBF01230023AB42F2
:1024000001D0002017E0B8F1FF3FF2D0B8F1000F83
:1024100013D123681A6822F4D0721A609A6822F0E5
:1024200001029A60202384F8713084F8723000230E
:1024300084F870300320BDE8F081FFF7A7F9C01BD6
:102440004045D5D9E5E72DE9F3411E4690F87230B5
:10245000202B04460D4617465FD100295BD0002A89
:1024600059D090F87030012B57D0012380F870308C
:1024700000234367222380F87230FFF787F9A368AF
:10248000A4F85870B3F5805F8046A4F85A7015D14F
:1024900023698BB940F2FF13A4F85C30B4F85C7088
:1024A000B4F85A0080B2B8B9202384F8723084F8A6
:1024B000700002B0BDE8F081FF23EDE723B9236986
:1024C000002BF9D07F23E7E7B3F1805FE6D12369E2
:1024D000002BF7D03F23DFE7009643460022202160
:1024E0002046FFF77DFFD0B9A2682368B2F5805F70
:1024F0000CD1226952B99B8C3B4025F8023BB4F8C1
:102500005A20013A92B2A4F85A20C9E79B8C3B406A
:1025100005F8013BF3E70120CBE70220C9E70320E0
:10252000C7E773B5044600264667FFF72FF923680F
:102530001B681A07054617D423681B685B070AD572
:102540006FF07E43009300222B464FF4800120461B
:10255000FFF746FFA0B92023002084F8713084F8EB
:10256000700084F872300CE06FF07E4300933246C6
:1025700003464FF400112046FFF732FF0028DBD05E
:10258000032002B070BD10B5044660B390F87130FE
:1025900003F0FF021BB980F87020FFF766FD226888
:1025A000242384F87130136823F00103136020465C
:1025B000FFF75CFD012816D0636A13B12046FFF7D0
:1025C000BBFE23685A6822F490425A609A6822F04F
:1025D0002A029A601A6842F0010220461A60BDE899
:1025E0001040FFF79EBF012010BD0068C36931EAAB
:1025F00003030CBF012300239342F7D00020704750
:1026000038B590F87130202B04460D4642D1002990
:102610003ED0002A3CD090F87030012B3AD00123F4
:1026200080F8703000234367212380F87130A0F8D0
:102630005020A0F85220B4F8522092B252B9402152
:102640002046FFF7D2FF58B9202384F8713084F870
:10265000700006E0002280212046FFF7C6FF08B187
:10266000032038BDA3682268B3F5805F0DD12369CC
:102670005BB935F8023BC3F308031385B4F8523055
:10268000013B9BB2A4F85230D5E715F8013BF4E7C3
:102690000120E6E70220E4E7024B186800F4C0607E
:1026A000704700BF00700040164B30B5DC68C4F3C3
:1026B0000224C4F10703251D042B28BF0423062D83
:1026C0004FF0FF3505FA03F38CBF033C002421EAE9
:1026D0000303A34005FA04F422EA0402002843EAB3
:1026E0000203ACBF00F16040074A4FEA0313B8BFD2
:1026F00000F00F00DBB2AABF00F56140135480F870
:10270000003330BD00ED00E014ED00E00138B0F121
:10271000807F0AD2064B074A5860F02182F82310C6
:102720000020072298601A6070470120704700BFA0
:1027300010E000E000ED00E0002305491A465A547D
:102740000133B3F5E56FFAD1024B1A70704700BF41
:10275000DC010020040900201FB5084B084902468F
:102760001878084B0293084B01930023009340F024
:10277000010000F0E2F805B05DF804FB0409002058
:10278000DC010020B80100200509002070477047D7
:102790001FB5084A084903461078084A0292084AB9
:1027A00040F00A00CDE90032002200F0C6F805B082
:1027B0005DF804FB04090020DC010020B8010020C2
:1027C00005090020F0B5144B12291C7813D9134DBC
:1027D000421E00F1120612F8017F05F8017BB24299
:1027E000F9D144F0200526291D7008D01A7822F06E
:1027F00040021A700EE024F020041C70F6E708492D
:10280000253012F8015F01F8015B8242F9D144F0F2
:1028100060041C70F0BD00BF04090020B801002056
:10282000050900200E4A1368553B70B50370044635
:10283000C0F1010635198D4213780AD30844113BC3
:1028400043F0010300F8013C1368013313600020DA
:1028500070BD2578333B2B4404F8013FEAE700BF05
:102860002801002030B510F0010FDDE9034500D04C
:10287000A9B100F02101212900D19DB1450600D563
:102880009CB1010701D59AB193B110F0100005D0A9
:1028900072B1002B14BF00204FF4805030BD4FF4B4
:1028A0000040FBE74FF40070F8E74FF48070F5E765
:1028B0004FF48050F2E700F01803182B0FD000F00F
:1028C0000603062B0DD000F01203122B0BD000F0E4
:1028D0000C030C2B07D0B0FA80F04009704702209F
:1028E00070470420704708207047030709D540EA65
:1028F0000103DA071BD58A0701D442071AD49A07C5
:1029000010D510F0100310D00843C3070FD501F005
:10291000060102290ED010F0040F14BF00204FF45E
:10292000003070474FF400307047184670474FF43E
:10293000802070474FF4002070472DE9F04F89B098
:102940004FF00008DDF848B0994606460C4692461E
:1029500003AF434607F8083008F10108B8F1130F38
:10296000F8D13046FFF7A7FF0546002847D194F875
:1029700024173046FFF7B9FF054600283FD1149BC6
:102980000193139B00934A465B4651463046FFF73E
:1029900069FF054698BB06F02103212B33D1149B18
:1029A00039465A1E123312F8010F01F8010B9A42F0
:1029B000F9D1F0070ED53A4651462046FEF727F8E2
:1029C000002871D194F82437C4F8200743F001039C
:1029D00084F8243771061ED5139B39465A1E1233CC
:1029E00012F8010F01F8010B9A42F9D1B20724D570
:1029F000394604F56870FEF77AF8A0B180252846BC
:102A000009B0BDE8F08F41463846FFF70BFF0028BC
:102A1000CFD01025F3E713213846FFF703FF002836
:102A2000E4D02025EBE794F82437C4F81C0723F002
:102A3000040343F0020384F82437730710D53946A2
:102A400004F56870FEF79FF80028D7D194F8243772
:102A5000C4F81C0723F0020343F0040384F824376E
:102A600006F01806082E0CD0102EC8D15B464A4638
:102A7000214604F56870FEF7BBF950B14FF40075BC
:102A8000BDE75B464A46214604F56870FEF7C7F885
:102A900060B9D4F820370133C4F82037D4F81C3794
:102AA0000133C4F81C37AAE74025A8E74FF4807526
:102AB000A5E70000DFF834D0002103E00C4B5B58A1
:102AC000435004310B480C4B42189A42F6D30B4A40
:102AD00002E0002342F8043B094B9A42F9D3FEF787
:102AE00093FD00F011F8FEF761FCFEE70000012005
:102AF00058330008000000200800002008000020D3
:102B000018090020FEE7000070B50D4D0D4C641B48
:102B1000A4100026A64209D10B4D0C4C00F018F869
:102B2000641BA4100026A64205D170BD55F8043BD5
:102B300098470136EEE755F8043B98470136F2E72F
:102B40004833000848330008483300084C33000875
:102B5000F8B500BFF8BC08BC9E467047F8B500BF8A
:082B6000F8BC08BC9E4670475A
:102B680030313233343536373839414243444546BB
:102B7800A0860100400D0300801A060000350C00F5
:102B880040420F0080841E0000093D0000127A00B8
:102B98000024F40000366E010048E801006CDC02F5
:102BA8000000000001020304000000000000000013
:102BB80001020304060708090402080010101004A3
:102BC8001010100210101008637C777BF26B6FC531
:102BD8003001672BFED7AB76CA82C97DFA5947F018
:102BE800ADD4A2AF9CA472C0B7FD9326363FF7CCF4
:102BF80034A5E5F171D8311504C723C31896059A91
:102C0800071280E2EB27B27509832C1A1B6E5AA0B3
:102C1800523BD6B329E32F8453D100ED20FCB15B9E
:102C28006ACBBE394A4C58CFD0EFAAFB434D338507
:102C380045F9027F503C9FA851A3408F929D38F5DB
:102C4800BCB6DA2110FFF3D2CD0C13EC5F97441712
:102C5800C4A77E3D645D197360814FDC222A908889
:102C680046EEB814DE5E0BDBE0323A0A4906245C15
:102C7800C2D3AC629195E479E7C8376D8DD54EA97A
:102C88006C56F4EA657AAE08BA78252E1CA6B4C646
:102C9800E8DD741F4BBD8B8A703EB5664803F60E9F
:102CA800613557B986C11D9EE1F8981169D98E948E
:102CB8009B1E87E9CE5528DF8CA1890DBFE64268A7
:102CC80041992D0FB054BB1652096AD53036A53834
:102CD800BF40A39E81F3D7FB7CE339829B2FFF87FC
:102CE800348E4344C4DEE9CB547B9432A6C2233DE0
:102CF800EE4C950B42FAC34E082EA16628D924B291
:102D0800765BA2496D8BD12572F8F66486689816B1
:102D1800D4A45CCC5D65B6926C704850FDEDB9DA10
:102D28005E154657A78D9D8490D8AB008CBCD30AFE
:102D3800F7E45805B8B34506D02C1E8FCA3F0F02DA
:102D4800C1AFBD0301138A6B3A9111414F67DCEAA9
:102D580097F2CFCEF0B4E67396AC7422E7AD358522
:102D6800E2F937E81C75DF6E47F11A711D29C5892C
:102D78006FB7620EAA18BE1BFC563E4BC6D279200E
:102D88009ADBC0FE78CD5AF41FDDA8338807C73117
:102D9800B11210592780EC5F60517FA919B54A0D0F
:102DA8002DE57A9F93C99CEFA0E03B4DAE2AF5B084
:102DB800C8EBBB3C83539961172B047EBA77D626A0
:102DC800E169146355210C7D000D0A0704010E0BFF
:102DD8000805020F0C09060300050A0F04090E0373
:102DE800080D02070C01060B01000000020000009C
:102DF800040000000800000010000000200000008F
:102E080040000000800000001B00000036000000A9
:102E180000020406080A0C0E10121416181A1C1EBA
:102E280020222426282A2C2E30323436383A3C3EAA
:102E380040424446484A4C4E50525456585A5C5E9A
:102E480060626466686A6C6E70727476787A7C7E8A
:102E580080828486888A8C8E90929496989A9C9E7A
:102E6800A0A2A4A6A8AAACAEB0B2B4B6B8BABCBE6A
:102E7800C0C2C4C6C8CACCCED0D2D4D6D8DADCDE5A
:102E8800E0E2E4E6E8EAECEEF0F2F4F6F8FAFCFE4A
:102E98001B191F1D131117150B090F0D030107052A
:102EA8003B393F3D333137352B292F2D232127251A
:102EB8005B595F5D535157554B494F4D434147450A
:102EC8007B797F7D737177756B696F6D63616765FA
:102ED8009B999F9D939197958B898F8D83818785EA
:102EE800BBB9BFBDB3B1B7B5ABA9AFADA3A1A7A5DA
:102EF800DBD9DFDDD3D1D7D5CBC9CFCDC3C1C7C5CA
:102F0800FBF9FFFDF3F1F7F5EBE9EFEDE3E1E7E5B9
:102F18000004080C1014181C2024282C3034383CC9
:102F28004044484C5054585C6064686C7074787CB9
:102F38008084888C9094989CA0A4A8ACB0B4B8BCA9
:102F4800C0C4C8CCD0D4D8DCE0E4E8ECF0F4F8FC99
:102F58001B1F13170B0F03073B3F33372B2F232759
:102F68005B5F53574B4F43477B7F73776B6F636749
:102F78009B9F93978B8F8387BBBFB3B7ABAFA3A739
:102F8800DBDFD3D7CBCFC3C7FBFFF3F7EBEFE3E729
:102F980036323E3A26222E2A16121E1A06020E0A29
:102FA80076727E7A66626E6A56525E5A46424E4A19
:102FB800B6B2BEBAA6A2AEAA96929E9A86828E8A09
:102FC800F6F2FEFAE6E2EEEAD6D2DEDAC6C2CECAF9
:102FD8002D2925213D3935310D0905011D191511F9
:102FE8006D6965617D7975714D4945415D595551E9
:102FF800ADA9A5A1BDB9B5B18D8985819D999591D9
:10300800EDE9E5E1FDF9F5F1CDC9C5C1DDD9D5D1C8
:1030180000081018202830384048505860687078E8
:1030280080889098A0A8B0B8C0C8D0D8E0E8F0F8D8
:103038001B130B033B332B235B534B437B736B6398
:103048009B938B83BBB3ABA3DBD3CBC3FBF3EBE388
:10305800363E262E161E060E767E666E565E464E48
:10306800B6BEA6AE969E868EF6FEE6EED6DEC6CE38
:103078002D253D350D051D156D657D754D455D5538
:10308800ADA5BDB58D859D95EDE5FDF5CDC5DDD528
:103098006C647C744C445C542C243C340C041C1428
:1030A800ECE4FCF4CCC4DCD4ACA4BCB48C849C9418
:1030B800777F676F575F474F373F272F171F070FD8
:1030C800F7FFE7EFD7DFC7CFB7BFA7AF979F878FC8
:1030D8005A524A427A726A621A120A023A322A2208
:1030E800DAD2CAC2FAF2EAE29A928A82BAB2AAA2F8
:1030F80041495159616971790109111921293139F8
:10310800C1C9D1D9E1E9F1F981899199A1A9B1B9E7
:103118000000190132021AC64BC71B6833EEDF03E1
:103128006404E00E348D81EF4C7108C8F8691CC145
:103138007DC21DB5F9B9276A4DE4A6729AC9097806
:10314800652F8A05210FE12412F082453593DA8E26
:10315800968FDBBD36D0CE94135CD2F140468338CF
:1031680066DDFD30BF068B62B325E2982288911098
:103178007E6E48C3A3B61E423A6B2854FA853DBA00
:103188002B790A159B9F5ECA4ED4ACE5F373A757FB
:10319800AF58A850F4EAD6744FAEE9D5E7E6ADE8E3
:1031A8002CD7757AEB160BF559CB5FB09CA951A0BB
:1031B8007F0CF66F17C449ECD8431F2DA4767BB754
:1031C800CCBB3E5AFB60B1863B52A16CAA55299DE7
:1031D80097B2879061BEDCFCBC95CFCD373F5BD101
:1031E8005339843C41A26D47142A9E5D56F2D3ABF5
:1031F800441192D923202E89B47CB8267799E3A567
:10320800674AEDDEC531FE180D638C80C0F7700784
:103218000103050F113355FF1A2E7296A1F81335C5
:103228005FE13848D87395A4F702060A1E2266AAF9
:10323800E5345CE43759EB266ABED97090ABE631C9
:1032480053F5040C143C44CC4FD168B8D36EB2CDBE
:103258004CD467A9E03B4DD762A6F10818287888B6
:10326800839EB9D06BBDDC7F8198B3CE49DB769A5B
:10327800B5C457F9103050F00B1D2769BBD661A3B0
:10328800FE192B7D8792ADEC2F7193AEE92060A0DB
:10329800FB163A4ED26DB7C25DE73256FA153F417A
:1032A800C35EE23D47C940C05BED2C749CBFDA7534
:1032B8009FBAD564ACEF2A7E829DBCDF7A8E898066
:1032C8009BB6C158E82365AFEA256FB1C843C5541A
:1032D800FC1F2163A5F407091B2D7799B0CB46CABB
:1032E80045CF4ADE798B8691A8E33E42C651F30E5C
:1032F80012365AEE297B8D8C8F8A8594A7F20D178A
:10330800394BDD7C8497A2FD1C246CB4C752F601AE
:103318000C05060B09000A0D030E0F08040701022D
:103328002B7E151628AED2A6ABF7158809CF4F3CD1
:0833380000000000000000008D
:0833400014DDFF7F0100000015
:08334800B501000800000000BF
:083350009101000800000000DB
:083358000A00000000093D001D
:0400000508002AB510
:00000001FF
