:1000000040080020C1050000BD050000BD0500003E
:1000100000000000000000000000000000000000E0
:10002000000000000000000000000000BD0500000E
:100030000000000000000000BD050000BD0500003C
:10004000BD050000BD050000BD050000BD050000A8
:10005000BD050000BD050000BD050000BD05000098
:10006000BD050000BD050000BD050000BD05000088
:10007000BD050000BD050000BD050000BD05000078
:10008000BD050000BD050000BD050000BD05000068
:10009000BD050000BD050000BD050000BD05000058
:1000A000BD050000BD050000BD050000BD05000048
:1000B000BD050000BD050000BD050000BD05000038
:1000C000BD050000BD050000BD050000BD05000028
:1000D000BD050000BD050000BD050000BD05000018
:1000E000BD050000BD050000BD050000BD05000008
:1000F000BD05000010B540F20804C2F200042378E8
:1001000063B940F20003C0F200032BB143F2DC10EC
:10011000C0F2000000E000BF0123237010BDC04604
:1001200040F20003C0F2000310B54BB140F20C01E5
:1001300043F2DC10C2F20001C0F2000000E000BF98
:1001400010BDC04600207047027843781202134366
:10015000014A0020138070470000002010B5024BB8
:100160009847002010BDC0467506000010B5024B30
:100170009847002010BDC0464506000010B5040099
:10018000094B9847094B98472000094B9847094B62
:1001900098472000084B9847220010217220074BF7
:1001A0009847002010BDC04641060000AD05000084
:1001B0005D0600009D050000430600008D03000061
:1001C00070B50D4B0400002598470C4B1B88AB42C3
:1001D00009D820000A4B9847220010217220094BB1
:1001E0009847002070BD084B98472000074B984760
:1001F000074B98470135E8E7410600000000002062
:10020000430600008D030000AD0500005D06000000
:100210009D05000030B585B010221749174B684680
:100220009847174B9847174B9847174B9847174BCA
:1002300098476846164B9847164B9847164C10211E
:10024000164A6B20A0471021154A7020A0470021B4
:10025000144A7820A047144D01231221134A6D201F
:10026000A8470221124A7320A04710216620114A94
:10027000A047114B9847FCE7720F0000510F000098
:10028000A1040000F50400008D0500002D0600000B
:100290004506000075030000650300006D010000C5
:1002A0007D01000045010000350300005D010000F4
:1002B00049010000C1010000C9030000012070478E
:1002C00070B50024844201DB00201FE04D780B78DC
:1002D0002E00303EF6B2092E0CD816551D00303DCA
:1002E000EEB2092E15D8135D2D011D4315550134AD
:1002F0000231E7E72E00413E052E02D8373D155565
:10030000ECE72E00613E052E01D9012070BD573D5E
:10031000F5E71D00413D052D05D8373B155D1B0157
:100320002B431355E3E71D00613D052DEDD8573BE9
:10033000F4E70000F0B5094E0500346801200F2CE9
:100340000BDCBF2909D8064F2001C555C0194160F3
:1003500082600373002001343460F0BD240100206A
:100360002400002010B50023014CA04710BDC0465A
:100370003503000010B500217620024A024B984751
:1003800010BDC046BD02000065030000F7B50E00B9
:1003900014000F270A4DA847A3190193019B9C4203
:1003A00002D10A20A847F7BD2378064E1B09F05C4E
:1003B000A847237801343B40F05CA847EEE7C046ED
:1003C00065050000830F0000F0B52F4C2F4DA544AC
:1003D0000024A8472E4B1968A14204DC09D140F241
:1003E0004C239D44F0BD2B4B2201D218127882423F
:1003F0003ED10127274B2401E618337B3B4216D020
:1004000000236A461372A847C8226B469B181870CF
:10041000A847C9226B469B18187002AA38001E4BC9
:1004200032A998470028DAD16B461B7A7360002600
:10043000184BE3185B685B00B3421BD8A8470A2837
:1004400001D00D28CBD1134B02AAE4186568124BDA
:10045000280032A998470028C1D1A368E9B202A8B0
:10046000984701AA107001217A200C4B9847B6E7F3
:100470000134B1E7A8470A28B1D00D28AFD032AB7C
:10048000F0540136D4E7C046B4FDFFFF7905000003
:100490002401002024000020C10200008D03000080
:1004A0000F4B10B598470A220E4B9A821A69D20751
:1004B000FCD51A699207FCD407210B4A136A8B43B7
:1004C00013628022094B12049A609A61084B063924
:1004D0001A798A431A71022219780A431A7010BDD8
:1004E0001D06000000100040001C004000320040CB
:1004F000002800420323134A1370134A1370332257
:10050000124B1A700423124AD1690B43D361402263
:10051000104B1A60104B114A1A60114A9A8102223C
:1005200019680A431A60C02292025A60DA695207B7
:10053000FCD4DA699207FCD4C022920259681142B5
:10054000FCD07047503200405132004038320040F9
:1005500000080040AC1C00400004004204001040B1
:10056000A9EAFFFF034B1A7ED207FCD580B218859B
:100570007047C04600040042034B1A7E5207FCD568
:10058000188DC0B27047C046000400428022024B62
:10059000D2039A605A617047003200408022024BB9
:1005A000D2035A617047C046003200408022024B9D
:1005B000D2039A617047C04600320040FEE7000057
:1005C0000D4A0E4B10B59A4202D00D498B420ED304
:1005D00000210C4B0C4A93420CD37F220B4B9343CC
:1005E0000B4A93600B4B98470B4B9847FEE701CAA9
:1005F00001C3EBE702C3EEE7DC310000000000209E
:100600000800002008000020400200200000000038
:1006100000ED00E0010F000015020000014B024A4E
:100620001A6070470400002000093D0010B5024820
:10063000024B984710BDC0462801002079060000F3
:100640007047704710B5010080220248024B98475E
:1006500010BDC046280100208D06000010B5020024
:1006600003000121014C0248A04710BDE10E00002B
:10067000280100207047000010B540F21812002138
:10068000014B984710BDC046630F0000F7B504004A
:10069000C02A09D040F200139A4242D0F63B802A89
:1006A00003D0202040423BE00C232360230008338A
:1006B0001D005209920063608A188A4233D1226871
:1006C0000C2A3DD00E2A6AD000200A2A28D1200008
:1006D000A8308446FF25554E554CD96818680A0A3B
:1006E0002A40A75C04CE42407A400F0EE75D58686E
:1006F0003F047A400F002F40E75D3F067A400F0C21
:100700002F40E75D3F027A401A61424098685A6183
:1007100042409A614A40DA6110336345DDD10020DE
:10072000FEBD0E23C1E748788E78000236043043C0
:100730000E783043CE7804313606304301C5BCE72D
:100740002000C8308446FF25384E394C5969186856
:100750000A0A2A40A75C04CE42407A400F0EE75DA9
:1007600058683F047A400F002F40E75D3F067A400B
:100770000F0C2F40E75D3F027A409A614240986833
:10078000DA614240D8681A62424018695A624240AF
:100790009A624A40DA6218336345D7D1BFE7200036
:1007A000FF25E830214E22490190DC691868220AB1
:1007B0002A408F5C04CE42407A40270ECF5D5868B5
:1007C0003F047A4027002F40CF5D3F067A40270C38
:1007D0002F40CF5D3F027A401A62424098685A62C9
:1007E0004240D8689A62424017002F40CF5D186996
:1007F000DA627840170ECF5D3F064740100A284066
:10080000120C085C2A408A5C0002784012044240C4
:1008100058691A63424098695A6342409A63624039
:10082000DA63019A20339342BFD178E79420000025
:10083000930F00000B00F0B50C7849784668090268
:1008400021439C7895B024042143DC785D7B240609
:100850000C4331681F7B6140029159791C79090270
:1008600021439C792D0224042143DC792F43240663
:100870000C437168350061400391597A1C7A090272
:1008800021439C7A103524042143DC7A0195240607
:100890000C43B1684C40997B09040F43D97BF36842
:1008A00009063943594003685B10013B0593FF2358
:1008B0000198B04F0069B04D069002980E0E184096
:1008C0008000B6007659C059019D70402E68AB4F2C
:1008D0007040039EAA4D360A1E40B600F659270CFA
:1008E0001F40BF007F597040784004901840079027
:1008F0000398029F9F4D1840800040593F0E9E4D27
:10090000BF007F592E007840019F9C4D7F68784042
:10091000270A1F40BF007F59994D78400F0C1F4098
:10092000BF007F59039D7840070A1F4008972D0E8E
:100930002700AD00AC461F408E4DBF007F593500EB
:1009400066467659240E7740019EA400B66877402B
:100950000E0A35001D40AE00884D194076598900B9
:100960007740029E360C35001D40AE00844D76590E
:1009700077403E0C35001D402E007E4D49597E4D7E
:1009800064597E4D6140019CE4686140029C240AE8
:100990001C40A40064597A4D6140039C240C1C4007
:1009A000A4006459019D61406D690C0E039505001A
:1009B0001D4009953D0A1D400A950D0C1D400B95E3
:1009C000049D2D0E0C95019DAD690D953D001D40BA
:1009D0000E950D0A1D400F95049D19402D0C1D40CC
:1009E00012910499AC46050E1095090A019D194013
:1009F000ED690491000C05991840119513903F0E74
:100A000000295DDC5F4B08995D5C07992D02585CFD
:100A100006994840995D4540185D09046940000603
:100A20004140099C0A98039D185C1C5D00026C40C3
:100A300044400B980E9D185C0D9E000444400C9899
:100A40005D5D185C7540000644400F98119E185C6F
:100A5000000245406046185C000445401098185C50
:100A6000000645401298185C7040049E9E5D360258
:100A70007040139E9E5D36047040DE5D0300080AE0
:100A800011705070080C90700020090ED170210A6E
:100A90005171210C36069171290A73405172290C4B
:100AA0009172190A14711572240E2D0E137351735D
:100AB000190C1B0ED471D5729173D37315B0F0BDA0
:100AC00007992C48890009582B48A4002458069DF2
:100AD0004C406C40089D2948A9000958284D4C40BD
:100AE000B1004959099D4C400294224CA9000C9D2B
:100AF0000C592149A8004158039D4C406C400A9D67
:100B00001E48A90009580B9D4C40A9001C4D060029
:100B1000495925004D4003950E9D164CA800109D87
:100B200004591548A90009580D9D4C406C400F9D73
:100B30001048A90065468959BF004C40A900104DD6
:100B40004959129D4C40019920310191A900085842
:100B500009490B4D7958484011994840049989003A
:100B60008959414013988000405941400598013807
:100B700005909DE694100000941C00009414000061
:100B800094180000930F00000B00F0B50C78497822
:100B90004668090221439C7897B024042143DC78FD
:100BA0005D7B24060C4331681F7B61405C790291B8
:100BB000197924020C4399792D0209040C43D9793F
:100BC0002F4309062143746835004C40597A039439
:100BD0001C7A090221439C7A103524042143DC7AD3
:100BE000019524060C43B1684C40997B0494090498
:100BF0000F43D97BF36809063943594003680591CF
:100C00005B10013B0793FF23039C0199260EAF4C19
:100C10000869210008900298AD4F18408000B60086
:100C20003659C059019C70402668059C7040260AC0
:100C30001E40A84CB6003659049C7040260C1E403D
:100C4000A54CB6003659019C704006901840029E93
:100C500009900598360E18408000B6007658C059A5
:100C6000049D7040E6689B4C70402E0A1E40B60002
:100C70003659994C7040039E360C1E40B6003659CA
:100C80007040060A1E400A962E00059D1E402C0E3E
:100C9000A400A4460C006146B6000959F6594E401E
:100CA000019989684E400399090A0C001C40A10073
:100CB000884C095925000C00029974400E0C1E4006
:100CC0008549B60076586640310C0C001C400B94E8
:100CD000039C1C40A100049CC959240E7B4FA40016
:100CE000E4594C4001994F68029967400C0A1C4036
:100CF000A4006459059D7C40290C774F1940019D43
:100D00008900C9596F69614003970F001F4004971C
:100D1000069F0C0E3F0A1F400597070C1F400C97BB
:100D2000370E0D97AF690E9737001F400F970F0AC8
:100D30001F401097069F360A3F0C1F40BC46070E07
:100D40001197090CEF69194018401E401297139033
:100D5000149615910699090E0691079900295EDCF3
:100D60005E4B0A990E9E5D5C09992D02585C0899AC
:100D700048400B994540595C185D090469400006DC
:100D800048400599039D5C5C04992402595C6940C4
:100D900061400C9C1C5D240461400D9C1C5D24067C
:100DA0006140109C1D5D0F9C2D021C5D74406C40C9
:100DB00065465D5D149E2D046C40119D9E5D5D5DDC
:100DC00036022D066540139C1C5D7C407440159EC8
:100DD0009E5D36047440069E9E5D2300040A1070DA
:100DE0005470040C000ED070080A5071080C9071F9
:100DF00000201171090E3606D171290A7340517213
:100E0000290C9172190A157213732D0E5173190C56
:100E10001B0E9470D5729173D37317B0F0BD0999FE
:100E20002B482A4E8900A4000958A4592A4D4C4049
:100E300008990D984C400A9980008E0025490F00B2
:100E40007158224E4C400B998059890049594C40A9
:100E5000049902941E4C890009594140039841406D
:100E600005988000C05941400C988000405941408D
:100E700003910F98119980008900895904590E989F
:100E80004C404440109881006046C9594C40810054
:100E9000495913984C4001998000203101910699DD
:100EA00004948E000A49415808483058414012982D
:100EB000414014988600F0594140159880004059EF
:100EC000414007980591013807909DE6BC2D000030
:100ED000BC210000BC250000BC290000BC20000093
:100EE00010B50C0011001A00012C02D1024B9847DA
:100EF00010BD024BFBE7C04635080000890B00001F
:100F000070B500250E4C0F4BE41AA410A54209D170
:100F1000002502F053F90C4C0C4BE41AA410A54226
:100F200007D170BD074AAB009B181B689847013575
:100F3000ECE7064AAB009B181B6898470135EEE7C3
:100F4000C8310000C8310000CC310000C8310000B9
:100F5000002310B59A4200D110BDCC5CC4540133BB
:100F6000F8E703008218934200D1704719700133EB
:100F7000F9E72B7E151628AED2A6ABF7158809CF58
:100F80004F3C003031323334353637383941424303
:100F9000444546637C777BF26B6FC53001672BFE5F
:100FA000D7AB76CA82C97DFA5947F0ADD4A2AF9CBF
:100FB000A472C0B7FD9326363FF7CC34A5E5F17196
:100FC000D8311504C723C31896059A071280E2EB9F
:100FD00027B27509832C1A1B6E5AA0523BD6B3292F
:100FE000E32F8453D100ED20FCB15B6ACBBE394ABC
:100FF0004C58CFD0EFAAFB434D338545F9027F50C3
:101000003C9FA851A3408F929D38F5BCB6DA2110C1
:10101000FFF3D2CD0C13EC5F974417C4A77E3D6459
:101020005D197360814FDC222A908846EEB814DE89
:101030005E0BDBE0323A0A4906245CC2D3AC629113
:1010400095E479E7C8376D8DD54EA96C56F4EA65FD
:101050007AAE08BA78252E1CA6B4C6E8DD741F4BFC
:10106000BD8B8A703EB5664803F60E613557B9866A
:10107000C11D9EE1F8981169D98E949B1E87E9CE17
:101080005528DF8CA1890DBFE6426841992D0FB02C
:1010900054BB1600C66363A5F87C7C84EE77779911
:1010A000F67B7B8DFFF2F20DD66B6BBDDE6F6FB101
:1010B00091C5C5546030305002010103CE6767A965
:1010C000562B2B7DE7FEFE19B5D7D7624DABABE6AD
:1010D000EC76769A8FCACA451F82829D89C9C9401B
:1010E000FA7D7D87EFFAFA15B25959EB8E4747C959
:1010F000FBF0F00B41ADADECB3D4D4675FA2A2FD21
:1011000045AFAFEA239C9CBF53A4A4F7E472729648
:101110009BC0C05B75B7B7C2E1FDFD1C3D9393AEAC
:101120004C26266A6C36365A7E3F3F41F5F7F70269
:1011300083CCCC4F6834345C51A5A5F4D1E5E534BB
:10114000F9F1F108E2717193ABD8D8736231315380
:101150002A15153F0804040C95C7C752462323657A
:101160009DC3C35E30181828379696A10A05050F4F
:101170002F9A9AB50E070709241212361B80809BFE
:10118000DFE2E23DCDEBEB264E2727697FB2B2CD01
:10119000EA75759F1209091B1D83839E582C2C74B8
:1011A000341A1A2E361B1B2DDC6E6EB2B45A5AEE50
:1011B0005BA0A0FBA45252F6763B3B4DB7D6D6615E
:1011C0007DB3B3CE5229297BDDE3E33E5E2F2F7141
:1011D00013848497A65353F5B9D1D1680000000059
:1011E000C1EDED2C40202060E3FCFC1F79B1B1C8BB
:1011F000B65B5BEDD46A6ABE8DCBCB4667BEBED90B
:101200007239394B944A4ADE984C4CD4B05858E85D
:1012100085CFCF4ABBD0D06BC5EFEF2A4FAAAAE546
:10122000EDFBFB16864343C59A4D4DD766333355C8
:10123000118585948A4545CFE9F9F9100402020623
:10124000FE7F7F81A05050F0783C3C44259F9FBAA0
:101250004BA8A8E3A25151F35DA3A3FE804040C078
:10126000058F8F8A3F9292AD219D9DBC7038384882
:10127000F1F5F50463BCBCDF77B6B6C1AFDADA7559
:101280004221216320101030E5FFFF1AFDF3F30E19
:10129000BFD2D26D81CDCD4C180C0C142613133552
:1012A000C3ECEC2FBE5F5FE1359797A2884444CC36
:1012B0002E17173993C4C45755A7A7F2FC7E7E8218
:1012C0007A3D3D47C86464ACBA5D5DE73219192BBD
:1012D000E6737395C06060A0198181989E4F4FD1CD
:1012E000A3DCDC7F44222266542A2A7E3B9090AB0A
:1012F0000B8888838C4646CAC7EEEE296BB8B8D3F4
:101300002814143CA7DEDE79BC5E5EE2160B0B1DD2
:10131000ADDBDB76DBE0E03B64323256743A3A4ECA
:10132000140A0A1E924949DB0C06060A4824246C5A
:10133000B85C5CE49FC2C25DBDD3D36E43ACACEF7E
:10134000C46262A6399191A8319595A4D3E4E4379B
:10135000F279798BD5E7E7328BC8C8436E373759B6
:10136000DA6D6DB7018D8D8CB1D5D5649C4E4ED2A2
:1013700049A9A9E0D86C6CB4AC5656FAF3F4F4075A
:10138000CFEAEA25CA6565AFF47A7A8E47AEAEE950
:10139000100808186FBABAD5F07878884A25256FF2
:1013A0005C2E2E72381C1C2457A6A6F173B4B4C749
:1013B00097C6C651CBE8E823A1DDDD7CE874749CB8
:1013C0003E1F1F21964B4BDD61BDBDDC0D8B8B8617
:1013D0000F8A8A85E07070907C3E3E4271B5B5C43C
:1013E000CC6666AA904848D806030305F7F6F601CE
:1013F0001C0E0E12C26161A36A35355FAE5757F9F4
:1014000069B9B9D01786869199C1C1583A1D1D276F
:10141000279E9EB9D9E1E138EBF8F8132B9898B3E1
:1014200022111133D26969BBA9D9D970078E8E896F
:10143000339494A72D9B9BB63C1E1E221587879242
:10144000C9E9E92087CECE49AA5555FF502828780A
:10145000A5DFDF7A038C8C8F59A1A1F809898980D7
:101460001A0D0D1765BFBFDAD7E6E631844242C6D2
:10147000D06868B8824141C3299999B05A2D2D7717
:101480001E0F0F117BB0B0CBA85454FC6DBBBBD664
:101490002C16163AA5C6636384F87C7C99EE7777A0
:1014A0008DF67B7B0DFFF2F2BDD66B6BB1DE6F6FFD
:1014B0005491C5C55060303003020101A9CE676761
:1014C0007D562B2B19E7FEFE62B5D7D7E64DABABA9
:1014D0009AEC7676458FCACA9D1F82824089C9C917
:1014E00087FA7D7D15EFFAFAEBB25959C98E474755
:1014F0000BFBF0F0EC41ADAD67B3D4D4FD5FA2A21D
:10150000EA45AFAFBF239C9CF753A4A496E4727244
:101510005B9BC0C0C275B7B71CE1FDFDAE3D9393A8
:101520006A4C26265A6C3636417E3F3F02F5F7F765
:101530004F83CCCC5C683434F451A5A534D1E5E5B7
:1015400008F9F1F193E2717173ABD8D8536231317C
:101550003F2A15150C0804045295C7C76546232376
:101560005E9DC3C328301818A13796960F0A05054B
:10157000B52F9A9A090E0707362412129B1B8080FA
:101580003DDFE2E226CDEBEB694E2727CD7FB2B2FD
:101590009FEA75751B1209099E1D838374582C2CB4
:1015A0002E341A1A2D361B1BB2DC6E6EEEB45A5A4C
:1015B000FB5BA0A0F6A452524D763B3B61B7D6D65A
:1015C000CE7DB3B37B5229293EDDE3E3715E2F2F3D
:1015D00097138484F5A6535368B9D1D10000000055
:1015E0002CC1EDED604020201FE3FCFCC879B1B1B7
:1015F000EDB65B5BBED46A6A468DCBCBD967BEBE07
:101600004B723939DE944A4AD4984C4CE8B0585859
:101610004A85CFCF6BBBD0D02AC5EFEFE54FAAAA42
:1016200016EDFBFBC5864343D79A4D4D55663333C4
:1016300094118585CF8A454510E9F9F9060402021F
:1016400081FE7F7FF0A0505044783C3CBA259F9F9C
:10165000E34BA8A8F3A25151FE5DA3A3C080404074
:101660008A058F8FAD3F9292BC219D9D487038387E
:1016700004F1F5F5DF63BCBCC177B6B675AFDADA55
:1016800063422121302010101AE5FFFF0EFDF3F315
:101690006DBFD2D24C81CDCD14180C0C352613134E
:1016A0002FC3ECECE1BE5F5FA2359797CC88444432
:1016B000392E17175793C4C4F255A7A782FC7E7E14
:1016C000477A3D3DACC86464E7BA5D5D2B321919B9
:1016D00095E67373A0C0606098198181D19E4F4FC9
:1016E0007FA3DCDC664422227E542A2AAB3B909006
:1016F000830B8888CA8C464629C7EEEED36BB8B8F0
:101700003C28141479A7DEDEE2BC5E5E1D160B0BCE
:1017100076ADDBDB3BDBE0E0566432324E743A3AC6
:101720001E140A0ADB9249490A0C06066C48242456
:10173000E4B85C5C5D9FC2C26EBDD3D3EF43ACAC7A
:10174000A6C46262A8399191A431959537D3E4E497
:101750008BF2797932D5E7E7438BC8C8596E3737B2
:10176000B7DA6D6D8C018D8D64B1D5D5D29C4E4E9E
:10177000E049A9A9B4D86C6CFAAC565607F3F4F456
:1017800025CFEAEAAFCA65658EF47A7AE947AEAE4C
:1017900018100808D56FBABA88F078786F4A2525EE
:1017A000725C2E2E24381C1CF157A6A6C773B4B445
:1017B0005197C6C623CBE8E87CA1DDDD9CE87474B4
:1017C000213E1F1FDD964B4BDC61BDBD860D8B8B13
:1017D000850F8A8A90E07070427C3E3EC471B5B538
:1017E000AACC6666D89048480506030301F7F6F6CA
:1017F000121C0E0EA3C261615F6A3535F9AE5757F0
:10180000D069B9B9911786865899C1C1273A1D1D6B
:10181000B9279E9E38D9E1E113EBF8F8B32B9898DD
:1018200033221111BBD2696970A9D9D989078E8E6B
:10183000A7339494B62D9B9B223C1E1E921587873E
:1018400020C9E9E94987CECEFFAA55557850282806
:101850007AA5DFDF8F038C8CF859A1A180098989D3
:10186000171A0D0DDA65BFBF31D7E6E6C6844242CE
:10187000B8D06868C3824141B0299999775A2D2D13
:10188000111E0F0FCB7BB0B0FCA85454D66DBBBB60
:101890003A2C161663A5C6637C84F87C7799EE779C
:1018A0007B8DF67BF20DFFF26BBDD66B6FB1DE6FF9
:1018B000C55491C5305060300103020167A9CE675D
:1018C0002B7D562BFE19E7FED762B5D7ABE64DABA5
:1018D000769AEC76CA458FCA829D1F82C94089C913
:1018E0007D87FA7DFA15EFFA59EBB25947C98E4751
:1018F000F00BFBF0ADEC41ADD467B3D4A2FD5FA219
:10190000AFEA45AF9CBF239CA4F753A47296E47240
:10191000C05B9BC0B7C275B7FD1CE1FD93AE3D93A4
:10192000266A4C26365A6C363F417E3FF702F5F761
:10193000CC4F83CC345C6834A5F451A5E534D1E5B3
:10194000F108F9F17193E271D873ABD83153623178
:10195000153F2A15040C0804C75295C72365462372
:10196000C35E9DC31828301896A13796050F0A0547
:101970009AB52F9A07090E0712362412809B1B80F6
:10198000E23DDFE2EB26CDEB27694E27B2CD7FB2F9
:10199000759FEA75091B1209839E1D832C74582CB0
:1019A0001A2E341A1B2D361B6EB2DC6E5AEEB45A48
:1019B000A0FB5BA052F6A4523B4D763BD661B7D656
:1019C000B3CE7DB3297B5229E33EDDE32F715E2F39
:1019D0008497138453F5A653D168B9D10000000051
:1019E000ED2CC1ED20604020FC1FE3FCB1C879B1B3
:1019F0005BEDB65B6ABED46ACB468DCBBED967BE03
:101A0000394B72394ADE944A4CD4984C58E8B05855
:101A1000CF4A85CFD06BBBD0EF2AC5EFAAE54FAA3E
:101A2000FB16EDFB43C586434DD79A4D33556633C0
:101A30008594118545CF8A45F910E9F9020604021B
:101A40007F81FE7F50F0A0503C44783C9FBA259F98
:101A5000A8E34BA851F3A251A3FE5DA340C0804070
:101A60008F8A058F92AD3F929DBC219D384870387A
:101A7000F504F1F5BCDF63BCB6C177B6DA75AFDA51
:101A80002163422110302010FF1AE5FFF30EFDF311
:101A9000D26DBFD2CD4C81CD0C14180C133526134A
:101AA000EC2FC3EC5FE1BE5F97A2359744CC88442E
:101AB00017392E17C45793C4A7F255A77E82FC7E10
:101AC0003D477A3D64ACC8645DE7BA5D192B3219B5
:101AD0007395E67360A0C060819819814FD19E4FC5
:101AE000DC7FA3DC226644222A7E542A90AB3B9002
:101AF00088830B8846CA8C46EE29C7EEB8D36BB8EC
:101B0000143C2814DE79A7DE5EE2BC5E0B1D160BCA
:101B1000DB76ADDBE03BDBE0325664323A4E743AC2
:101B20000A1E140A49DB9249060A0C06246C482452
:101B30005CE4B85CC25D9FC2D36EBDD3ACEF43AC76
:101B400062A6C46291A8399195A43195E437D3E493
:101B5000798BF279E732D5E7C8438BC837596E37AE
:101B60006DB7DA6D8D8C018DD564B1D54ED29C4E9A
:101B7000A9E049A96CB4D86C56FAAC56F407F3F452
:101B8000EA25CFEA65AFCA657A8EF47AAEE947AE48
:101B900008181008BAD56FBA7888F078256F4A25EA
:101BA0002E725C2E1C24381CA6F157A6B4C773B441
:101BB000C65197C6E823CBE8DD7CA1DD749CE874B0
:101BC0001F213E1F4BDD964BBDDC61BD8B860D8B0F
:101BD0008A850F8A7090E0703E427C3EB5C471B534
:101BE00066AACC6648D8904803050603F601F7F6C6
:101BF0000E121C0E61A3C261355F6A3557F9AE57EC
:101C0000B9D069B986911786C15899C11D273A1D67
:101C10009EB9279EE138D9E1F813EBF898B32B98D9
:101C20001133221169BBD269D970A9D98E89078E67
:101C300094A733949BB62D9B1E223C1E879215873A
:101C4000E920C9E9CE4987CE55FFAA552878502802
:101C5000DF7AA5DF8C8F038CA1F859A189800989CF
:101C60000D171A0DBFDA65BFE631D7E642C68442CA
:101C700068B8D06841C3824199B029992D775A2D0F
:101C80000F111E0FB0CB7BB054FCA854BBD66DBB5C
:101C9000163A2C166363A5C67C7C84F8777799EE98
:101CA0007B7B8DF6F2F20DFF6B6BBDD66F6FB1DEF5
:101CB000C5C5549130305060010103026767A9CE59
:101CC0002B2B7D56FEFE19E7D7D762B5ABABE64DA1
:101CD00076769AECCACA458F82829D1FC9C940890F
:101CE0007D7D87FAFAFA15EF5959EBB24747C98E4D
:101CF000F0F00BFBADADEC41D4D467B3A2A2FD5F15
:101D0000AFAFEA459C9CBF23A4A4F753727296E43C
:101D1000C0C05B9BB7B7C275FDFD1CE19393AE3DA0
:101D200026266A4C36365A6C3F3F417EF7F702F55D
:101D3000CCCC4F8334345C68A5A5F451E5E534D1AF
:101D4000F1F108F9717193E2D8D873AB3131536274
:101D500015153F2A04040C08C7C75295232365466E
:101D6000C3C35E9D181828309696A13705050F0A43
:101D70009A9AB52F0707090E1212362480809B1BF2
:101D8000E2E23DDFEBEB26CD2727694EB2B2CD7FF5
:101D900075759FEA09091B1283839E1D2C2C7458AC
:101DA0001A1A2E341B1B2D366E6EB2DC5A5AEEB444
:101DB000A0A0FB5B5252F6A43B3B4D76D6D661B752
:101DC000B3B3CE7D29297B52E3E33EDD2F2F715E35
:101DD000848497135353F5A6D1D168B9000000004D
:101DE000EDED2CC120206040FCFC1FE3B1B1C879AF
:101DF0005B5BEDB66A6ABED4CBCB468DBEBED967FF
:101E000039394B724A4ADE944C4CD4985858E8B051
:101E1000CFCF4A85D0D06BBBEFEF2AC5AAAAE54F3A
:101E2000FBFB16ED4343C5864D4DD79A33335566BC
:101E3000858594114545CF8AF9F910E90202060417
:101E40007F7F81FE5050F0A03C3C44789F9FBA2594
:101E5000A8A8E34B5151F3A2A3A3FE5D4040C0806C
:101E60008F8F8A059292AD3F9D9DBC213838487076
:101E7000F5F504F1BCBCDF63B6B6C177DADA75AF4D
:101E80002121634210103020FFFF1AE5F3F30EFD0D
:101E9000D2D26DBFCDCD4C810C0C14181313352646
:101EA000ECEC2FC35F5FE1BE9797A2354444CC882A
:101EB0001717392EC4C45793A7A7F2557E7E82FC0C
:101EC0003D3D477A6464ACC85D5DE7BA19192B32B1
:101ED000737395E66060A0C0818198194F4FD19EC1
:101EE000DCDC7FA3222266442A2A7E549090AB3BFE
:101EF0008888830B4646CA8CEEEE29C7B8B8D36BE8
:101F000014143C28DEDE79A75E5EE2BC0B0B1D16C6
:101F1000DBDB76ADE0E03BDB323256643A3A4E74BE
:101F20000A0A1E144949DB9206060A0C24246C484E
:101F30005C5CE4B8C2C25D9FD3D36EBDACACEF4372
:101F40006262A6C49191A8399595A431E4E437D38F
:101F500079798BF2E7E732D5C8C8438B3737596EAA
:101F60006D6DB7DA8D8D8C01D5D564B14E4ED29C96
:101F7000A9A9E0496C6CB4D85656FAACF4F407F34E
:101F8000EAEA25CF6565AFCA7A7A8EF4AEAEE94744
:101F900008081810BABAD56F787888F025256F4AE6
:101FA0002E2E725C1C1C2438A6A6F157B4B4C7733D
:101FB000C6C65197E8E823CBDDDD7CA174749CE8AC
:101FC0001F1F213E4B4BDD96BDBDDC618B8B860D0B
:101FD0008A8A850F707090E03E3E427CB5B5C47130
:101FE0006666AACC4848D89003030506F6F601F7C2
:101FF0000E0E121C6161A3C235355F6A5757F9AEE8
:10200000B9B9D06986869117C1C158991D1D273A63
:102010009E9EB927E1E138D9F8F813EB9898B32BD5
:10202000111133226969BBD2D9D970A98E8E890763
:102030009494A7339B9BB62D1E1E223C8787921536
:10204000E9E920C9CECE49875555FFAA28287850FE
:10205000DFDF7AA58C8C8F03A1A1F85989898009CB
:102060000D0D171ABFBFDA65E6E631D74242C684C6
:102070006868B8D04141C3829999B0292D2D775A0B
:102080000F0F111EB0B0CB7B5454FCA8BBBBD66D58
:1020900016163A2C010000000200000004000000A7
:1020A00008000000100000002000000040000000B8
:1020B000800000001B0000003600000052096AD5B5
:1020C0003036A538BF40A39E81F3D7FB7CE339822D
:1020D0009B2FFF87348E4344C4DEE9CB547B94327C
:1020E000A6C2233DEE4C950B42FAC34E082EA166C4
:1020F00028D924B2765BA2496D8BD12572F8F6649B
:1021000086689816D4A45CCC5D65B6926C70485015
:10211000FDEDB9DA5E154657A78D9D8490D8AB00CA
:102120008CBCD30AF7E45805B8B34506D02C1E8FF3
:10213000CA3F0F02C1AFBD0301138A6B3A9111412F
:102140004F67DCEA97F2CFCEF0B4E67396AC742218
:10215000E7AD3585E2F937E81C75DF6E47F11A7196
:102160001D29C5896FB7620EAA18BE1BFC563E4BCF
:10217000C6D279209ADBC0FE78CD5AF41FDDA83391
:102180008807C731B11210592780EC5F60517FA9D1
:1021900019B54A0D2DE57A9F93C99CEFA0E03B4D00
:1021A000AE2AF5B0C8EBBB3C83539961172B047E74
:1021B000BA77D626E169146355210C7D51F4A750F6
:1021C0007E4165531A17A4C33A275E963BAB6BCB8F
:1021D0001F9D45F1ACFA58AB4BE303932030FA5501
:1021E000AD766DF688CC7691F5024C254FE5D7FC9F
:1021F000C52ACBD726354480B562A38FDEB15A49B4
:1022000025BA1B6745EA0E985DFEC0E1C32F750233
:10221000814CF0128D4697A36BD3F9C6038F5FE70D
:1022200015929C95BF6D7AEB955259DAD4BE832DE9
:10223000587421D349E069298EC9C84475C2896A96
:10224000F48E797899583E6B27B971DDBEE14FB6AF
:10225000F088AD17C920AC667DCE3AB463DF4A186A
:10226000E51A31829751336062537F45B16477E05C
:10227000BB6BAE84FE81A01CF9082B947048685893
:102280008F45FD1994DE6C87527BF8B7AB73D3236F
:10229000724B02E2E31F8F576655AB2AB2EB280759
:1022A0002FB5C20386C57B9AD33708A5302887F29D
:1022B00023BFA5B202036ABAED16825C8ACF1C2B3B
:1022C000A779B492F307F2F04E69E2A165DAF4CD92
:1022D0000605BED5D134621FC4A6FE8A342E539D96
:1022E000A2F355A0058AE132A4F6EB750B83EC3915
:1022F0004060EFAA5E719F06BD6E10513E218AF9C3
:1023000096DD063DDD3E05AE4DE6BD4691548DB5EC
:1023100071C45D050406D46F605015FF1998FB2445
:10232000D6BDE997894043CC67D99E77B0E842BDD6
:1023300007898B88E7195B3879C8EEDBA17C0A47EF
:102340007C420FE9F8841EC90000000009808683E2
:10235000322BED481E1170AC6C5A724EFD0EFFFB15
:102360000F8538563DAED51E362D39270A0FD96454
:10237000685CA6219B5B54D124362E3A0C0A67B1C7
:102380009357E70FB4EE96D21B9B919E80C0C54F2A
:1023900061DC20A25A774B691C121A16E293BA0A22
:1023A000C0A02AE53C22E043121B171D0E090D0BAD
:1023B000F28BC7AD2DB6A8B9141EA9C857F119855F
:1023C000AF75074CEE99DDBBA37F60FDF701269F3B
:1023D0005C72F5BC44663BC55BFB7E348B4329765F
:1023E000CB23C6DCB6EDFC68B8E4F163D731DCCAB8
:1023F000426385101397224084C61120854A247DAC
:10240000D2BB3DF8AEF93211C729A16D1D9E2F4BED
:10241000DCB230F30D8652EC77C1E3D02BB3166CEF
:10242000A970B999119448FA47E96422A8FC8CC4B0
:10243000A0F03F1A567D2CD8223390EF87494EC723
:10244000D938D1C18CCAA2FE98D40B36A6F581CF5B
:10245000A57ADE28DAB78E263FADBFA42C3A9DE4DC
:102460005078920D6A5FCC9B547E4662F68D13C203
:1024700090D8B8E82E39F75E82C3AFF59F5D80BE75
:1024800069D0937C6FD52DA9CF2512B3C8AC993BE9
:1024900010187DA7E89C636EDB3BBB7BCD267809DB
:1024A0006E5918F4EC9AB701834F9AA8E6956E65B9
:1024B000AAFFE67E21BCCF08EF15E8E6BAE79BD974
:1024C0004A6F36CEEA9F09D429B07CD631A4B2AF88
:1024D0002A3F2331C6A5943035A266C0744EBC375E
:1024E000FC82CAA6E090D0B033A7D815F104984A70
:1024F00041ECDAF77FCD500E1791F62F764DD68D41
:1025000043EFB04DCCAA4D54E49604DF9ED1B5E321
:102510004C6A881BC12C1FB84665517F9D5EEA043A
:10252000018C355DFA877473FB0B412EB3671D5A1E
:1025300092DBD252E91056336DD647139AD7618C8D
:1025400037A10C7A59F8148EEB133C89CEA927EEEB
:10255000B761C935E11CE5ED7A47B13C9CD2DF5942
:1025600055F2733F1814CE7973C737BF53F7CDEACE
:102570005FFDAA5BDF3D6F147844DB86CAAFF38151
:10258000B968C43E3824342CC2A3405F161DC37200
:10259000BCE2250C283C498BFF0D954139A80171FF
:1025A000080CB3DED8B4E49C6456C1907BCB846144
:1025B000D532B670486C5C74D0B857425051F4A70D
:1025C000537E4165C31A17A4963A275ECB3BAB6B8B
:1025D000F11F9D45ABACFA58934BE303552030FAFD
:1025E000F6AD766D9188CC7625F5024CFC4FE5D79B
:1025F000D7C52ACB802635448FB562A349DEB15AB0
:102600006725BA1B9845EA0EE15DFEC002C32F752F
:1026100012814CF0A38D4697C66BD3F9E7038F5F09
:102620009515929CEBBF6D7ADA9552592DD4BE83E5
:10263000D35874212949E069448EC9C86A75C28992
:1026400078F48E796B99583EDD27B971B6BEE14FAB
:1026500017F088AD66C920ACB47DCE3A1863DF4A66
:1026600082E51A31609751334562537FE0B1647758
:1026700084BB6BAE1CFE81A094F9082B587048688F
:10268000198F45FD8794DE6CB7527BF823AB73D36B
:10269000E2724B0257E31F8F2A6655AB07B2EB2855
:1026A000032FB5C29A86C57BA5D33708F230288799
:1026B000B223BFA5BA02036A5CED16822B8ACF1C37
:1026C00092A779B4F0F307F2A14E69E2CD65DAF48E
:1026D000D50605BE1FD134628AC4A6FE9D342E5392
:1026E000A0A2F35532058AE175A4F6EB390B83EC11
:1026F000AA4060EF065E719F51BD6E10F93E218ABF
:102700003D96DD06AEDD3E05464DE6BDB591548DE8
:102710000571C45D6F0406D4FF605015241998FB41
:1027200097D6BDE9CC8940437767D99EBDB0E842D2
:102730008807898B38E7195BDB79C8EE47A17C0AEB
:10274000E97C420FC9F8841E0000000083098086DE
:1027500048322BEDAC1E11704E6C5A72FBFD0EFF11
:10276000560F85381E3DAED527362D39640A0FD950
:1027700021685CA6D19B5B543A24362EB10C0A67C3
:102780000F9357E7D2B4EE969E1B9B914F80C0C526
:10279000A261DC20695A774B161C121A0AE293BA1E
:1027A000E5C0A02A433C22E01D121B170B0E090DA9
:1027B000ADF28BC7B92DB6A8C8141EA98557F1195B
:1027C0004CAF7507BBEE99DDFDA37F609FF7012637
:1027D000BC5C72F5C544663B345BFB7E768B43295B
:1027E000DCCB23C668B6EDFC63B8E4F1CAD731DCB4
:1027F00010426385401397222084C6117D854A24A8
:10280000F8D2BB3D11AEF9326DC729A14B1D9E2FE9
:10281000F3DCB230EC0D8652D077C1E36C2BB316EB
:1028200099A970B9FA1194482247E964C4A8FC8CAC
:102830001AA0F03FD8567D2CEF223390C787494E1F
:10284000C1D938D1FE8CCAA23698D40BCFA6F58157
:1028500028A57ADE26DAB78EA43FADBFE42C3A9DD8
:102860000D5078929B6A5FCC62547E46C2F68D13FF
:10287000E890D8B85E2E39F7F582C3AFBE9F5D8071
:102880007C69D093A96FD52DB3CF25123BC8AC99E5
:10289000A710187D6EE89C637BDB3BBB09CD2678D7
:1028A000F46E591801EC9AB7A8834F9A65E6956EB5
:1028B0007EAAFFE60821BCCFE6EF15E8D9BAE79B70
:1028C000CE4A6F36D4EA9F09D629B07CAF31A4B284
:1028D000312A3F2330C6A594C035A26637744EBC5A
:1028E000A6FC82CAB0E090D01533A7D84AF104986C
:1028F000F741ECDA0E7FCD502F1791F68D764DD63D
:102900004D43EFB054CCAA4DDFE49604E39ED1B51D
:102910001B4C6A88B8C12C1F7F466551049D5EEA36
:102920005D018C3573FA87742EFB0B415AB3671D1A
:102930005292DBD233E91056136DD6478C9AD76189
:102940007A37A10C8E59F81489EB133CEECEA927E7
:1029500035B761C9EDE11CE53C7A47B1599CD2DF3E
:102960003F55F273791814CEBF73C737EA53F7CDCA
:102970005B5FFDAA14DF3D6F867844DB81CAAFF34D
:102980003EB968C42C3824345FC2A34072161DC3FC
:102990000CBCE2258B283C4941FF0D957139A801FB
:1029A000DE080CB39CD8B4E4906456C1617BCB8440
:1029B00070D532B674486C5C42D0B857A75051F409
:1029C00065537E41A4C31A175E963A276BCB3BAB87
:1029D00045F11F9D58ABACFA03934BE3FA552030F9
:1029E0006DF6AD76769188CC4C25F502D7FC4FE597
:1029F000CBD7C52A44802635A38FB5625A49DEB1AC
:102A00001B6725BA0E9845EAC0E15DFE7502C32F2B
:102A1000F012814C97A38D46F9C66BD35FE7038F05
:102A20009C9515927AEBBF6D59DA9552832DD4BEE1
:102A300021D35874692949E0C8448EC9896A75C28E
:102A40007978F48E3E6B995871DD27B94FB6BEE1A7
:102A5000AD17F088AC66C9203AB47DCE4A1863DF62
:102A60003182E51A336097517F45625377E0B16454
:102A7000AE84BB6BA01CFE812B94F908685870488B
:102A8000FD198F456C8794DEF8B7527BD323AB7367
:102A900002E2724B8F57E31FAB2A66552807B2EB51
:102AA000C2032FB57B9A86C508A5D33787F2302895
:102AB000A5B223BF6ABA0203825CED161C2B8ACF33
:102AC000B492A779F2F0F307E2A14E69F4CD65DA8A
:102AD000BED50605621FD134FE8AC4A6539D342E8E
:102AE00055A0A2F3E132058AEB75A4F6EC390B830D
:102AF000EFAA40609F065E711051BD6E8AF93E21BB
:102B0000063D96DD05AEDD3EBD464DE68DB59154E4
:102B10005D0571C4D46F040615FF6050FB2419983D
:102B2000E997D6BD43CC89409E7767D942BDB0E8CE
:102B30008B8807895B38E719EEDB79C80A47A17CE7
:102B40000FE97C421EC9F8840000000086830980DA
:102B5000ED48322B70AC1E11724E6C5AFFFBFD0E0D
:102B600038560F85D51E3DAE3927362DD9640A0F4C
:102B7000A621685C54D19B5B2E3A243667B10C0ABF
:102B8000E70F935796D2B4EE919E1B9BC54F80C022
:102B900020A261DC4B695A771A161C12BA0AE2931A
:102BA0002AE5C0A0E0433C22171D121B0D0B0E09A5
:102BB000C7ADF28BA8B92DB6A9C8141E198557F157
:102BC000074CAF75DDBBEE9960FDA37F269FF70133
:102BD000F5BC5C723BC544667E345BFB29768B4357
:102BE000C6DCCB23FC68B6EDF163B8E4DCCAD731B0
:102BF0008510426322401397112084C6247D854AA4
:102C00003DF8D2BB3211AEF9A16DC7292F4B1D9EE5
:102C100030F3DCB252EC0D86E3D077C1166C2BB3E7
:102C2000B999A97048FA1194642247E98CC4A8FCA8
:102C30003F1AA0F02CD8567D90EF22334EC787491B
:102C4000D1C1D938A2FE8CCA0B3698D481CFA6F553
:102C5000DE28A57A8E26DAB7BFA43FAD9DE42C3AD4
:102C6000920D5078CC9B6A5F4662547E13C2F68DFB
:102C7000B8E890D8F75E2E39AFF582C380BE9F5D6D
:102C8000937C69D02DA96FD512B3CF25993BC8ACE1
:102C90007DA71018636EE89CBB7BDB3B7809CD26D3
:102CA00018F46E59B701EC9A9AA8834F6E65E695B1
:102CB000E67EAAFFCF0821BCE8E6EF159BD9BAE76C
:102CC00036CE4A6F09D4EA9F7CD629B0B2AF31A480
:102CD00023312A3F9430C6A566C035A2BC37744E56
:102CE000CAA6FC82D0B0E090D81533A7984AF10468
:102CF000DAF741EC500E7FCDF62F1791D68D764D39
:102D0000B04D43EF4D54CCAA04DFE496B5E39ED119
:102D1000881B4C6A1FB8C12C517F4665EA049D5E32
:102D2000355D018C7473FA87412EFB0B1D5AB36716
:102D3000D25292DB5633E91047136DD6618C9AD785
:102D40000C7A37A1148E59F83C89EB1327EECEA9E3
:102D5000C935B761E5EDE11CB13C7A47DF599CD23A
:102D6000733F55F2CE79181437BF73C7CDEA53F7C6
:102D7000AA5B5FFD6F14DF3DDB867844F381CAAF49
:102D8000C43EB968342C3824405FC2A3C372161DF8
:102D9000250CBCE2498B283C9541FF0D017139A8F7
:102DA000B3DE080CE49CD8B4C190645684617BCB3C
:102DB000B670D5325C74486C5742D0B8F4A7505105
:102DC0004165537E17A4C31A275E963AAB6BCB3B83
:102DD0009D45F11FFA58ABACE303934B30FA5520F5
:102DE000766DF6ADCC769188024C25F5E5D7FC4F93
:102DF0002ACBD7C53544802662A38FB5B15A49DEA8
:102E0000BA1B6725EA0E9845FEC0E15D2F7502C327
:102E10004CF012814697A38DD3F9C66B8F5FE70301
:102E2000929C95156D7AEBBF5259DA95BE832DD4DD
:102E30007421D358E0692949C9C8448EC2896A758A
:102E40008E7978F4583E6B99B971DD27E14FB6BEA3
:102E500088AD17F020AC66C9CE3AB47DDF4A18635E
:102E60001A3182E551336097537F45626477E0B150
:102E70006BAE84BB81A01CFE082B94F94868587087
:102E800045FD198FDE6C87947BF8B75273D323AB63
:102E90004B02E2721F8F57E355AB2A66EB2807B24D
:102EA000B5C2032FC57B9A863708A5D32887F23091
:102EB000BFA5B223036ABA0216825CEDCF1C2B8A2F
:102EC00079B492A707F2F0F369E2A14EDAF4CD6586
:102ED00005BED50634621FD1A6FE8AC42E539D348A
:102EE000F355A0A28AE13205F6EB75A483EC390B09
:102EF00060EFAA40719F065E6E1051BD218AF93EB7
:102F0000DD063D963E05AEDDE6BD464D548DB591E0
:102F1000C45D057106D46F045015FF6098FB241939
:102F2000BDE997D64043CC89D99E7767E842BDB0CA
:102F3000898B8807195B38E7C8EEDB797C0A47A1E3
:102F4000420FE97C841EC9F80000000080868309D6
:102F50002BED48321170AC1E5A724E6C0EFFFBFD09
:102F60008538560FAED51E3D2D3927360FD9640A48
:102F70005CA621685B54D19B362E3A240A67B10CBB
:102F800057E70F93EE96D2B49B919E1BC0C54F801E
:102F9000DC20A261774B695A121A161C93BA0AE216
:102FA000A02AE5C022E0433C1B171D12090D0B0EA1
:102FB0008BC7ADF2B6A8B92D1EA9C814F119855753
:102FC00075074CAF99DDBBEE7F60FDA301269FF72F
:102FD00072F5BC5C663BC544FB7E345B4329768B53
:102FE00023C6DCCBEDFC68B6E4F163B831DCCAD7AC
:102FF0006385104297224013C61120844A247D85A0
:10300000BB3DF8D2F93211AE29A16DC79E2F4B1DE1
:10301000B230F3DC8652EC0DC1E3D077B3166C2BE3
:1030200070B999A99448FA11E9642247FC8CC4A8A4
:10303000F03F1AA07D2CD8563390EF22494EC78717
:1030400038D1C1D9CAA2FE8CD40B3698F581CFA64F
:103050007ADE28A5B78E26DAADBFA43F3A9DE42CD0
:1030600078920D505FCC9B6A7E4662548D13C2F6F7
:10307000D8B8E89039F75E2EC3AFF5825D80BE9F69
:10308000D0937C69D52DA96F2512B3CFAC993BC8DD
:10309000187DA7109C636EE83BBB7BDB267809CDCF
:1030A0005918F46E9AB701EC4F9AA883956E65E6AD
:1030B000FFE67EAABCCF082115E8E6EFE79BD9BA68
:1030C0006F36CE4A9F09D4EAB07CD629A4B2AF317C
:1030D0003F23312AA59430C6A266C0354EBC377452
:1030E00082CAA6FC90D0B0E0A7D8153304984AF164
:1030F000ECDAF741CD500E7F91F62F174DD68D7635
:10310000EFB04D43AA4D54CC9604DFE4D1B5E39E15
:103110006A881B4C2C1FB8C165517F465EEA049D2E
:103120008C355D01877473FA0B412EFB671D5AB312
:10313000DBD25292105633E9D647136DD7618C9A81
:10314000A10C7A37F8148E59133C89EBA927EECEDF
:1031500061C935B71CE5EDE147B13C7AD2DF599C36
:10316000F2733F5514CE7918C737BF73F7CDEA53C2
:10317000FDAA5B5F3D6F14DF44DB8678AFF381CA45
:1031800068C43EB924342C38A3405FC21DC37216F4
:10319000E2250CBC3C498B280D9541FFA8017139F3
:1031A0000CB3DE08B4E49CD856C19064CB84617B38
:1031B00032B670D56C5C7448B85742D0F8B5C0468A
:1031C000F8BC08BC9E46704721010000F8B5C04617
:0C31D000F8BC08BC9E467047F5000000EB
:0831DC000A00000000093D009B
:00000001FF
