:1000000000800020CD070000C9070000C9070000DC
:10001000C9070000C9070000C9070000C9070000A0
:10002000C9070000C9070000C9070000C907000090
:10003000C9070000C9070000C9070000C907000080
:10004000C9070000C9070000C9070000C907000070
:10005000C9070000C9070000C9070000C907000060
:10006000C9070000C9070000C9070000C907000050
:10007000C9070000C9070000C9070000C907000040
:10008000C9070000C9070000C9070000C907000030
:10009000C9070000C9070000C9070000C907000020
:1000A000C9070000C9070000C9070000C907000010
:1000B000C9070000C9070000C9070000C907000000
:1000C00010B5064C2378002B07D1054B002B02D02E
:1000D000044800E000BF0123237010BD7801002018
:1000E00000000000D0080000044B10B5002B03D026
:1000F0000349044800E000BF10BDC04600000000F6
:100100007C010020D0080000164B002B00D1144BBE
:100110009D46402292029A1A924600218B460F4633
:100120001348144A121A00F0A8FB0F4B002B00D002
:1001300098470E4B002B00D0984700200021040068
:100140000D000D48002802D00C4800E000BF00F070
:1001500067FB2000290000F05DF800F04BFBC04673
:1001600000000800008000200000000000000000E7
:100170007801002060030020000000000000000063
:100180000020704702784378002012021343014A8E
:10019000138070470000002010B500F014FB002011
:1001A00010BD10B500F005FB002010BD10B5040017
:1001B00000F007FB00F0DEF9200000F0FEFA00F08E
:1001C000D1F9200000F0FEFA22001021722000F088
:1001D000C9F8002010BD000070B50025040000F033
:1001E000F0FA0B4B1B88AB4209D8200000F0EAFA6A
:1001F00022001021722000F0B5F8002070BD00F040
:10020000B9F9200000F0D9FA013500F0ABF9E8E7C0
:10021000000000201FB510221949684600F024FB99
:1002200000F02AF900F03EF900F08AF900F0C0FA77
:10023000684600F0BEFA00F08BF81021114A6B20DE
:1002400000F080F81021104A702000F07BF80021A7
:100250000E4A782000F076F8012312210C4A6D2016
:1002600000F058F802210B4A732000F06BF81021BF
:100270006620094A00F066F800F090F8FCE7C046F6
:10028000A8080000A3010000AD01000081010000EA
:100290009901000085010000D9010000012070478C
:1002A00070B50024844201DB00201FE04D780B78FC
:1002B0002E00303EF6B2092E0CD816551D00303DEA
:1002C000EEB2092E15D8135D2D011D4315550134CD
:1002D0000231E7E72E00413E052E02D8373D155585
:1002E000ECE72E00613E052E01D9012070BD573D7F
:1002F000F5E71D00413D052D05D8373B155D1B0178
:100300002B431355E3E71D00613D052DEDD8573B09
:10031000F4E70000F0B5094E0500346801200F2C09
:100320000BDCBF2909D8064827013D54C01941609C
:1003300082600373002001343460F0BD9402002019
:100340009401002010B50023FFF7E4FF10BD00006A
:1003500010B50021024A7620FFF7F4FF10BDC04619
:100360009D020000F8B50D0014000F2700F0D4F82E
:100370006519AC4203D10A2000F0CEF8F8BD23780D
:10038000054E1B09F05C00F0C7F8237801343B40B0
:10039000F05C00F0C1F8ECE7B9080000F0B52F4CB4
:1003A000A54400F0C3F82E4B2E491A6800239A4248
:1003B00004DC07D193239B009D44F0BD1C010C5D20
:1003C00084423FD10127274D1C012E19337B3B422C
:1003D00018D000236A46137200F0A8F8C8226B46B2
:1003E0009B18187000F0A2F8C9226B469B18187071
:1003F00002AA380032A9FFF753FF0028DAD16B4672
:100400001B7A736000262B195B685B00B3421BD814
:1004100000F08CF80A2801D00D28CBD12C19656882
:1004200002AA280032A9FFF73BFF0028C2D1E9B297
:10043000A36802A8984701AA107001217A20FFF74B
:1004400091FFB7E70133B2E700F070F80A28B1D0A6
:100450000D28AFD032ABF0540136D4E7B4FDFFFF26
:100460009402002094010020014A024B9A607047D8
:100470000000000000ED00E010B503220749084B22
:1004800008005A6201321A660C681442FCD0082235
:1004900001681142FCD002225A6710BD90400E4004
:1004A00000400E400123144A032011680B431360DF
:1004B0000423124A11680B431360A022104B52010F
:1004C0001A6080220F4BD2001A6000220E4B0F4997
:1004D0001A6059600E495961052158679A670D4A9B
:1004E000D9601268024201D1D960FDE710231A4099
:1004F000002AFDD17047C046C0400E40B0400E40BB
:10050000C8800840CC800840000001400510000071
:10051000FF0A0000100001404022034B19691142FC
:10052000FCD058637047C046000001408022034B56
:1005300019691142FCD0D869C0B27047000001406F
:100540000423064A11680B43136080224021044BA8
:10055000D2045A63DA6B8A43DA637047B0400E40C4
:10056000008008404021024AD36B8B43D36370471D
:10057000008008404023024AD16B0B43D36370478D
:1005800000800840F7B5224B224A1B681100180072
:1005900010301C780C705C784C709C788C70DC7817
:1005A0000433CC7004318342F3D104211A4801ABE7
:1005B000160000240C36375DE7540134042CFAD1C0
:1005C000013C21420FD19D781E78455D865D5C78A7
:1005D0005D70124DDF78DE708E08045DAE5DC75D24
:1005E00074409F701C7014781E780131744014742C
:1005F0005E785478744054749E78947874409474FF
:10060000DE78D47804327440D4732C29D0D1F7BD6D
:10061000980200209C0200200D0000200200002013
:1006200070B50B4B0B4A1B6800011D00801810357C
:10063000190000220C78865C013274400C70013184
:10064000042AF7D104330430AB42F1D170BDC04667
:100650005C0300209C02002010B5094B0948196872
:100660000A00143110321300103B1C78045D1C701A
:1006700004339342F9D15A1C8A42F4D110BDC046CA
:100680005C0300200D0000200D4B1B6859795A783F
:100690005970597A5971597B5A735972997A9A7863
:1006A0009970997B9A729A799971D97B9A73DA7851
:1006B000D970D97AD973D979DA71D9727047C046AD
:1006C0005C030020C20903001B2050435B0058401C
:1006D000C0B27047F0B587B00020FFF7A1FF012539
:1006E000FFF7BAFFFFF7D0FF214B1C682300103340
:1006F00005932378E7780193019863785840029333
:10070000A37803937B401E0004934640FFF7DAFF73
:10071000019B58407040039B207002985840FFF79F
:10072000D1FF029B5840704060700498FFF7CAFFE9
:10073000039B58407040A07001987840FFF7C2FFBB
:1007400078404640059BE67004349C42D1D1280095
:100750000135EDB2FFF764FF0A2DC1D1FFF77CFF31
:10076000FFF792FF2800FFF75BFF07B0F0BDC04620
:100770005C0300200023CA5CC2540133102BFAD161
:100780007047000010B5024B1860FFF7FBFE10BD6C
:100790009802002010B5044B010018600348FFF7D1
:1007A000E9FFFFF797FF10BD5C0300204C0300201A
:1007B000704710B5FFF7E6FF10BD10B5FFF7EAFF71
:1007C00010BD704770477047FEE7000010B5FFF797
:1007D0004BFE054B0549064A8B4201D3FFF794FCBB
:1007E00001CA01C3F8E7C0460000002078010020DC
:1007F000DC080000084B10B50400002B02D00021DB
:1008000000E000BF054B1868836A002B00D09847B2
:10081000200000F03BF8C04600000000CC080000BB
:1008200070B500260C4D0D4C641BA410A64209D1D6
:10083000002600F02DF80A4D0A4C641BA410A642B5
:1008400005D170BDB300EB5898470136EEE7B30011
:10085000EB5898470136F2E7700100207001002044
:100860007001002074010020002310B59A4200D1CD
:1008700010BDCC5CC4540133F8E7030082189342E6
:1008800000D1704719700133F9E70000FEE7C04658
:10089000F8B5C046F8BC08BC9E467047F8B5C046DF
:1008A000F8BC08BC9E4670472B7E151628AED2A613
:1008B000ABF7158809CF4F3C003031323334353631
:1008C00037383941424344454600000010010020BA
:0408D0000000000024
:0808D40034F8FF7F0100000071
:1008DC000A008D01020408102040801B36637C77CF
:1008EC007BF26B6FC53001672BFED7AB76CA82C922
:1008FC007DFA5947F0ADD4A2AF9CA472C0B7FD935A
:10090C0026363FF7CC34A5E5F171D8311504C72351
:10091C00C31896059A071280E2EB27B27509832C4F
:10092C001A1B6E5AA0523BD6B329E32F8453D10025
:10093C00ED20FCB15B6ACBBE394A4C58CFD0EFAA44
:10094C00FB434D338545F9027F503C9FA851A34092
:10095C008F929D38F5BCB6DA2110FFF3D2CD0C1373
:10096C00EC5F974417C4A77E3D645D197360814F9B
:10097C00DC222A908846EEB814DE5E0BDBE0323ABD
:10098C000A4906245CC2D3AC629195E479E7C83776
:10099C006D8DD54EA96C56F4EA657AAE08BA7825F9
:1009AC002E1CA6B4C6E8DD741F4BBD8B8A703EB5F9
:1009BC00664803F60E613557B986C11D9EE1F8985D
:1009CC001169D98E949B1E87E9CE5528DF8CA1899D
:1009DC000DBFE6426841992D0FB054BB16000000C4
:1009EC0000000000000000000000000000000000FB
:1009FC0000000000000000000000000000000000EB
:100A0C0000000000000000000000000000000000DA
:100A1C0000000000000000000000000000000000CA
:100A2C0000000000000000000000000000000000BA
:100A3C0000000000000000000000000000000000AA
:080A4C00E9000000C1000000F8
:04000003000007CD25
:00000001FF
