:1000000000800120791700007717000077170000A3
:1000100077170000771700007717000077170000A8
:100020007717000077170000771700007717000098
:100030007717000077170000771700007717000088
:100040007717000077170000771700007717000078
:100050007717000077170000771700007717000068
:100060007717000077170000771700007717000058
:100070007717000077170000771700007717000048
:100080007717000077170000771700007717000038
:100090007717000077170000771700007717000028
:1000A0007717000077170000771700007717000018
:1000B0007717000077170000771700007717000008
:1000C00077170000771700007717000077170000F8
:1000D00077170000771700007717000077170000E8
:1000E00077170000771700007717000077170000D8
:1000F00077170000771700007717000077170000C8
:1001000077170000771700007717000077170000B7
:1001100077170000771700007717000077170000A7
:100120007717000077170000771700007717000097
:100130007717000010B5054C237833B9044B13B181
:10014000044800E000BF0123237010BD7C000020A4
:1001500000000000EC1B000008B5034B1BB1034975
:10016000034800E000BF08BD000000008000002040
:10017000EC1B0000154B002B08BF134B9D46A3F54D
:10018000803A00218B460F461348144A121A01F098
:100190004EFB0F4B002B00D098470E4B002B00D08E
:1001A00098470020002104000D000D48002802D0CF
:1001B0000C4800E000BF01F009FB2000290000F01E
:1001C0005DF801F0EFFA00BF000008000080012098
:1001D00000000000000000007C000020B0020020B1
:1001E0000000000000000000002070470278437803
:1001F000002043EA0223014A1380704700000020D8
:1002000008B501F0B7FA002008BD08B501F0A4FA5E
:10021000002008BD10B5044601F0AAFA00F0BEFAAD
:10022000204601F09FFA00F0B1FA204601F0A1FA51
:1002300022461021722000F0D3F8002010BD0000EB
:1002400070B50025044601F093FA0B4E3388AB429B
:1002500009D8204601F08DFA22461021722000F0C4
:10026000BFF8002070BD00F099FA204601F07AFA3C
:10027000013500F08BFAE9E7000000201FB56A465F
:1002800015461D4B03F110061446186859680833CB
:1002900003C4B3422246F7D100F0C6F900F030FAA9
:1002A00000F06EFA01F056FA284601F055FA00F017
:1002B0008FF81021114A6B2000F086F81021104AA7
:1002C000702000F081F800210E4A782000F07CF8C0
:1002D000012312210C4A6D2000F05AF802210B4A2A
:1002E000732000F071F810216620094A00F06CF8C4
:1002F00000F096F8FCE700BF5C1800000B0200005D
:1003000015020000E901000001020000ED010000FB
:100310004102000001207047F0B500234F1C8342CA
:1003200001DB002020E017F8135011F81340A5F16D
:100330003006F6B2092E0BD8D654A4F13005EEB231
:10034000092E14D8D45C44EA0514D4540133E6E7EA
:10035000A5F14106052E02D8373DD554EDE7A5F1AC
:100360006106052E01D90120F0BD573DF5E7A4F146
:100370004105052D02D8A4F13705E3E7A4F1610595
:10038000052DF0D8D55C573C45EA0414DDE70000A4
:10039000F0B50B4E34680F2C0FDCBF290DD8094F78
:1003A0004FEA041C07F80C00002007EB0415C5E910
:1003B000011201342B733460F0BD0120FCE700BF53
:1003C00098010020980000200023FFF7E1BF000003
:1003D00000217620014AFFF7F7BF00BF1503000098
:1003E000F8B514460E4600F0BFF90C4F651EC4F177
:1003F000010463199E4204DCBDE8F8400A2000F0C5
:10040000B3B915F8013F1B09F85C00F0ADF92B7882
:1004100003F00F03F85C00F0A7F9EAE76D1800009D
:100420002DE9F041ADF5127D00F0A4F92C4B2D49DA
:100430001A6800239A4204DC07D10DF5127DBDE84D
:10044000F0811C01645C84423ED1264D1E0105EB07
:100450000314237BDB0714D500238DF8083000F04C
:1004600089F98DF8C80000F085F902AA8DF8C90055
:1004700032A90120FFF750FF0028DED19DF8083097
:1004800063600024AF190DF1C8087B68B4EB430F1B
:100490001CD300F06FF90A2801D00D28CDD13544C6
:1004A0006C6802AA204632A9FFF736FF0028C4D1A3
:1004B000E1B2AB6802A8984701218DF8040001AAB7
:1004C0007A20FFF78DFFB8E70133B3E700F052F968
:1004D0000A28B2D00D28B0D004F808000134D4E7BF
:1004E0009801002098000020044B054A9A60D3F838
:1004F000882042F47002C3F88820704700ED00E0C5
:1005000000000000084B1B6F03F00703022B04D010
:10051000032B05D0012B05D0FEE7044B186870476C
:10052000034BFBE7034870470080004008000020B1
:100530000C000020002D310108B5FFF7E3FF054B4B
:100540001A6FC2F30132531CB0FBF3F0024B186078
:1005500008BD00BF00800040040000200048704734
:1005600000B4C404014B1868704700BF0C000020A1
:10057000014B1868704700BF08000020002070473A
:1005800000487047002D3101174B9868C0F30440B4
:100590000C2822D8DFE800F00921212121210717AA
:1005A00019211B1D1F00114870479B6803F0407301
:1005B000B3F1807F13D0B3F1007F12D00C4A002B2F
:1005C00008BF104670470B4870470B4870470B48F0
:1005D00070470B4870470B487047002070470A4827
:1005E00070470A48704700BF0040014A405DC6009E
:1005F00000093D000024F400C0EA210180BA8C010A
:100600000048E801005A620280841E0040420F0048
:100610004FF4004070474FF47A707047014B1868F0
:10062000704700BF1000002030B587B001A800F06F
:1006300027FD2A4B9B6DDB0318D4294A136823F44A
:10064000FF0323F4FE4343F4BC1343F4A06313609D
:1006500052F8043C23F4704343F4404342F8043C12
:1006600052F8043C43F4E06342F8043C9DF8053042
:10067000012B0FD19DF8043063B94FF000531B6874
:10068000184B1B68184B1B68184B1B68184B1B68D2
:10069000184B1B68184AD2F8803043F00303C2F8A5
:1006A0008030164B01AA03F11005144618685968EA
:1006B000083303C4AB422246F7D119889B782180C6
:1006C000A370012301A88DF8113000F041FC032133
:1006D000002000F02FFB07B030BD00BF00C000407D
:1006E00034C00040004000200080002000C00020F6
:1006F0000000012000400120008000408018000020
:1007000030B589B0012304220021022000F0D6FD7B
:10071000012200231146022000F0D0FD02220F4BDF
:100720000F4DC3F8C42502F58032C3F8BC2514224E
:1007300001ACC3F8AC250FCD0FC495E807004FF40A
:10074000E10384E807004FF41642064801A9CDE909
:10075000023200F02BFD09B030BD00BF00C00340E5
:1007600094180000008005400146014800F0A0BD3B
:1007700000800540014800F095BD00BF00800540A5
:10078000002304220321022000F098BD42F27003EE
:100790000821014AD150704700C0034041F2700364
:1007A0000821014AD150704700C0034038B5124BB0
:1007B0000546D3F820310C4603F00703013B032B19
:1007C00017D8DFE803F0020A0E12FFF7D1FE042368
:1007D00005B1286004B1237038BDFFF7C3FE0323C1
:1007E000F6E7FFF7D1FE0523F2E7FFF7C9FE022384
:1007F000EEE700231846EBE70080004037B50C46D3
:100800000021124A0191D2F88021054602F003022C
:10081000022A0ED0032A11D0012A14D101A8FFF711
:10082000C5FF0D230DB1019A2A6004B1237003B0F6
:1008300030BDFFF7A9FE05230190F3E7FFF7A0FE07
:1008400002230190EEE70B46ECE700BF008000407A
:1008500038B5104B0546D3F840310C4603F003037E
:10086000022B0BD0032B0DD0012B0FD1FFF7D0FEA5
:10087000082305B1286004B1237038BDFFF7CEFE10
:100880000723F6E7FFF7C7FE0923F2E70023184620
:10089000EFE700BF0080004038B5104B0546D3F8A5
:1008A00060310C4603F00303022B0BD0032B0DD059
:1008B000012B0FD1FFF7ACFE082305B1286004B16E
:1008C000237038BDFFF7AAFE0723F6E7FFF7A3FE64
:1008D0000923F2E700231846EFE700BF008000403D
:1008E00038B5134B0546D3F800320C4603F0070326
:1008F000013B032B18D8DFE803F0020A0E12FFF7C2
:1009000087FE082305B1286004B1237038BDFFF7C6
:1009100085FE0723F6E7FFF77EFE0923F2E7FFF7E0
:100920000BFE0C23800AEDE700231846EAE700BF20
:100930000080004038B5134B0546D3F808320C460A
:1009400003F00703013B032B18D8DFE803F0020A8A
:100950000E12FFF75DFE082305B1286004B1237075
:1009600038BDFFF75BFE0723F6E7FFF754FE0923C8
:10097000F2E7FFF7E1FD0C23800AEDE700231846BC
:10098000EAE700BF0080004038B5104B0546D3F8B9
:1009900040320C4603F00303022B0BD0032B0DD087
:1009A000012B0FD1FFF734FE082305B1286004B1F5
:1009B000237038BDFFF732FE0723F6E7FFF72BFE63
:1009C0000923F2E700231846EFE700BF008000404C
:1009D00038B5104B0546D3F800310C4603F003033D
:1009E000022B0BD0032B0DD0012B0FD1FFF7BAFD3B
:1009F000032305B1286004B1237038BDFFF70EFE54
:100A00000723F6E7FFF7BAFD0623F2E701230020EC
:100A1000EFE700BF0080004010B541F671320F4B88
:100A20000F4CD969DA639A68A04222F4401288BF59
:100A300042F480129A600B4A0B4CD2F81832A04252
:100A400023F0020388BF43F0020301F48031C2F8AF
:100A5000183211B10022014BDA6310BD00000340CF
:100A6000C017530200C0074080F0FA0208B5FFF734
:100A700075FDBDE80840FFF7CFBF0000032814D084
:100A800005D8012805D0022809D0002005E00E284D
:100A9000FBD1084B186FC0F3013001307047054B94
:100AA000D3F89000C0F30460F7E7024B186FC0F36F
:100AB0008020F2E70080004007B50023019324283E
:100AC00017D8DFE800F0131A1D262B353A3F4449AA
:100AD0004E5358661A3F1616441A262B26351A3FCF
:100AE00026663A3A3A3A262626494E00FFF70AFD8C
:100AF0000190019803B05DF804FBFFF71DFDF7E7D7
:100B0000FFF700FD02460220FFF7B8FFB2FBF0F04E
:100B1000EEE7FFF711FD02460320F5E7FFF70CFDB6
:100B200002460320FFF7AAFFB2FBF0F04008DFE720
:100B3000002101A8FFF762FEDBE7002101A8FFF713
:100B400035FED6E7002101A8FFF782FED1E700219C
:100B500001A8FFF7A1FECCE7002101A8FFF7C0FE26
:100B6000C7E7002101A8FFF7E5FEC2E7002101A8C1
:100B7000FFF72EFFBDE7094BD3F8803003F00303E6
:100B8000022BBAD0032B01D00020B1E7FFF7FCFC09
:100B9000AEE7002101A8FFF7F7FEAAE700800040BA
:100BA000032815D004D8012804D0022805D07047A6
:100BB0000E2815D1084600F02BB80A4A0139D2F8A0
:100BC000903023F0F85343EA0161C2F89010704767
:100BD000044A0139136F23F4806343EA81211167CA
:100BE000704700BF0080004002210320FFF7D8BFFC
:100BF00008B50120FFF760FFBDE8084003498842BF
:100C00008CBF022101210320FFF7CABF80F0FA0246
:100C100010B50446FFF72AFFFFF7E6FF074A601EFC
:100C2000136F23F4405343EA00301067FFF784FC4E
:100C3000FFF7F2FEBDE81040FFF7DABF008000408A
:100C400007B500238DF80730242822D8DFE800F00C
:100C500013212121212C32383E444A505669213833
:100C600021213E212121212C2138216932323232A9
:100C7000212121444A002E4B1B6F03F00703013B47
:100C8000032B06D8DFE803F00E020A0C04238DF8CC
:100C900007309DF8070003B05DF804FB0323F6E777
:100CA0000623F4E70223F2E700200DF10701FFF726
:100CB000A5FDEEE700200DF10701FFF777FDE8E75E
:100CC00000200DF10701FFF7C3FDE2E700200DF161
:100CD0000701FFF7E1FDDCE700200DF10701FFF759
:100CE000FFFDD6E700200DF10701FFF723FED0E757
:100CF00000200DF10701FFF76BFECAE70C4BD3F89C
:100D0000803003F00303022B03D0032B05D0002314
:100D1000BDE7FFF711FC0B23B9E7FFF735FC05230F
:100D2000B5E700200DF10701FFF72EFEB1E700BF88
:100D30000080004070B50C46242848D8DFE810F049
:100D4000250047004700470047005B006C007D001E
:100D50008E009F00B000C100D200E30047007D007C
:100D6000470047008E0047004700470047005B00F0
:100D700047007D004700E3006C006C006C006C00D5
:100D80004700470047009F00B0008B1E042B2FD860
:100D9000DFE803F02B1E032E280000250226FFF7B4
:100DA00065FEFFF721FF604A136F23F0070333430B
:100DB0001367FFF7C1FBFFF72FFEFFF719FF35B9E8
:100DC000032C04D142F228030121584AD15070BDAE
:100DD00041F228020121554B03269D6A9950C5F323
:100DE0004005DCE700250426D9E700250126D6E7E3
:100DF00000252E46D3E78C1EE4B20B2C8CBF0021BD
:100E00004B4B494A98BF195DD2F8803123F0030358
:100E10000B43C2F88031DAE78C1EE4B2032C8CBF9E
:100E20000021444B404A98BF195DD2F8203123F08D
:100E300007030B43C2F82031C9E7CC1FE4B2022CF0
:100E40008CBF00213C4B384A98BF195DD2F8403125
:100E500023F003030B43C2F84031B8E7CC1FE4B2E0
:100E6000022C8CBF0021354B2F4A98BF195DD2F858
:100E7000603123F003030B43C2F86031A7E7CC1FB6
:100E8000E4B2052C8CBF00212D4B274A98BF195D79
:100E9000D2F8003223F007030B43C2F8003296E782
:100EA000CC1FE4B2052C8CBF0021264B1E4A98BFF4
:100EB000195DD2F8083223F007030B43C2F8083259
:100EC00085E7CC1EE4B2042C8CBF00211E4B164AD1
:100ED00098BF195DD2F8003123F003030B43C2F829
:100EE000003174E705290CD00B2914BF0021022121
:100EF0000D4AD2F8803023F003030B43C2F8803050
:100F000065E70321F4E7CC1FE4B2022C8CBF00217B
:100F10000E4B054A98BF195DD2F8403223F0030307
:100F20000B43C2F8403252E70080004000C000404E
:100F3000C8180000D4180000D8180000D818000005
:100F4000DB180000DB180000E1180000D8180000D2
:100F5000F8B504460020FFF773FE03287ED045F65F
:100F60000E03444A0221C2F8803041F22803D150D6
:100F700042F228030121D150916D11F48031FBD14F
:100F8000637820781B0543EA0063A079394E034358
:100F9000E078B44643EA00432079657C43EA0033B5
:100FA000607943EA80131361237AE0791B0643EAF0
:100FB0008063E07A0343607A43EA0043A07A43EA1D
:100FC00000239361637B126A002B18BF0821207BEA
:100FD00022F00D0243EA020343EA800341EA0301DF
:100FE000A37B31624FEA4311E37B207C4FEA031776
:100FF00035D1B26A41EA070322F033021A4342F0C4
:1010000001021D4BB262DCF8582033EA0202FAD129
:10101000022241F228034CF80320164A936D5B002C
:10102000FCD41169A37821F4700141EA03511161E4
:1010300041F218034FF00041D15018B942F2280391
:101040000221D15025B942F228030121094AD15089
:10105000A37C1BB1074B094AC3F88020F8BDB36AD3
:1010600023F033032B430B433B4343EA4003B36278
:10107000EEE700BF00C0004003000140F1A7FFFF02
:10108000054B5B69C3F38512827003F03F021B0BB3
:1010900042700370704700BF00C007400D4B98427C
:1010A00008D1A3F50033C3F88411C36D43F0800366
:1010B000C3657047084B984204D1A3F51033C3F8B9
:1010C0009411F2E7054B984204BFA3F52033C3F80F
:1010D000A411EAE70080054000C00540000006407A
:1010E00070B5054616461C4619B90320FFF7E4FC07
:1010F0000146402C1BD003D8DCB1202C1BD070BD86
:10110000602CFCD1042306FB03F2560806EB4113C6
:10111000B3FBF2F3094A203B02EAC303AA6822F0B8
:101120006002AA60AA681443AC60EB61E7E706239B
:10113000E9E71023E7E70823E5E700BFF8FF7F00B2
:1011400041F204030122C25040F6AA6341F20502B3
:10115000436100238360C365C26042F248021049C4
:101160000361C361C36481500E4A8365904206D017
:101170000D49884203D001F5804188420BD190424D
:10118000036506D0084B984203D003F5804398428C
:1011900001D10023436542F204030122C25070478B
:1011A000FFFF01000080054000C0054038B50D4636
:1011B0000446FFF7C5FF41F204030122C250AB7C95
:1011C0001BB1836843F080438360EB7C1BB12046F6
:1011D000297DFFF763FF2A8A6B7B20461343EA8948
:1011E0001343E3602B7BD5E90112FFF779FF6B7D99
:1011F0001BB1A36843F48033A360AB7DEA7D1B077A
:10120000120502F4E00203F0E0431343A3652A7ED3
:10121000931E012B214B22D89C421CD003F5804306
:101220009C421AD003F580439C420CBF02234FF02E
:10123000FF3341F2AC5102205B0103F1804303F51F
:1012400070335850032A25D141F25C030422E25046
:101250002B78636138BD0023EBE70123E9E79C426B
:1012600014D00F4B9C4213D003F580439C420CBF1B
:1012700002234FF0FF3342F2AC5102205B0103F135
:10128000804303F570335850012ADCE70023F2E76E
:101290000123F0E742F25C03D8E700BF008005407D
:1012A00000C0054083691B06FCD5406AC0B2704788
:1012B00083695B06FCD5C16370470000F0B54AB195
:1012C000012530241C4E8D4004FB00640BB341F219
:1012D0001006A55130244443072904F1804404F545
:1012E000703419D80F2765688E00B74025EA0705C6
:1012F00002FA06F63543656052B9012202FA01F19D
:1013000030220D4C02FB00409BB141F21003C15052
:10131000F0BD42F21006DCE70F27A1F10805E668F0
:10132000AD00AF4026EA070602FA05F53543E56051
:10133000E2E742F21003EAE700C003400A680368EC
:10134000534003604A684368534043608A68836837
:1013500053408360CA68C3685340C360704710B588
:1013600014680B686340036054684B6863404360D3
:1013700094688B6863408360CB68D2685340C360D5
:1013800010BD00002DE9F04720290C46154611D06C
:1013900009D810290ED018290CD00023FF2085F879
:1013A000F030BDE8F087802903D0C029F5D118249A
:1013B00000E0102401462246284600F02BFA04F1F2
:1013C0001C039B005FFA83F8C3F30313013B85F80A
:1013D000F0304FF0010923462749B3FBF4F204FB38
:1013E0001232E81812F0FF0210F804AC10F803CC27
:1013F00010F8027C10F8016C32D111F80CE04FEAC1
:10140000D91289EA0E0E11F807C08F5D11F80A6033
:101410004FEA420A5244F24602EBC20282EA490211
:101420005FFA82F91A1BD2B215F802E02A448AEA5E
:101430000E0A05F803A092F801E004338CEA0E0CC2
:1014400080F801C092F802C0DBB287EA0C0787700F
:10145000D278984586EA0206C670BED80020A0E77A
:10146000182CDFD9102A01BF11F80AA011F80CC0FE
:10147000CF5D8E5DD6E700BFE61A00002DE9F04F84
:101480002DED028B89B092F8F03008EE101A9046DC
:10149000002B00F0568101466846FFF760FF0127E8
:1014A000A94CAA4DAA4E98F8F03008EB0719BB4298
:1014B0005CD8A54B9DF800209DF805109A5C595CFE
:1014C0008DF800209DF8042018EE100A9A5C8DF823
:1014D00004209DF808209A5C8DF808209DF80C20C7
:1014E0009A5C8DF80C209DF801208DF801109DF874
:1014F00009109A5C595C8DF805109DF80D108DF857
:101500000D20595C9DF802208DF809109DF80A10F5
:101510009A5C595C8DF80A208DF802109DF80E1027
:101520009DF80620595C9A5C8DF806109DF80B100A
:101530008DF80E20595C9DF80F208DF80F109DF846
:101540000710595C8DF80B109DF80310595C9B5CDB
:101550008DF807104A4669468DF80330FFF7FFFE05
:10156000002009B0BDEC028BBDE8F08F1022694667
:101570000DEB020000F04EF99DF810C09DF815A08B
:101580009DF81AE09DF81F0016F80AB015F80C3007
:1015900014F80E10225C83EA0B034B4053408DF885
:1015A000003014F80C3015F80AB05A408BEA0202E9
:1015B00016F80EB015F80EE082EA0B028DF8012045
:1015C00014F80A209DF819A053404A4016F80C1050
:1015D00083EA0E0316F800E09DF814C051402A5C1F
:1015E00083EA0E039DF81EE09DF8130016F80AB07A
:1015F00051408DF8023015F80C308DF8031014F8B6
:101600000E10225C83EA0B034B4053408DF80430EC
:1016100014F80C3015F80AB05A408BEA020216F89A
:101620000EB0013782EA0B028DF8052014F80A206B
:1016300015F80EE053404A4016F80C1083EA0E03EA
:1016400016F800E09DF818C09DF81DA051402A5CD6
:1016500083EA0E039DF812E09DF8170016F80AB011
:1016600051408DF8063015F80C308DF8071014F83D
:101670000E10225C83EA0B034B4053408DF8083078
:1016800014F80C30FFB282EA030B15F80A208BEA3B
:10169000020216F80EB015F80EE082EA0B028DF881
:1016A000092014F80A209DF811A053404A4016F86A
:1016B0000C1083EA0E0316F800E051402A5C9DF8F6
:1016C0001CC09DF81B0083EA0E039DF816E05140F4
:1016D0008DF80A308DF80B1014F80E30215C16F8D6
:1016E0000AB015F80C2082EA0B025A404A408DF8E5
:1016F0000C2014F80C2081EA020B15F80A108BEA72
:10170000010116F80EB015F80EE081EA0B018DF814
:101710000D1014F80A104A4082EA0E0216F800E092
:101720004B4082EA0E028DF80E2016F80C20494636
:1017300053402A5C684653408DF80F30FFF7FEFD9A
:10174000B1E6FF200DE700BFE61A0000E618000032
:10175000E6190000704700001021014AFFF712BE91
:10176000BC010020014A0146FFF788BEBC010020F1
:10177000704770477047FEE708B5FEF7B5FE064BA9
:10178000064A07498B4201D3FEF7F4FC52F8040BDA
:1017900043F8040BF6E700BF00000020F81B000030
:1017A0007C00002008B5074B044613B1002100E07F
:1017B00000BF054B1868836A03B19847204600F0C4
:1017C0003FF800BF00000000E81B000070B50D4DA1
:1017D00000260D4C641BA410A64209D10B4D002617
:1017E0000B4C00F02FF8641BA410A64205D170BD6D
:1017F00055F8043B01369847EEE755F8043B0136AF
:101800009847F2E774000020740000207400002064
:10181000780000200A44431E914200D1704710B561
:1018200011F8014B914203F8014FF9D110BD024468
:101830000346934200D1704703F8011BF9E700000B
:10184000FEE700BFF8B500BFF8BC08BC9E46704775
:10185000F8B500BFF8BC08BC9E4670472B7E151635
:1018600028AED2A6ABF7158809CF4F3C00303132F5
:101870003334353637383941424344454600000059
:101880000B0B020000202000038C8C3C00000000A9
:1018900000000000050000000000000000C2010080
:1018A0000005000000100000000000000000000023
:1018B000AC01002001000000100000209C0100206D
:1018C00001000000100000200300000200000000E2
:1018D00000000001040201030201030201030000F1
:1018E000040100000302C6F8EEF6FFD6DE916002A6
:1018F000CE56E7B54DEC8F1F89FAEFB28EFB41B3A0
:101900005F452353E49B75E13D4C6C7EF583685144
:10191000D1F9E2AB622A0895469D30370A2F0E2492
:101920001BDFCD4E7FEA121D583436DCB45BA47643
:10193000B77D52DD5E13A6B900C140E379B6D48D00
:1019400067729498B085BBC54FED869A66118AE997
:1019500004FEA078254BA25D80053F2170F16377DE
:10196000AF4220E5FDBF811826C3BE35882E9355B2
:10197000FC7AC8BA32E6C0199EA344543B0B8CC70C
:101980006B28A7BC16ADDB647414920C48B89FBDDD
:1019900043C43931D3F2D58B6EDA01B19C49D8AC4E
:1019A000F3CFCAF447106FF04A5C38577397CBA156
:1019B000E83E96610D0FE07C71CC9006F71CC26A80
:1019C000AE6917993A27D9EB2B22D2A907332D3CC0
:1019D00015C987AA50A50359091A65D784D0822949
:1019E0005A1E7BA86D2CA584998D0DBDB154500352
:1019F000A97D1962E69A459D408715EBC90BEC67F6
:101A0000FDEABFF7965BC21CAE6A5A41024F5CF416
:101A100034089373533F0C52655E28A10FB5093605
:101A20009B3D2669CD9F1B9E742E2DB2EEFBF64D7D
:101A300061CE7B3E7197F568002C601FC8EDBE46F5
:101A4000D94BDED4E84A6B2AE516C5D75594CF109A
:101A50000681F044BAE3F3FEC08AADBC4804DFC19E
:101A60007563301A0E6D4C14352FE1A2CC3957F244
:101A70008247ACE72B95A098D17F667EAB83CA29BD
:101A8000D33C79E21D763B564E1EDB0A6CE45D6E5C
:101A9000EFA6A8A4378B324359B78C64D2E0B4FACE
:101AA0000725AF8EE918D5886F7224F1C751237CC2
:101AB0009C21DDDC86859042C4AAD8050112A35F73
:101AC000F9D0915827B93813B333BB7089A7B62220
:101AD000922049FF787A8FF88017DA31C6B8C3B000
:101AE0007711CBFCD63A637C777BF26B6FC5300104
:101AF000672BFED7AB76CA82C97DFA5947F0ADD4C1
:101B0000A2AF9CA472C0B7FD9326363FF7CC34A594
:101B1000E5F171D8311504C723C31896059A071249
:101B200080E2EB27B27509832C1A1B6E5AA0523B38
:101B3000D6B329E32F8453D100ED20FCB15B6ACBEF
:101B4000BE394A4C58CFD0EFAAFB434D338545F9F7
:101B5000027F503C9FA851A3408F929D38F5BCB6A0
:101B6000DA2110FFF3D2CD0C13EC5F974417C4A712
:101B70007E3D645D197360814FDC222A908846EEB9
:101B8000B814DE5E0BDBE0323A0A4906245CC2D3AD
:101B9000AC629195E479E7C8376D8DD54EA96C5646
:101BA000F4EA657AAE08BA78252E1CA6B4C6E8DD3C
:101BB000741F4BBD8B8A703EB5664803F60E6135C7
:101BC00057B986C11D9EE1F8981169D98E949B1E64
:101BD00087E9CE5528DF8CA1890DBFE6426841997F
:101BE0002D0FB054BB1600001400002000000000B0
:081BF00084E5FF7F0100000005
:101BF8000A000000C0EA2101C0EA2101008070004B
:101C0800008000000000000000000000000000004C
:101C180000000000000000000000000000000000BC
:101C280000000000000000000000000000000000AC
:101C3800000000000000000000000000000000009C
:101C4800000000000000000000000000000000008C
:101C5800000000000000000000000000000000007C
:0C1C6800000000005901000035010000E0
:040000030000177969
:00000001FF
