:020000040800F2
:1000000000000220351400087D1400087D1400084B
:100010007D1400087D1400087D1400080000000015
:100020000000000000000000000000007D14000837
:100030007D140008000000007D1400087D140008F5
:1000400000000000000000000000000000000000B0
:1000500000000000000000000000000000000000A0
:100060000000000000000000000000000000000090
:100070000000000000000000000000000000000080
:100080000000000000000000000000000000000070
:100090000000000000000000000000000000000060
:1000A0000000000000000000000000000000000050
:1000B0000000000000000000000000000000000040
:1000C0000000000000000000000000000000000030
:1000D0000000000000000000000000000000000020
:1000E0000000000000000000000000000000000010
:1000F0000000000000000000000000000000000000
:1001000000000000000000000000000000000000EF
:1001100000000000000000000000000000000000DF
:1001200000000000000000000000000000000000CF
:1001300000000000000000000000000000000000BF
:1001400000000000000000000000000000000000AF
:10015000000000000000000000000000000000009F
:10016000000000000000000000000000000000008F
:10017000000000000000000000000000000000007F
:08018000000000000000000077
:1001880010B5054C237833B9044B13B10448AFF3C9
:1001980000800123237010BD3404002000000000FB
:1001A800A815000808B5034B1BB103490348AFF372
:1001B800008008BD0000000038040020A8150008D1
:1001C800844641EA000313F003036DD1403A41D35A
:1001D80051F8043B40F8043B51F8043B40F8043B19
:1001E80051F8043B40F8043B51F8043B40F8043B09
:1001F80051F8043B40F8043B51F8043B40F8043BF9
:1002080051F8043B40F8043B51F8043B40F8043BE8
:1002180051F8043B40F8043B51F8043B40F8043BD8
:1002280051F8043B40F8043B51F8043B40F8043BC8
:1002380051F8043B40F8043B51F8043B40F8043BB8
:1002480051F8043B40F8043B51F8043B40F8043BA8
:10025800403ABDD2303211D351F8043B40F8043B48
:1002680051F8043B40F8043B51F8043B40F8043B88
:1002780051F8043B40F8043B103AEDD20C3205D358
:1002880051F8043B40F8043B043AF9D2043208D050
:10029800D2071CBF11F8013B00F8013B01D30B88C2
:1002A80003806046704700BF082A13D38B078DD0A0
:1002B80010F003038AD0C3F10403D21ADB071CBF72
:1002C80011F8013B00F8013B80D331F8023B20F8DC
:1002D800023B7BE7043AD9D3013A11F8013B00F815
:1002E800013BF9D20B7803704B7843708B7883709D
:1002F80060467047002070470278437843EA02233B
:10030800014A0020138070470000002008B501F062
:100318008BF8002008BD08B501F078F8002008BD6A
:1003280010B5044601F07EF800F0E8F9204601F027
:1003380073F800F0EBF9204601F075F82246102119
:10034800722000F0CDF8002010BD000070B5044602
:1003580001F068F80B4E00253388AB4209D82046D7
:1003680001F061F822461021722000F0B9F800204F
:1003780070BD00F0C3F9204601F04EF8013500F0D9
:10038800C5F9E9E7000000201FB51E4B6A4603F1D6
:100398001006154618685968144603C40833B34252
:1003A8002246F7D100F01EF900F058F900F092F952
:1003B80001F02AF8284601F029F800F089F8124AD5
:1003C80010216B2000F080F8104A1021702000F0F6
:1003D8007BF80F4A0021782000F076F80D4A0123B7
:1003E80012216D2000F05AF80B4A0221732000F008
:1003F8006BF80A4A1021662000F066F800F090F8C1
:10040800FCE700BFD01D00081F03000829030008EF
:10041800FD02000815030008010300085503000841
:1004280001207047F0B500234F1C834201DB0020F8
:1004380020E017F8135011F81340A5F13006F6B272
:10044800092E0BD8D654A4F13005EEB2092E14D8D3
:10045800D45C44EA0514D4540133E6E7A5F1410617
:10046800052E02D8373DD554EDE7A5F16106052ED6
:1004780001D90120F0BD573DF5E7A4F14105052D4F
:1004880002D8A4F13705E3E7A4F16105052DF0D8FA
:10049800D55C573C45EA0414DDE7000070B5094E09
:1004A80034680F2C0BDCBF2909D806EB0415C5E905
:1004B8000212013428712B743460002070BD0120B1
:1004C800FCE700BF500400200023FFF7E7BF00004F
:1004D800024A00217620FFF7F7BF00BF2904000871
:1004E800F8B514460E4600F02BF90C4F651EC4F102
:1004F800010463199E4204DCBDE8F8400A2000F0BC
:100508001FB915F8013F1B09F85C00F019F92B78A1
:1005180003F00F03F85C00F013F9EAE7C0150008D0
:100528002DE9F0412E4CADF5127D00F0F7F8226868
:100538000023211D9A4204DC07D10DF5127DBDE888
:10054800F0811D016D5C85423DD104EB03151E0150
:100558002B7CDB0714D500238DF8083000F0DEF87B
:100568008DF8C80000F0DAF802AA8DF8C90032A99F
:100578000120FFF757FF0028DFD19DF80830AB6056
:100588000025A7190DF1C808BB68B5EB430F1CD3AC
:1005980000F0C4F80A2801D00D28CED1344402AAAC
:1005A800A56832A92846FFF73DFF0028C5D1E9B262
:1005B800E36802A8984701AA8DF8040001217A206F
:1005C800FFF78EFFB9E70133B4E700F0A7F80A2870
:1005D800B3D00D28B1D005F808000135D4E700BF25
:1005E8005004002030B5032293B04FF4A023002418
:1005F800CDE9062302234FF4A872CDE90C34012576
:100608001021109306A80723CDE90E12119309951E
:1006180000F0AEF80F23052101A8CDE90135CDE999
:100628000344059400F03AFA094B00945A6B0948C0
:1006380042F040025A635B6B03F040030093009B57
:10064800054B0360447100F0AFFC13B030BD00BF30
:1006580000380240580500200008065030B5022333
:1006680089B04FF4C062CDE903230122CDE9052307
:10067800144C15480025072301950793236B134352
:100688002363236B1340019303A9019B00F09EFA97
:100698000E480F4902954FF41643C0E90013C0E90C
:1006A80002550C23056185614361636C43F01003B7
:1006B8006364636C03F010030293029B00F074FB05
:1006C80009B030BD00380240000002407405002027
:1006D800001001407FB54FF480520123CDE901237A
:1006E80000210223CDE90313034801A900F06EFAA3
:1006F80007B05DF804FB00BF000002400248012279
:100708004FF4805100F04ABB00000240024800222A
:100718004FF4805100F042BB0000024013B5074C73
:1007280041F2883301220DF10701204600F0EFFB6A
:100738000028F5D19DF8070002B010BD740500200F
:1007480007B541F288338DF8070001220DF1070142
:10075800024800F097FB03B05DF804FB7405002025
:10076800024B1868421C1A60704700BF54050020ED
:100778000368F7B5DC0701463BD40B68980700F11E
:1007880089800B681B0700F1D4800B685F072AD5A6
:10079800002301938F4B904C1A6C42F080521A64DC
:1007A8001B6C03F080530193019B236843F480730F
:1007B8002360FFF7D5FF05462368DA0540F1DB80A3
:1007C8008B68844C012B40F0DD80236F43F00103DC
:1007D8002367FFF7C5FF7F4D044641F288362B6F2C
:1007E8009B0740F1F0808A69002A40F0FB800020D6
:1007F80015E0784B9A6802F00C02042A07D09A6830
:1008080002F00C02082A0CD15A68520209D5714B21
:100818001B689B03B1D54B68002BAED1012003B0F8
:10082800F0BD4A68B2F5803F11D11A6842F48032AF
:100838001A60FFF795FF674D04462B689F039CD409
:10084800FFF78EFF001B6428F7D90320E7E7614C08
:10085800B2F5A02F236807D143F4802323602368CF
:1008680043F480332360E4E723F480332360236870
:1008780023F480232360002ADBD1FFF771FF0546AC
:1008880023689E037FF579AFFFF76AFF401B642852
:10089800F6D9DAE74F4B9A6812F00C0F07D09A682E
:1008A80002F00C02082A16D15B685D0213D4494B8A
:1008B8001A68940702D5CA68012AAFD11C68F822C1
:1008C80092FAA2F2B2FA82F00A69824024F0F800A1
:1008D80002431A6055E7CA68404BDAB101221A6030
:1008E800FFF73EFF3B4C0546236898070CD5206868
:1008F800F82393FAA3F3B3FA83F20B69934020F039
:10090800F802134323603CE7FFF72AFF401B022845
:10091800EAD99AE71A60FFF723FF2E4D04462B68A1
:100928009A077FF52EAFFFF71BFF001B0228F6D9A9
:100938008BE74A692A4B7AB101221A60FFF710FF48
:10094800244D04466B6F9E073FF51FAFFFF708FF66
:10095800001B0228F6D978E71A60FFF701FF1D4D42
:1009680004466B6F98077FF510AFFFF7F9FE001B81
:100978000228F6D969E7FFF7F3FE401B02287FF645
:100988001BAF62E7052B04D1236F43F004032367F1
:100998001BE7226F22F001022267226F22F0040275
:1009A8002267002B7FF415AFFFF7DAFE41F2883695
:1009B8000546236F9F077FF516AFFFF7D1FE401B53
:1009C800B042F6D941E7FFF7CBFE001BB0427FF6F5
:1009D80006AF3AE700380240007000400000474286
:1009E800800E47422B4CA36803F00C03082B3FF4FE
:1009F80015AF294D0023022A2B603ED1FFF7B0FE28
:100A080006462368980132D447F6C07797FAA7F7C5
:100A18004FF44032B7FA87F792FAA2F24FF07060BB
:100A2800B2FA82F690FAA0F0D1E9073213434A6A83
:100A380002FA07F78A6A5208013AB2403B43134365
:100A4800CA6AB0FA80F002FA00F003436360012337
:100A58002B60FFF785FE0F4C014623689A013FF58E
:100A6800C6AEFFF77DFE401A0228F6D9EDE6FFF77D
:100A780077FE801B0228C4D9E7E6FFF771FE01461E
:100A880023689B017FF5B3AEFFF76AFE401A022880
:100A9800F6D9DAE60038024060004742F8B5494B1B
:100AA8001A6802F00F028A4205461AD32A6890078C
:100AB80020D4D20726D4434B1A6802F00F028A4288
:100AC80070D82868430775D410F0080011D03E4A42
:100AD8002969936823F4604343EAC10393600020C3
:100AE80007E0CAB21A701B6803F00F038B42DDD00F
:100AF8000120F8BD3448AC68836823F0F003234331
:100B08008360D6E76A68304B012A1DD11B6813F44D
:100B1800003FEDD02C4CA36823F003031343A360DC
:100B2800FFF71EFE6B68012B064641F2883715D188
:100B3800A36803F00C03042BBDD0FFF711FE801B44
:100B4800B842F5D90320D4E7901E01281B6802D8C3
:100B580013F0007FDDE713F0020FDAE7022B0AD16A
:100B6800A36803F00C03082BA5D0FFF7F9FD801B41
:100B7800B842F5D9E6E7032B0FD1A36803F00C03BD
:100B88000C2B98D0FFF7ECFD801BB842F5D9D9E7BC
:100B9800FFF7E6FD801BB842D4D8A36813F00C0F0A
:100BA800F6D188E7CAB21A701B6803F00F038B42AC
:100BB8009ED186E70449EB688A6822F4E0521A431A
:100BC8008A6081E7003C0240003802402DE9F04F7E
:100BD8006E4ADFF8C081DFF8C09185B000230C6849
:100BE80001279F4007EA040537EA040440F0B9806A
:100BF8004C6824F0100ABAF1020F16D14FEAD30E4E
:100C080000EB8E0E03F0070BDEF820604FEA8B0B2B
:100C18004FF00F0C0CFA0BFC26EA0C0C0E6906FAC6
:100C28000BF646EA0C06CEF82060D0F800B04FEA82
:100C3800430E4FF0030C0CFA0EFC6FEA0C062BEA7D
:100C48000C0B04F0030C0CFA0EFC0AF1FF3A4CEA08
:100C58000B0CBAF1010F0196C0F800C015D8D0F8F6
:100C680008C006EA0C0CCE6806FA0EFA4AEA0C0C22
:100C7800C0F808C0D0F804C02CEA0707C4F3001C69
:100C88000CFA03FC4CEA07074760C768019E374027
:100C98008E6806FA0EF63E43C660E60061D54FF050
:100CA800000BCDF80CB0D8F84470394E47F48047A3
:100CB800C8F84470D8F8447007F480470397039F36
:100CC80023F0030707F1804707F59C3703F0030E6D
:100CD800D7F808A04FEA8E0E4FF00F0C0CFA0EFC56
:100CE800B0422AEA0C0C43D006F58066B04241D0E7
:100CF80006F58066B0423FD006F58066B0423DD02A
:100D080006F58066B0423BD048453BD006F5006604
:100D1800B04239D006F58066B0420CBF07260826D7
:100D280006FA0EF646EA0C06BE601668EF4314F49F
:100D3800803F0CBF3E402E431660566814F4003FB7
:100D48000CBF3E402E435660966814F4801F0CBFBB
:100D58003E402E439660D668A40254BF3E402E43C0
:100D6800D6600133102B7FF43AAF05B0BDE8F08FA1
:100D78005E46D5E70126D3E70226D1E70326CFE76B
:100D88000426CDE70526CBE70626C9E7003C014047
:100D98000000024000380240001402400AB181619C
:100DA80070470904FBE7000070B5002866D090F88A
:100DB800393003F0FF020BB980F838200168C268A7
:100DC8000569C469242380F83930CB6823F40053BB
:100DD800CB600B6923F4405313430B618368CA68E3
:100DE8002B43456922F416422B4322F00C0223437D
:100DF8001343CB604B69826923F440731343B4F502
:100E0800004F4B611E4A43684FF0640528D15B00D0
:100E1800B2FBF3F2B2FBF5F605FB1622D300323330
:100E2800B3FBF5F303F007025B0002EB061203F4D1
:100E3800F87313448B600B6923F490430B614B697F
:100E480023F02A034B61CB6843F40053CB60202284
:100E58000023C36380F8392080F83A20184670BD13
:100E68009B00B2FBF3F2B2FBF5F605FB16231B0160
:100E78003233B3FBF5F303EB0613DBE70120EEE7B0
:100E88000080FC0A90F83930202B3ED100293AD056
:100E9800002A38D090F83830012B36D0012380F85A
:100EA80038300023C363212380F8393003688284F3
:100EB800C284C28C92B252B91A685206FCD5202359
:100EC80080F83930002380F8383018467047C28CD3
:100ED800013A92B2C2848268B2F5805F0CD11A6876
:100EE8001206FCD50A88C2F308025A6002690AB9D8
:100EF8000231DEE70131DCE71A681206FCD511F889
:100F0800012B5A60D5E7012070470220704710B5C1
:100F180090F83A30202B44D1002940D0002A3ED006
:100F280090F83830012B3CD0012380F8383000236A
:100F3800C363222380F83A308285C285C38D9BB271
:100F480033B9202280F83A2080F83830184610BD8E
:100F5800C38D0268013B9BB2C3858368B3F5805F8C
:100F680011D113689C06FCD50369526833B90B4646
:100F7800C2F3080223F8022B1946DFE70B46D2B268
:100F880023F8012BF8E713689B06FCD5046952681F
:100F98004B1C0CB90A70EFE702F07F02FAE7012058
:100FA800D5E70220D3E7704710B50446A8B1037906
:100FB800012B14D0437903F0FF0213B90271FFF734
:100FC800F2FF226802236371136843F0040313607D
:100FD800002001236371207110BD0120FCE702206D
:100FE800FAE70A680368534003604A684368534055
:100FF80043608A68836853408360CA68C368534003
:10100800C36070470B6810B5146863400360546888
:101018004B686340436094688B6863408360CB6827
:10102800D2685340C36010BD20292DE9F0470C4613
:10103800154611D009D810290ED018290CD0002334
:1010480085F8F030FF20BDE8F087802903D0C0295B
:10105800F5D1182400E01024014622462846FFF75F
:10106800AFF804F11C039B005FFA83F8C3F3031382
:10107800013B294985F8F0304FF001092346E8186B
:10108800B3FBF4F204FB123212F0FF0210F804ACC6
:1010980010F803CC10F8027C10F8016C31D14FEA3B
:1010A800D91211F80CE011F807C08F5D11F80A6029
:1010B8004FEA420A524402EBC20289EA0E0E82EA61
:1010C80049025FFA82F9F2461A1BD2B215F802E019
:1010D8008AEA0E0A05F803A02A44043392F801E0CC
:1010E8008CEA0E0C80F801C092F802C087EA0C075F
:1010F8008770D278DBB256409845C670BFD80020BA
:10110800A1E7182CE0D9102A01BF11F80AA011F89C
:101118000CC0CF5D8E5DD7E7D01500082DE9F04FE4
:101128009FB00346189192F8F0100A92002900F037
:1011380067811AA81946FFF765FFB24C19904FF05E
:10114800010B0A9B9DF868C09DF86D709DF8728030
:101158009DF877E014F8085014F80E1014F80C20D5
:1011680014F807A003EB0B130B939DF86C300C934A
:101178009DF871300D930D9E9DF87630A65D0E9307
:10118800E35C009301969DF86B309DF870601096B3
:101198009DF87560E05C0F9311960C9B9DF86A6052
:1011A800E35C1296A65D02969DF86F601396A65DA5
:1011B8000396109EA65D0496119EA65D05969DF861
:1011C800746014969DF8696015969DF86E60169681
:1011D800A65D06969DF873601796A65D0796149E01
:1011E800A65D0896159EA65D09960A9E96F8F0904B
:1011F800D94532D88DF86C30049B8DF87030089B37
:101208008DF87430019B8DF86D30059B8DF8713029
:10121800099B8DF87530029B8DF87230009B8DF814
:101228006E30069B8DF87630079B8DF868208DF818
:1012380077308DF86F00039B18988DF86B100B9A18
:101248008DF869A01AA98DF86A508DF87330FFF7E8
:10125800D9FE00201FB0BDE8F08FA44427449CF8B5
:10126800006185EA010986EA0909A04497F8006245
:1012780097F800715140794098F800727940A64477
:101288008DF8691098F8001182EA0A024A409EF81F
:1012980000124A408DF86A200C9A224489EA06090D
:1012A8001646009A96F800118DF8689085EA0A05A6
:1012B80042409CF800A24A400D998AEA05059EF82A
:1012C80000A1214485EA0A058DF86B5091F8005277
:1012D8006A408DF86C2091F80021584050400E9AD1
:1012E800224492F8001292F80021484001998DF8A2
:1012F8006D004B4053400F9A224492F800124B4025
:101308008DF86E30DDE900314B4096F800124B4005
:1013180092F800114B408DF86F30109B23441A4609
:10132800DDE902314B4092F8001192F800224B405F
:101338001199214491F8000291F8001143408DF869
:101348007030DDE9033043404B401299214491F855
:10135800000291F8001143408DF87130DDE9043046
:1013680043404B401399214491F8000243408DF8C3
:1013780072300598029B4340534091F80021534036
:101388008DF87330149B23441A46DDE906314B402F
:1013980092F800114B401599214491F800024340FE
:1013A8008DF87430DDE9073091F8001192F80022C9
:1013B80043404B401699214491F8000291F80011DE
:1013C80043408DF87530DDE9083043404B401799AC
:1013D800214491F8000243408DF876300998069B25
:1013E8004340534091F8002119980B9953408DF8C8
:1013F8007730FFF7F6FD0BF101035FFA83FBA0E6F8
:10140800FF2027E7D015000870470000014A102187
:10141800FFF70ABEB4050020014A0146FFF77EBE69
:10142800B40500207047704770470000002103E0B2
:101438000B4B5B58435004310A480B4B42189A42F5
:10144800F6D30A4A02E0002313600432084B9A429A
:10145800F9D3AFF3008000F00FF8FEF795FFFEE731
:10146800F41D00080000002034040020340400208B
:10147800CC060020FEE7000070B50D4E0D4D761B22
:10148800B61006D0002455F8043B01349847A6420C
:10149800F9D1094E094D761B00F082F8B61006D036
:1014A800002455F8043B01349847A642F9D170BD91
:1014B800E81D0008E81D0008F01D0008E81D0008E8
:1014C800024B13B1024800F005B870470000000055
:1014D800E9140008002301461A46184600F01AB815
:1014E80038B5084B084D5B1B9C1007D0043B1D44C6
:1014F800013C55F804399847002CF9D1BDE838402B
:1015080000F054B8F41D0008F01D0008704700BF33
:10151800704700BF2DE9F047DFF880A00646DAF8EB
:10152800000098460F469146FFF7F0FF1A4B1B68DC
:10153800D3F8484124B365681F2D26DC5EB9AB1C7F
:101548000135DAF80000656044F82370FFF7E0FF22
:101558000020BDE8F08704EB85030121C3F88890DB
:10156800D4F88821A9400A43022EC4F88821C3F878
:101578000881E4D1D4F88C311943C4F88C11DEE722
:1015880003F5A674C3F84841D5E7DAF80000FFF779
:10159800BFFF4FF0FF30DCE7E41D000830040020F7
:1015A800F8B500BFF8BC08BC9E467047F8B500BF48
:0815B800F8BC08BC9E46704718
:1015C0003031323334353637383941424344454679
:1015D000637C777BF26B6FC53001672BFED7AB76F0
:1015E000CA82C97DFA5947F0ADD4A2AF9CA472C09B
:1015F000B7FD9326363FF7CC34A5E5F171D8311508
:1016000004C723C31896059A071280E2EB27B27528
:1016100009832C1A1B6E5AA0523BD6B329E32F84A0
:1016200053D100ED20FCB15B6ACBBE394A4C58CF98
:10163000D0EFAAFB434D338545F9027F503C9FA86C
:1016400051A3408F929D38F5BCB6DA2110FFF3D23A
:10165000CD0C13EC5F974417C4A77E3D645D1973EE
:1016600060814FDC222A908846EEB814DE5E0BDBE8
:10167000E0323A0A4906245CC2D3AC629195E4791F
:10168000E7C8376D8DD54EA96C56F4EA657AAE0879
:10169000BA78252E1CA6B4C6E8DD741F4BBD8B8A14
:1016A000703EB5664803F60E613557B986C11D9E7A
:1016B000E1F8981169D98E949B1E87E9CE5528DFF1
:1016C0008CA1890DBFE6426841992D0FB054BB161D
:1016D000C6F8EEF6FFD6DE916002CE56E7B54DECC9
:1016E0008F1F89FAEFB28EFB41B35F452353E49B12
:1016F00075E13D4C6C7EF5836851D1F9E2AB622A0D
:101700000895469D30370A2F0E241BDFCD4E7FEA09
:10171000121D583436DCB45BA476B77D52DD5E13FF
:10172000A6B900C140E379B6D48D67729498B085AC
:10173000BBC54FED869A66118AE904FEA078254B59
:10174000A25D80053F2170F16377AF4220E5FDBFC8
:10175000811826C3BE35882E9355FC7AC8BA32E666
:10176000C0199EA344543B0B8CC76B28A7BC16AD75
:10177000DB647414920C48B89FBD43C43931D3F272
:10178000D58B6EDA01B19C49D8ACF3CFCAF44710BF
:101790006FF04A5C38577397CBA1E83E96610D0F06
:1017A000E07C71CC9006F71CC26AAE6917993A27A3
:1017B000D9EB2B22D2A907332D3C15C987AA50A5F6
:1017C0000359091A65D784D082295A1E7BA86D2C2B
:1017D000A584998D0DBDB1545003A97D1962E69A77
:1017E000459D408715EBC90BEC67FDEABFF7965B9B
:1017F000C21CAE6A5A41024F5CF434089373533FE3
:101800000C52655E28A10FB509369B3D2669CD9F18
:101810001B9E742E2DB2EEFBF64D61CE7B3E719772
:10182000F568002C601FC8EDBE46D94BDED4E84AEF
:101830006B2AE516C5D75594CF100681F044BAE35C
:10184000F3FEC08AADBC4804DFC17563301A0E6D6B
:101850004C14352FE1A2CC3957F28247ACE72B95D7
:10186000A098D17F667EAB83CA29D33C79E21D76EE
:101870003B564E1EDB0A6CE45D6EEFA6A8A4378BC8
:10188000324359B78C64D2E0B4FA0725AF8EE91819
:10189000D5886F7224F1C751237C9C21DDDC8685BD
:1018A0009042C4AAD8050112A35FF9D0915827B974
:1018B0003813B333BB7089A7B622922049FF787AD8
:1018C0008FF88017DA31C6B8C3B07711CBFCD63A9F
:1018D00052096AD53036A538BF40A39E81F3D7FBA5
:1018E0007CE339829B2FFF87348E4344C4DEE9CBEF
:1018F000547B9432A6C2233DEE4C950B42FAC34E64
:10190000082EA16628D924B2765BA2496D8BD12519
:1019100072F8F66486689816D4A45CCC5D65B692BD
:101920006C704850FDEDB9DA5E154657A78D9D8461
:1019300090D8AB008CBCD30AF7E45805B8B3450681
:10194000D02C1E8FCA3F0F02C1AFBD0301138A6B9B
:101950003A9111414F67DCEA97F2CFCEF0B4E673CB
:1019600096AC7422E7AD3585E2F937E81C75DF6E79
:1019700047F11A711D29C5896FB7620EAA18BE1BDF
:10198000FC563E4BC6D279209ADBC0FE78CD5AF485
:101990001FDDA8338807C731B11210592780EC5FCB
:1019A00060517FA919B54A0D2DE57A9F93C99CEF27
:1019B000A0E03B4DAE2AF5B0C8EBBB3C8353996128
:1019C000172B047EBA77D626E169146355210C7D66
:1019D000000E1C123836242A707E6C624846545A17
:1019E000E0EEFCF2D8D6C4CA909E8C82A8A6B4BA07
:1019F000DBD5C7C9E3EDFFF1ABA5B7B9939D8F81E7
:101A00003B352729030D1F114B455759737D6F61D6
:101A1000ADA3B1BF959B8987DDD3C1CFE5EBF9F7C6
:101A20004D43515F757B69673D33212F050B1917B6
:101A300076786A644E40525C06081A143E30222CB6
:101A400096988A84AEA0B2BCE6E8FAF4DED0C2CCA6
:101A5000414F5D537977656B313F2D230907151B86
:101A6000A1AFBDB39997858BD1DFCDC3E9E7F5FB76
:101A70009A948688A2ACBEB0EAE4F6F8D2DCCEC076
:101A80007A746668424C5E500A041618323C2E2066
:101A9000ECE2F0FED4DAC8C69C92808EA4AAB8B656
:101AA0000C02101E343A28267C72606E444A585646
:101AB00037392B250F01131D47495B557F71636D26
:101AC000D7D9CBC5EFE1F3FDA7A9BBB59F91838D16
:101AD000000B161D2C273A3158534E45747F62690E
:101AE000B0BBA6AD9C978A81E8E3FEF5C4CFD2D9FE
:101AF0007B706D66575C414A2328353E0F041912EE
:101B0000CBC0DDD6E7ECF1FA9398858EBFB4A9A2DD
:101B1000F6FDE0EBDAD1CCC7AEA5B8B38289949FCD
:101B2000464D505B6A617C771E1508033239242FBD
:101B30008D869B90A1AAB7BCD5DEC3C8F9F2EFE4AD
:101B40003D362B20111A070C656E737849425F549D
:101B5000F7FCE1EADBD0CDC6AFA4B9B28388959E8D
:101B6000474C515A6B607D761F1409023338252E7D
:101B70008C879A91A0ABB6BDD4DFC2C9F8F3EEE56D
:101B80003C372A21101B060D646F727948435E555D
:101B9000010A171C2D263B3059524F44757E63684D
:101BA000B1BAA7AC9D968B80E9E2FFF4C5CED3D83D
:101BB0007A716C67565D404B2229343F0E0518132D
:101BC000CAC1DCD7E6EDF0FB9299848FBEB5A8A31D
:101BD000000D1A1734392E236865727F5C51464B0D
:101BE000D0DDCAC7E4E9FEF3B8B5A2AF8C81969BFD
:101BF000BBB6A1AC8F829598D3DEC9C4E7EAFDF0ED
:101C00006B66717C5F524548030E1914373A2D20DC
:101C10006D60777A5954434E05081F12313C2B26CC
:101C2000BDB0A7AA8984939ED5D8CFC2E1ECFBF6BC
:101C3000D6DBCCC1E2EFF8F5BEB3A4A98A87909DAC
:101C4000060B1C11323F28256E6374795A57404D9C
:101C5000DAD7C0CDEEE3F4F9B2BFA8A5868B9C918C
:101C60000A07101D3E332429626F7875565B4C417C
:101C7000616C7B7655584F420904131E3D30272A6C
:101C8000B1BCABA685889F92D9D4C3CEEDE0F7FA5C
:101C9000B7BAADA0838E9994DFD2C5C8EBE6F1FC4C
:101CA000676A7D70535E49440F0215183B36212C3C
:101CB0000C01161B3835222F64697E73505D4A472C
:101CC000DCD1C6CBE8E5F2FFB4B9AEA3808D9A971C
:101CD0000009121B242D363F48415A536C657E770C
:101CE0009099828BB4BDA6AFD8D1CAC3FCF5EEE7FC
:101CF0003B3229201F160D04737A6168575E454CEC
:101D0000ABA2B9B08F869D94E3EAF1F8C7CED5DCDB
:101D1000767F646D525B40493E372C251A130801CB
:101D2000E6EFF4FDC2CBD0D9AEA7BCB58A839891BB
:101D30004D445F5669607B72050C171E2128333AAB
:101D4000DDD4CFC6F9F0EBE2959C878EB1B8A3AA9B
:101D5000ECE5FEF7C8C1DAD3A4ADB6BF8089929B8B
:101D60007C756E6758514A43343D262F1019020B7B
:101D7000D7DEC5CCF3FAE1E89F968D84BBB2A9A06B
:101D8000474E555C636A71780F061D142B2239305B
:101D90009A938881BEB7ACA5D2DBC0C9F6FFE4ED4B
:101DA0000A0318112E273C35424B5059666F747D3B
:101DB000A1A8B3BA858C979EE9E0FBF2CDC4DFD62B
:101DC0003138232A151C070E79706B625D544F461B
:101DD0002B7E151628AED2A6ABF7158809CF4F3C3F
:081DE0000000000008000020D3
:081DE800C9140008AD01000858
:041DF000890100085D
:101DF4000A0000000000000000000000F4020020BF
:101E04005C030020C4030020000000000000000068
:101E140000000000000000000000000000000000BE
:101E240000000000000000000000000000000000AE
:101E3400000000000000000000000000000000009E
:101E4400000000000000000000000000000000008E
:101E5400000000000000000000000000000000007E
:101E6400000000000000000000000000000000006E
:101E7400000000000000000000000000000000005E
:101E8400000000000000000000000000000000004E
:101E9400000000000000000000000000000000003E
:101EA40001000000000000000E33CDAB34126DE6DB
:101EB400ECDE05000B000000000000000000000044
:101EC400000000000000000000000000000000000E
:101ED40000000000000000000000000000000000FE
:101EE40000000000000000000000000000000000EE
:101EF40000000000000000000000000000000000DE
:04222400A8060020E8
:0400000508001435A6
:00000001FF
