:1000000000000320C5040000290500002D050000A4
:100010002505000025050000250500000000000062
:10002000000000000000000000000000310500009A
:10003000250500000000000035050000390500001E
:100040003D05000041050000450500004905000090
:100050004D05000051050000550500005905000040
:100060005D050000610500006505000069050000F0
:100070006D050000710500007505000079050000A0
:100080007D05000025050000250500002505000070
:1000900025050000250500002505000025050000B8
:1000A0008105000085050000890500008D05000020
:1000B0009105000095050000990500009D050000D0
:1000C000A1050000A5050000A9050000AD05000080
:1000D000B1050000B5050000B905000025050000C8
:1000E0002505000025050000250500002505000068
:1000F0002505000025050000250500002505000058
:100100002505000025050000250500002505000047
:100110002505000025050000250500002505000037
:100120002505000025050000250500002505000027
:100130002505000025050000250500002505000017
:1001400025050000BD050000C1050000C505000033
:10015000C9050000CD0500002505000025050000AB
:100160002505000025050000D1050000D50500008B
:10017000D9050000DD050000E1050000E5050000EF
:10018000E9050000ED05000025050000250500003B
:1001900025050000250500002505000025050000B7
:1001A00025050000250500002505000025050000A7
:1001B0002505000025050000250500002505000097
:1001C0002505000025050000250500002505000087
:1003F000250500002505000025050000FFFFFFFF83
:10040000FFFFFFFFFFFFFFFFFFFFFFFFFEFFFFFFFD
:1004100010B5054C237833B9044B13B10448AFF33E
:1004200000800123237010BD7400FF1F0000000036
:100430007C36000008B5034B1BB103490348AFF3FA
:10044000008008BD000000007800FF1F7C3600001F
:10045000154B002B08BF134B9D46A3F5803A002196
:100460008B460F461348144A121A01F0D5FC0F4B65
:10047000002B00D098470E4B002B00D0984700204F
:10048000002104000D000D48002802D00C48AFF3F5
:10049000008001F08FFC2000290000F0A3F901F09A
:1004A00063FC00BF00000800000003200000000003
:1004B000000000007400FF1F5003FF1F0000000039
:1004C0000000000072B60E480E4901600A6882F30F
:1004D00008880D4880470D490D4A0E4B9A42BEBF11
:1004E00051F8040B42F8040BF8E70B490B4A0020C3
:1004F0009142BCBF41F8040BFAE762B60848804756
:1005000008ED00E000000000E5180000A43600003F
:100510000000FF1F7400FF1F7400FF1F5003FF1F28
:1005200051040000FFF7FEBF314800473148004743
:1005300031480047314800473148004731480047BB
:1005400031480047314800473148004731480047AB
:10055000314800473148004731480047314800479B
:10056000314800473148004731480047314800478B
:10057000314800473148004731480047314800477B
:10058000314800473148004731480047314800476B
:10059000314800473148004731480047314800475B
:1005A000314800473148004731480047314800474B
:1005B000314800473148004731480047314800473B
:1005C000314800473148004731480047314800472B
:1005D0003148004731480047304800472F4800471E
:1005E0002E4800472D4800472C4800472C4800471C
:1005F000290500002D05000031050000350500002B
:1006000039050000F91000000D1100002111000053
:1006100035110000491100005D110000711100004A
:100620008511000099110000AD110000C1110000FA
:10063000D5110000E9110000FD11000011120000A9
:100640002512000025050000E9120000FD1200003F
:10065000AD0F0000E10F000065130000A1130000C2
:1006600025050000F51600002505000021170000F3
:10067000250500004D170000250500007917000032
:100680002505000015100000A51700002505000035
:10069000D1170000250500001113000039120000D9
:1006A000DD1300000000000000000000000000005A
:1006B00001F0FF01102A2BDB10F0070F08D010F813
:1006C000013B013A8B422DD010F0070F42B3F6D117
:1006D000F0B441EA012141EA014122F007047FF030
:1006E00000070023F0E80256083C85EA010586EA87
:1006F000010685FA47F5A3FA87F586FA47F6A5FAC3
:1007000087F68EB9EED1F0BC01F0FF0102F00702CE
:1007100032B110F8013B013A83EA010313B1F8D179
:100720000020704701387047002D06BF354603385A
:10073000073815F0010F07D1013015F4807F02BF93
:10074000013015F4C03F0130F0BC0138704700BFE4
:10075000002070470278437843EA0223014A0020D0
:10076000138070470000FF1F08B501F0DDFA00207C
:1007700008BD08B501F0CAFA002008BD10B504464E
:1007800001F0D0FA01F086F8204601F0C5FA01F038
:1007900087F8204601F0C7FA22461021722000F0A7
:1007A000D3F8002010BD000070B5044601F0BAFA7D
:1007B0000B4E00253388AB4209D8204601F0B3FA2E
:1007C00022461021722000F0BFF8002070BD01F019
:1007D00061F8204601F0A0FA013501F061F8E9E77F
:1007E0000000FF1F1FB51E4B6A4603F11006154699
:1007F00018685968144603C40833B3422246F7D137
:1008000000F0ECFF00F0FAFF01F02AF801F07CFAAA
:10081000284601F07BFA00F08FF8124A10216B2075
:1008200000F086F8104A1021702000F081F80F4A7D
:100830000021782000F07CF80D4A012312216D2060
:1008400000F05AF80B4A0221732000F071F80A4AAE
:100850001021662000F06CF800F096F8FCE700BF6D
:10086000D42D0000730700007D0700005107000031
:100870006907000055070000A90700000120704724
:10088000F0B500234F1C834201DB002020E017F865
:10089000135011F81340A5F13006F6B2092E0BD80B
:1008A000D654A4F13005EEB2092E14D8D45C44EA33
:1008B0000514D4540133E6E7A5F14106052E02D80C
:1008C000373DD554EDE7A5F16106052E01D901208C
:1008D000F0BD573DF5E7A4F14105052D02D8A4F17F
:1008E0003705E3E7A4F16105052DF0D8D55C573C49
:1008F00045EA0414DDE70000F0B50B4E34680F2C18
:100900000FDCBF290DD8094F07EB04154FEA041C73
:10091000C5E90112013407F80C002B733460002084
:10092000F0BD0120FCE700BF9001FF1F9000FF1FFA
:100930000023FFF7E1BF0000024A00217620FFF705
:10094000F7BF00BF7D080000F8B514460E4600F062
:10095000BBFF0C4F651EC4F1010463199E4204DC09
:10096000BDE8F8400A2000F0AFBF15F8013F1B09B1
:10097000F85C00F0A9FF2B7803F00F03F85C00F09F
:10098000A3FFEAE7E52D00002DE9F041ADF5127D6A
:1009900000F08CFF2C4B2D491A6800239A4204DC8E
:1009A00007D10DF5127DBDE8F0811C01645C844225
:1009B0003ED1264D05EB03141E01237BDB0714D526
:1009C00000238DF8083000F071FF8DF8C80000F0AA
:1009D0006DFF02AA8DF8C90032A90120FFF750FF70
:1009E0000028DED19DF8083063600024AF190DF1B6
:1009F000C8087B68B4EB430F1CD300F057FF0A28EC
:100A000001D00D28CDD1354402AA6C6832A9204608
:100A1000FFF736FF0028C4D1E1B2AB6802A89847BF
:100A200001AA8DF8040001217A20FFF78DFFB8E7B5
:100A30000133B3E700F03AFF0A28B2D00D28B0D056
:100A400004F808000134D4E79001FF1F9000FF1F55
:100A500008B50F4A0F4841F244034FF08271D1505C
:100A600000F02CFA0C4B0D4A1A600D4A137803F073
:100A7000C7031370002000F0DFF90A49002000F0DE
:100A80004FFA094800F0C2F8084B094A1A6008BD3D
:100A900000700440002E00009401FF1F10757000CC
:100AA00000400640FD2D0000082E00000C00FF1F36
:100AB00080841E00064B9A79D20755BF054B064A23
:100AC0001868187A42BFC0F342031068D8407047D4
:100AD000004006400800FF1F0400FF1F08B50E4B32
:100AE0001B7B03F00303012B0BD0022B10D08BB91F
:100AF0000A4B186868B90A4B0A4AEC210A4801F007
:100B000015F90A4B186820B9094B064AF121F5E797
:100B1000084808BD0020FCE7004006409401FF1F84
:100B2000102E0000552E00001C2E00009801FF1F03
:100B3000362E0000006CDC0208B5FFF7CFFFA0B135
:100B40000D4A13785178127BC3F3C20311F0300FB2
:100B500020FA03F002F0030200D00AB1022A04D105
:100B6000062B03D0072B05D0400908BD1423B0FB8A
:100B7000F3F0FAE70C23FAE70040064008B5084B0B
:100B80001B781B0609D5074B186838B9064B074A6E
:100B900007484FF4B87101F0C9F8002008BD00BF44
:100BA000005006409401FF1F102E00006C2E000024
:100BB0001C2E000008B5104B1B68C3F38143022BA9
:100BC00009D0032B12D0A3B9FFF7D8FFB0F5004F1F
:100BD00018BF002008BD094B18680028FAD1084B3F
:100BE000084A094840F2851101F0A0F84FF47A70E4
:100BF000F0E70020EEE700BF007004409801FF1FFF
:100C0000362E0000832E00001C2E00000D4A416885
:100C100041F2440310B5D15041F204040378115954
:100C20001B0421F4403103F440330B431351437848
:100C300011689B0403F4402321F440210B4313600B
:100C400010BD00BF0070044008B5104B5A789107E2
:100C500001D5002008BD9A799206FAD49B79DB066B
:100C600010D4FFF769FF0028F3D0084AD378D27870
:100C7000C3F341135B0003EBD213054A32F8133080
:100C80005843E7E7034B1868EDE700BF0040064014
:100C9000CE2E00000800FF1F034B187810F0020052
:100CA00001D0FFF707BF70470040064010B50D4C5C
:100CB000A07910F0400014D0FFF710FF30B90A4BB4
:100CC0000A4A0B4840F2832101F030F8237903F0FF
:100CD0001F030133B0FBF3F0637903F01F031833F4
:100CE000584310BD00400640432E0000992E0000DE
:100CF0001C2E0000094A41F20403D358C3F30143F8
:100D0000012B04D0032B04D02BB9FFF79DBFFFF7B5
:100D1000CDBF034870470020704700BF00700440FB
:100D2000006CDC02084B9B79C3F38103022B09D0D2
:100D3000032B03D0012B03D1FFF7BCBEFFF7B6BFD7
:100D4000FFF782BFFFF7CABE0040064010B50A4B4E
:100D50009B79DB0606D4FFF7EFFE04462CB900248E
:100D6000204610BD054B1C68F8E7FFF7DBFFB4EB2E
:100D7000D00FF4D8F4E700BF004006400800FF1F82
:100D800008B5132850D8DFE800F00D4F18212A4F7E
:100D900033374B4F4F3B3F43474F4F4F510A4FF471
:100DA0007A7008BDFFF7BEFF214A41F24403D358D1
:100DB0001B0F0133B0FBF3F0F3E7FFF7B3FF1C4A5F
:100DC00041F24403D358C3F30363F2E7FFF7AAFFEA
:100DD000174A41F24403D358C3F30353E9E7FFF73B
:100DE000A1FF134A41F24403D358C3F30343E0E79E
:100DF000BDE80840FFF77EBFBDE80840FFF7DABE58
:100E0000BDE80840FFF7A2BFBDE80840FFF744BFB8
:100E1000BDE80840FFF718BFBDE80840FFF746BF30
:100E2000BDE80840FFF7AABE0020BAE70148B8E7CE
:100E300000700440006CDC0210B50B490A7B0B7B90
:100E400000F0030403F0FC0323430B7302F00303DD
:100E5000834205D1002010BD00BF013BFCD1F9E762
:100E600040F2DD53F9E700BF0040064008B530B955
:100E70000E4B0F4A0F4840F2433100F057FF4278C3
:100E80000D4B02F01F021A715979827801F0E001CE
:100E900002F01F020A435A711A7901780A4342F09C
:100EA00040021A719A795206FCD508BD4E2E0000F8
:100EB000AB2E00001C2E000000400640036849F6DF
:100EC0009702934210B522D9124CA34294BF012439
:100ED0000224114902790B7803F0F00313430B70DD
:100EE0000B78827903F05F0313430C4A0B7053783D
:100EF000407903F0C303034343EA0413537028B15A
:100F00000B78190602D593799B07FCD510BD0024F8
:100F1000DFE700BF00127A000050064000400640A4
:100F200038B5084631B9154B154A164840F2CF512D
:100F300000F0FCFE144B5A7802F0FD025A701A7849
:100F400002F03B0242F080021A709A7902F01C0211
:100F5000082AFAD15A790C4C02F0BF025A71254680
:100F6000A3799A06FCD4FFF781FF637943F040032D
:100F70006371AB799B06FCD5002038BD4E2E000076
:100F8000BC2E00001C2E00000040064008B503687F
:100F9000002BB4BF034B044B1B689847BFF34F8F24
:100FA00008BD00BFA801FF1FAC01FF1F08B5074B1C
:100FB000196831B9064B074A074840F2E16100F071
:100FC000B5FEBDE808400548FFF7E0BF9C01FF1FE4
:100FD0001A2F00004A2F0000012F000000C002401D
:100FE00008B5074B596831B9064B074A074840F224
:100FF000E96100F09BFEBDE808400548FFF7C6BF69
:101000009C01FF1F2A2F0000602F0000012F00000D
:1010100000D0024008B5074B996831B9064B074A22
:10102000074840F2F16100F081FEBDE80840054844
:10103000FFF7ACBF9C01FF1F3A2F0000762F000086
:10104000012F000000C00A4070B5044630B9274B9C
:10105000274A284840F24B3100F068FE8268017C44
:10106000D177C368056833B92DB141680122AC4618
:10107000BDE87040604702EB411241F21C0041F2B2
:1010800018015158125ACB1A12F080024FEA53112C
:1010900017D0C9B2637C5BB299421BD1E37C207D3F
:1010A00098421FD1E37C5BB249B26174E17CC91AFA
:1010B00049B2E174C5B1003A616818BF0122204607
:1010C000D5E71F2B01D90139E3E7217D013901F073
:1010D000FF01DFE7637C5BB2CB1AE5D5207D43FAE5
:1010E00080F3E1E70023DFE770BD00BFC82F0000F9
:1010F000D72F0000AF2F000008B5034B1868FFF78B
:10110000A3FFBFF34F8F08BDB001FF1F08B5034B0E
:101110005868FFF799FFBFF34F8F08BDB001FF1F5D
:1011200008B5034B9868FFF78FFFBFF34F8F08BDDB
:10113000B001FF1F08B5034BD868FFF785FFBFF369
:101140004F8F08BDB001FF1F08B5034B1869FFF7AB
:101150007BFFBFF34F8F08BDB001FF1F08B5034BE6
:101160005869FFF771FFBFF34F8F08BDB001FF1F34
:1011700008B5034B9869FFF767FFBFF34F8F08BDB2
:10118000B001FF1F08B5034BD869FFF75DFFBFF340
:101190004F8F08BDB001FF1F08B5034B186AFFF75A
:1011A00053FFBFF34F8F08BDB001FF1F08B5034BBE
:1011B000586AFFF749FFBFF34F8F08BDB001FF1F0B
:1011C00008B5034B986AFFF73FFFBFF34F8F08BD89
:1011D000B001FF1F08B5034BD86AFFF735FFBFF317
:1011E0004F8F08BDB001FF1F08B5034B186BFFF709
:1011F0002BFFBFF34F8F08BDB001FF1F08B5034B96
:10120000586BFFF721FFBFF34F8F08BDB001FF1FE1
:1012100008B5034B986BFFF717FFBFF34F8F08BD5F
:10122000B001FF1F08B5034BD86BFFF70DFFBFF3ED
:101230004F8F08BDB001FF1F08B5084B196831B9C1
:10124000074B084A084840F6160100F06FFD074BAF
:1012500007481B689847BFF34F8F08BDF001FF1F79
:10126000233000003630000007300000F401FF1F7B
:101270000040024008B52AB90B4B0C4A0C485F21CC
:1012800000F054FD012303FA01F1137823B94369F7
:1012900023EA0101416108BD53781BB981604369AC
:1012A0001943F7E74160FAE74E2E0000883000004E
:1012B0006F30000010B5C478E40603460A4602D435
:1012C0008478A40607D5064918460C681146A0473D
:1012D000BFF34F8F10BD034B1B689847F8E700BF63
:1012E0000402FF1F0802FF1F024B03481968FFF7A3
:1012F000E1BF00BFF801FF1F00600640024B03483A
:101300005968FFF7D7BF00BFF801FF1F0070064004
:10131000024B03489968FFF7CDBF00BFF801FF1FDC
:1013200000600E40094B1A6842F400721A601A6895
:1013300022F400721A601A6842F400721A600023E4
:101340000360036843F00103036070473C8004407E
:101350000368090101F0100123F010031943016033
:101360007047000008B5084B196831B9074B084AA7
:1013700008484FF4956100F0D9FC074B07481B68FB
:101380009847BFF34F8F08BD0C02FF1FCF300000FE
:10139000F3300000B73000001802FF1F00F00240D9
:1013A00008B5084B596831B9074B084A084840F25C
:1013B000B34100F0BBFC074B07481B689847BFF3DD
:1013C0004F8F08BD0C02FF1FE13000000C31000000
:1013D000B73000001402FF1F00F0024008B5084BB0
:1013E000196831B9074B084A084840F28B5100F0A0
:1013F0009DFC074B07481B689847BFF34F8F08BDFC
:101400001C02FF1F62310000723100002C3100000D
:101410002002FF1F00100B4008B5144B984219D052
:1014200003F58053984217D003F58053984215D0A6
:1014300003F58053984213D003F5FA23984211D054
:1014400003F5805398420FD0094B0A4A0A48A52158
:1014500000F06CFC002008BD0120FCE70220FAE748
:101460000320F8E70420F6E70520F4E700A0064093
:10147000A13100004A32000088310000F8B504466E
:101480000D4629B9594B5A4AD0215A4800F04EFC12
:101490000B681BB9584B564AD121F6E75749884289
:1014A00019D001F58051884215D001F5805188424C
:1014B00013D001F5805188420FD001F5FA218842FE
:1014C00014BF4FF0FF310121A879884207DD4C4B52
:1014D000474AD321D9E70821F6E70121F4E7E87963
:1014E000884203DD474B424AD421CEE71E01B2FBBE
:1014F000F6F6B6B2012E38BF01265200B2FBF3F762
:10150000A7EB4617BFB207EB4611B2FBF1F29342CD
:1015100034BFD21A9A1A6421B3FBF1F303EB4303ED
:1015200093425FD32046FFF777FF374B53F82010E5
:101530000B0C03F1804303F58E2389B21868012256
:101540008A4002431A60E37803F0F303E3702378E0
:1015500003F0E00343EA1623F6B223706670A37A21
:1015600007F01F0703F0E0031F43A772AA7AA378CE
:10157000920002F0040203F0E80313432A7912B147
:10158000134343F01003A3706B7922785B0103F0DF
:10159000200302F0DF0213432370AB79E374EB798D
:1015A0006375237C43F088032374637C43F0C0039A
:1015B00063742B7A1BB1637B43F0080363736B7A0C
:1015C0001BB1637B43F001036373E378EA7ADBB218
:1015D0000AB143F008032A7B0AB143F00403E37025
:1015E0000020F8BD40F2F530FBE700BF4E2E0000B2
:1015F0005B32000088310000BB31000000A00640D3
:10160000D03100000D3200009032000008B530B932
:10161000084B094A094840F26F1100F087FB4FF070
:1016200080734FF4E132C0E9002300238360037329
:1016300008BD00BF4E2E000065320000883100005A
:1016400002794179037B807C1B0443EA0123134325
:1016500043EA006070470A44914200D17047037921
:101660001B06FCD511F8013BC371F5E770B50646C2
:101670000C4621B18D18AC4213D1002070BD124B25
:10168000124A134840F2532100F050FB3046FFF756
:10169000D7FF03070CD441070DD482070ED4C3072C
:1016A0000FD4B37D002BF1D0F37904F8013BE2E7CE
:1016B00040F2F130E2E740F2F230DFE740F2F3309F
:1016C000DCE74FF47D70D9E75D3100007B3200002C
:1016D0008831000008B5044A044B11681B680448AF
:1016E0009847BFF34F8F08BD2402FF1F3C02FF1F26
:1016F00000A0064008B5FFF7EDFFBFF34F8F08BD10
:1017000008B5044A044B51681B6804489847BFF366
:101710004F8F08BD2402FF1F3C02FF1F00B0064090
:1017200008B5FFF7EDFFBFF34F8F08BD08B5044ABA
:10173000044B91681B6804489847BFF34F8F08BD5E
:101740002402FF1F3C02FF1F00C0064008B5FFF740
:10175000EDFFBFF34F8F08BD08B5044A044BD168B5
:101760001B6804489847BFF34F8F08BD2402FF1F32
:101770003C02FF1F00D0064008B5FFF7EDFFBFF3A6
:101780004F8F08BD08B5044A044B11691B68044813
:101790009847BFF34F8F08BD2402FF1F3C02FF1F75
:1017A00000A00E4008B5FFF7EDFFBFF34F8F08BD57
:1017B00008B5044A044B51691B6804489847BFF3B5
:1017C0004F8F08BD2402FF1F3C02FF1F00B00E40D8
:1017D00008B5FFF7EDFFBFF34F8F08BD10B5064CFE
:1017E000FFF736F92046FFF79DFD20460021BDE8B2
:1017F0001040FFF7ADBD00BF00900240154A1368CE
:1018000043F4005310B5136052F8043C43F40063F2
:1018100042F8043C104B86B040F203329A8002A892
:101820001A80FFF7F3FE00244FF41643029320467C
:1018300001238DF813308DF814308DF80F40FFF729
:101840009FFA0190019A054802A9FFF717FE06B01A
:1018500010BD00BF3880044000D0044000B00640F6
:101860000A4A13B5D3680A4C23F4E06343F4807347
:10187000D3600321012301AA2046ADF80430FFF70D
:10188000F9FC0823A36002B010BD00BF00D00440E3
:1018900000F10F40014B08225A60704700F10F40E1
:1018A000014B08229A60704700F10F4007B50122F2
:1018B0000DF107010348FFF7D9FE9DF8070003B0BB
:1018C0005DF804FB00B0064007B501228DF8070063
:1018D0000DF107010248FFF7BEFE03B05DF804FBFF
:1018E00000B00640054B4CF22052DA814DF628122A
:1018F000DA814FF4E9721A80704700BF002005407A
:101900000A680368534003604A6843685340436071
:101910008A68836853408360CA68C3685340C36061
:1019200070470B6810B514686340036054684B68D7
:101930006340436094688B6863408360CB68D2687F
:101940005340C36010BD000020292DE9F0470C462C
:10195000154611D009D810290ED018290CD0002313
:1019600085F8F030FF20BDE8F087802903D0C0293A
:10197000F5D1182400E0102401462246284600F044
:101980003DFA04F11C039B005FFA83F8C3F30313D1
:10199000013B294985F8F0304FF001092346E8184A
:1019A000B3FBF4F204FB123212F0FF0210F804ACA5
:1019B00010F803CC10F8027C10F8016C31D14FEA1A
:1019C000D91211F80CE011F807C08F5D11F80A6008
:1019D0004FEA420A524402EBC20289EA0E0E82EA40
:1019E00049025FFA82F9F2461A1BD2B215F802E0F8
:1019F0008AEA0E0A05F803A02A44043392F801E0AB
:101A00008CEA0E0C80F801C092F802C087EA0C073D
:101A10008770D278DBB256409845C670BFD8002098
:101A2000A1E7182CE0D9102A01BF11F80AA011F87B
:101A30000CC0CF5D8E5DD7E7A83400002DE9F04FD4
:101A40008BB092F8F03001919046002B00F053815A
:101A5000014602A8FFF765FFA84CA94DA94E012732
:101A600098F8F030BB4208EB071959D8A34B9DF802
:101A700008209DF80D109A5C8DF808209DF80C2028
:101A8000595C9A5C8DF80C209DF810209A5C8DF8BA
:101A900010209DF814209A5C8DF814209DF80920E0
:101AA0008DF809109DF811109A5C595C8DF80D1095
:101AB0009DF815108DF81520595C8DF811109DF8C2
:101AC00012109DF80A20595C8DF80A109DF8161026
:101AD0009A5C8DF812209DF80E20595C8DF80E103E
:101AE0009DF813109A5C595C8DF816209DF817200C
:101AF0008DF817109DF80F100198595C8DF8131090
:101B00009DF80B10595C8DF80F109B5C8DF80B3015
:101B10004A4602A9FFF705FF00200BB0BDE8F08F91
:101B2000102202A906A800F069F99DF818C09DF8D6
:101B30001DA09DF822E09DF8270016F80AB015F8C0
:101B40000C3014F80E10225C83EA0B034B40534018
:101B50008DF8083014F80C3015F80AB05A408BEAAA
:101B6000020216F80EB015F80EE082EA0B028DF8AC
:101B7000092014F80A209DF821A053404A4016F885
:101B80000C109DF81CC016F80AB083EA0E0316F874
:101B900000E051402A5C9DF81B0083EA0E039DF88B
:101BA00026E08DF80A30514015F80C308DF80B10F6
:101BB00014F80E10225C83EA0B034B4053408DF85F
:101BC0000C3014F80C3015F80AB05A408BEA0202B7
:101BD00016F80EB082EA0B028DF80D2014F80A20D8
:101BE00015F80EE09DF825A053404A4016F80C1059
:101BF0009DF820C016F80AB083EA0E0316F800E03C
:101C000051402A5C9DF81F0083EA0E039DF81AE0FC
:101C10008DF80E30514015F80C308DF80F1014F877
:101C20000E10225C83EA0B034B4053408DF81030BA
:101C300014F80C3082EA030B15F80A208BEA020232
:101C400016F80EB015F80EE082EA0B028DF811209E
:101C500014F80A209DF819A053404A4016F80C10B9
:101C60009DF824C083EA0E0316F800E051402A5C78
:101C70009DF8230083EA0E039DF81EE08DF81230D4
:101C8000514014F80E308DF8131014F800B016F807
:101C90000A1015F80C204A405A4014F80C108BEA30
:101CA00002028DF8142015F80A208BEA010B8BEA4A
:101CB000020216F80EB015F80EE082EA0B028DF85B
:101CC000152014F80A205140534016F80C2081EAE0
:101CD0000E0116F800E053402A5C81EA0E018DF8EF
:101CE00016105340494602A801378DF81730FFB24D
:101CF000FFF706FEB4E6FF200FE700BFA8340000A0
:101D0000A8320000A833000070470000014A1021EB
:101D1000FFF71ABE4002FF1F014A0146FFF78EBEC1
:101D20004002FF1F70477047704700001FB5144600
:101D30001A46094B1B680546D8684CB1074B009101
:101D4000CDE9013406492B4600F022F800F018FCDA
:101D5000044B1C46F3E700BF1000FF1FA83500002E
:101D6000B5350000E335000008B5074B044613B154
:101D70000021AFF30080054B1868836A03B19847D0
:101D8000204601F025F800BF00000000E435000007
:101D90000EB403B5014603AB054853F8042B0068A5
:101DA000019300F069F802B05DF804EB03B07047EE
:101DB0001000FF1F70B50D4D0D4C641BA4100026C4
:101DC000A64209D10B4D0C4C01F058FC641BA41029
:101DD0000026A64205D170BD55F8043B9847013650
:101DE000EEE755F8043B98470136F2E79C360000D1
:101DF0009C3600009C360000A03600000A44914248
:101E000000F1FF3300D1704710B511F8014B03F812
:101E1000014F9142F9D110BD02440346934200D1D3
:101E2000704703F8011BF9E79368013B002B10B4DE
:101E3000936007DA9469A34201DB0A2902D110BC3E
:101E400000F0DEBA1368581C10601970084610BC08
:101E50007047F8B506460F461446D518AC4201D176
:101E6000002007E014F8011B3A463046FFF7DCFF7C
:101E7000431CF3D1F8BD00002DE9F04F0D469DB095
:101E800014469846064618B183690BB900F09AFCCF
:101E9000894B9D421BD175686B6ED90705D4AB8900
:101EA0009A0502D4A86D00F02BFDAB891B0701D564
:101EB0002B69EBB92946304600F0F4FAC0B16B6EDD
:101EC000DC070ED54FF0FF301DB0BDE8F08F7B4B27
:101ED0009D4201D1B568DFE7794B9D4208BFF568A7
:101EE000DAE7AB899805EDD4A86D00F00AFDE9E7C3
:101EF0000023099320238DF82930CDF80C8030235E
:101F0000DFF8C0818DF82A304FF0010923469A4648
:101F100013F8012B0AB1252AF9D1BAEB040B0BD027
:101F20005B46224629463046FFF793FF013000F01A
:101F3000AA80099A5A4409929AF80030002B00F0BE
:101F4000A28000234FF0FF32CDE905230AF1010AF8
:101F5000049307938DF853301A935446052214F8CE
:101F6000011B5848FEF7A4FB049AD8B9D10644BF18
:101F700020238DF85330130744BF2B238DF85330A3
:101F80009AF800302A2B15D0079A544600204FF0BB
:101F90000A0C214611F8013B303B092B4ED9B0B158
:101FA000079214E0A0EB080309FA03F31343049328
:101FB000A246D2E7039B191D1B680391002BBBBFF0
:101FC0005B4242F0020207930793B8BF0492237862
:101FD0002E2B0CD163782A2B35D1039B1A1D1B683D
:101FE0000392002BB8BF4FF0FF3302340593DFF8A4
:101FF000E4A0217803225046FEF75AFB40B140236B
:10200000A0EB0A0003FA00F0049B0343013404939D
:1020100014F8011B2C488DF828100622FEF748FB07
:1020200000283FD0294B1BBB039B073323F007033A
:1020300008330393099B3B44099367E70CFB023287
:102040000C460120A5E700230134059319464FF003
:102050000A0C204610F8012B303A092A03D9002B2C
:10206000C5D00591C3E70CFB012104460123F0E72D
:1020700003AB00932A46164B04A93046AFF3008009
:102080000746781CD6D16B6ED90705D4AB899A0563
:1020900002D4A86D00F035FCAB895B063FF512AFAA
:1020A000099811E703AB00932A46094B04A930466F
:1020B00000F080F8E4E700BF3C3600005C3600002A
:1020C0001C360000E8350000F2350000000000007A
:1020D000531E0000EE3500002DE9F04716469946E4
:1020E0008A680B69DDF820809342B8BF13463360DD
:1020F00091F8432007460C460AB101333360236848
:10210000990642BF336802333360256815F006052F
:1021100006D104F1190AE36832689B1AAB4226DC47
:1021200094F84320131E226818BF012392062BD473
:1021300004F1430249463846C04701301ED02368A7
:10214000E568326803F00603042B08BFAD1AA368E4
:1021500022690CBF25EAE57500259342C4BF9B1A8E
:10216000ED1800261A34B5421AD1002008E00123E8
:10217000524649463846C047013003D14FF0FF3040
:10218000BDE8F0870135C6E7E1185A1C302081F818
:102190004300224494F8451082F843100233C7E705
:1021A0000123224649463846C0470130E6D0013671
:1021B000D9E700002DE9FF470C469146277E0C9990
:1021C000782F80469A4604F1430207D8622F0AD836
:1021D000002F00F0D880582F00F0A38004F14206B1
:1021E00084F842703AE0A7F16303152BF6D801A0FA
:1021F00050F823F04D22000061220000DD21000094
:10220000DD210000DD210000DD2100006122000051
:10221000DD210000DD210000DD210000DD210000C6
:102220006D230000912200004F230000DD210000FB
:10223000DD2100008F230000DD210000912200003D
:10224000DD210000DD210000572300000B681A1D6E
:102250001B680A6004F1420684F842300123A3E0BF
:10226000256808682E0600F104030AD505680B608E
:10227000002D03DA2D236D4284F843305E480A2393
:1022800019E015F0400F05680B6018BF2DB2EFE79D
:102290000B682568181D0860280601D51D6802E036
:1022A0006906FBD51D8854486F2F0CBF08230A23ED
:1022B000002184F843106668A660002EA2BF216842
:1022C00021F0040121600DB9002E4DD01646B5FB5A
:1022D000F3F103FB1157C75D06F8017D2F46BB42A2
:1022E0000D46F4D9082B0BD12368DF0708D52369E5
:1022F00061689942DEBF302306F8013C06F1FF36E3
:10230000921B2261CDF800A04B4603AA214640460D
:10231000FFF7E2FE01304CD14FF0FF3004B0BDE8D2
:10232000F087354884F8457023680E681F0656F814
:10233000045B0E6014D5D90744BF43F0200323602B
:102340001DB9236823F0200323601023B0E723681E
:1023500043F0200323607823284884F84530E3E7DE
:102360005E0648BFADB2E6E71646BBE70B682668D7
:1023700060691D1D0D6035061B6801D5186002E0FF
:102380007106FBD51880002323611646BAE70B6857
:102390001A1D0A601E68626800213046FEF788F93F
:1023A00008B1801B606063682361002384F84330B8
:1023B000A8E72369324649464046D0470130ABD0B2
:1023C00023689B0713D4E068039B9842B8BF184664
:1023D000A4E70123324649464046D04701309BD00E
:1023E0000135E36803995B1AAB42F2DCEBE70025A9
:1023F00004F11906F5E700BFF93500000A360000C0
:10240000F8B50E461446054618B183690BB900F0BD
:10241000D9F9214B9C422BD16C68A369A360A38995
:102420001A072FD523696BB323692068C01A636923
:10243000F6B28342374604DC2146284600F02EF9E6
:1024400030BBA368013BA36023685A1C22601E7046
:1024500063690130834204D0A389DB0706D50A2EC5
:1024600004D12146284600F019F988B93846F8BD4C
:102470000A4B9C4201D1AC68CFE7094B9C4208BF94
:10248000EC68CAE72146284600F00CF80028CBD0BB
:102490004FF0FF37EAE700BF3C3600005C36000033
:1024A0001C360000324B70B51D6806460C4625B13F
:1024B000AB6913B9284600F085F92E4B9C420FD129
:1024C0006C68A389B4F90C2019072CD4DD0611D44B
:1024D0000923336042F04003A3814FF0FF303EE018
:1024E000254B9C4201D1AC68EBE7244B9C4208BFD2
:1024F000EC68E6E7580712D5616B41B104F144037B
:10250000994202D0304600F061FA00236363A38948
:1025100023F02403A3810023636023692360A3893C
:1025200043F00803A38123694BB9A38903F4207303
:10253000B3F5007F03D02146304600F007FAA089AA
:10254000B4F90C2010F001030AD00023A3606369E2
:102550005B42A361236943B910F08000BAD170BD1A
:10256000810758BF6369A360F4E70020F7E700BF65
:102570001000FF1F3C3600005C3600001C360000D7
:1025800008B5062000F002FB012000F021FC00004D
:102590008A892DE9F041054610070C4658D44B684E
:1025A000002B05DC0B6C002B02DC0020BDE8F08169
:1025B000E66A002EF9D0002312F480522F682B60B7
:1025C00032D0606DA3895A0705D56368C01A636B62
:1025D0000BB1236CC01A00230246E66A216A284622
:1025E000B047431CA38906D129681D292CD82A4A43
:1025F000CA40D60728D500226260D9042269226029
:1026000004D5421C01D12B6803B96065616B2F6052
:102610000029CAD004F14403994202D0284600F0B0
:10262000D5F900206063C1E7216A01232846B0473D
:10263000411CC7D12B68002BC4D01D2B01D0162BF9
:1026400001D12F60B1E7A38943F04003A381ADE737
:102650000F69002FA9D093070E6808BF4B690F6060
:1026600018BF0023A6EB07088B60B8F1000F9CDDB4
:10267000216AA66A43463A462846B047002806DC47
:10268000A38943F04003A3814FF0FF308EE7074456
:10269000A8EB0008E9E700BF0100402038B50B694E
:1026A00005460C4613B90025284638BD18B1836984
:1026B0000BB900F087F8144B9C421BD16C68B4F93D
:1026C0000C30002BEFD0626ED00704D4990502D4F1
:1026D000A06D00F015F928462146FFF759FF636EFB
:1026E000DA070546E0D4A3899B05DDD4A06D00F090
:1026F00008F9D9E7054B9C4201D1AC68DFE7044BF0
:102700009C4208BFEC68DAE73C3600005C3600000B
:102710001C360000002310B50446C0E90033C0E9B0
:102720000433836081814366C28183611946082234
:102730005C30FFF771FB054B6362054BA362054BF1
:10274000E362054B2462236310BD00BFC52B00006C
:10275000E72B00001F2C0000432C0000014900F073
:10276000AFB800BF9D26000070B54A1E68255543CE
:102770000E4605F1740100F077F9044640B10021DE
:10278000C0E900160C30A06005F16802FFF744FBB9
:10279000204670BD014800F0B3B800BF4803FF1FDA
:1027A000014800F0AEB800BF4803FF1F014800F029
:1027B000A7B800BF4303FF1F014800F0A2B800BF45
:1027C0004303FF1F10B50446FFF7F0FFA3691BB1D9
:1027D000BDE81040FFF7F0BFC4E912332365134B87
:1027E000134A1B68A262A34204BF0123A3612046CF
:1027F00000F020F86060204600F01CF8A060204641
:1028000000F018F80022E06004216068FFF782FF02
:10281000A06801220921FFF77DFFE0680222122152
:10282000FFF778FF0123A361D2E700BFE435000082
:102830005D270000F8B50746FFF7ACFF1E4B1E688A
:10284000B36913B93046FFF7BDFF4836D6E9013406
:10285000013B03D533680BB33668F7E7B4F90C5086
:10286000D5B9164BE36004F15800656600F047F8EF
:10287000FFF796FFC4E90155C4E904552560A56139
:102880000822294604F15C00FFF7C6FAC4E90D5599
:10289000C4E912552046F8BD6834D9E7042138460A
:1028A000FFF762FF044630600028D5D1FFF778FFBC
:1028B0000C233B60EEE700BFE43500000100FFFFA2
:1028C0002DE9F8430646884600F148040027D4E97C
:1028D0000195B9F1010905D52468002CF7D13846D6
:1028E000BDE8F883AB89012B07D9B5F90E30013368
:1028F00003D029463046C04707436835E9E77047AB
:102900007047704770B50E46B1F90E10002996B0A9
:1029100014461D4607DA00232B60B3891A0610D42B
:102920004FF480630EE06A4600F0B2F90028F2DB53
:10293000019A02F47042A2F500535A425A412A60A9
:10294000EEE740230020236016B070BD8B8973B57D
:102950009D0706460C4607D504F147032360236113
:102960000123636102B070BD01AB6A46FFF7CAFF85
:1029700000990546304600F077F848B9B4F90C30B4
:102980009A05EFD423F0030343F00203A381E3E7A6
:102990000D4BB362A389206043F08003A381009BA9
:1029A0006361019B20615BB1B4F90E10304600F009
:1029B00081F928B1A38923F0030343F00103A38124
:1029C000A0890543A581CDE75D27000038B5054600
:1029D000002945D051F8043C0C1F002BB8BFE41867
:1029E00000F08AF91F4A1368104633B96360146017
:1029F0002846BDE8384000F085B9A3420BD92168CC
:102A00006218934204BF1A685B68636004BF52187F
:102A100022600460ECE71A465B680BB1A342FAD966
:102A200011685018A0420BD120680144501883420D
:102A30001160DDD118685B68536001441160D7E70D
:102A400002D90C232B60D3E7206821188B4204BFE6
:102A500019685B68636004BF091821605460C7E7A8
:102A600038BD00BF3403FF1FF8B5CD1C25F00305AA
:102A700008350C2D38BF0C25002D064601DBA94278
:102A800003D90C2333600020F8BD00F035F921494B
:102A90000A6814469CB9204F3B6823B9214630464A
:102AA00000F03CF838602946304600F037F8431C07
:102AB00023D10C233360304600F024F9E3E7236888
:102AC0005B1B17D40B2B03D923601C44256004E047
:102AD0006368A2420CBF0B605360304600F012F9ED
:102AE00004F10B00231D20F00700C21ACCD01B1AE2
:102AF000A350C9E722466468CCE7C41C24F0030451
:102B0000A042E3D0211A304600F008F80130DDD1B0
:102B1000CFE700BF3403FF1F3803FF1F38B5064D52
:102B20000023044608462B6000F03CF9431C02D108
:102B30002B6803B1236038BD4C03FF1F1F2938B534
:102B400004460D4604D9162303604FF0FF3038BD0C
:102B5000426C12B152F821304BB9204600F030F8E7
:102B60002A4601462046BDE8384000F017B8012B40
:102B70000AD0591C03D1162303600120E7E7002483
:102B800042F82540284698470020E0E7024B0146DE
:102B90001868FFF7D3BF00BF1000FF1F38B5074DFF
:102BA00000230446084611462B6000F0E3F8431C5E
:102BB00002D12B6803B1236038BD00BF4C03FF1F57
:102BC00000F0C8B810B50C46B1F90E1000F0A0F82E
:102BD0000028ABBF636DA3891B1823F48053ACBFDF
:102BE0006365A38110BD2DE9F0411F468B89DB058C
:102BF00005460C46164605D5B1F90E1002230022F3
:102C000000F068F8A389B4F90E1023F48053A3816F
:102C100032463B462846BDE8F04100F017B810B5F3
:102C20000C46B1F90E1000F055F8431CA38915BFEE
:102C3000606523F4805343F48053A38118BFA381BC
:102C400010BDB1F90E1000F013B8000038B5074DF3
:102C500004460846114600222A601A4600F0B0F8E1
:102C6000431C02D12B6803B1236038BD4C03FF1F06
:102C700038B5064D0023044608462B6000F05AF88C
:102C8000431C02D12B6803B1236038BD4C03FF1FE6
:102C900038B5074D00230446084611462B6000F066
:102CA00051F8431C02D12B6803B1236038BD00BF2B
:102CB0004C03FF1F38B5064D0023044608462B6021
:102CC00000F050F8431C02D12B6803B1236038BDDB
:102CD0004C03FF1F38B5074D044608461146002235
:102CE0002A601A4600F04EF8431C02D12B6803B14B
:102CF000236038BD4C03FF1F0148FFF701BE00BF32
:102D00004403FF1F0148FFF7FCBD00BF4403FF1F42
:102D100038B5074D04460846114600222A601A4677
:102D200000F038F8431C02D12B6803B1236038BD92
:102D30004C03FF1F024B58221A604FF0FF307047C0
:102D40004C03FF1F024B58221A604FF0FF307047B0
:102D50004C03FF1F024B58221A604FF0FF307047A0
:102D60004C03FF1F024B58221A600020704700BF1F
:102D70004C03FF1F024B58221A604FF0FF30704780
:102D80004C03FF1F024B58221A604FF0FF30704770
:102D90004C03FF1F024B58221A604FF0FF30704760
:102DA0004C03FF1F044A05491368002B08BF0B465C
:102DB00018441060184670473C03FF1F00000020B5
:102DC000024B58221A604FF0FF3070474C03FF1F30
:102DD000FEE700BF2B7E151628AED2A6ABF71588EE
:102DE00009CF4F3C00303132333435363738394132
:102DF0004243444546060000010000000000010077
:102E000010757000000000000000000000001100BC
:102E1000675F7874616C3046726571002E2E2F2EBC
:102E20002F68616C2F6B3234662F66736C5F636C36
:102E30006F636B2E6300675F7874616C3332467228
:102E40006571006D6367706C6C30636C6B00636FF1
:102E50006E66696700434C4F434B5F4765744D6333
:102E600067457874436C6B4672657100434C4F4301
:102E70004B5F4765744F7363304572436C6B4672AA
:102E8000657100434C4F434B5F4765744572333265
:102E90006B436C6B4672657100434C4F434B5F470D
:102EA0006574506C6C304672657100434C4F434BF7
:102EB0005F456E61626C65506C6C3000434C4F43F3
:102EC0004B5F5365745062654D6F6465000080020E
:102ED000DC020005B80580079508000A710B696ED1
:102EE0007374616E6365203C2041525241595F53B7
:102EF000495A4528735F6473706942617365732929
:102F0000002E2E2F2E2F68616C2F6B3234662F66A9
:102F1000736C5F647370692E6300675F64737069BC
:102F200048616E646C655B305D00675F64737069F7
:102F300048616E646C655B315D00675F64737069E6
:102F400048616E646C655B325D00535049305F448C
:102F5000726976657249525148616E646C6572009F
:102F6000535049315F4472697665724952514861E4
:102F70006E646C657200535049325F4472697665C5
:102F80007249525148616E646C657200696E737467
:102F9000616E6365203C2041525241595F53495A4A
:102FA0004528735F65646D61426173657329002E06
:102FB0002E2F2E2F68616C2F6B3234662F66736C48
:102FC0005F65646D612E630068616E646C652021CD
:102FD0003D204E554C4C0045444D415F48616E6468
:102FE0006C65495251002128626173652D3E4D4345
:102FF0005220262043414E5F4D43525F4D4449537A
:103000005F4D41534B29002E2E2F2E2F68616C2FC0
:103010006B3234662F66736C5F666C657863616EC5
:103020002E6300735F666C657863616E48616E64E1
:103030006C655B305D0043414E305F44726976657C
:103040007249525148616E646C657200696E7374A6
:10305000616E6365203C2041525241595F53495A89
:103060004528735F6770696F426173657329002E2D
:103070002E2F2E2F68616C2F6B3234662F66736C87
:103080005F6770696F2E63004750494F5F50696EEC
:10309000496E697400696E7374616E6365203C20CB
:1030A00041525241595F53495A4528735F736169D0
:1030B000426173657329002E2E2F2E2F68616C2FAD
:1030C0006B3234662F66736C5F7361692E630073B5
:1030D0005F73616948616E646C655B305D5B305D38
:1030E00000735F73616948616E646C655B305D5B42
:1030F000315D00493253305F54785F4472697665C0
:103100007249525148616E646C65720049325330A5
:103110005F52785F44726976657249525148616EB8
:10312000646C65720068616E646C65002E2E2F2ED3
:103130002F68616C2F6B3234662F66736C5F73641B
:1031400068632E630068616E646C652D3E636F6D0D
:103150006D616E640068616E646C652D3E646174BF
:103160006100735F7364686348616E646C655B30B3
:103170005D00534448435F44726976657249525119
:1031800048616E646C6572002E2E2F2E2F68616C64
:103190002F6B3234662F66736C5F756172742E63A9
:1031A00000696E7374616E6365203C207561727492
:1031B0004172726179436F756E7400636F6E6669F8
:1031C000672D3E62617564526174655F4270730081
:1031D00046534C5F464541545552455F5541525404
:1031E0005F4649464F5F53495A456E286261736591
:1031F00029203E3D20636F6E6669672D3E747846D8
:1032000069666F57617465726D61726B0046534CED
:103210005F464541545552455F554152545F4649BA
:10322000464F5F53495A456E286261736529203EB7
:103230003D20636F6E6669672D3E72784669666FE2
:1032400057617465726D61726B00554152545F47EE
:103250006574496E7374616E636500554152545FC5
:10326000496E697400554152545F47657444656600
:1032700061756C74436F6E66696700554152545FA7
:1032800052656164426C6F636B696E670000000099
:103290000A0034100B0034100C0034100D003410F0
:1032A0000A0028100B002810C6F8EEF6FFD6DE91B3
:1032B0006002CE56E7B54DEC8F1F89FAEFB28EFB58
:1032C00041B35F452353E49B75E13D4C6C7EF58330
:1032D0006851D1F9E2AB622A0895469D30370A2F32
:1032E0000E241BDFCD4E7FEA121D583436DCB45B52
:1032F000A476B77D52DD5E13A6B900C140E379B66E
:10330000D48D67729498B085BBC54FED869A6611CF
:103310008AE904FEA078254BA25D80053F2170F16B
:103320006377AF4220E5FDBF811826C3BE35882EE6
:103330009355FC7AC8BA32E6C0199EA344543B0B9D
:103340008CC76B28A7BC16ADDB647414920C48B80C
:103350009FBD43C43931D3F2D58B6EDA01B19C499C
:10336000D8ACF3CFCAF447106FF04A5C3857739764
:10337000CBA1E83E96610D0FE07C71CC9006F71C66
:10338000C26AAE6917993A27D9EB2B22D2A9073323
:103390002D3C15C987AA50A50359091A65D784D0B1
:1033A00082295A1E7BA86D2CA584998D0DBDB15420
:1033B0005003A97D1962E69A459D408715EBC90B1C
:1033C000EC67FDEABFF7965BC21CAE6A5A41024F3A
:1033D0005CF434089373533F0C52655E28A10FB51B
:1033E00009369B3D2669CD9F1B9E742E2DB2EEFBA8
:1033F000F64D61CE7B3E7197F568002C601FC8EDDD
:10340000BE46D94BDED4E84A6B2AE516C5D755949B
:10341000CF100681F044BAE3F3FEC08AADBC480485
:10342000DFC17563301A0E6D4C14352FE1A2CC3913
:1034300057F28247ACE72B95A098D17F667EAB838D
:10344000CA29D33C79E21D763B564E1EDB0A6CE45A
:103450005D6EEFA6A8A4378B324359B78C64D2E0D7
:10346000B4FA0725AF8EE918D5886F7224F1C751D9
:10347000237C9C21DDDC86859042C4AAD8050112FC
:10348000A35FF9D0915827B93813B333BB7089A71C
:10349000B622922049FF787A8FF88017DA31C6B8C1
:1034A000C3B07711CBFCD63A637C777BF26B6FC5E8
:1034B0003001672BFED7AB76CA82C97DFA5947F037
:1034C000ADD4A2AF9CA472C0B7FD9326363FF7CC13
:1034D00034A5E5F171D8311504C723C31896059AB0
:1034E000071280E2EB27B27509832C1A1B6E5AA0D3
:1034F000523BD6B329E32F8453D100ED20FCB15BBE
:103500006ACBBE394A4C58CFD0EFAAFB434D338526
:1035100045F9027F503C9FA851A3408F929D38F5FA
:10352000BCB6DA2110FFF3D2CD0C13EC5F97441731
:10353000C4A77E3D645D197360814FDC222A9088A8
:1035400046EEB814DE5E0BDBE0323A0A4906245C34
:10355000C2D3AC629195E479E7C8376D8DD54EA999
:103560006C56F4EA657AAE08BA78252E1CA6B4C665
:10357000E8DD741F4BBD8B8A703EB5664803F60EBE
:10358000613557B986C11D9EE1F8981169D98E94AD
:103590009B1E87E9CE5528DF8CA1890DBFE64268C6
:1035A00041992D0FB054BB162C2066756E6374695B
:1035B0006F6E3A2000617373657274696F6E2022BA
:1035C000257322206661696C65643A2066696C65C2
:1035D00020222573222C206C696E652025642573BA
:1035E00025730A001400FF1F232D302B2000686C68
:1035F0004C00656667454647003031323334353616
:10360000373839414243444546003031323334354E
:103610003637383961626364656600000000000077
:10362000000000000000000000000000000000009A
:10363000000000000000000000000000000000008A
:10364000000000000000000000000000000000007A
:10365000000000000000000000000000000000006A
:10366000000000000000000000000000000000005A
:10367000000000000000000000000000F8B500BFDE
:10368000F8BC08BC9E467047F8B500BFF8BC08BC43
:043690009E4670479B
:08369400BCCDFF7F0100000026
:04369C0035040000F1
:0436A0001104000011
:1036A4000A00000000093D00008000000000400105
:1036B4001400FF1F000000003C3600005C360000D0
:1036C4001C360000000000000000000000000000A4
:1036D40000000000000000000000000000000000E6
:1036E40000000000000000000000000000000000D6
:1036F40000000000000000000000000000000000C6
:1037040000000000000000000000000000000000B5
:0437140000000000B1
:04000003000004C530
:00000001FF
