:100000000C9415010C9434010C9434010C943401BB
:100010000C9434010C9434010C9434010C9434018C
:100020000C9434010C9434010C9434010C9434017C
:100030000C9434010C9434010C9434010C9434016C
:100040000C9434010C9434010C9434010C9434015C
:100050000C9434010C9434010C9434010C9434014C
:100060000C9434010C9434010C9434010C9434013C
:100070000C9434010C9434010C9434010C9434012C
:100080000C9434010C9434010C9434010C9434011C
:100090000C9434010C9434010C9434010C9434010C
:1000A0000C9434010C9434010C9434010C943401FC
:1000B0000C9434010C9434010C9434010C943401EC
:1000C0000C9434010C9434010C9434010C943401DC
:1000D0000C9434010C9434010C9434010C943401CC
:1000E0000C9434010C9434010C9434010C943401BC
:1000F0000C9434010C9434010C9434010C943401AC
:100100000C9434010C9434010C9434010C9434019B
:100110000C9434010C9434010C9434010C9434018B
:1001200001020408102040801B36637C777BF26B51
:100130006FC53001672BFED7AB76CA82C97DFA59ED
:1001400047F0ADD4A2AF9CA472C0B7FD9326363F52
:10015000F7CC34A5E5F171D8311504C723C318963F
:10016000059A071280E2EB27B27509832C1A1B6EE1
:100170005AA0523BD6B329E32F8453D100ED20FC83
:10018000B15B6ACBBE394A4C58CFD0EFAAFB434D86
:10019000338545F9027F503C9FA851A3408F929D23
:1001A00038F5BCB6DA2110FFF3D2CD0C13EC5F9713
:1001B0004417C4A77E3D645D197360814FDC222A19
:1001C000908846EEB814DE5E0BDBE0323A0A490650
:1001D000245CC2D3AC629195E479E7C8376D8DD5C4
:1001E0004EA96C56F4EA657AAE08BA78252E1CA69C
:1001F000B4C6E8DD741F4BBD8B8A703EB5664803FC
:10020000F60E613557B986C11D9EE1F8981169D97E
:100210008E949B1E87E9CE5528DF8CA1890DBFE601
:10022000426841992D0FB054BB1611241FBECFEF69
:10023000D1E4DEBFCDBF12E0A0E0B2E0E2EBFBE034
:1002400000E00BBF02C007900D92A432B107D9F7AE
:1002500023E0A4E2B2E001C01D92A633B207E1F7A9
:100260000E9484050C94D7050C94000080E008954A
:10027000FC0190818181909301028093000280E0D3
:1002800008950E94890380E008950E947F0380E022
:100290000895CF93DF93D82FC92F0E948703599ACF
:1002A0008D2F9C2F0E94830359988D2F9C2F0E9485
:1002B00088034D2F5C2F60E182E70E941B0280E0E3
:1002C000DF91CF9108950F931F93CF93DF93D82F92
:1002D000C92F0E94870310E000E0809100029091F6
:1002E00001020817190780F08D2F9C2F0E948803A8
:1002F0004D2F5C2F60E182E70E941B0280E0DF91BE
:10030000CF911F910F910895599A8D2F9C2F0E9484
:10031000830359980F5F1F4FE0CF81E00895282F86
:1003200080E046EA615008F40895E22FF92F919198
:10033000892728E030E087FF08C0880F84272150F4
:100340003109C9F72E2F9F2FEDCF880FF8CF9C01D1
:10035000FA01DB0150E040E0421753071CF090E047
:1003600080E008958C9111969C91119760ED690F32
:100370006A3078F4608390ED980F9A30D0F48295CB
:10038000807F9081892B80834F5F5F4F31961296DB
:10039000E3CF6FEB690F663018F497539083EBCF80
:1003A0006FE9690F663018F081E090E00895975585
:1003B000F5CF9FEB980F963040F48753990B64E08C
:1003C000880F991F6A95E1F7DCCF9FE9980F963067
:1003D00058F78755990BF3CFDB0160918402709138
:1003E000850260317105D4F4A03CB105B8F496E003
:1003F000969FF001979FF00D1124EC5DFD4F8083D7
:10040000B283A1834383548325836F5F7F4F7093AF
:1004100085026093840290E080E0089581E090E09E
:10042000089520E00C94EC014DE851E070E060E0AC
:1004300086E70C941102FF920F931F93CF93DF93E3
:10044000062FF42E152F0E944203CF2DD12F0C0F13
:100450001D2F111DC017D10741F48AE0DF91CF9104
:100460001F910F91FF900C944203E991E295EF7078
:10047000F0E0EE5FFD4F80810E944203FE01319764
:10048000E081EF70F0E0EE5FFD4F80810E9442035B
:10049000E1CFAF92BF92CF92DF92EF92FF920F9394
:1004A0001F93CF93DF93CDB7DEB7C154D2400FB6C1
:1004B000F894DEBF0FBECDBF0E943B034091840283
:1004C0005091850224E232E010E000E004171507A5
:1004D000ACF040175107C9F4CF5BDD4F0FB6F8946D
:1004E000DEBF0FBECDBFDF91CF911F910F91FF9067
:1004F000EF90DF90CF90BF90AF9008952A5F3F4F6D
:10050000F9013697908198137DC026E0209FC001A5
:10051000219F900D11249C012C5D3D4F7901D90143
:1005200015968C9180FF21C0CF57DE4F1882C1589D
:10053000D1400E943B0389830E943B038A83AE0122
:100540004F575E4FBE016F5F7F4F81E090E00E948A
:10055000A701892B09F0C0CFCF57DE4F8881C15842
:10056000D14090E0F701928381839E012F5F3F4F3E
:100570005901F12CE12C26E0209FC001219F900D14
:100580001124DC01AB5DBD4F6D01D6018D919C91B5
:10059000880F991FE816F906C0F10E943B038A30C4
:1005A00019F08D3009F098CF26E0209FC001219FDF
:1005B000900D11248C010C5D1D4FF801F180AE01EE
:1005C0004F575E4FBE016F5F7F4F8F2D92810E940C
:1005D000A701892B09F080CFD8011396ED91FC91EA
:1005E0006F2DCE018F579E4F0995CF5BDD4F8883CE
:1005F000C154D240AE014F5B5D4F61E08AE70E947B
:100600001B026ACF0F5F1F4F61CF0E943B038A30EE
:1006100009F462CF8D3009F45FCFF50181935F015A
:10062000FFEFEF1AFF0AB1CF88E18093C1008BE0A2
:100630008093C4000895CF93DF9300D0CDB7DEB789
:10064000FC017A83698390E080E029813A81281750
:10065000390711F481E008C02091C00027FF09C0CC
:100660008091C600808380E00F900F90DF91CF9142
:1006700008950196EACF8091C00087FFFCCF80915A
:10068000C60008959091C00095FFFCCF8093C600EE
:10069000089588E18093C90083E08093CC00089599
:1006A000CF93DF9300D0CDB7DEB7FC017A836983A7
:1006B00090E080E029813A812817390711F481E020
:1006C00008C02091C80027FF09C08091CE00808318
:1006D00080E00F900F90DF91CF9108950196EACFBF
:1006E0008091C80087FFFCCF8091CE000895909143
:1006F000C80095FFFCCF8093CE000895089566E86A
:1007000072E00C94650566E872E00C947405089537
:1007100008950895CF93DF9300D000D0CDB7DEB712
:10072000FC018081898384818A8380858B83848591
:100730008C83862F90E06370A1E0B0E0AC0FBD1F0A
:10074000A60FB11D2C912083DC011196A370BB274D
:1007500021E030E02C0F3D1FA20FB31F2C9124830A
:10076000DC011296A370BB2721E030E02C0F3D1F67
:10077000A20FB31F2C912087039683709927A1E0C5
:10078000B0E0AC0FBD1F8A0F9B1FDC018C918487EA
:100790000F900F900F900F90DF91CF9108952F92AF
:1007A0003F924F925F926F927F928F929F92AF9201
:1007B000BF92CF92DF92EF92FF920F931F93CF934E
:1007C000DF93CDB7DEB761970FB6F894DEBF0FBEEB
:1007D000CDBF7C016B013C014C0180E1880E911C76
:1007E000F7018191DB019D91BD019F0121503109EC
:1007F0008927D9018C93E815F90599F722242394C8
:100800004F5F498B89898219823008F045C0D70132
:10081000ED91F0E0E65DFE4F2491CD010197FC01E2
:100820002083A815B905A1F761E0C70101960E94D0
:100830008A0362E0C70102960E948A0363E0C7014F
:1008400003960E948A0380E1289EF0011124EC0D9A
:10085000FD1DD3018D913D019191119789278C93B5
:1008600068147904B1F761960FB6F894DEBF0FBE35
:10087000CDBFDF91CF911F910F91FF90EF90DF904F
:10088000CF90BF90AF909F908F907F906F905F9030
:100890004F903F902F9008958E010F5F1F4FC8011A
:1008A000D701ED91F0E0E65DFE4F2491FC0121932C
:1008B000CF01A815B905A9F761E0CE0102960E9403
:1008C0008A0362E0CE0103960E948A0363E0CE01B0
:1008D00004960E948A032801F0E14F0E511C570133
:1008E000D8016C9111968C911197682712963C90C3
:1008F000129713968C91382636264BE182E00E949F
:100900007705F801908189278325D5018C93618132
:10091000828168274BE182E00E947705F80191818E
:1009200089278325D50111968C936281838168275D
:100930004BE182E00E947705F801928189278325A7
:10094000D50112968C936381808168274BE182E008
:100950000E947705F801938189273826D5011396DF
:100960003C920C5F1F4FB4E0AB0EB11C0415150593
:1009700009F0B6CFE0E12E9ED0011124AD014C0D5F
:100980005D1DF7018191DA019D91AD019F0121501B
:1009900031098927D9018C93E815F90599F7239432
:1009A00031CFCF92DF92EF92FF920F931F93CF93AD
:1009B000DF93D42FC52F7B0145E0F694E7944A9549
:1009C000E1F70E2D17E01E0D110F110FAB0163E0C3
:1009D000569547956A95E1F7BC018D2F9C2F0E9493
:1009E000CE052D2F3C2FE701DD27CC0FDD1FCC0FCF
:1009F000DD1FC20FD31F7E2D5E2D60E0511748F022
:100A0000DF91CF911F910F91FF90EF90DF90CF90EA
:100A10000895FE013497F0804181D280E3808F2DCC
:100A2000942FAD2DBE2D571771F10830E1F4E52F4D
:100A3000E770E430C1F4EF2DF0E0E65DFE4FE491A5
:100A40008E2FE42FF0E0E65DFE4F4491942FED2DC4
:100A5000F0E0E65DFE4FE491AE2FEE2DF0E0E65DB6
:100A6000FE4FE491BE2FF901C190D190E190F19039
:100A70009F018C259D25AE25BF2589939993A99328
:100A8000B9935F5FBBCF752F700FE42FF0E0E65D89
:100A9000FE4F4491ED2DF0E0E65DFE4FE4919E2F78
:100AA000EE2DF0E0E65DFE4FE491AE2FEF2DF0E08D
:100AB000E65DFE4FE491BE2FE62FF0E0E05EFE4FD4
:100AC000E491842F8E276F5FCECFAB0160E870E09A
:100AD0000C94D104AB0160EC70E00C94D104AB0138
:100AE00060E071E00C94D1044AE00C94CF03782FBD
:100AF0008827769531F008F48627660F08F4642776
:100B0000F8CF08F486270895CDB7DEB760970FB603
:100B1000F894DEBF0FBECDBF80E1E2E1F2E0DE017E
:100B2000119601900D928A95E1F70E941403519A53
:100B30000E947E03CE0101960E947F030E94140250
:100B400045E451E060E170E08BE60E94110249E467
:100B500051E060E170E080E70E94110246E351E05D
:100B600070E060E088E70E94110221E041E451E07A
:100B700062E170E08DE60E94EC0148E351E062E042
:100B800070E083E70E94110243E651E060E170E00B
:100B900086E60E9411020E944902FDCFFB01DC01A2
:100BA00002C001900D9241505040D8F70895F8943A
:020BB000FFCF75
:100BB2000A00303132333435363738394142434412
:100BC20045462B7E151628AED2A6ABF7158809CF5F
:040BD2004F3C000094
:00000001FF
