:1000000000800020D508000001090000010900005F
:1000100001090000010900000109000001090000B8
:1000200001090000010900000109000001090000A8
:100030000109000001090000010900000109000098
:100040000109000001090000010900000109000088
:100050000109000001090000010900000109000078
:100060000109000001090000010900000109000068
:100070000109000001090000010900000109000058
:100080000109000001090000010900000109000048
:100090000109000001090000010900000109000038
:1000A0000109000001090000010900000109000028
:1000B0000109000001090000010900000109000018
:1000C0000448054B10B5834203D0044B002B00D0ED
:1000D000984710BD6C0000206C000020000000005C
:1000E00006480749091A8910CB0F591810B549104D
:1000F00003D0044B002B00D0984710BD6C000020AB
:100100006C0000200000000010B5074C2378002B85
:1001100009D1FFF7D5FF054B002B02D00448AFF300
:1001200000800123237010BD6C000020000000003F
:100130007C220000054B10B5002B03D00449054874
:10014000AFF30080FFF7CCFF10BDC04600000000F9
:10015000700000207C220000144B002B00D1124BB9
:100160009D46402292029A1A924600218B460F46E3
:100170001148124A121A01F08FFB0D4B002B00D0D0
:1001800098470C4B002B00D098470020002104001A
:100190000D000B4801F0E0FA01F016FB20002900E9
:1001A00000F02EF801F0E0FA0000080000800020C6
:1001B00000000000000000006C000020200900206A
:1001C000951700000020704710B500F0C7F9002017
:1001D00010BD10B500F0BAF9002010BD70B50400D4
:1001E0000D0000F0A7F92900200000F0B3F900F09D
:1001F00099F922001021722000F0AAF8002070BDA9
:100200001FB510221D49684601F002FB00F014F9E9
:1002100000F028F900F074F900F094F91021684614
:1002200000F094F9682000F057F9652000F054F9C7
:100230006C2000F051F96C2000F04EF96F2000F0B6
:100240004BF90A2000F048F900F078F80C4A102128
:100250006B2000F06DF80B4A1021702000F068F858
:10026000094A0021782000F063F80123074A26217B
:100270006D2000F045F800F089F8FCE7001B000055
:10028000D3010000DD010000C5010000C90100002C
:10029000002070470300303BDBB2092B01D858B275
:1002A00070470300413B052B02D8373840B2F7E7CF
:1002B0000300613B052B01D85738F7E70120404286
:1002C000EEE7F7B517000C0016000190019AF31B3A
:1002D0009A4201DC0020FEBD2078FFF7DBFF05001D
:1002E0006078FFF7D7FF002807DB0234002D04DB1E
:1002F0002D01281830700136E8E70120EBE70000F7
:10030000F0B5094E070035680120092D0BDC3F29A7
:1003100009D8064C280107552018416082600373F4
:10032000002001353560F0BD280100208800002044
:1003300010B50023FFF7E4FF10BD000010B5034A1D
:1003400000217620FFF7F4FF10BDC04691020000A7
:10035000F7B5150001912C0000F0BEF80F27019AA7
:10036000631B9A4203DC0A2000F0B6F8F7BD23783D
:10037000054E1B09F05C00F0AFF8237801343B40D8
:10038000F05C00F0A9F8EAE7101B0000F0B5B3B08C
:10039000002500F0ABF8254B25491A68AA4234DC49
:1003A00031D0234E2D0177193B7BDB070CD500F0B4
:1003B0009DF8FFF76FFF0001C4B200F097F8FFF758
:1003C00069FF2418E4B27C60002473195B685B0049
:1003D000A34220D800F08AF80A2801D00D2812D1B3
:1003E0007619756802AA12A92800FFF76AFF00288B
:1003F00009D1E9B2B36802A8984701AA1070012197
:100400007A20FFF7A5FF33B0F0BD2C010C5D8442CC
:10041000C7D00135C2E700F069F80A28F3D00D28EB
:10042000F1D012ABE0540134CFE7C04628010020E0
:10043000880000207047000010B503220749084BD0
:1004400008005A6201321A660C681442FCD0082275
:1004500001681142FCD002225A6710BD90400E4044
:1004600000400E400123144A032011680B4313601F
:100470000423124A11680B431360A022104B52014F
:100480001A6080220F4BD2001A6000220E4B0F49D7
:100490001A6059600E495961052158679A670D4ADB
:1004A000D9601268024201D1D960FDE710231A40D9
:1004B000002AFDD17047C046C0400E40B0400E40FB
:1004C000C8800840CC8008400000014005100000B2
:1004D000FF0A0000100001404022034B196911423D
:1004E000FCD058637047C046000001408022034B97
:1004F00019691142FCD0D869C0B2704700000140B0
:100500000423064A11680B43136080224021044BE8
:10051000D2045A63DA6B8A43DA637047B0400E4004
:10052000008008404021024AD36B8B43D36370475D
:10053000008008404023024AD16B0B43D3637047CD
:100540000080084010B500F00DF810BD10B500F0A7
:100550001BF810BD10B500F021F810BD10B500F06B
:1005600039F810BD10B50023E5211A00044CC9006C
:100570001819013302708B42FAD1024B1A7010BD68
:10058000E40100200C0900200023034AC15CD1547F
:100590000133102BFAD17047D30100201FB5084A50
:1005A000030010780B221043064A00930292064A79
:1005B00006490192064A00F0C9F805B000BDC046E0
:1005C0000C090020C00100200D090020E4010020DA
:1005D000D301002070B5124B1A78122910D90024CB
:1005E000104D065D2E550134132CFAD10D341443F1
:1005F0001C700024262907D040211A788A430CE079
:1006000020218A431A70F7E70119C97C064D295544
:100610000134132CF8D160210A431A7070BDC04612
:100620000C090020C00100200D09002030B5020097
:100630000D4C2368553B037023680132DBB2151A59
:100640008D420AD301224018113B13430138037035
:10065000002023689B18236030BD551E2D78333B46
:10066000EB181370E8E7C0462C01002010B5C40752
:1006700001D500291BD021210140212902D1039954
:10068000002917D0410602D50299002915D001078B
:1006900003D5002A14D0002B12D00021C00604D5A7
:1006A0008A420DD0594259410903080010BD8021EA
:1006B0000902FAE780218900F7E780214900F4E781
:1006C00080214901F1E71822030002400220182A84
:1006D0000FD0062200181A40062A0AD0122204302F
:1006E0001A40122A05D00C221A400C2A01D0584276
:1006F0005841704730B503070DD5020001230A4366
:100700001A421CD01D004C08A54302D084081C428C
:1007100018D1930710D50023C2060BD50843C30791
:100720000DD50623194002290CD0023B1840434244
:1007300043415B04180030BD80239B02FAE780230D
:10074000DB02F7E780231B03F4E70000F0B58DB070
:10075000002716000C003A000390059307ABDB1945
:1007600001371A70132FF9D10398FFF7ACFF051E5C
:100770004DD1564B0398E15CFFF7BCFF534B051E70
:10078000049344D1149B059A0193139B3100009369
:100790000398129BFFF76AFF051E38D12123039AA5
:1007A0001340212B36D1030007AA1499C95C995430
:1007B0000133132BF9D10127039B3B420FD007AA2A
:1007C0003100200000F0BDFC002800D078E0049B40
:1007D000E35C1F43049BE754E423DB00E050039BEE
:1007E00007AF5B061ED50023139AD25CFA5401337F
:1007F000132BF9D10226039B334224D0E8239B001C
:100800003900E01800F00DFD002813D080252800E5
:100810000DB0F0BD390007A8FFF708FF0028CAD0C7
:100820001025F4E713213800FFF700FF0028E1D07E
:100830002025ECE70422049BE35C93431E43049BC6
:10084000E654234BE0500426039B334210D0E823A8
:100850009B003900E01800F030FD0028D6D10222BC
:10086000049BE35C93431E43049BE654184BE05007
:100870001823039A1A40082A0ED0102AC7D1E8205C
:100880008000129B059A2100201800F04BFE0028E2
:100890000CD08025AD00BAE7E8208000129B059AB5
:1008A0002100201800F055FD00280BD1E422D200D1
:1008B000A3580133A350064AA3580133A350A6E717
:1008C0004025A4E780256D00A1E7C046240700006D
:1008D0001C070000064880470649074A074B9B1A39
:1008E00003DD043BC858D050FBDCFFF735FC0000AB
:1008F0003504000088220000000000206C00002069
:10090000FEE7C04642F26804C0F2000442F26815F5
:10091000C0F20005E75D3E464FEA072786EA070674
:100920004FEA072786EA07064FEA072786EA0707FE
:100930004FF001324FF0000A03B402984FF001016A
:10094000016003BC03B40298016801F1010142296E
:10095000016003BC2ED054F8046B86FA47F6A2FA65
:100960008AF886FA48F6B04608F0FF0815F80880BD
:10097000C3464FEA162808F0FF0815F808804FEA2A
:1009800008288BEA080B4FEA164808F0FF0815F80C
:1009900008804FEA08488BEA080B4FEA166808F00F
:1009A000FF0815F808804FEA08688BEA080B43F83F
:1009B00004BBC7E7A3F580734FF000061E707047B5
:1009C000009B03F51373009D05F50275009E06F567
:1009D000177603B402984FF00101016003BC03B421
:1009E0000298016801F101011229016003BC08D0DD
:1009F00012F8014B03F8014B15F8014B06F8014BB7
:100A0000EDE77047DDF8008008F10808009F07F166
:100A1000B807DDF800C00CF5BA7C03B402984FF0BB
:100A20000101016003BC03B40298016801F10101F6
:100A30001229016003BC0AD017F8014B11F8013BE1
:100A40001CF8033083EA040408F8014BEBE7704715
:100A5000DDF8008008F1B80803B402984FF00101F6
:100A6000016003BC03B40298016801F1010112297D
:100A7000016003BC04D012F8014B08F8014BF1E708
:100A8000DDF8008008F5B47812F8015B88F80050B2
:100A900088F8015088F8025088F80350DDF800808B
:100AA00008F5B67812F8015B88F8005088F8015014
:100AB00088F8025088F80350DDF8008008F5B8780F
:100AC000177888F800707047009B03F5027303B431
:100AD00002984FF00101016003BC03B40298016861
:100AE00001F101011229016003BC04D011F8014B8E
:100AF00003F8014BF1E7009F07F5107711F8015B50
:100B00003D707D70BD70FD703D68009F07F51177E9
:100B100011F8015B3D707D70BD70FD703D68009DFA
:100B200005F512750F782F707047A44603B402982C
:100B30004FF00101016003BC03B40298016801F1A8
:100B400001014229016003BC2ED054F8046B86EAEF
:100B5000010606F0FF0012F8017B1CF8077087EA17
:100B600008071F544FEA162000F0FF0012F8017B1F
:100B70001CF8077087EA08071F544FEA164000F078
:100B8000FF0012F8017B1CF8077087EA08071F5462
:100B90004FEA166000F0FF0012F8017B1CF80770A6
:100BA00087EA08071F54C7E77047A25D02F00302F7
:100BB0004FF0000503B402984FF00101016003BC3F
:100BC00003B40298016801F101010629016003BC28
:100BD00006D085EA020600F8016B05F10105EFE792
:100BE000704742F26825C0F2000514F8011B01F0BD
:100BF0000F0114F8018B08F00F0814F801BB0BF07B
:100C00000F0B14F801AB0AF00F0A4FF0000003B409
:100C100002984FF00101016003BC03B4029801681F
:100C200001F101011229016003BC1ED080EA010715
:100C3000EF5D87EA0807EF5D87EA0B07EF5D87EA5C
:100C40000A07EF5D02F8017B87EA0107EF5D87EA9B
:100C50000807EF5D87EA0B07EF5D87EA0A07EF5D9C
:100C600003F8017B00F10100D7E7704703B4029855
:100C70004FF00101016003BC03B40298016801F167
:100C800001011229016003BC0CD015F8010B1C5C9A
:100C90001AF8006084EA060418F8044084EA06049E
:100CA0001C54E9E73F681E6886EA07061E605E6816
:100CB00086EA07065E609E6886EA07069E60DE6832
:100CC00086EA0706DE607047009D05F5067503B4E9
:100CD00002984FF00101016003BC03B4029801685F
:100CE00001F101011229016003BC07D015F8016B65
:100CF00013F80680A65D07F80680EEE7009D05F56F
:100D0000067503B402984FF00101016003BC03B4FF
:100D10000298016801F101011229016003BC06D0AB
:100D200015F8016B17F8068003F80680EFE7009DC1
:100D300005F50A7503B402984FF00101016003BC88
:100D400003B40298016801F101011229016003BC9A
:100D500007D015F8016B1AF80680A65D07F8068023
:100D6000EEE7009D05F50A7503B402984FF0010106
:100D7000016003BC03B40298016801F1010112296A
:100D8000016003BC06D015F8016B17F806800AF85D
:100D90000680EFE7704703B402984FF0010101604D
:100DA00003BC03B40298016801F101010629016046
:100DB00003BC35D010F8018B4FEA88080AEB080312
:100DC00093F8008093F801B088EA0B049A7884EADB
:100DD0000204DD7884EA050488EA0B07F75D87EAF8
:100DE000080787EA040703F8017B8BEA0207F75D2F
:100DF00087EA0B0787EA040703F8017B82EA050705
:100E0000BF5D87EA020787EA040703F8017B88EAE7
:100E10000507F75D87EA050787EA04071F70C0E743
:100E2000704703B402984FF00101016003BC03B4A2
:100E30000298016801F101010629016003BC35D067
:100E4000009A02F55B7210F8018B4FEA88080AEBF2
:100E50000803424493F8008093F801B088EA0B0439
:100E60009E7884EA0604DD7888EA060884EA0504A8
:100E700041F66876C0F20006345D41F66866C0F25D
:100E8000000616F8088088EA040802F8028B82F847
:100E90000080A2F101028BEA050816F8088088EAB2
:100EA000040802F8028B82F80080C0E77047D1F88E
:100EB0000C804FEA382841F8108FD7F80C804FEAA1
:100EC00038283E4606F11006C6F8008003B40298A2
:100ED0004FF00101016003BC03B40298016801F105
:100EE00001010629016003BC11D013F8014B11F870
:100EF00004C08CEA0B0C305D8CEA000C15F80CC0B9
:100F00008CEA000C8CEA0A0C01F804C0E4E78C4679
:100F1000DCF8004052F8048B84EA0804ACF11008B5
:100F2000D8F8008084EA0804ACF10C064CF8044BB5
:100F300056F8048B84EA08044CF8044B56F8048BEA
:100F400084EA08044CF8044B56F8048B84EA08043D
:100F5000CCF800403C69D7F8008084EA08043C6182
:100F6000D7F8048084EA08047C61D7F8088084EA12
:100F70000804BC61D7F80C8084EA0804FC61A3F182
:100F80000403704742F26800C0F2000042F26811A8
:100F9000C0F200011278825C82F0FF021B7810F828
:100FA00003A092444FEA1A2292440AF0FF0A11F871
:100FB0000A70704703B402984FF00101016003BC4E
:100FC00003B40298016801F101011229016003BC18
:100FD00007D01E7817F8018B86EA080603F8016B24
:100FE000EEE7A3F11003704703B402984FF001013C
:100FF000016003BC03B40298016801F101011229E8
:10100000016003BC04D013F8015B07F8015BF1E752
:10101000704703B402984FF00101016003BC03B4B0
:101020000298016801F101011229016003BC05D099
:101030001E781CF8066003F8016BF0E7704703B4F4
:1010400002984FF00101016003BC03B402980168EB
:1010500001F101011229016003BC18D097F800B01A
:101060001BF800A092444FEA1A24A2440AEA0C0A90
:101070001AF80160BBF1000FC8BF4FF0FF0A08BFAC
:101080000026B8BF4FF0000A07F8016BDDE7704794
:1010900041F64054C0F20004DDF8008008F55E78A7
:1010A00003B402984FF00101016003BC03B402983D
:1010B000016801F101010C29016003BC06D014F89C
:1010C000046B1CF8066048F8046BEFE77047009A61
:1010D00002F5177203B402984FF00101016003BCDE
:1010E00003B40298016801F101011229016003BCF7
:1010F00014D015F8014B12F804B01CF80460865D9A
:101100008BEA060B02F804B013F804B018F8046078
:10111000865D8BEA060B03F804B0E1E770473D6893
:101120001E6886EA05061E605E6886EA05065E6041
:101130009E6886EA05069E60DE6886EA0506DE6031
:1011400070474DF804ED2DE9FE1F4DF8040DFFF733
:101150007FFC009B03F5BA73009F07F5B8773F78D3
:10116000FFF7D0FBDDF800C00CF5BA7CFFF790FF6D
:10117000FFF748FC009C04F1B804009800F55D708E
:101180004FF00006FFF711FD41F62032C0F20002D9
:10119000009B03F51D73009C04F5BA74DDF8008014
:1011A00008F5B478D8F80010009E06F5B67696F8E3
:1011B0000080FFF7BAFC009901F10801009F07F1D8
:1011C000B807009D05F51D75009A02F55E72009B3B
:1011D00003F55D7303B402984FF00101416003BC55
:1011E00003B40298416801F101010C29416003BC7C
:1011F00010D0DDF800B00BF5B47B9BF800B0DDF843
:1012000000A00AF5B67A9AF800A0FFF750FE07F1A1
:101210001007E5E701BC4FF00000BDE8FE1F00BD70
:1012200070474DF804ED2DE9FC1F4DF8041D4DF8F5
:10123000040DFFF749FC009B03F10803009F07F52D
:1012400012773F78FFF75EFB009C04F5027400986C
:1012500000F50E704FF00006FFF7A7FC009800F5B0
:101260000F704FF00106FFF7A0FC009A02F506721E
:10127000009B03F50A73FFF7B4FC41F62032C0F27D
:101280000002009B03F58473009C04F10804A4464B
:10129000DDF8008008F51078D8F80010009E06F5FB
:1012A000117696F80080FFF740FC01BC02BCBDE857
:1012B000FC1F4FF0000000BD70474DF804ED2DE914
:1012C000FC1F4DF8041D4DF8040DFFF7FDFB009BBE
:1012D00003F10803009F07F512773F78FFF712FB31
:1012E000009C04F50274009800F50E704FF00006A3
:1012F000FFF75BFC009800F50F704FF00106FFF759
:1013000054FC009A02F50672009B03F50A73FFF77E
:1013100068FC41F62042C0F20002009B03F5847392
:10132000009C04F10804A446DDF8008008F510785C
:10133000D8F80010009E06F5117696F80080FFF7A9
:10134000F4FB01BC02BCBDE8FC1F4FF0000000BD77
:1013500070474DF804ED4DF8042D2DE9F01F4DF8C0
:10136000043D4DF8041D4DF8040DFFF729FB019ACB
:1013700002F5B872009B03F51273FFF703FE009BA2
:1013800003F51B73FFF7BEFA009B03F51373DDF83B
:1013900000C00CF1080CFFF73CFE009B03F5137333
:1013A000009F07F51777FFF705FE009800F51B7003
:1013B000019901F108018846DDF804C00CF1B80C70
:1013C000009B03F51373009D05F50675FFF77FFE7F
:1013D00003B402984FF00101416003BC03B40298CA
:1013E000416801F101010B29416003BC43D0009F1A
:1013F00007F51077009B03F51373FFF790FE009D30
:1014000005F50675DDF8008008F58478DDF800A0A4
:101410000AF5177A009F07F51177FFF727FC41F6C9
:101420002054C0F20004009F07F55B77FFF74CFCE7
:10143000009800F50E7041F66856C0F20006FFF7FE
:10144000AAFC009800F50F70DDF800A00AF5137AE9
:10145000FFF7A1FC01F110010CF1100C8846009B74
:1014600003F51373009D05F50675009800F51B70D4
:10147000FFF72DFEB2E7009F07F51077009B03F5FD
:101480001373FFF74CFE009D05F50675DDF800802F
:1014900008F58478DDF800A00AF5177A009F07F5B3
:1014A0001177FFF7E3FB41F62054C0F20004009FE0
:1014B00007F55B77FFF708FC01F110010CF1100C48
:1014C0008846009D05F50675009800F51B70FFF72E
:1014D000FEFD009F07F51777009B03F51373FFF7D9
:1014E00069FD42F26800C0F2000042F26811C0F2E9
:1014F0000001009C04F512742278825C4FF0FF0C0E
:10150000ACEB02021F46FFF79AFD029FFFF76CFD4E
:1015100001BC4FF0000002BC08BCBDE8F01F04BCD9
:1015200000BD70474DF804ED4DF8042D2DE9F01F76
:101530004DF8043D4DF8041D4DF8040DFFF740FA39
:10154000019A02F5B872009B03F51273FFF71AFDBA
:10155000009B03F51B73FFF7D5F9009B03F513738D
:10156000DDF800C00CF1080CFFF753FD009B03F5FC
:101570001373009F07F51777FFF71CFD009800F520
:101580001B70019901F1080101F1A001DDF804C00F
:101590000CF1B80C0CF1A00C009B03F51373009D2B
:1015A00005F506758846FFF792FD03B402984FF0E3
:1015B0000101416003BC03B40298416801F10101DB
:1015C0000B29416003BC6ED0009B03F5137341F6F9
:1015D0003054C0F20004009F07F55B77DDF800A0EF
:1015E0000AF5177AFFF770FB009F07F51077FFF7F2
:1015F00096FDDDF800A00AF5177ADDF8008008F501
:101600008478009D05F50675009F07F51177FFF7B3
:101610002DFBACF1100CA1F110018846009D05F5E1
:101620000675009800F51B70FFF751FDDDF800A06E
:101630000AF5177A009800F50F70FFF7F2FBDDF856
:1016400000A00AF5177A009800F50F7041F6685669
:10165000C0F20006FFF79FFB009F07F55B77009B3A
:1016600003F51773FFF7A6FCDDF800A00AF5137A5F
:10167000009800F50E70FFF7D4FBDDF800A00AF526
:10168000137A41F66856C0F20006009800F50E7015
:10169000FFF781FB009F07F55B77009B03F5137352
:1016A000FFF788FC87E7009B03F5137341F630547E
:1016B000C0F20004009F07F55B77DDF800A00AF593
:1016C000177AFFF701FB009F07F51077FFF727FD5B
:1016D000DDF800A00AF5177ADDF8008008F58478B7
:1016E000009D05F50675009F07F51177FFF7BEFA17
:1016F000ACF1100CA1F110018846009D05F50675AE
:10170000009800F51B70FFF7E2FC009F07F51777C4
:10171000FFF750FC42F26800C0F2000042F268118C
:10172000C0F20001009C04F512742278825C4FF034
:10173000FF0CACEB02021F46FFF781FC029FFFF794
:1017400053FC01BC4FF0000002BC08BCBDE8F01F18
:1017500004BC00BD7047000010B50100002300224A
:10176000002000F0E7F810BD084B10B50400002B76
:1017700002D0002100F04CF9054B1868836A002B59
:1017800000D09847200000F0ADF9C046111A0000C3
:101790007822000070B5094B094CE41AA41009D056
:1017A000084AA518AD00ED182B68013C9847043D88
:1017B000002CF9D100F09EF970BDC04668000020F1
:1017C0006C000020FFFFFF3F70B50D4E0D4DAD1BAF
:1017D000AD1006D00024A300F35801349847A54269
:1017E000F9D100F081F9084E084DAD1BAD1006D0BF
:1017F0000024A300F35801349847A542F9D170BDE5
:1018000064000020640000206400002068000020C4
:10181000F0B50F2A38D90D0005430C000300AD07C1
:1018200036D110271500BC46103D2D092E01361863
:10183000B444276866681F605E60A768E6689F60BA
:10184000DE60103310346345F3D10F2401352D01D0
:10185000491914404519032C1CD90023CE58EE50C9
:101860000433E61A032EF9D80323043CA4080134F8
:10187000A4002D1909191A4005D00023CC5CEC54A2
:1018800001339342FAD1F0BD0500002AF5D1FAE701
:101890000500F2E72200F8E7F0B5830746D0541EB2
:1018A000002A42D0CEB20200032502E01A00013C19
:1018B0003BD3531C16702B42F8D1032C2DD9FF2299
:1018C0000A40150215432A0415430F2C16D9270088
:1018D000103F3F093E01B4461E001A001036664410
:1018E000156055609560D5601032B242F8D10F2274
:1018F00001373F01DB191440032C0ED9261FB6080F
:10190000B700BC461A001F1D674420C2BA42FCD172
:1019100003220136B6009B191440002C05D0C9B231
:101920001C19197001339C42FBD1F0BD1400030057
:10193000C3E7C046F0B546464F46D646C0B51F0081
:101940002F4B82B01C6805000E009046002C2DD055
:1019500063681F2B50DC002D1CD08822A0589146B4
:10196000002834D07832825894469A0091468144B7
:10197000424649460A600121624699400A4394461C
:1019800080228A466146520081504946803A8F50F3
:10199000022D16D000205A1C02339B0062601E519B
:1019A00002B01CBC90469946A246F0BD154C1C6086
:1019B000154B002BCCD01B6801938823019AE25071
:1019C000C6E75546843281580D438550E2E70F4BF8
:1019D000002B11D084204000AFF3008000280BD0F2
:1019E0008022002352008350043283504B46002251
:1019F000E05094466368B8E701204042D0E7C04613
:101A0000BC010020300100200000000000000000A8
:101A1000F0B5DE4657464E464546E0B5304B85B0FC
:101A20001F6803909B460E00002F34D08823FB587C
:101A300098467B685C1E2ED49B00994643464B44D7
:101A4000019300250AE04346002B04D0019B5B195B
:101A5000DB6FB34204D0043D013C1CD3002EF2D115
:101A60004B467968EB18FB1801395A68A14231D00E
:101A700000215960002AEED07B689A464346002B2D
:101A800010D190475B467A681B68524501D1BB4232
:101A9000E1D01F1ECAD105B03CBC90469946A24673
:101AA000AB46F0BD012380204146A34040000958C9
:101AB00002911942E5D00198291F415840468C46B1
:101AC0008221490041580291194205D1614603988B
:101AD0009047D7E77C60CDE760469047D2E7C046A5
:101AE000BC010020FEE7C046F8B5C046F8BC08BC03
:101AF0009E467047F8B5C046F8BC08BC9E46704785
:101B00002B7E151628AED2A6ABF7158809CF4F3C11
:101B10003031323334353637383941424344454623
:101B2000637C777BF26B6FC53001672BFED7AB769A
:101B3000CA82C97DFA5947F0ADD4A2AF9CA472C045
:101B4000B7FD9326363FF7CC34A5E5F171D83115B2
:101B500004C723C31896059A071280E2EB27B275D3
:101B600009832C1A1B6E5AA0523BD6B329E32F844B
:101B700053D100ED20FCB15B6ACBBE394A4C58CF43
:101B8000D0EFAAFB434D338545F9027F503C9FA817
:101B900051A3408F929D38F5BCB6DA2110FFF3D2E5
:101BA000CD0C13EC5F974417C4A77E3D645D197399
:101BB00060814FDC222A908846EEB814DE5E0BDB93
:101BC000E0323A0A4906245CC2D3AC629195E479CA
:101BD000E7C8376D8DD54EA96C56F4EA657AAE0824
:101BE000BA78252E1CA6B4C6E8DD741F4BBD8B8ABF
:101BF000703EB5664803F60E613557B986C11D9E25
:101C0000E1F8981169D98E949B1E87E9CE5528DF9B
:101C10008CA1890DBFE6426841992D0FB054BB16C7
:101C200052096AD53036A538BF40A39E81F3D7FB51
:101C30007CE339829B2FFF87348E4344C4DEE9CB9B
:101C4000547B9432A6C2233DEE4C950B42FAC34E10
:101C5000082EA16628D924B2765BA2496D8BD125C6
:101C600072F8F66486689816D4A45CCC5D65B6926A
:101C70006C704850FDEDB9DA5E154657A78D9D840E
:101C800090D8AB008CBCD30AF7E45805B8B345062E
:101C9000D02C1E8FCA3F0F02C1AFBD0301138A6B48
:101CA0003A9111414F67DCEA97F2CFCEF0B4E67378
:101CB00096AC7422E7AD3585E2F937E81C75DF6E26
:101CC00047F11A711D29C5896FB7620EAA18BE1B8C
:101CD000FC563E4BC6D279209ADBC0FE78CD5AF432
:101CE0001FDDA8338807C731B11210592780EC5F78
:101CF00060517FA919B54A0D2DE57A9F93C99CEFD4
:101D0000A0E03B4DAE2AF5B0C8EBBB3C83539961D4
:101D1000172B047EBA77D626E169146355210C7D12
:101D2000000D0A0704010E0B0805020F0C0906033B
:101D300000050A0F04090E03080D02070C01060B2B
:101D40000100000002000000040000000800000084
:101D50001000000020000000400000008000000093
:101D60001B0000003600000000020406080A0C0EEA
:101D700010121416181A1C1E20222426282A2C2E73
:101D800030323436383A3C3E40424446484A4C4E63
:101D900050525456585A5C5E60626466686A6C6E53
:101DA00070727476787A7C7E80828486888A8C8E43
:101DB00090929496989A9C9EA0A2A4A6A8AAACAE33
:101DC000B0B2B4B6B8BABCBEC0C2C4C6C8CACCCE23
:101DD000D0D2D4D6D8DADCDEE0E2E4E6E8EAECEE13
:101DE000F0F2F4F6F8FAFCFE1B191F1D131117157B
:101DF0000B090F0D030107053B393F3D33313735E3
:101E00002B292F2D232127255B595F5D53515755D2
:101E10004B494F4D434147457B797F7D73717775C2
:101E20006B696F6D636167659B999F9D93919795B2
:101E30008B898F8D83818785BBB9BFBDB3B1B7B5A2
:101E4000ABA9AFADA3A1A7A5DBD9DFDDD3D1D7D592
:101E5000CBC9CFCDC3C1C7C5FBF9FFFDF3F1F7F582
:101E6000EBE9EFEDE3E1E7E50004080C1014181CC2
:101E70002024282C3034383C4044484C5054585C82
:101E80006064686C7074787C8084888C9094989C72
:101E9000A0A4A8ACB0B4B8BCC0C4C8CCD0D4D8DC62
:101EA000E0E4E8ECF0F4F8FC1B1F13170B0F03073A
:101EB0003B3F33372B2F23275B5F53574B4F434712
:101EC0007B7F73776B6F63679B9F93978B8F838702
:101ED000BBBFB3B7ABAFA3A7DBDFD3D7CBCFC3C7F2
:101EE000FBFFF3F7EBEFE3E736323E3A26222E2AEA
:101EF00016121E1A06020E0A76727E7A66626E6AE2
:101F000056525E5A46424E4AB6B2BEBAA6A2AEAAD1
:101F100096929E9A86828E8AF6F2FEFAE6E2EEEAC1
:101F2000D6D2DEDAC6C2CECA2D2925213D393531B9
:101F30000D0905011D1915116D6965617D797571B1
:101F40004D4945415D595551ADA9A5A1BDB9B5B1A1
:101F50008D8985819D999591EDE9E5E1FDF9F5F191
:101F6000CDC9C5C1DDD9D5D1000810182028303819
:101F7000404850586068707880889098A0A8B0B8A1
:101F8000C0C8D0D8E0E8F0F81B130B033B332B2379
:101F90005B534B437B736B639B938B83BBB3ABA351
:101FA000DBD3CBC3FBF3EBE3363E262E161E060E29
:101FB000767E666E565E464EB6BEA6AE969E868E01
:101FC000F6FEE6EED6DEC6CE2D253D350D051D15F9
:101FD0006D657D754D455D55ADA5BDB58D859D95F1
:101FE000EDE5FDF5CDC5DDD56C647C744C445C54E9
:101FF0002C243C340C041C14ECE4FCF4CCC4DCD4E1
:10200000ACA4BCB48C849C94777F676F575F474FB8
:10201000373F272F171F070FF7FFE7EFD7DFC7CF90
:10202000B7BFA7AF979F878F5A524A427A726A62A8
:102030001A120A023A322A22DAD2CAC2FAF2EAE2C0
:102040009A928A82BAB2AAA24149515961697179B8
:102050000109111921293139C1C9D1D9E1E9F1F9B0
:1020600081899199A1A9B1B90000190132021AC65A
:102070004BC71B6833EEDF036404E00E348D81EF41
:102080004C7108C8F8691CC17DC21DB5F9B9276A31
:102090004DE4A6729AC90978652F8A05210FE124BB
:1020A00012F082453593DA8E968FDBBD36D0CE9412
:1020B000135CD2F14046833866DDFD30BF068B628B
:1020C000B325E298228891107E6E48C3A3B61E42C3
:1020D0003A6B2854FA853DBA2B790A159B9F5ECA44
:1020E0004ED4ACE5F373A757AF58A850F4EAD674B2
:1020F0004FAEE9D5E7E6ADE82CD7757AEB160BF5D0
:1021000059CB5FB09CA951A07F0CF66F17C449EC66
:10211000D8431F2DA4767BB7CCBB3E5AFB60B1865B
:102120003B52A16CAA55299D97B2879061BEDCFCF9
:10213000BC95CFCD373F5BD15339843C41A26D472D
:10214000142A9E5D56F2D3AB441192D923202E89D6
:10215000B47CB8267799E3A5674AEDDEC531FE1851
:102160000D638C80C0F770070103050F113355FF15
:102170001A2E7296A1F813355FE13848D87395A4EA
:10218000F702060A1E2266AAE5345CE43759EB26FC
:102190006ABED97090ABE63153F5040C143C44CCC4
:1021A0004FD168B8D36EB2CD4CD467A9E03B4DD7C0
:1021B00062A6F10818287888839EB9D06BBDDC7FB1
:1021C0008198B3CE49DB769AB5C457F9103050F0F8
:1021D0000B1D2769BBD661A3FE192B7D8792ADEC41
:1021E0002F7193AEE92060A0FB163A4ED26DB7C2B4
:1021F0005DE73256FA153F41C35EE23D47C940C034
:102200005BED2C749CBFDA759FBAD564ACEF2A7E67
:10221000829DBCDF7A8E89809BB6C158E82365AF6A
:10222000EA256FB1C843C554FC1F2163A5F4070913
:102230001B2D7799B0CB46CA45CF4ADE798B869164
:10224000A8E33E42C651F30E12365AEE297B8D8C1E
:102250008F8A8594A7F20D17394BDD7C8497A2FDF8
:102260001C246CB4C752F6010C05060B09000A0DBC
:10227000030E0F0804070102040000200000000004
:08228000D8DEFF7F0100000021
:102288000400002000000000000000000000000022
:102298000000000000000000000000000000000036
:1022A8000000000000000000000000000000000026
:1022B8000000000000000000000000000000000016
:1022C8000000000000000000000000000000000006
:1022D80000000000000000000000000000000000F6
:0C22E800000000003501000009010000AA
:020000040FE00B
:0441E800FDFFFFFFD9
:04000003000008D51C
:00000001FF
