:020000041000EA
:10000000002000082B0100100D0000008D010010E1
:1000100000000000000000000000000000000000E0
:100020000000000000000000000000008901001036
:10003000000000000000000089010010890100108C
:100040008901001089010010890100108901001048
:100050008901001089010010890100108901001038
:100060008901001089010010890100108901001028
:100070008901001089010010890100108901001018
:100080008901001089010010890100108901001008
:1000900089010010890100108901001089010010F8
:1000A00089010010890100108901001089010010E8
:1000B00089010010890100108901001089010010D8
:1000C00010B5064C2378002B07D1054B002B02D02E
:1000D000044800E000BF0123237010BDF8030008AE
:1000E00000000000307F0010044B10B5002B03D03F
:1000F0000349044800E000BF10BDC04600000000F6
:10010000FC030008307F00100230800803D001306B
:100110000238FCD1C046C0467047EFF3108072B67B
:10012000704780F3108870477047FFF7FDFF72B685
:100130000F4C104DAC4209DA21686268A368043B99
:1001400002DBC858D050FAE70C34F3E70A490B4AEF
:100150000020521A02DD043A8850FCDC08480949A4
:100160000860BFF34F8F06F0C7FD06F067FDFEE79E
:100170003C7F0010547F0010F80300085806000868
:100180000000000808ED00E0FEE7FEE700B50420EF
:100190007146084202D0EFF3098001E0EFF30880D6
:1001A000043006F059FBFEE7F7B50327114E1400A3
:1001B0003268050052698218087849683840106032
:1001C000012C00D120312800089A013C03F072FD77
:1001D0000C236142614100932800083B4431002216
:1001E00003F0D0FD33681B68ED1801232A681A421A
:1001F000FCD1F7BD1804000873B5040008000326FD
:100200000E4D19002B6800785B693040E3181860C8
:1002100013002000069A03F04DFD082320000093F0
:100220000022043B482103F0ADFD2B681B68E41855
:10023000012322681A42FCD173BDC046180400088D
:1002400070B51D001A70049B02326B60D3000A0067
:100250000499040003F0CEFD03210D4E2A78336883
:100260000A405B696968E3181A600A0020002032BE
:1002700003F006FD082320000022462103F06CFD58
:1002800033681B68E418012320681840FCD170BD56
:1002900018040008F0B585B016001A000A9B050086
:1002A0005C6803912700403739005034102303F075
:1002B000A1FD2300039A0A9928000097FFF774FF15
:1002C000280010232200310003F094FD002005B027
:1002D000F0BD0000F0B589B0040005911700069349
:1002E000130700D06FE0109B3D005B681A0060337D
:1002F0001E0040320492103203921023069A3100FD
:1003000003F078FD059B012B4BD00E9BDB195B1B8B
:1003100007930F9BDA19521B002D4BD01023049921
:10032000200003F067FD049B320010992000009626
:10033000FFF762FF039B059A109920000096FFF7D4
:1003400033FF1023039A3100200003F053FD1023E4
:10035000039A0799200003F04DFD103DD5E71023C7
:100360000499200003F046FD049B0122009310999C
:10037000039B2000FFF718FF039B039A009310993B
:1003800033002000FFF738FF1023049A31002000CB
:1003900003F030FD1023039A0599200003F02AFD95
:1003A000103D0E9BDB195B1B05930F9BDA19521B4B
:1003B000002DD4D1200010233200069903F01AFD3D
:1003C000002009B0F0BD0148FBE7C0460200320042
:1003D000F0B589B005931300060003921B0740D1C6
:1003E000109B5D682B005035403304932F0001298A
:1003F00000D11F001023059A3900300003F0FAFCE9
:10040000039C039A0E9B9B181B1B07930F9B9B1827
:100410001B1B0693002C08D1300010233A000599CD
:1004200003F0E8FC200009B0F0BD2B000022109979
:1004300030000097FFF7B8FE1023069A04993000A9
:1004400003F0D8FC049B2A00109930000095FFF7B8
:10045000D3FE10232A000799300003F0CBFC103C98
:10046000CFE70148DFE7C04602003200F0B591B0A7
:10047000199D040006910B92002110220CA80793ED
:1004800006F0C5FE6B680CA91A0040320392603377
:10049000103204920593079A1023200003F0AAFC5F
:1004A0000F9B1BBA0893069B089E1B090A930E9B81
:1004B0001FBA089B1799F31A1A01891809911899FC
:1004C0008A180A998B420ED30CAA20001023079990
:1004D00003F090FC0F23069A00201A4013000B9A99
:1004E000136011B0F0BD03992000102303F082FCCB
:1004F0000CAB00932900059B20000022FFF754FE5F
:1005000001220023B6185F4133BA0F93059B3ABA14
:100510000E920093049A039B29002000FFF76CFEC3
:100520001023049A0999200003F064FCC1E700003D
:10053000034B1B689B68C0180F2300681840704766
:1005400018040008034B1B681B68C0180368002BC5
:10055000FCD1704718040008F8B504000D0017001E
:100560001E002000FFF7E4FF0428FAD8082D04D06D
:100570000C4AA358002BFCDB04E086225201A3584E
:10058000002BFCDBE221084BC9051B680D43DA6830
:10059000A2181560DA68A2181760DB68E4182660F4
:1005A000F8BDC046D010000018040008F8B50700D8
:1005B0000C0016001D003800FFF7BAFF0628FAD815
:1005C000064B24031B682D04D8688023DB051E43DB
:1005D000344338182C430460F8BDC04618040008A2
:1005E00070B505000C0016002800FFF7A1FF0628D3
:1005F000FAD8054B24021B68DB68ED18D023DB0515
:100600001E4334432C6070BD1804000810B504006C
:100610002000FFF78DFF0628FAD8044B1B68DB6823
:10062000E418A023DB05236010BDC04618040008B1
:1006300010B504002000FFF77BFF0628FAD8044B12
:100640001B68DB68E418A223DB05236010BDC046ED
:100650001804000870B504000E0015002000FFF714
:1006600067FF0428FAD8064B06491B68DA68A21807
:100670001160DA68A2181660DB68E418256070BDA6
:10068000180400080C00007070B505000C784A686A
:100690000234E40023000E000821FFF75DFF102361
:1006A000082204212800FFF781FF2300103B002BC4
:1006B00004D0082205212800FFF778FF0321054B0D
:1006C00032781B680A405B692800EB181A60FFF754
:1006D00039FF70BD1804000870B505000B780233AF
:1006E000DC00FFF7D1FF2800FFF790FF1023062260
:1006F00004212800FFF75AFF2300103B002B04D0F1
:10070000072205212800FFF751FF2800FFF71AFFF5
:1007100070BDF8B51F00140005000E000C23390051
:10072000002203F077FC069B28007B60A31C3C7032
:100730003200DB00069903F02FFC0020F8BDF8B56D
:100740000D00040016001F000699002D22D1FFF7AE
:100750009BFF10233A0008212000FFF7FDFE102226
:1007600031002000FFF776FF20001023082200212F
:10077000FFF71CFF2000002D0FD1FFF747FF1023CC
:1007800001220C212000FFF711FF2000FFF7DAFE05
:100790000020F8BDFFF7A0FFDBE7FFF749FFEEE71A
:1007A000F8B504000F0015001E00130700D070E01C
:1007B0000899002F30D1FFF767FF1023320009217D
:1007C0002000FFF7C9FE2B00079A08212000FFF741
:1007D000C3FE2A0006992000FFF73CFF10230922E0
:1007E000002F32D101212000FFF7E0FE002D16D1AD
:1007F00001352000FFF7A6FE102231002000FFF790
:1008000029FF10232A000C212000FFF7CFFE200033
:10081000FFF798FE0020F8BDFFF75EFFCDE7200050
:10082000FFF786FE0628FAD81B4B1C4A1B682000DF
:10083000DB68103DE3181A60FFF7E8FE1023012281
:100840000C212000FFF7B2FED0E702212000FFF7C5
:10085000ADFE002D01D10235CBE720001023082288
:100860000021FFF7A3FE2000FFF7E2FE2000FFF7C4
:100870005FFE0628FAD8084B094A1B680221DB688C
:100880002000E3181A6010230022FFF78FFE103DAE
:10089000DFE70448BFE7C04618040008180010410D
:1008A00021C0104102003200F7B50F26040001916B
:1008B00015001F0016405ED10A99FFF7E5FE1023D0
:1008C0003A0009212000FFF747FE102309223100DA
:1008D0002000FFF76BFE2B00099A08212000FFF78C
:1008E0003BFE2A0008992000FFF7B4FE019B002B75
:1008F0002CD0002D2CD02000FFF788FE10230822DA
:1009000000212000FFF752FE2000FFF711FE06280D
:10091000FAD81A4B1A4A1B68103DDB68E3181A60B4
:10092000E7E72000FFF772FE2000FFF701FE062830
:10093000FAD8124B134A1B680C21DB682000E3181D
:100940001A6010230022FFF731FE103D002DE8D180
:100950002000FFF7F7FD102239002000FFF77AFE94
:10096000102300220C212000FFF720FE2000FFF7BB
:10097000E9FD0020FEBD0448FCE7C046180400085D
:1009800001C010411800104102003200F0B51D00F6
:100990008BB004926A781B7812021A43AB78040079
:1009A0001B041A43EB782E7A1B0613436A790693CD
:1009B0002B7912021A43AB7902911B041A43EB798B
:1009C00013991B06134307936B7A6A7B1B0233430D
:1009D000AE7A120236043343EE7A36061E432B7B80
:1009E00008961A43AB7B1B041A43EB7B1B0613438D
:1009F000099332BA1BBA05920193FFF745FE102303
:100A000006AA09212000FFF7A7FD102309220021D3
:100A10002000FFF7CBFD019B0C211A0E2000FFF7F1
:100A2000DFFD019B0D211A0CD2B22000FFF7D8FD8B
:100A3000019B0E211A0AD2B22000FFF7D1FD6B46AE
:100A40000F211A792000FFF7CBFD2000FFF7DEFD14
:100A5000029B129A08212000FFF77EFD029A11994D
:100A60002000FFF7F7FD029B019E1B09059F0393E2
:100A7000019B039AF31A93420ED306AA2000102377
:100A8000290003F089FA0F23029A00201A4013006C
:100A9000049A13600BB0F0BD2000FFF7B7FD0122F0
:100AA0000023B6185F413ABA33BA08920C21320ECD
:100AB00020000993FFF794FD320CD2B20D212000E3
:100AC000FFF78EFD320AD2B20E212000FFF788FD1B
:100AD000F2B20F212000FFF783FD2000FFF728FD71
:100AE0000628FAD8084B094A1B68DB68E3181A6025
:100AF0002000FFF71DFD0628FAD8034B044A1B68A7
:100B0000DB68E3181A60B3E71804000810100066E9
:100B1000101000670200002310B50F32441E117838
:100B2000013A49000B4353701B0A9442F7D1002B42
:100B300004D07923C27B5B425340C37310BDF7B529
:100B400005000F009668546831001023002203F05E
:100B50006FF939002800009623000022FFF724FBDC
:100B60002000FFF7D7FFF7BDF0B585B0039393687A
:100B7000166802930F00102300220299050003F06B
:100B800057F90A9C039B0A9A9A18121B102C07D833
:100B9000BC60A3B23100280003F02CF905B0F0BD11
:100BA00010233100280003F025F9029B3200009346
:100BB000390033002800FFF71FFB0096029B00223C
:100BC00039002800FFF7F0FA103CDBE7F0B587B0FA
:100BD000059393688C680393536806000F001568AB
:100BE00004930F2C0DD81800FFF794FF80232B558A
:100BF000713B1B1B611C9BB269180022300003F083
:100C000017F9039B2A00009339002B003000FFF7EF
:100C1000F3FA049B2A00009339002B003000FFF701
:100C2000EBFA039B3900300000950022FFF7BCFA75
:100C30001023039A0599300003F0DCF807B0F0BDEB
:100C4000F0B585B0029119000AAB17001A781A4B5B
:100C500005001B68002B07D100930C9BFFF7F0FAEF
:100C60008022A0231A60FFDE9B6BC3181C68230040
:100C70007033039300940C9BFFF7E2FA26002300E5
:100C8000A03680333360039B9034736032000C993C
:100C90002800B460FFF753FF029B32000C99280034
:100CA0000097FFF761FF28000B9B32000C99FFF7BC
:100CB0008DFF002005B0F0BD18040008034B1B6831
:100CC0009B68C0180F23006818407047180400087C
:100CD00010B504002000FFF7F1FF0628FAD8044BF6
:100CE0001B68DB68E418A023DB05236010BDC04649
:100CF000180400080200002310B50F32441E1178BA
:100D0000013A49000B4353701B0A9442F7D1002B60
:100D100004D07923C27B5B425340C37310BD0000F3
:100D200070B504000E0015002000FFF7C7FF04286F
:100D3000FAD886225201A358002BFCDB064B074948
:100D40001B68DA68A2181160DA68A2181660DB68FE
:100D5000E418256070BDC046180400080800007142
:100D600070B504000D002000FFF7A8FF0428FAD892
:100D7000064B07491B68DA68A2181160DA68A218E6
:100D80001560DB68E4181023236070BD18040008A8
:100D90000C000070002370B504000E000B602000F2
:100DA000FFF78CFF0628FAD8144D154A2B6820004F
:100DB000DB68E3181A60FFF78BFF71682000FFF70C
:100DC000CFFF2000FFF77AFF0628FAD82A680D49DE
:100DD000D368E31819601368E3181A68002AFCD175
:100DE0007068FFF787FF2000FFF768FF0628FAD832
:100DF0002B68DB68E418044B236070BD18040008FE
:100E00000000104101C010401110104170B50E00DB
:100E10001100326805009C181A00FFF781FF102CA2
:100E200001D8346070BD2800FFF748FF0628FAD8C3
:100E3000054B064A1B682800DB68103CEB181A605B
:100E4000FFF746FFEBE7C046180400081800104102
:100E5000F0B5102587B00F000400019200212A0090
:100E600002A806F0D4F980237E683F6802AA1370B6
:100E700002A9EA1B2000FFF753FF2000FFF71EFF27
:100E80000628FAD8184D194A2B68DB68E3181A604F
:100E90000F2F02D83000FFF72DFF10223100200065
:100EA000FFF73EFF2000FFF709FF0628FAD82B685E
:100EB0000F4ADB682000E3181A60FFF709FF019969
:100EC0002000FFF74DFF2000FFF7F8FE0628FAD8B4
:100ED0002A680849D368E31819601368E41823687E
:100EE000002BFCD107B0F0BD180400081800104119
:100EF0000800104101C01040F0B504001E00A7B06A
:100F00002CAB0AAD1F7802910392002170222800B9
:100F100006F07DF91822002104A806F078F93A00BD
:100F20002E9B310000952000FFF7F3FB2E99200047
:100F3000FFF7AAFB06AB04A920000593FFF72AFFE1
:100F4000039B029A04A92000FFF760FF20002D9A5E
:100F500004A9FFF77DFF002027B0F0BDF0B5802782
:100F60000C4C7F002568DBB22C6A0619059C240214
:100F70003C40FF3F3A40224332606A6A8218136065
:100F8000AB6AC3181960EB6AC018069B03600020A7
:100F9000F0BDC0461804000870B50D00110086228F
:100FA00004000498D200A0501A00200002F068FE4D
:100FB000042300225821200002F0CEFE0821064B17
:100FC0001A681368E31818680840FCD1136BE4181A
:100FD00023682B6070BDC04618040008034B1B68D3
:100FE0001B68C0180368002BFCD170471804000868
:100FF00070B50F26094B1B689C6805192C68344096
:10100000042CFBD8DC68064D04192560DC68041943
:101010002160DB68C018026070BDC046180400087B
:101020000800007010B50F24064B19688B68C218B1
:1010300013682340062BFBD8CB68C018B023DB0510
:10104000036010BD18040008F0B580270C4C7F0029
:101050002568DBB22C6A0619059C24023C40FF3F40
:101060003A40224332606A6A82181360AB6AC3183E
:101070001960EB6AC018069B03600020F0BDC046F3
:101080001804000870B50D0011001A000400FFF7E5
:10109000AFFF8C23049A5B01E2502000FFF7C2FFF0
:1010A0002000FFF79BFF044B00201B681B6BE4181C
:1010B00023682B6070BDC046180400087FB50D0082
:1010C00019000E4B16000393099A089B040002F0C6
:1010D000F1FD03AB690059180823895D20000093D6
:1010E0000022043B02F04EFE054B1B681B68E4180F
:1010F000022322681A42FCD17FBDC0467071727310
:1011000018040008F0B587B00593204B05001B6854
:10111000049103921F1E02D09B6BC3181F68002608
:101120001B4BF200D21803990823280002F09CFE02
:10113000441EA04144421748174B04400136E418AE
:10114000102E01D0002CEBD03B003E001033029358
:10115000039A02992800082302F04CFE08360C9AE4
:1011600039002800082302F045FE029B049A28005B
:10117000019700960021FFF7A1FF28000823320005
:10118000059902F037FE200007B0F0BD18040008F2
:1011900048720010FDFFCEFF03003100F0B589B0AA
:1011A0000793254B04001B68069104920393002BC0
:1011B00003D09B6BC3181B68039300271F4B049D30
:1011C000FE00F6182B001033059308233200290087
:1011D000200002F049FE00282CD0059B9D4227D11B
:1011E00000250137102F01D0002DE7D0039E049A6F
:1011F000103631002000182302F0FCFD0E9A0399EE
:101200002000082302F0F6FD039F039B083701939B
:10121000069A3300200000970121FFF74FFF2000BE
:1012200008233A00079902F0E5FD280009B0F0BD57
:101230000835CAE7024DD4E71804000848720010C8
:101240000300310070B50F260B4B1B689C68051915
:101250002C683440042CFBD886256D014459002CA1
:10126000FCDBDC68054D04192560DC68041921608D
:10127000DB68C018026070BD180400080800007127
:1012800030B50F25064B1C68A368C21813682B40A5
:10129000062BFBD8E3680906C018016030BDC046C4
:1012A00018040008F0B50F27094C2668B468051922
:1012B0002C683C40062CFBD8F468090300198024F4
:1012C000E405224311431B0419430160F0BDC046ED
:1012D0001804000830B50F25094B1B689A6884185C
:1012E00022682A40042AFBD8DA68064C8218146067
:1012F000DA6882181160DB68C0180823036030BD0B
:10130000180400080C000070F7B5040016001F0058
:10131000002501911C4BEA00D2183100082320005F
:1013200002F0B2FE00282CD00135102DF2D100259C
:10133000310020000822FFF785FF082320001A0053
:101340000421FFF7AFFF082208992000FFF77AFF7A
:1013500039002000FFF7BEFF082320001A000021FB
:10136000FFF7A0FF019920004B1E99415231FFF772
:1013700087FF2000082301220C21FFF793FF28009C
:10138000FEBD024DD4E7C046C87200100300310014
:10139000F0B50400002785B0029100920393264B1C
:1013A000009DFE00F6182B00103301930823320035
:1013B0002900200002F068FE002804D0019B9D4215
:1013C00037D1002500E01D4D0137102F01D0002D31
:1013D000E5D0009920001822FFF734FF20001023E9
:1013E00008220421FFF75EFF082320001A000521D0
:1013F000FFF758FF08220A992000FFF723FF0399FF
:101400002000FFF767FF082320001A000021FFF7E4
:1014100049FF029920004B1E99415431FFF730FFDC
:101420002000082301220C21FFF73CFF280005B013
:10143000F0BD0835BAE7C046C8720010030031009D
:10144000421E03000020042A03D828305843014BD1
:10145000C018704748730010094B1B681B68C01800
:10146000084B1B6829331B781F2B04D88023026884
:101470001A42FCD170470368002BFCD1FAE7C04642
:10148000180400082806000810B50B0013220021DC
:1014900002F0F2F910BD000010B51300074A1268FF
:1014A000293214780C221F2C00D904329140013BC0
:1014B0000B431222002102F0DFF910BD28060008BC
:1014C000F0B5ADB00400049105920393002900D15A
:1014D00015E1039B002B00D111E1329B002B00D1C1
:1014E0000DE1339B002B00D109E1329B5878FFF7C7
:1014F000A7FF071E00D104E10AAB456807931BABA9
:101500000893329B339A5978200006AB00F0C8FA52
:10151000061E65D12A000E212000FFF7BDFF2B001B
:10152000BA690E21200004F069F96A1C0D2120001F
:10153000FFF7B2FF2B00FA690D21200004F05EF9DD
:101540002A0009212000FFF7A7FF2A000A21200016
:10155000FFF7A2FF092120002B00079A04F04EF9A3
:101560000921200004F0C6F9002800D0C5E02A00B7
:1015700008212000FFF790FF059B0B21DF003A00B8
:101580002000FFF789FF0E220921200004F0DCF97A
:10159000002828D15C4B30223100200002F06CF989
:1015A0002000FFF759FF2B0008220921200000F03E
:1015B0000FFC039920002B00092204F061F9092196
:1015C000200004F097F9002813D0504E90212000FD
:1015D0000901FFF759FFCC212000C901FFF754FF93
:1015E00030002DB0F0BD2B0009220399200004F03B
:1015F00047F9329A2B00D2680821200004F0FEF847
:10160000022001F085FF092308220A21200000950D
:1016100000F05AFC0B2120003B00049A04F0EEF885
:101620000B21200004F0A6F9AF421BD97B1B384FD9
:1016300020003A68293211781F228A429241524290
:101640000C3293400021802202F016F93B682422DC
:1016500029331B781F2B00D9013A2E4B0021200083
:1016600002F00AF90B210E22200004F06DF9011E90
:101670000DD1294B3022200002F0FEF82000FFF7A8
:10168000EBFE2B0008220B21200000F0A1FB2B0019
:10169000339A0921200004F0B1F80A230B22190023
:1016A000200001F0BDFB2A0000212000FFF7F4FE1E
:1016B0000A2330220021200002F0DEF82000FFF78C
:1016C000CBFE092300220A212000009501F008FC2E
:1016D00001212000FFF7D8FE0A21200004F00AF9BA
:1016E000002800D071E7039BE91DC90859180A2298
:1016F0002B00200004F0C4F868E7084E6BE7074EA3
:101700006EE7074E6CE7C04609800000010032001A
:1017100028060008B0B000000B8000000B0032006B
:101720000A003200F0B587B004000F1E0492039344
:1017300000D18BE1002A00D188E10C9B002B00D165
:1017400084E10D9B002B00D180E15878FFF778FEF3
:10175000061E00D17CE14568022001F0D9FE280078
:1017600001F0B6FE2A000E212000FFF795FE2B00A7
:10177000B2690E21200004F041F86B1C1A000D2103
:1017800020000593FFF788FE6B1CF2690D212000F5
:1017900004F034F82A0004212000FFF77DFE2A001F
:1017A00005212000FFF778FE3A002B0004212000DD
:1017B00004F024F8EA1DD208BA182B0005212000F5
:1017C00004F01CF80421200004F094F8434258412E
:1017D000A04F4042A04B07400E2204212000FF18DA
:1017E00004F0B2F8002800D19B4F0521200004F03E
:1017F00081F8002800D0984F0E220521200004F027
:10180000A3F8002800D11EE1002F00D01CE12A001F
:1018100006212000FFF740FE2A0007212000FFF7E5
:101820003BFE2A0009212000FFF736FE2A000A218C
:101830002000FFF731FE2A000B212000FFF72CFECD
:101840002A000C212000FFF727FEC0233422DB01F1
:101850003900200002F010F8039B0821DB001A0079
:1018600020000393FFF718FE802334221B02390067
:10187000200002F001F8039B049A0821200003F0E5
:10188000BDFF0821200004F075F8039BAB421DD971
:10189000724A5B1B126820000392293211781F22C2
:1018A0008A42924152420C3293403900802201F028
:1018B000E3FF6A4B24221B6829331B781F2B00D9B6
:1018C000013A674B0021200001F0D6FF654B302222
:1018D0000021200001F0D0FF802120004900FFF707
:1018E000D3FD2A0008212000FFF7D6FD2A000021A1
:1018F0002000FFF7D1FD06210E22200004F024F87D
:10190000011E0DD1584B3022200001F0B5FF200000
:10191000FFF7A2FD2B0008220621200000F058FA54
:10192000002335221900200001F0A6FF0523002224
:1019300019002000009501F0D3FA062205231100BA
:101940002000009500F0C0FA0523042207212000A2
:10195000009500F0B9FA307B01F0DAFD32692B0016
:101960000E21200003F04AFF72696B1C0D2120003C
:1019700003F044FF326A2B000921200003F03EFFF0
:10198000726A08262B000A21200003F037FF0D9A07
:101990002B0052680B21200003F030FF0D9A2B0022
:1019A00092680C21200003F029FF06230A22092156
:1019B00020000195009601F0B1FD07230C220B21B8
:1019C00020000195009601F0A9FD0A230C220021B8
:1019D000200001F041FA09230B220521200001F02B
:1019E0003BFA0523002219002000009501F078FA47
:1019F00005222B001100200001F06CFA05220923BA
:101A00001100200001F028FA05220B23110020000C
:101A100001F022FA802120004900FFF735FD042261
:101A20000521200003F07AFF002809D001230C9A39
:101A300013700E492000FFF727FD380007B0F0BDF6
:101A40000C9B1870F5E7044F0949F3E7024FF4E7E0
:101A5000084FF2E7F5FFCDFF0B0032002806000823
:101A6000808000000860000006800000F17E000019
:101A7000306000000A00320010B51300074A1268F7
:101A8000293214780C221F2C00D904329140013BDA
:101A90000B431222002101F0EFFE10BD28060008C2
:101AA000F0B5040085B00800029103921E00FFF714
:101AB000C7FC071E00D17BE0039B002B00D177E021
:101AC000002E00D174E07368002B00D170E0B36881
:101AD000002B00D16CE045680E212A002000FFF7A2
:101AE000CBFF2A0009212000FFF7C6FF6A1C0D2149
:101AF0002000FFF7C1FF2A000B212000FFF7BCFFE9
:101B00002A000C212000FFF7B7FF2B003A690E21B5
:101B1000200003F073FE2B00BA690921200003F0B6
:101B20006DFE6B1C7A690D21200003F067FE2B000F
:101B30003A6A0B21200003F061FE2B007A6A0C2127
:101B4000200003F05BFE280001F0C2FC387B01F0AE
:101B5000DFFC2A000A212000FFF78EFF2B00039AEA
:101B60000A21200003F04AFE0923019500930C226C
:101B700001330B21200001F0D1FC2B000B227168F6
:101B8000200003F07DFE2B000C22B168200003F042
:101B900077FE6B461B7A00257370FC23200035709E
:101BA000DB011322290001F067FE280005B0F0BD1B
:101BB0000048FBE70B00320010B512011343090384
:101BC0000B433722002101F057FE10BD09030B0023
:101BD00010B513430021302201F04EFE10BD10B5A8
:101BE0001201134309030B433622002101F044FE86
:101BF00010BD0000094B1B681B68C018084B1B6810
:101C000029331B781F2B04D8802302681A42FCD189
:101C100070470368002BFCD1FAE7C046180400089F
:101C20002806000810B50400FFF7E4FF024B1B680C
:101C3000DB6BE418206810BD1804000810B50A4BCF
:101C400009031B68120129331B781F2B06D81300C8
:101C500025220B43002101F00FFE10BD0F2313437B
:101C60000B432422F6E7C0462806000810B5074BB0
:101C70001B6829331B781F2B05D8054B2122002117
:101C800001F0FAFD10BD034BF8E7C0462806000836
:101C9000C0C00000CFC00000002310B51022190002
:101CA00001F0EAFD10BD09030B001343002210B53B
:101CB000110001F0E1FD10BD10B51300074A1268D4
:101CC000293214780C221F2C00D904329140013B98
:101CD0000B431222002101F0CFFD10BD28060008A1
:101CE00010B51F24084B89061B6829331B789C42BA
:101CF000A441130064420C34A34080220B43002112
:101D000001F0BAFD10BDC0462806000870B51400E9
:101D1000074A1568242229352D781F2D00D9013A4C
:101D20002401234309030B43002101F0A5FD70BDED
:101D30002806000810B50B001322002101F09CFDBD
:101D400010BD002310B51122190001F095FD10BD42
:101D500070B504001B4DFFF79FFF200001220221F8
:101D6000FFF7A1FF200000220321FFF79CFF2A00BC
:101D700020000121FFF7A0FF2A0020000021FFF72B
:101D8000AFFF2000002303220221FFF7BFFF022242
:101D9000200011000323FFF722FF20000A4B3D2201
:101DA000002101F069FD094B37222000002101F0DC
:101DB00063FD02212000FFF7BDFF2000FFF7C1FFF8
:101DC00070BDC046090200002E0040002E203000E9
:101DD000F8B504000F0016001D00FFF75DFF3A0084
:101DE00020000421FFF75FFF320020000321FFF7EE
:101DF0005AFF6A0020000221FFF75EFF2A00200040
:101E00000121FFF759FF2A0020000021FFF768FF9A
:101E10002000002303220421FFF778FF2000264B37
:101E20003322002101F028FD20000023022201219D
:101E3000FFF76CFF214B33222000002101F01CFD35
:101E4000023520000221FFF775FF2A002000012142
:101E5000FFF732FF2A0020000021FFF72DFF2000AE
:101E6000022303220021FFF7A7FE20000E230022F9
:101E70000121FFF7A1FE2000114B0322002101F0F8
:101E8000FBFC20000E2301220021FFF795FE20001D
:101E90000C4B3022002101F0EFFCC12330229B03C8
:101EA0002000002101F0E8FC07212000FFF742FF9D
:101EB0002000FFF746FFF8BD4D2000001E20000067
:101EC0001000400001404000F0B504000F00160073
:101ED0001D0089B0FFF7E0FE3A0001212000FFF766
:101EE000E2FE320002212000FFF7DDFE2A0003217E
:101EF0002000FFF7D8FE0E9B00215A002000FFF7BC
:101F0000DBFE232333220021200001F0B5FC20005A
:101F1000FFF770FE944B1B78002B0BD0012B01D1E7
:101F200000F035FD0E9B002201212000FFF750FF3D
:101F300000F024FD8D4B18780138042801D900F0F9
:101F40001DFD04F08FFF05008900250173031805AE
:101F50002000FFF7A1FE012204212000FFF7A3FECD
:101F6000002205212000FFF79EFE80220221200092
:101F7000FFF7A2FEC02203212000FFF79DFEC02232
:101F800000212000FFF7ACFE0023052204212000E1
:101F9000FFF7BCFE802200212000FFF7A1FE0023F6
:101FA000042202212000FFF7B1FE40220021200080
:101FB000FFF796FEC12320229B010021200001F0A3
:101FC0005BFC0422052311002000FFF708FE684B8C
:101FD0003D220021200001F04FFC664B37220021FA
:101FE000200001F049FC0422032311002000FFF728
:101FF000F6FD5F4B3D220021200001F03DFC5D4BD2
:1020000037220021200001F037FC5B4B2022002109
:10201000200001F031FC594B38220021200001F052
:102020002BFC0422022311002000FFF7D8FD504BA7
:102030003D220021200001F01FFC00214D4B3722E2
:10204000200001F019FC0C212000FFF773FE200096
:10205000FFF777FE00F092FC2000FFF71DFE012243
:1020600004212000FFF71FFE002205212000FFF7BA
:102070001AFEE02201212000FFF71EFEE0220221CD
:102080002000FFF719FEE02203212000FFF714FED5
:10209000E02200212000FFF723FE00230522042177
:1020A0002000FFF733FE802200212000FFF718FEFA
:1020B0000023042201212000FFF728FE60220021D6
:1020C0002000FFF70DFE2E4B20220021200001F002
:1020D000D3FB602200212000FFF702FEC123202253
:1020E0009B010021200001F0C7FB02220523110003
:1020F0002000FFF774FD234B3D220021200001F05A
:10210000BBFB214B37220021200001F0B5FB02224E
:10211000042311002000FFF74FFD1C4B3622002145
:10212000200001F0A9FB0222012311002000FFF78B
:1021300043FD164B36220021200001F09DFB0323B6
:10214000022204212000FFF74AFD094B3D22002115
:10215000200001F091FB0021064B3722200001F006
:102160008BFB0E2170E7C046C00000081404000875
:102170004E0040004E403000203000002320000080
:10218000102000002E0040002E2030002E204000A5
:102190002000FFF781FD01220A212000FFF783FDC7
:1021A00000220B212000FFF77EFD80220521520036
:1021B0002000FFF781FD8022062152002000FFF75A
:1021C0007BFD8022072152002000FFF775FD2022B1
:1021D00008212000FFF770FD602209212000FFF791
:1021E0006BFD8022002152002000FFF779FD2022A4
:1021F00001212000FFF774FD602202212000FFF77B
:102200006FFDC02203212000FFF76AFDE0220421B8
:102210002000FFF765FD00230B2205212000FFF7BA
:1022200075FD022305220A212000FFF76FFD01231F
:102230000A2206212000FFF769FD01230A22082156
:102240002000FFF763FDEE4B20220021200001F06B
:1022500013FB0A2320001A001900FFF7C0FCE94B0A
:102260003D220021200001F007FBE74B372200212F
:10227000200001F001FBE54B20220021200001F0AD
:10228000FBFA0A22072311002000FFF795FCE04B20
:1022900036220021200001F0EFFADE4B202200213F
:1022A000200001F0E9FA0A22072311002000FFF7BD
:1022B00096FCD44B3D220021200001F0DDFAD24BE8
:1022C00037220021200001F0D7FA0A22072311004B
:1022D0002000FFF784FCCB4B3D220021200001F0C1
:1022E000CBFAC94B37220021200001F0C5FA0323A5
:1022F000052207212000FFF709FD0A22072311000C
:102300002000FFF759FCC24B36220021200001F0CB
:10231000B3FAC14B20220021200001F0ADFA0A22BD
:10232000072311002000FFF75AFCB64B3D22002185
:10233000200001F0A1FAB44B37220021200001F067
:102340009BFA0A22062311002000FFF735FCB04B50
:1023500036220021200001F08FFA012306220821F5
:102360002000FFF7D3FCAD4B20220021200001F01C
:1023700083FA0A22072311002000FFF730FCA14B4B
:102380003D220021200001F077FA9F4B37220021E7
:10239000200001F071FAA24B20220021200001F060
:1023A0006BFA0A22072311002000FFF705FC984B67
:1023B00036220021200001F05FFA062201231100DD
:1023C0002000FFF7A3FC0A22062311002000FFF7DC
:1023D000F3FB8F4B36220021200001F04DFA8D4B8C
:1023E00020220021200001F047FA0A2207231100D1
:1023F0002000FFF7F4FB834B3D220021200001F079
:102400003BFA814B37220021200001F035FA0223EC
:10241000052208212000FFF779FC7C4B20220021B7
:10242000200001F029FA0A22072311002000FFF7FB
:10243000C3FB774B36220021200001F01DFA012357
:10244000052208212000FFF761FC744B20220021A7
:10245000200001F011FA0A22072311002000FFF7E3
:10246000ABFB6B4B36220021200001F005FA022362
:10247000052209212000FFF749FC0A220923110047
:102480002000FFF799FB624B36220021200001F06B
:10249000F3F90123052209212000FFF737FC0A2266
:1024A000092311002000FFF79AFB564B3D22002123
:1024B000200001F0E1F9544B37220021200001F007
:1024C000DBF90123092208212000FFF71FFC4F4BF5
:1024D00020220021200001F0CFF90A220723110059
:1024E0002000FFF769FB4A4B36220021200001F053
:1024F000C3F94C4B20220021200001F0BDF90A2233
:10250000072311002000FFF757FB414B3622002123
:10251000200001F0B1F9002220001100FFF7E0FBDC
:102520000023052209212000FFF7F0FB0A220923DE
:1025300011002000FFF753FB324B3D220021200009
:1025400001F09AF9304B37220021200001F094F974
:10255000344B20220021200001F08EF90A220723AB
:1025600011002000FFF728FB294B36220021200014
:1025700001F082F92C4B20220021200001F07CF98F
:102580000A22072311002000FFF729FB1D4B3D22E3
:102590000021200001F070F91B4B372200212000A0
:1025A00001F06AF90722012311002000FFF7AEFBBA
:1025B0000A22072311002000FFF7FEFA144B3622EF
:1025C0000021200001F058F900230B2207212000F0
:1025D000FFF79CFB0A22072311002000FFF7FFFAF8
:1025E000084B3D220021200001F046F90021064B56
:1025F0003722200001F040F9F821890024E5C04687
:10260000A2A00000AE004000AEA030008470000028
:10261000AEA0400062700000737000008370000084
:102620007170000092700000547000002000FFF7ED
:1026300033FB012209212000FFF735FB00220A218C
:102640002000FFF730FBC022062152002000FFF7D8
:1026500033FBC022072152002000FFF72DFB202270
:1026600008212000FFF728FB202200212000FFF78F
:1026700037FB402201212000FFF732FB60220221BC
:102680002000FFF72DFB802203212000FFF728FB0D
:102690008022042152002000FFF722FBC0220521E6
:1026A00052002000FFF71CFB05230A220621200010
:1026B000FFF72CFB0A23062209212000FFF78FFADF
:1026C000EC4B3D220021200001F0D6F8EA4B3722E6
:1026D0000021200001F0D0F8042306220821200068
:1026E000FFF714FB0922082311002000FFF777FAF7
:1026F000E04B3D220021200001F0BEF8DE4B3722E6
:102700000021200001F0B8F8DC4B2022002120003D
:1027100001F0B2F80922072311002000FFF75FFA49
:10272000D44B3D220021200001F0A6F8D24B3722E5
:102730000021200001F0A0F8042306220721200038
:10274000FFF7E4FACE4B20220021200001F094F89C
:102750000922072311002000FFF741FAC54B3D2253
:102760000021200001F088F8C34B3722002120000F
:1027700001F082F80722022311002000FFF7C6FAB9
:102780000922072311002000FFF716FABD4B36225D
:102790000021200001F070F8072201231100200021
:1027A000FFF7B4FA0922072311002000FFF717FAF8
:1027B000B04B3D220021200001F05EF8AE4B3722E5
:1027C0000021200001F058F80123072208212000F1
:1027D000FFF79CFA0922082311002000FFF7ECF90B
:1027E000A84B36220021200001F046F8A64B2022FB
:1027F0000021200001F040F80922072311002000E9
:10280000FFF7EDF99B4B3D220021200001F034F849
:10281000994B37220021200001F02EF89B4B2022FB
:102820000021200001F028F80922072311002000D0
:10283000FFF7D5F98F4B3D220021200001F01CF855
:102840008D4B37220021200001F016F809220723C2
:1028500011002000FFF7C3F9864B3D220021200024
:1028600001F00AF8844B37220021200001F004F81F
:10287000E1232022DB010021200000F0FDFF0922DE
:10288000072311002000FFF7AAF97A4B3D2200210F
:10289000200000F0F1FF784B37220021200000F0EB
:1028A000EBFF7B4B20220021200000F0E5FF0922F6
:1028B000072311002000FFF77FF9724B3622002119
:1028C000200000F0D9FF714B20220021200000F0F1
:1028D000D3FF0922072311002000FFF76DF9694B90
:1028E00036220021200000F0C7FF6A4B2022002181
:1028F000200000F0C1FF0922072311002000FFF78C
:102900005BF9604B36220021200000F0B5FF604BE0
:1029100020220021200000F0AFFF09220723110030
:102920002000FFF75CF9534B3D220021200000F00E
:10293000A3FF514B37220021200000F09DFF534B95
:1029400020220021200000F097FF09220723110018
:102950002000FFF744F9474B3D220021200000F002
:102960008BFF0021444B3722200000F085FFE0213F
:102970004900FFF769FB2000FFF7EAF90121200079
:10298000FFF7D8F92000FFF7DCF909B0F0BD424BA2
:10299000187801380428F1D804F05AFA05008400A8
:1029A000D100C701EDFF2000FFF776F901220421D5
:1029B0002000FFF778F9002205212000FFF773F9C6
:1029C00002220021FF322000FFF776F98022012148
:1029D00052002000FFF770F9402202212000FFF78B
:1029E0007FF9C02203212000FFF77AF90323052293
:1029F00001212000FFF78AF9052204212000FFF7BA
:102A0000E5F80423012200212000FFF7E8F8234B1A
:102A100020220021200000F02FFF002201231100BE
:102A20002000FFF7DCF80323002201212000FFF73C
:102A30006DF90023012204212000FFF7D0F8174B85
:102A400020220021200000F017FF042201231100A2
:102A50002000FFF7C4F84E233D220021200000F0A3
:102A60000BFF00210E4B3722200000F005FF032151
:102A7000FFF7EAFA9E0040009E903000827000004E
:102A8000737000009E904000727000007070000033
:102A90007170000060700000140400081210000043
:102AA0004E4030002000FFF7F7F8200001220421FB
:102AB000FFF7F9F8200000220521FFF7F4F8422281
:102AC0002000FF320021FFF7F7F8A022200052007B
:102AD0000121FFF7F1F8200060220221FFF700F941
:102AE0002000E0220321FFF7FBF80323200005224A
:102AF0000121FFF70BF9200005220421FFF766F8FA
:102B00002000012304220021FFF756F82000BF4BCC
:102B10002022002100F0B0FE00222000110001233D
:102B2000FFF75DF82000032300220121FFF7EEF8F4
:102B30000123002204212000FFF73EF87FE71C223A
:102B4000B34901A804F05AFB2000FFF7A5F80122C1
:102B500003212000FFF7A7F8002204212000FFF73F
:102B6000A2F8E02205212000FFF7A6F8F0220021BC
:102B700052002000FFF7A0F880220121520020001F
:102B8000FFF79AF88022022152002000FFF7A8F8F0
:102B9000E02301AA0521200002F030FE02230422D6
:102BA00001212000FFF7B2F8042203212000FFF7E3
:102BB0000DF8152333220021200000F05DFE0022D5
:102BC000032311002000FFF70AF80223002201214D
:102BD0002000FFF79BF8002203212000FEF7F6FFFC
:102BE000152333220021200000F046FE002203239B
:102BF00011002000FEF7F3FF022300220121200034
:102C0000FFF784F8002203212000FEF7DFFF1523E1
:102C100033220021200000F02FFE002203231100A8
:102C20002000FEF7DCFF0223002201212000FFF735
:102C30006DF8002203212000FEF7C8FF1523332280
:102C40000021200000F018FE0022032311002000C4
:102C5000FEF7C5FF0223002201212000FFF756F8EE
:102C6000002203212000FEF7B1FF152333220021AB
:102C7000200000F001FE0022032311002000FEF7D7
:102C8000AEFF0223002201212000FFF73FF80022BF
:102C900003212000FEF79AFF152333220021200094
:102CA00000F0EAFD0022032311002000FEF797FF49
:102CB0000223002201212000FFF728F8002203212F
:102CC0002000FEF783FF152333220021200000F0AF
:102CD000D3FD0022032311002000FEF780FF022312
:102CE000002201212000FFF711F80022032120001B
:102CF000FEF76CFF152333220021200000F0BCFDFD
:102D00000323002219002000FEF769FF3E233D2225
:102D10000021200000F0B0FD00213E4B37222000B2
:102D200000F0AAFD2321FFF78FF9394911221C3148
:102D300001A804F063FA2000FEF7AEFF012204218F
:102D40002000FEF7B0FF002205212000FEF7ABFFB8
:102D5000314A00212000FEF7AFFFF022012152008E
:102D60002000FEF7A9FF812206212000FEF7A4FF24
:102D7000602202212000FEF7B3FFC022032152008F
:102D80002000FEF7ADFF812301AA0621200002F0FA
:102D900035FD0323052201212000FEF7B7FF0522A0
:102DA00004212000FEF712FF162333220021200009
:102DB00000F062FD0022042311002000FEF70FFF47
:102DC0000323002201212000FEF7A0FF002204219E
:102DD0002000FEF7FBFE162333220021200000F026
:102DE0004BFD0423002219002000FEF7F8FE4E23BD
:102DF0003D220021200000F03FFD0021074B37223B
:102E0000200000F039FD4321FFF71EF912100000E9
:102E10003D7900103E303000010200004E4030008D
:102E200070B50C000500FEF7DAFE094B26013343AE
:102E300028003D22002100F01FFD2403054B3443F0
:102E4000280023433722002100F016FD70BDC04644
:102E50000E0040000E00300070B50C000500FEF7BB
:102E6000ABFE230324011C43034B280023433622DB
:102E7000002100F001FD70BD0E004000F8B5140007
:102E800006000D00130000213F2200F0F5FC270191
:102E90000E4B24033C43234336220021300000F034
:102EA000EBFC0B4B2D031B6829331B781F2B07D81A
:102EB0002B0026223B433000002100F0DDFCF8BD52
:102EC0000F232B433B432522F5E7C0460E0080002D
:102ED0002806000807B500931300FEF7F5FF07BDAD
:102EE000F8B5040017001E000D00FEF7D5FE3A00ED
:102EF00007212000FEF7D7FE320008212000FEF750
:102F0000D2FE2A000B212000FEF7CDFE069A0921F1
:102F10002000FEF7D1FE069A0A212000FEF7CCFE23
:102F2000069A0C212000FEF7C7FE08220921200086
:102F3000FEF74CFE0E220A212000FEF747FE072274
:102F40000B212000FEF742FEC02334221B02002189
:102F5000200000F091FC3F269A233D220021200012
:102F600000F08AFC2000FEF75DFE092332000021FC
:102F70000700200000F080FC2000FEF753FE0A232B
:102F8000050032000021200000F076FC2000FEF752
:102F900049FE02231D407A073BD4002D0AD00922A6
:102FA00020001100FEF74AFE0B2211002000FFF75F
:102FB00065FFD1E7184206D00A2220001100FEF773
:102FC0003DFE0C22F1E7FB0711D509220A2311006F
:102FD0002000FEF7F1FD092220001100FEF72EFE71
:102FE0000B220C2311002000FFF736FFDCE70A223A
:102FF000092311002000FEF7DFFD0A222000110046
:10300000FEF71CFE0C220B2311002000FFF724FF0B
:10301000D7E7B02120004901FEF78CFE2000FEF723
:1030200090FEF8BDF0B504000F00160085B00A9DB3
:103030000393FEF731FE3A0020000A21FEF733FE2B
:10304000320020000B21FEF72EFE039A20000C21F7
:10305000FEF729FE2A0020000721FEF72DFE2A0098
:1030600020000821FEF728FE2A0020000921FEF793
:1030700023FEE0232000DB013522002100F0FCFBD1
:10308000200000950C2307220821FFF729FF2B00C1
:10309000200008220721FFF71DFF0A22200011004F
:1030A00000950723FEF710FF2000009507230B2251
:1030B0000921FEF709FF08230922200000950B21B2
:1030C000FEF702FFE02120008900FEF733FE20001A
:1030D000FEF737FE05B0F0BDF0B504000F00160096
:1030E00085B00C9D0393FEF7D7FD3A002000082120
:1030F000FEF7D9FD320020000921FEF7D4FD039A26
:1031000020000A21FEF7CFFD0A9A20000B21FEF7CE
:10311000CAFD0B9A20000C21FEF7C5FD2A002000F5
:103120000421FEF7C9FD2A0020000521FEF7C4FD99
:103130002A0020000621FEF7BFFD2A0020000721FB
:10314000FEF7BAFD2B0020000A220421FFF7C2FE81
:103150002000009504230B220621FEF7B5FE200077
:1031600000950A230C220521FEF7AEFE082220005E
:1031700011000623FFF770FE0A23200019000095B6
:103180000822FEF7A1FE2000009504230522072156
:10319000FEF79AFE0922200011000723FFF75CFECC
:1031A0002B00200008220421FFF794FE2000009548
:1031B000042306220521FEF787FE20000095082340
:1031C00004220621FEF780FE200000950623072238
:1031D0000421FEF779FE2B00200009220821FFF7C9
:1031E00079FE0822200011000623FFF735FE052393
:1031F00020001A000721FFF713FE0822200011000B
:103200000723FFF729FE0522200011000823FFF7FE
:1032100023FE09222000110000950523FEF754FE2D
:103220000922042311002000FFF716FEF0212000E0
:10323000FEF780FD2000FEF784FD05B0F0BDF0B57F
:1032400004000F00160085B00A9D0393FEF724FDCD
:103250003A0020000521FEF726FD3200200006215D
:10326000FEF721FD039A20000721FEF71CFD2A002E
:1032700020000121FEF720FD2A0020000221FEF798
:103280001BFD2A0020000321FEF716FD2A00200066
:103290000421FEF711FD2B00200006220421FFF778
:1032A00019FE2B00200007220321FFF713FE07233E
:1032B0002000190000950622FEF706FE200000956A
:1032C000042305220621FEF7FFFD05222000110040
:1032D0000323FFF7A5FD032320001A001900FFF7C1
:1032E0009FFD0323200019000522FFF7B5FD2000F4
:1032F0000095032305220121FEF7E6FD01232000AE
:103300001A000321FFF78CFD012203231100200086
:10331000FFF786FD012220001100FFF7AFFD2B0013
:10332000200001220321FFF7D5FD03222000110018
:103330000623FFF791FD2000062303220521FFF756
:103340008BFD0622200011000523FFF785FD2000DC
:103350000095062301220221FEF7B6FD2B00200076
:1033600004220121FFF7B6FD0123022220000621DD
:10337000FFF772FD1E212000FEF7DCFC2000FEF7A7
:10338000E0FC05B0F0BD0000F0B5040016001D0023
:1033900087B00C9F0591FEF77FFC059A072120005E
:1033A000FEF781FC320008212000FEF77CFC2A0099
:1033B0000C212000FEF777FC3A0005212000FEF7E3
:1033C0007BFC3A0006212000FEF776FC3A0009213A
:1033D0002000FEF771FC3A000A212000FEF76CFC89
:1033E0003A000B212000FEF767FC07220A2120008B
:1033F000FEF7ECFB08220B212000FEF7E7FB9023F1
:1034000035221B020021200000F036FAA0233422CE
:10341000DB010021200000F02FFA294B28221B6835
:1034200029331B781F2B00D9023A0025254B002198
:10343000200000F021FA244B20220021200000F07F
:103440001BFA224B20001B681B691833E3181E6807
:10345000FEF70CFCB600B60C7B1E9E1BAE4210D8CD
:1034600009230822200000970721FFF7DBFDE62152
:1034700020000901FEF75EFC2000FEF762FC07B0A9
:10348000F0BD2000FEF7F2FB2000FEF7CBFB092386
:1034900005900822009707212000FFF7D0FE0122A7
:1034A000059B13420AD00B230193013B0093029723
:1034B000013B073207212000FFF70EFE0135CDE763
:1034C00028060008C5600000C6C0000018040008F7
:1034D00080220D4B5200904211D007D80122C02803
:1034E0000ED00222E0280BD0002209E0C0225200B8
:1034F000904207D0054A9042F6D1052200E003220F
:103500001A7070470422FBE7140400080902000047
:10351000014B18707047C046C000000813B5040086
:10352000059800902000FFF72FFF2000FEF762FBB8
:1035300013BD0000F0B593B005931AAB1C78654B32
:1035400005001B68039104921E1E02D09B6BC318DA
:103550001E683022002106A803F059FE3300813393
:103560002200FF3306A9280001F0FCFB041E00D056
:1035700086E03300803301939823019ADB00771CA7
:10358000F650FF37F3185A609F60199A099B9A42C8
:1035900000D87CE006A9280001F07CFC041E58D16C
:1035A000199B189A06A9280001F088FC041E50D126
:1035B0003A0006A9280001F0BFFC041E49D10F996A
:1035C000099B5B1A9BB279182200280000F030FC9E
:1035D000002336215C20099A0292934200D270E0C7
:1035E00006A9280001F056FC041E32D1099B3200C6
:1035F00006A9280001F062FC041E2AD1059B049A4A
:1036000006A9280001F05AFC041E22D1320006A9A6
:10361000280001F091FC041E1BD106A9280001F02E
:1036200039FC041E15D1099B019A06A9280001F056
:1036300045FC041E0DD10F9B320006A9280001F0A5
:103640003DFC041E05D1039A06A9280001F074FC74
:1036500004009821C900715880230022280000F03E
:10366000E7FB9823DB00F61800228023716828000E
:1036700000F0DEFB80230022B168280000F0D8FBB8
:1036800006A9280001F0BCFC200013B0F0BD199A77
:1036900092B20292199A9A420CD2029B189A39005D
:1036A000280000F0A7FB029A099B9B1A199A9BB26B
:1036B000B91889E7029B189A3900280000F09AFB94
:1036C00086E7FA5C019C4A40F254FA5C4240E254BC
:1036D000013380E718040008F0B5664C0500A544E6
:1036E00004929322059313AEAEAB1C780391920023
:1036F0000021300003F08BFD3022002107A803F0E9
:1037000086FD220073AB07A9280001F077FD041E97
:103710003BD190239B00F65033AA0433F2500A9F0A
:10372000043353AAF250109BBEB20193020033003F
:1037300053A9280000F06EFCAD9BBB422ED907A90F
:10374000280001F0D9FD041E0DD1AD9BAC9A07A94C
:10375000280001F0E5FD041E05D153AA07A92800A1
:1037600001F084FE0400019B019953AAF31A511839
:103770009BB20022280000F04DFC002C24D00C232A
:103780000022A3A9280000F045FC07A9280001F0A9
:10379000F7FE2000A7239B009D44F0BDAD9B9BB28C
:1037A0000293AD9BBB4250D2029BAC9A53A9280016
:1037B00000F0F2FB029BAD9953AAF61A5118B3B26E
:1037C0002200280000F026FC5C22002336269446C6
:1037D00013A89F4240D107A9280001F08DFD041EC7
:1037E000CDD13B0013AA07A9280001F099FD041EC2
:1037F000C5D1059B049A07A9280001F091FD041E7C
:10380000BDD113AA07A9280001F030FE041EB6D1CD
:1038100007A9280001F070FD041EB0D13B0033AAB7
:1038200007A9280001F07CFD041EA8D1019B13AA62
:1038300007A9280001F074FD041EA0D1039A07A96E
:10384000280001F013FE040099E7029BAC9A53A9EB
:10385000280000F0A1FBB7E7C218541CFF34217800
:1038600080327140195421786446614011700133EF
:10387000AFE7C04664FDFFFFF7B51C4C0193246819
:10388000251E02D0A56B45192D68266D8619AD1B26
:103890006E1EB541A668EDB287190F26B446634681
:1038A0003E681E40062EFAD8E3681206C618019B31
:1038B00013433360002D01D1002912D08022A36868
:1038C0005202C31819681142FCD02368C018084B73
:1038D0001B6829331B781F2B04D8802302681A42E7
:1038E000FCD1F7BD0368002BFCD1FAE718040008EF
:1038F0002806000810B51F24084B89061B682933C9
:103900001B789C42A441130064420C34A3408022E3
:103910000B430021FFF7B0FF10BDC046280600088A
:1039200010B5040000220E21FFF7E4FF2000002262
:103930000D21FFF7DFFF200000220C21FFF7DAFF47
:10394000200000220B21FFF7D5FF200000220A21D2
:10395000FFF7D0FF200000220921FFF7CBFF200056
:1039600000220821FFF7C6FF200000220721FFF7F1
:10397000C1FF200000220621FFF7BCFF200000222B
:103980000521FFF7B7FF200000220421FFF7B2FF57
:10399000200000220321FFF7ADFF200000220221BA
:1039A000FFF7A8FF200000220121FFF7A3FF00225C
:1039B00020001100FFF79EFF034B0F211A68200023
:1039C0009208FFF797FF10BD1C040008054B1B6809
:1039D00029331A78044B1F2A00D9044B044A136078
:1039E0007047C046280600086C790010C0790010A6
:1039F000180400082F4B70B514001A68002A2CD048
:103A0000002909D1002C28D1136DC1182A4B1B683D
:103A10009C6C002921D0A400284B651E9D421CD817
:103A200080231B019C423ED00DD880239B009C42EA
:103A30001DD08023DB009C4233D080235B009C425E
:103A40000BD17F2314E080239B019C422DD006D80C
:103A5000802670237601B4420AD0194820E08023E2
:103A6000DB019C4223D0802600233602F3E77E232D
:103A7000114E3668293636781F2E00D8114D29424E
:103A8000EBD11F2E02D9104D1B024351936BA2089C
:103A9000C31819600F21FFF72DFF00200B4B1C608E
:103AA00070BD7C23E4E77823E2E76023E0E740236E
:103AB000DEE7C0461804000828060008FF7F000063
:103AC0000B003200FF3F0000881400001C040008B7
:103AD000204B21491B6809689A6C920000291CD070
:103AE0001E490968002918D029331B781F2B2FD9AC
:103AF0001B4BC3585B045B0E702B1DD008D8402BAA
:103B000014D0602B15D0002B07D18022120204E0C4
:103B10007C2B17D003D8782B11D0100070477E2B48
:103B200013D07F2BF9D180225200F6E78022D201F8
:103B3000F3E780229201F0E780225201EDE7802234
:103B40001201EAE78022D200E7E780229200E4E750
:103B50000A00E2E728060008180400081C04000810
:103B60008814000010B50400FFF730FF174A184909
:103B7000136829331B781F2B17D8164B236001209D
:103B800009684B6BE3181860134B1B68002B07D1B7
:103B90001368096D9A6C611892002000FFF72AFFE4
:103BA0002000FFF7BDFE002010BD23680B48034036
:103BB00023600B680A485B68E3181860802320685C
:103BC0001B06034323600323A360D8E728060008ED
:103BD00018040008030000801C040008FFFFFE7F9B
:103BE000010002000323037000207047064B1B688E
:103BF00029331A78002303601F2A03D80020034BBF
:103C0000186070478360F9E7280600081C04000864
:103C100030B501290BD901220A4054426241CB0F31
:103C20005B185B109B1A020001398B4200DB30BD30
:103C30001478455C1570445401320139F5E70000F1
:103C4000034B1B689B68C0180F230068184070471F
:103C50001804000870B504000D002000FFF7F0FF05
:103C60000628FAD88021054BC9051A68D368E318DD
:103C70001960D368E418256070BDC04618040008B8
:103C800070B504000E0015002000FFF7D9FF0528CD
:103C9000FAD8064B06491B68DA68A2181160DA6880
:103CA000A2181660DB68E418256070BD18040008CF
:103CB00010000041F8B504000F0016001D002000A0
:103CC000FFF7BEFF0428FAD8074B08491B68DA68DB
:103CD000A2181160DA68A2181760DA68A2181660D4
:103CE000DB68E4182560F8BD1804000810020042E3
:103CF000F8B504000F0016001D002000FFF7A0FF1C
:103D00000328FAD8094B0A491B68DA68A21811601F
:103D1000DA68A2181760DA68A2181660DA68A218C2
:103D20001560DB68E418069B2360F8BD18040008E2
:103D30001032004370B504000D002000FFF780FF33
:103D40000728FAD8034B2D061B68DB68E4182560AA
:103D500070BDC0461804000870B505000C001E00B8
:103D60002800FFF76DFF0728FAD8054B24061B68CB
:103D7000DB68ED180123B3401C432C6070BDC046C6
:103D800018040008F8B507000C001D0006AB1E78EB
:103D90003800FFF755FF0728FAD8064B02211B68A9
:103DA000B140D8680123AB40240619433818214399
:103DB0000160F8BD1804000870B506000C001D0075
:103DC0003000FFF73DFF0728FAD80221084B059A7B
:103DD0001B682406D868049B301899400123AB4027
:103DE00019430323934019432143016070BDC0462A
:103DF0001804000813B5040008001100002B13D0AC
:103E000002002000FFF756FF082320000093002245
:103E1000043B5021FFF7B6FF044B1B681B68E418F6
:103E2000102322681A42FCD113BDC04618040008B2
:103E300013B5040010001A1E13D003002000FFF772
:103E400039FF0C23200000930022043B5121FFF78F
:103E500099FF044B1B681B68E418102322681A4260
:103E6000FCD113BD1804000813B504000120002B79
:103E700015D02000FFF71EFF0823002200935221D7
:103E8000043B2000FFF77EFF1022054B1B681B68D8
:103E9000E31819681142FCD1C0235B00E05816BD3D
:103EA0001804000813B50400080011001A0004AB40
:103EB0001B88002B15D000902000FFF719FF0C2362
:103EC0000193043B00932000043B00225321FFF7A1
:103ED00073FF044B1B681B68E418102322681A4206
:103EE000FCD113BD18040008034B1B689B68C01865
:103EF0000F2300681840704718040008034B1B6824
:103F00001B68C0180368002BFCD170471804000818
:103F1000F8B504000D0017001E002000FFF7E4FFB5
:103F20000428FAD8082D04D00C4AA358002BFCDB37
:103F300004E086225201A358002BFCDBE221084B4F
:103F4000C9051B680D43DA68A2181560DA68A21863
:103F50001760DB68E4182660F8BDC046D01000008A
:103F60001804000870B504000E0015002000FFF7CB
:103F7000BBFF0428FAD8064B06491B68DA68A2186A
:103F80001160DA68A2181660DB68E418256070BD5D
:103F9000180400080C00007070B505000C001E1E0F
:103FA00022D00821FFF7B4FF210032002800FFF7DC
:103FB000D9FF34000F2C18D81024330964425C4315
:103FC000A419A4B2002C0CD02800FFF78DFF0628FE
:103FD000FAD80D4B0D4A1B682404DB681443EB1818
:103FE0001C602800FFF78AFF70BD2800FFF77CFFE8
:103FF0000628FAD8044B064A1B68103CDB68A4B2BA
:10400000EB181A60D6E7C0461804000808C0004044
:1040100008C01040F8B5050016001F1E1ED01A007B
:10402000FFF7A0FF3C000F2C19D810243B09644275
:104030005C43E419A4B2002C0DD02800FFF754FF14
:104040000628FAD80D4B0E4A1B683243DB6824045D
:10405000EB1814431C602800FFF750FFF8BD280040
:10406000FFF742FF0628FAD8044B064A1B68324382
:10407000DB68103CEB181A60A4B2D4E718040008FF
:1040800000C0004200C0104270B5050014001E00C0
:104090000120002B2DD08C2300225B01EA50280048
:1040A0000A0033000821FFF733FF22003300092103
:1040B0002800FFF72DFF34000F2C1BD810243309E4
:1040C00064425C43A419A4B2002C0CD02800FFF772
:1040D0000BFF0628FAD80E4B0E4A1B682404DB6837
:1040E0001443EB181C602800FFF708FF8C235B01CA
:1040F000E85870BD2800FFF7F7FE0628FAD8044BF1
:10410000054A1B68103CDB68A4B2EB181A60D3E7C1
:10411000180400089800004398001043F8B51F00E9
:1041200006AB1E8805000C00002E29D033000821A4
:10413000FFF7EEFE33003A0009212800FFF7E8FE02
:10414000210032002800FFF70DFF34000F2C18D893
:104150001024330964425C43A419A4B2002C0CD08F
:104160002800FFF7C1FE0628FAD80D4B0D4A1B6840
:104170002404DB681443EB181C602800FFF7BEFE24
:10418000F8BD2800FFF7B0FE0628FAD8044B064A0F
:104190001B68103CDB68A4B2EB181A60D6E7C04677
:1041A0001804000898C0004198C0104110B5802440
:1041B000A4000151812152005208890042508222FC
:1041C000DB00DB0892008350002010BD70B50400B6
:1041D0001500FFF73FFD00225C212000FFF7AAFD3C
:1041E0002021064B1A681368E31818680840FCD1B0
:1041F0009369E41823682B6070BDC046180400085A
:1042000010B58024A4000151812152005208890078
:1042100042508222DB00DB0892008350002010BD58
:1042200083239B0010B5C15001210433C150064BBC
:1042300019680B68C3181C68002CFCDB8B69C0185C
:1042400003680020136010BD1804000810B5064C68
:104250002468293424781F2C02D8FFF705FE10BDEE
:10426000FFF712FFFBE7C04628060008094B1B6852
:104270001B68C018084B1B6829331B781F2B04D8F8
:10428000802302681A42FCD170470368002BFCD1DE
:10429000FAE7C046180400082806000810B5130005
:1042A000064A1468293422781F2A03D80022FFF70F
:1042B000BFFD10BD0022FFF7ADFEFAE7280600089B
:1042C00010B50B0334220021FFF7D6FA10BD000011
:1042D00010B50A4B09031B68120129331B781F2BE9
:1042E00006D8130025220B430021FFF7C5FA10BDA5
:1042F0000F2313430B432422F6E7C0462806000889
:1043000010B5094B09031B68120129331B781F2BB9
:1043100006D813000B4321220021FFF7ADFA10BD90
:104320000F231343F6E7C0462806000810B50B001C
:1043300013220021FFF7A0FA10BD000010B51300F2
:10434000074A1268293214780C221F2C00D9043233
:104350009140013B0B4312220021FFF78DFA10BD63
:104360002806000810B51F24084B89061B6829334E
:104370001B789C42A441130064420C34A340802269
:104380000B430021FFF778FA10BDC046280600084D
:10439000F7B504001D005E1C01920F0032000021E1
:1043A000FFF7CCFF320001212000FFF7C7FF3200EA
:1043B00002212000FFF7C2FF2A0003212000FFF79F
:1043C000D1FF00212000FFF77BFF224B2C221B682E
:1043D00029331B781F2B00D9043A03230021200026
:1043E000FFF74AFA802330229B0100212000FFF7CB
:1043F00043FA3E0339003F013743174E20003E4346
:104400008027FFF75DFF7F01002D04DA07212000E0
:10441000FFF78CFFF7BD019B37223B4300212000B3
:10442000FFF72AFA0D4B032200212000FFF724FAA0
:1044300033003A2200212000FFF71EFA002220005C
:104440001100FFF75DFF022220001100FFF740FF7F
:10445000013DD9E7280600080200300001003000C5
:10446000F7B50400089E009115000121721C770029
:104470000193FFF763FF3A0002212000FFF75EFF80
:104480003A0003212000FFF759FF320000212000ED
:10449000FFF768FFC023019A9B012D0113432B43B3
:1044A000332200212000FFF7E7F9404B332200219F
:1044B0002000FFF7E1F9012220001100FFF720FFA3
:1044C000012220001100FFF703FF394B33220021A6
:1044D0002000FFF7D1F9374B362200212000FFF7EB
:1044E000CBF980230522DB0100212000FFF7C4F96E
:1044F000314D24222B6829331B781F2B00D9013A18
:104500002E4B00212000FFF7B7F901212000FFF713
:10451000D7FE002220001100FFF724FF2B682C2279
:1045200029331B781F2B00D9043A802320005B011C
:104530000021FFF7A1F9320020000021FFF712FF50
:1045400020001F4B20220021FFF796F904230021B1
:104550001A002000FFF790F92000FFF787FE2000E7
:10456000184B3A220021FFF787F92000164B03224F
:104570000021FFF781F92000144B37220021FFF7BB
:104580007BF92000104B03220021FFF775F9009BF7
:1045900020001A030223002113433022FFF76CF995
:1045A0000E212000FFF7C2FEF7BDC0463A10000002
:1045B000182000002320000028060008202000000A
:1045C00010100000213000002300300028300000CF
:1045D000F7B506001C00099B01915F001500022140
:1045E0003A00FFF7ABFE3A0003213000FFF7A6FECA
:1045F000099A00213000FFF7B5FE80239B012D01B1
:1046000023432B43332200213000FFF735F9304B91
:1046100024221B6829331B781F2B00D9013A300054
:104620002C4B0021FFF728F9089A2B4B300013433D
:1046300000213322FFF720F9C0239B012B433000D8
:1046400020220021FFF718F9099B30009C1C220052
:104650000021FFF773FE3223300037220021FFF7DD
:104660000BF930000C21FFF761FE30002200012120
:10467000FFF764FE8023089A5B013000134300219A
:104680003722FFF7F9F83000144B03220021FFF71F
:10469000F3F81023089A3000134300213722FFF764
:1046A000EBF8019B30001C030D4B3022234300210B
:1046B000FFF7E2F8C0239B033000234330220021A0
:1046C000FFF7DAF830000321FFF730FEF7BDC046F0
:1046D00028060008203000003020000010004000B4
:1046E00001004000F8B51D00002316000F00102245
:1046F00019000400FFF7C0F8E02300221B0211009C
:104700003B432000FFF7B8F8902300221B023343FD
:1047100011002000FFF7B0F82A000B212000FFF75E
:104720000DFE2A000C212000FFF708FE2A000D21B3
:104730002000FFF703FED02335221B0200212000BA
:10474000FFF79AF80E212000FFF7BAFD0B21200099
:10475000FFF7B6FD6A1E0A212000FFF703FE3A4E5E
:104760002C22336829331B781F2B00D9043A374B8E
:1047700000212000FFF780F83022354B0021200077
:10478000FFF77AF82000FFF771FD0B233F2200218D
:104790002000FFF771F82000FFF768FD2D4F3B6800
:1047A000DB6BE3181D6804231D4041D10B22200060
:1047B0001100FFF78DFD0D2329003F222000FFF798
:1047C0005BF82000FFF752FD3B68DB6BE3181D68C8
:1047D00002231D400AD00D2220001100FFF778FDB2
:1047E0000E2220001100FFF773FDCBE71A4B362293
:1047F00029002000FFF740F8336829331B781F2B6E
:1048000013D82622154B29002000FFF735F80E2279
:1048100020001100FFF75CFD33682C2229331B7840
:104820001F2B00D9043A0E4BA8E70E4B2522EAE7CE
:10483000E02120008901FFF779FD002311221900F2
:104840002000FFF719F8F8BD280600080AB000009C
:1048500009C0000018040008DCD00000D0D000001F
:104860000AE00000DFD00000F0B585B006000F00C0
:1048700002930A9D0B98062A37D8214B9100C958FC
:10488000204C214BA45C9B5C01223A701A190B321C
:10489000824232D82A78002A2FD16A78012A2CD174
:1048A000021B0092D21A9446AA18501E0078019258
:1048B000002822D162462800033A0392421B944604
:1048C000039A624515D89BB2019A3000FFF7BEFCEF
:1048D000002812D1009AA3B2AA1802993000FFF75B
:1048E000B5FC002809D1387007E00024230021001E
:1048F000CAE701304278FF2AE0D0002005B0F0BDC1
:10490000147A0010377A0010307A0010F0B58BB0AE
:1049100009938B6804000593CB68089206930B6893
:104920004F6807930B698D6903934B690493B34BED
:104930001B681E1E02D09B6BC3181E682000FFF769
:10494000C7F8310082B22000FFF7A8FC3A00052129
:104950002000FFF7F3FC3A0006212000FFF7EEFCF1
:104960003A0007212000FFF7E9FC7E1C3A000821ED
:104970002000FFF7E3FC32000A212000FFF7DEFCF5
:104980003A000B212000FFF7D9FC3A000921200052
:10499000FFF7D4FC3B00079A0821200000F02EFF0F
:1049A000069B059A0721200000F028FF099B089A22
:1049B000DB000621200000F021FF039B002B00D02C
:1049C000D5E020003B0008220A21FFF7E1FC20008F
:1049D000FFF74CFC002D00D0D0E0902335221B02C5
:1049E00029002000FEF748FF0823200000930197CC
:1049F000023309220B21FFF7EBFD2000FFF736FC05
:104A0000049B002B00D0C0E020003B0008220921BD
:104A1000FFF768FE2000FFF729FC00231022190091
:104A20002000FEF729FF0022754B11002000FEF741
:104A300023FF0022734B11002000FEF71DFF002210
:104A4000714B11002000FEF717FF00226F4B110081
:104A50002000FEF711FF00226D4B11002000FEF731
:104A60000BFF00226B4B11002000FEF705FF6A4B85
:104A7000302200212000FEF7FFFE3A00092120002D
:104A8000FFF75CFC3A000D212000FFF757FC3A00CD
:104A90000B212000FFF752FC0823062200930D2172
:104AA000043320000197FFF793FD5C4B3022002177
:104AB0002000FEF7E1FE09212000FFF701FC584B22
:104AC00026221B6829331B781F2B00D80232554B36
:104AD00000212000FEF7D0FE2000FFF7C7FB474E65
:104AE0000E21336820001B69E3189A6BDD6A92007F
:104AF000ED04ED0C920C0135AD1AFFF733FC4A4B77
:104B0000202200212000FEF7B7FE002D44DC902378
:104B100020001B0235220021FEF7AEFE05220923EC
:104B2000110020000097FFF79BFCA82120008901BD
:104B3000FFF7FCFB0023112219002000FEF79CFE6A
:104B40002000FFF793FB2000FFF790FB3B000522BE
:104B50001099200000F094FEFE2120000901FFF7CB
:104B6000E5FB2000FFF782FB00200BB0F0BD330017
:104B7000039A0A21200000F041FE2BE73B002A00A7
:104B80000B21200000F03AFE3AE73B00049A09218D
:104B9000200000F033FE40E70B2220001100FFF759
:104BA000AFFB2000FFF762FB01223368DB6BE318E9
:104BB0001B680097134214D004320D23110020000B
:104BC000FFF74EFC2000FFF751FB0D2300971A0062
:104BD00019002000FFF744FC2000FFF747FB013DD0
:104BE00093E70D23052219002000FFF739FC200070
:104BF000FFF73CFB00970523E9E7C04618040008CF
:104C000006600000055000000770000008800000EA
:104C100009A000000AC000000B50000007B000000F
:104C200028060008B9E00000BEB00000F0B50B692E
:104C300087B003934B69040004938B690F68059355
:104C4000344B4D681B681E1E02D09B6BC3181E6838
:104C50002000FEF73DFF310082B22000FFF71EFB6F
:104C60006E1C2A0020000B21FFF768FB3200200099
:104C70000D21FFF763FB2A0020000C21FFF75EFBEC
:104C80002A0020000E21FFF759FB2B003A002000DC
:104C90000B2100F0B3FD2B000B220D212000FFF7AC
:104CA00077FB2000FFF7E2FA3300039920000D2282
:104CB00000F0E6FDC0230B2620001B023522002158
:104CC000FEF7DAFD0D230C220E212000019500963F
:104CD000FFF77EFC2000FFF7C9FA2B0005992000A2
:104CE0000E2200F0CDFD2B00320020000C21FFF73A
:104CF000F9FC2B000C220499200000F0C1FDF021EA
:104D00002000C901FFF712FB2000FFF7AFFA0020D7
:104D100007B0F0BD180400080B0013B511000722FE
:104D2000040058680240C020800022501A69200008
:104D300000929B69FEF7DCFF0C230193043B009378
:104D40002000043B00224C21FFF736F8044B1B687F
:104D50001B68E418042322681A42FCD113BDC04624
:104D60001804000800B5062A00D980E010008B6006
:104D70001A0002F063F80416293A4D6C5C005433B3
:104D80008B613C4B0020CB624023CB602C3B4B61C2
:104D90004B622D334032FF330A6108604860CB61BB
:104DA00000BD60338B6101230B604B60324B40329E
:104DB000CB624023CB60203B4B61043B4B620A61DA
:104DC000E433CB610020EBE760338B6102230B609F
:104DD000013B4B60294B4032CB624023CB60203BF0
:104DE0004B614B620A61E033EBE7C0338B61032315
:104DF0000B60013B4B60224B8032CB628023CB6047
:104E0000403B4B610A61103B4B62A0239B00D8E7FB
:104E1000C0338B6104230B60023B4B60194B803223
:104E2000CB628023CB60403B0A614B61ECE7C0332F
:104E30008B6106230B60043B4B60134B8032CB62CB
:104E40008023CB60403B4B610A61243BDCE7C033ED
:104E50008B6105230B60033B4B600C4B8032CB62B4
:104E60008023CB60403B4B610A61203BCCE7084884
:104E700096E7C046C07A0010D47A0010F47A001089
:104E8000147B0010547B0010947B0010D47B001026
:104E90000B00320010B5002901D1074810BD0024D5
:104EA0004B698C620C62A342F7D0CA6A9BB2096953
:104EB000FEF7A0FF2000F1E70B003200F7B5070076
:104EC0000C0016001D00002931D0002A2FD0CB681D
:104ED0000093002B2BD0002D01D10020FEBD0B6ACA
:104EE0005B190B62896A009A6B189A420AD9A3620D
:104EF000002DF2D0A268ABB2511838003200FEF794
:104F000079FFEAE7009BA2685B1A01936B46511890
:104F10009B8832003800FEF76DFF2100A268380040
:104F2000FFF7FAFE019B0021ED1AF618DBE70148B6
:104F3000D4E7C0460B003200F0B587B001900C00FA
:104F40001500002958D0002A56D0CB680F6903936A
:104F50008B6A8E6800930B6ADB00029370230593C3
:104F6000039B802B01D0382305938023009A01985E
:104F7000B3546B469B89511C0493013B9B1A9BB213
:104F800000227118FEF754FF059B009A93420AD83D
:104F9000320021000198FFF7BFFE049B0022310080
:104FA0000198FEF745FF039B0299F3181A1F090E9B
:104FB00011700299DA1E090C117002999A1E090AE1
:104FC00011706A46127A013B1A7001983200210072
:104FD000FFF7A2FE606A8008002801D107B0F0BD8B
:104FE000FB7801382B70BB786B707B78AB703B78AB
:104FF0000437EB700435EFE70048EFE70B003200B1
:1050000070B505000C1E15D0CB6800229BB28968D4
:10501000FEF70EFF636900229BB221692800FEF7AC
:1050200007FFE36928009BB20022A169FEF700FF99
:10503000002070BD0048FCE70B003200F0B58FB0D7
:10504000019314AB1F78194B04001B6800911600E4
:105050001D1E02D09B6BC3181D683022002102A8C0
:1050600002F0D5F82B003A0002A92000FFF77AFEE3
:10507000002818D102A92000FFF70CFF002812D148
:105080003300009A02A92000FFF718FF00280AD178
:10509000019A02A92000FFF74FFF002803D102A9BF
:1050A0002000FFF7ADFF0FB0F0BDC04618040008A8
:1050B000034B1B689B68C0180F230068184070479B
:1050C00018040008034B1B681B68C0180368002BFA
:1050D000FCD1704718040008F8B504000F00160052
:1050E0001D002000FFF7E4FF0428FAD8E021074B59
:1050F000C9051B680F43DA68A2181760DA68A2189E
:105100001660DB68E4182560F8BDC0461804000886
:1051100070B504000D002000FFF7CAFF0628FAD87A
:10512000034B2D061B68DB68E418256070BDC04684
:105130001804000810B504002000FFF7B9FF062886
:10514000FAD8044B1B68DB68E418C823DB0523602E
:1051500010BDC0461804000810B504002000FFF779
:10516000A7FF0628FAD8044B1B68DB68E418CA239B
:10517000DB05236010BDC0461804000870B50500AB
:105180000C0016002800FFF793FF0628FAD8054BFD
:1051900024021B68DB68ED18CC23DB051E43344377
:1051A0002C6070BD1804000870B505000C001600D6
:1051B0002800FFF77DFF0628FAD8054B24021B685C
:1051C000DB68ED18D023DB051E4334432C6070BD33
:1051D0001804000870B504000D002000FFF768FFF8
:1051E0000628FAD8CE21044BC9051B682943DB6881
:1051F000E418216070BDC0461804000800B5062AF6
:1052000068D810008B6001F019FE041F123B2F4973
:10521000570040330B6169234B602F4B0020CB625A
:105220004023CB602C3B08604B614B6200BD403398
:105230000B6102230B6068334B60284BCB62402329
:10524000CB60203B4B610CE040330B6101230B60D2
:1052500069334B60224BCB624023CB60203B4B61D8
:10526000043B4B620020E1E780330B6104230B60B9
:1052700067334B601B4BCB628023CB60403BE1E745
:1052800080330B6103230B6068334B60164BCB629A
:105290008023CB60403B4B61103BE2E780330B61E6
:1052A00005230B6066334B60104BCB628023CB60D1
:1052B000403B4B61203BD4E780330B6106230B60FE
:1052C00065334B600A4BCB628023CB60403B4B6124
:1052D000243BC6E70748A9E7147C0010487C00106F
:1052E000287C0010A87C0010687C0010287D00102D
:1052F000E87C00100B00320010B5002901D10748EE
:1053000010BD00244B698C620C62A342F7D0CA6ABC
:105310009BB20969FEF740FE2000F1E70B00320066
:10532000F0B585B004000D1E0392019300D195E005
:10533000002A00D192E0CB680293002B00D18DE0CF
:105340000027019BBB4276D00B6A019A8E6A9B189C
:105350000B62FFF7EFFE2000FFF7B4FE6B692A69CE
:1053600008212000FFF7B8FE6A6939002000FFF726
:1053700005FF2000FFF7A6FE2000FFF7EDFEBE426E
:105380000DD03300AA6808212000FFF7A5FE2000F9
:1053900032003900FFF7F2FE2000FFF793FE2000F5
:1053A000FFF786FE0428FAD886225201A358002B64
:1053B000FCDB2B4B2B491B68DA68A2181160DA68FA
:1053C0000399A2181160DB68019AE3181A60019B27
:1053D000029A9B199A4231D9AB62019B002B07D0EC
:1053E00020001A003100FFF7C9FE2000FFF76AFE17
:1053F000AB6A002B0BD0AA680C212000FFF76CFED3
:105400002000A96AFFF7E6FE2000FFF75BFE6B694C
:105410002A690C212000FFF75FFE2000FFF79CFEA9
:1054200069692000FFF7D6FE2000FFF74BFE200041
:10543000FFF792FE0027380005B0F0BD029B310057
:105440009F1B3A002000FFF799FE69682000FFF7D4
:105450005FFE019B0026DB1B0193B8E7024FEAE7E2
:1054600018040008080000710B003200F0B585B088
:1054700004000D1E029200D17BE0002A00D178E0EA
:105480008B6A0A6A0093530F03937023CE68D70088
:105490000193802E01D0383B01932000FFF74AFE94
:1054A0002000FFF70FFE6B692A6908212000FFF733
:1054B00013FE6A6900212000FFF760FE2000FFF75D
:1054C00001FE2000FFF748FE009BAA68082120008B
:1054D000FFF702FE009A00212000FFF74FFE200098
:1054E000FFF7F0FD802200992000FFF75DFE019B91
:1054F000009A934206D820006968FFF709FE200051
:10550000FFF7E0FD6B46711F1A7B2000FFF74CFE92
:105510003A0E311F2000FFF747FE3A0CD2B2F11EBF
:105520002000FFF741FE3A0AD2B2B11E2000FFF779
:105530003BFEFAB2711E2000FFF736FE69682000BC
:10554000FFF7E6FD2000FFF7BDFD029A6B6A0C2114
:105550002000FFF7C1FD2000FFF7FEFD696A200073
:10556000FFF738FE044AA358002BFCDB002005B0EF
:10557000F0BD0248FBE7C046F01000000B0032000F
:1055800070B505000C1E1AD0CB6800229BB289684A
:10559000FEF740FD636900229BB221692800FEF7F7
:1055A00039FD3023002221002800FEF733FD2800BA
:1055B000FFF7C0FD2800FFF785FD002070BD014802
:1055C000FCE7C0460B003200F0B50400BFB0019309
:1055D00044AB1F780D0016000021C0220EA801F078
:1055E00016FE3022002102A801F011FE0EAB3A0097
:1055F00002A92000FFF702FE002818D102A920000E
:10560000FFF77AFE002812D133002A0002A92000F9
:10561000FFF786FE00280AD1019A02A92000FFF7B1
:1056200025FF002803D102A92000FFF7A9FF3FB002
:10563000F0BD000070B50400A020184D800025507A
:105640003F2504302550002501263C3025500830E8
:10565000255008302650124E103026504038215028
:10566000A9218900625020001900FEF7F3FA2A00F0
:1056700060212000FEF75EFB40210A4B1A68136888
:10568000E31818680840FCD1D369E3181A68049B32
:105690001A60A1239B00E05070BDC046000003319A
:1056A0000100010018040008F0B50400A0201C4D02
:1056B000800025503F250430B02625500025B60037
:1056C000A5510836A551174F08360135A55110369A
:1056D000A751403EA151A92189006250A222920007
:1056E000A35003222358134213D0A4239B00E55058
:1056F0000D4B1D682B68E11803000868E658164238
:1057000007D0C00FF9D1EB69E3181A68059B1A603E
:1057100000E00648A12300229B00E250F0BDC046F5
:1057200000000331010001001804000801003200EC
:10573000074B89001A68936B1269C31889180818F7
:105740001B6800688000800C8000C0187047C0464D
:105750001804000810B5064C2468293424781F2C3E
:1057600002D8FEF747FB10BDFEF716FCFBE7C0466C
:105770002806000870B51F2495001305094AAD0CD2
:1057800012688906293212781B0D9442A4416442A2
:105790000C34A5400B432B4380220021FEF76CF80C
:1057A00070BDC04628060008094B1B681B68C0185E
:1057B000084B1B6829331B781F2B04D880230268F1
:1057C0001A42FCD170470368002BFCD1FAE7C046AF
:1057D000180400082806000810B51300064A1468CB
:1057E000293422781F2A03D80022FEF721FB10BD9E
:1057F0000022FEF70FFCFAE728060008F7B50400C0
:1058000000930E000192FFF7CFFF1B4B1B6829335B
:105810001B781F2B2DD8194B1B681B69E3181F68B9
:105820005D6831002000FFF783FF0600009A010049
:105830001F325209920092B22000FFF7CDFF009B69
:10584000019A0733DB089BB231002000FFF782FF8B
:10585000094B1B6829331B781F2B09D83A000021FC
:105860002000FFF787FF2A0001212000FFF782FFB9
:10587000F7BD00252F00D4E728060008180400080B
:10588000F0B585B00393040001910292FFF78CFFFD
:10589000164E336829331B781F2B23D8144B1B68F3
:1058A0001B69E3181F685D6802992000FFF740FF3D
:1058B000039B02000733DB089BB201992000FFF72E
:1058C00049FF336829331B781F2B09D83A00002180
:1058D0002000FFF74FFF2A0001212000FFF74AFFB9
:1058E00005B0F0BD00252F00DEE7C0462806000801
:1058F0001804000810B504000B003F220021FDF73A
:10590000BBFF2000FFF750FF034B1B68DB6BE41865
:1059100020684007C00F10BD1804000810B504002F
:1059200013010B433D220021FDF7A6FF2000FFF7E6
:105930003BFF044B1B68DB6BE41820684007C00F7B
:1059400010BDC0461804000810B5040013010B4335
:105950003D220021FDF790FF2000FFF725FF044BBB
:105960001B68DB6BE41801232068184010BDC0469B
:1059700018040008084B10B51A688B0012699B18B0
:10598000C3181C68FFF7D4FEE104C90C0831C9082C
:10599000FEF73EF910BDC04618040008002807DBDA
:1059A0001F23C02218401E3B8340024952008B50E7
:1059B0007047C04600E100E030B5F8250F4B104AB3
:1059C00018681468436A226C6D039A18116829409C
:1059D00010D01160226C9B181B680A4B1A68531C6C
:1059E000D97F002907D1416A086A496A50629162E9
:1059F0000122DA7730BD0022FBE7C0462806000806
:105A00001804000824040008002270B5040003688C
:105A10000D000B6043684B6083698B60C369CB608A
:105A20004B1CDA77038C0B82038D0B83FDF7CEFFC3
:105A3000A169002900D120492000203000F0C0FEDB
:105A40002022A35E002B06DB1F2213401E3A9A4041
:105A500013001A4A13608022216852028A40184EAD
:105A60006168336849011B6A5B1816495B18E16974
:105A70001A60002900D114492000283000F0A0FE4F
:105A80002823E05EFFF78AFF2822A35E002B06DBB7
:105A90001F2213401E3A9A401300084A13600B4A13
:105AA000336812685B6A926C00209B18F8225203DC
:105AB0001A60074B1D6070BD255F001000E100E01B
:105AC0002806000808100000B95900101804000842
:105AD0002404000810B5074B1B6829331A78064BBD
