:1000000000400420B50100007D010000410A00000D
:1000100081010000830100008501000004AEFBDFC8
:100020000000000000000000000000008701000048
:1000300089010000000000008B0100008D0100001C
:10004000410700004D070000590700006507000048
:10005000710700007D070000890700009507000078
:10006000A1070000AD070000B9070000C5070000A8
:10007000D1070000DD070000E9070000F5070000D8
:10008000010800000D080000190800002508000004
:10009000310800003D080000490800005508000034
:1000A000610800006D080000790800008508000064
:1000B000910800009D080000A9080000B508000094
:1000C000C1080000CD080000D9080000E5080000C4
:1000D000F1080000FD0800000909000015090000F2
:1000E000210900002D090000390900004509000020
:1000F000510900005D090000690900007509000050
:10010000810900008D09000099090000A50900007F
:10011000B1090000BD090000C9090000D5090000AF
:10012000E1090000ED090000F9090000050A0000DE
:10013000110A00001D0A0000290A0000350A00000B
:100140009C340000000000200C0000009C340000E3
:1001500000000004000000009C340000000010407B
:10016000000000000C0000207C01000000000004E2
:10017000000000000000104000000000FEE7FEE765
:10018000FEE7FEE7FEE7FEE7FEE7FEE7FEE7FEE747
:10019000002310B5934200D310BD1C585C500433AB
:1001A000F8E700231A468B4200D370471A500433F5
:1001B000F9E7FFFF70B572B60D4C0E4D0E4EAC4216
:1001C0000AD30E4D0E4EAC420CD30E4B0E4A1A60A3
:1001D00062B60E4B9847FEE7D4E90001A2680C34E2
:1001E000B047ECE754F8080B54F8041CB047EAE7B2
:1001F0004001000064010000910100007C0100004A
:10020000A301000008ED00E000000000E90200008A
:100210000020704702784378002043EA0223014A15
:10022000138070470000002008B5024B984700205B
:1002300008BD00BF511B000008B5024B98470020C5
:1002400008BD00BF251B000010B50446094B9847A8
:10025000094B98472046094B9847094B9847204639
:10026000084B9847224610217220074B98470020E0
:1002700010BD00BF3D1B000015070000411B000022
:10028000090700003F1B0000750400002DE9F04144
:100290000E4B0446002598470D4E0E4FDFF8448064
:1002A0003388AB420AD820460B4B98472246102190
:1002B00072200A4B98470020BDE8F081B8472046DD
:1002C000C047074B98470135EAE700BF3D1B0000D8
:1002D00000000020150700003F1B0000750400000F
:1002E00009070000411B00001FB56A4615461B4B5D
:1002F00003F11006144618685968083303C4B34262
:100300002246F7D1164B9847164B9847164B9847FD
:10031000164B98472846164B9847164B9847164C4D
:100320001021164A6B20A0471021154A7020A047C3
:100330000021144A7820A047134D01231221134AAB
:100340006D20A8470221124A7320A0471021662081
:10035000104AA047104CA047FDE700BF6C2D0000DD
:10036000A1060000D1050000E9060000211B0000E5
:10037000251B000061040000510400003902000048
:1003800049020000110200001904000029020000C7
:10039000150200008D020000BD040000012070471E
:1003A0000023F0B54F1C834201DB002020E017F84A
:1003B000135011F81340A5F13006F6B2092E0BD8F0
:1003C000D654A4F13005EEB2092E14D8D45C44EA18
:1003D0000514D4540133E6E7A5F14106052E02D8F1
:1003E000373DD554EDE7A5F16106052E01D9012071
:1003F000F0BD573DF5E7A4F14105052D02D8A4F164
:100400003705E3E7A4F16105052DF0D8D55C573C2D
:1004100045EA0414DDE7FFFFF0B50B4E34680F2CFE
:100420000FDCBF290DD8094F4FEA041C07F80C0058
:10043000002007EB0415C5E9011201342B73346069
:10044000F0BD0120FCE700BF0C0100200C000020E3
:1004500010B4024C0023A44610BC604719040000ED
:1004600000217620014A024B184700BF9D0300007F
:10047000510400002DE9F04115460E4C0F46A047EF
:10048000DFF834806E1EC5F10105AB199F4204DC14
:100490002346BDE8F0410A20184716F8013F1B0922
:1004A00018F80300A047337803F00F0318F803008F
:1004B000A047EAE78D0500007D2D00002DE9F043FF
:1004C0002D4EADF5137DB0472C4B2D491A680023F6
:1004D0009A4204DC07D10DF5137DBDE8F0831C01C1
:1004E000645C84423DD1264D1F0105EB0314237B40
:1004F000DB0712D500238DF80830B0478DF8C8000F
:10050000B047204B8DF8C90002AA012032A99847B4
:100510000028E0D19DF808306360002405EB07084F
:100520000DF1C809D8F80430B4EB430F1BD3B04722
:100530000A2801D00D28CED13D446C68114B2046CD
:1005400002AA32A998470028C5D1AB68E1B202A837
:10055000984701218DF804000B4B7A2001AA984797
:10056000B9E70133B4E7B0470A28B4D00D28B2D0B8
:1005700004F809000134D5E7950500000C010020BE
:100580000C000020A103000075040000004B184778
:100590006D0C000008B5024B9847C0B208BD00BF03
:1005A000850C000010B5064C0648074B9847A4463A
:1005B000BDE8104001224FF416410020034B604774
:1005C000750B00000B00010061130000001BB70059
:1005D000004B1847A5050000202370B5194D1A4E91
:1005E000C5F8C8301948B047194C1A48A0471A48EE
:1005F000B0474FF48073C5F8C8304FF480131748E4
:10060000C5F8C830164B98474FF08042D2F8183AD8
:1006100043F02003C2F8183A124B1A6A42F0807273
:100620001A625A6AD207FCD50C4D0F4B28469847E0
:100630000E4B00220121202098470D48A0470D4B6A
:100640001D6070BD00000240390F0000001BB700A4
:10065000050F00000891100000D8B8050024F40030
:10066000F50F000000300140A10F0000150F000041
:1006700008921000040000204FF080434FF4005215
:10068000C3F8202240F2011203F580535A679A679B
:100690004FF480721A664FF48272C3F8EC207047F0
:1006A00000230B4A10B513604FF080424FF44570A1
:1006B000C2F88832C2F88433064B9847064B9847F5
:1006C000064B9847BDE810400548064B184700BF49
:1006D00010E000E0050F000079060000D9050000D9
:1006E00000A00340C5130000012313B51822ADF884
:1006F000043000210248034C01ABA04702B010BDFA
:1007000000C00840E11200000022014B1A76704739
:1007100000C008400122014B1A76704700C0084013
:1007200007B50422044B0DEB0201044898470198D9
:1007300003B05DF804FB00BFE113000000A003401C
:1007400008B5014B984708BD8F01000008B5014B63
:10075000984708BD8F01000008B5014B984708BDB8
:100760008F01000008B5014B984708BD8F010000BC
:1007700008B5014B984708BD8F01000008B5014B33
:10078000984708BD8F01000008B5014B984708BD88
:100790008F01000008B5014B984708BD8F0100008C
:1007A00008B5014B984708BD8F01000008B5014B03
:1007B000984708BD8F01000008B5014B984708BD58
:1007C0008F01000008B5014B984708BD8F0100005C
:1007D00008B5014B984708BD8F01000008B5014BD3
:1007E000984708BD8F01000008B5014B984708BD28
:1007F000FD10000008B5014B984708BD39110000F5
:1008000008B5014B984708BD7511000008B5014BAC
:10081000984708BDB111000008B5014B984708BDC5
:10082000ED11000008B5014B984708BD29120000E2
:1008300008B5014B984708BD6512000008B5014B8B
:10084000984708BDA112000008B5014B984708BDA4
:100850008F01000008B5014B984708BD8F010000CB
:1008600008B5014B984708BD8F01000008B5014B42
:10087000984708BD8F01000008B5014B984708BD97
:100880008F01000008B5014B984708BD8F0100009B
:1008900008B5014B984708BD8F01000008B5014B12
:1008A000984708BD8F01000008B5014B984708BD67
:1008B0008F01000008B5014B984708BD8F0100006B
:1008C00008B5014B984708BD8F01000008B5014BE2
:1008D000984708BD8F01000008B5014B984708BD37
:1008E0008F01000008B5014B984708BD8F0100003B
:1008F00008B5014B984708BD8F01000008B5014BB2
:10090000984708BD8F01000008B5014B984708BD06
:100910008F01000008B5014B984708BD8F0100000A
:1009200008B5014B984708BD8F01000008B5014B81
:10093000984708BD8F01000008B5014B984708BDD6
:100940008F01000008B5014B984708BD8F010000DA
:1009500008B5014B984708BD8F01000008B5014B51
:10096000984708BD8F01000008B5014B984708BDA6
:100970008F01000008B5014B984708BD8F010000AA
:1009800008B5014B984708BD8F01000008B5014B21
:10099000984708BD8F01000008B5014B984708BD76
:1009A0008F01000008B5014B984708BD8F0100007A
:1009B00008B5014B984708BD8F01000008B5014BF1
:1009C000984708BD8F01000008B5014B984708BD46
:1009D0008F01000008B5014B984708BD8F0100004A
:1009E00008B5014B984708BD8F01000008B5014BC1
:1009F000984708BD8F01000008B5014B984708BD16
:100A00008F01000008B5014B984708BD8F01000019
:100A100008B5014B984708BD8F01000008B5014B90
:100A2000984708BD8F01000008B5014B984708BDE5
:100A30008F01000008B5014B984708BD8F010000E9
:100A400004207146084202D0EFF3098001E0EFF381
:100A5000088081690A884BF6AB639A4200D0FEE7B2
:100A600002318161202101607047FFFF0C4607B50C
:100A70001946009223460246024C0348A04700BE96
:100A8000FDE700BF210C00008D2D0000014608B5D8
:100A90000122034B03489847003818BF012008BDC6
:100AA000151800002801002010B50C46014630B989
:100AB00040F26D110A4B0B4A0B480C4CA04724B96D
:100AC0004FF4B7710A4B074AF6E72246094B0A482A
:100AD000984700280CBF20464FF0FF3010BD00BFE4
:100AE000CB2D0000382E0000D62D00006D0A00002E
:100AF000062E0000A5170000240100202DE9F04774
:100B0000002506460C4690461F46AA46DFF8289068
:100B1000BD4201DBBDE8F08721684B1C7F2B03D968
:100B20003046C847C4F800A02368013506F80380A2
:100B3000236801332360EBE7A90A000010B530B940
:100B40004FF4EC71064B074A0748084CA047084B86
:100B5000984700280CBF01204FF0FF3010BD00BFA8
:100B6000D32D00004C2E0000D62D00006D0A000091
:100B70008D0A000010B588B0CDE9043101230021B1
:100B80009A42ADF818108DF81A008DF81B308DF8C8
:100B90001C308DF808202BD1174C04AB03931C227A
:100BA000164B20469847164B69461C602046154B4D
:100BB0002461984730B140F24B21134B134A14483B
:100BC000144CA0472069144B04F11401984720B13C
:100BD00040F257210C4B0D4AF1E720690F4B04F10D
:100BE0001801984730B140F26221074B074AE6E707
:100BF00043F2215008B010BD100100204D2D00001F
:100C000074010020B9160000102E0000652E0000AF
:100C1000D62D00006D0A00001D17000061170000AE
:100C20000FB4002110B5A2B00B4B7C2203A8029197
:100C300098470A4B186850B125A9094B2498094CCC
:100C400002AA0191A047084B014602A8984722B08A
:100C5000BDE8104004B070474D2D00007401002025
:100C6000FD0A0000A50C0000A90A000007B5044B0E
:100C70000190012101A8984703B05DF804FB00BF73
:100C8000A90A0000002307B58DF807300DF1070011
:100C9000034B98479DF8070003B05DF804FB00BFC5
:100CA0003D0B00002DE9F04F002507469046994680
:100CB0000C462E46AA468DB002953A781AB902988B
:100CC0000DB0BDE8F08F252A3AD00123404602A995
:100CD000C847BB460BF10107EFE70F460CFB0323A8
:100CE000303B7A78791CA2F130000928F5D92E2AF8
:100CF00005D10F4611F8012F303A092AF9D97A782F
:100D000007F1010BA2F16200642AC0B21CD0692A6B
:100D10001AD002F0DF01462922D0582920D013280A
:100D200003D86449C140CF071AD4632A40F0A38096
:100D3000012354F8042BD2B2404602A9C847C9E7A0
:100D400000234FF00A0CCCE754F8047B8DF80CA07C
:100D500003AE002F42D1302101258DF80D102E4415
:100D6000582A50D0782A67D1002754F8041B8DF8F0
:100D70000CA003AE002948D1302101258DF80D10BB
:100D80002E44132818D84B4921FA00F0C10713D577
:100D90006F2A54F8040B51D0622A51D0702A0CBF2C
:100DA00010220A228DF80CA003AE00284AD130226E
:100DB00001258DF80D202E44202240465B1B02A900
:100DC000C847002E86D037463E4617F80129002A2C
:100DD00080D00123404602A9C847F5E74FF0010C37
:100DE0000A213D4697FBF1F701FB1755002DB4BFD3
:100DF000C5F13005303506F80C5065460CF1010C94
:100E0000002FEED1ABE70127AFE7002F4FF0010C29
:100E100014BF4FF0370E4FF0570E01F00F05092D9C
:100E200094BF30357544090906F80C5065460CF13D
:100E3000010C0029F1D1A3E70127A2E70822B1E7BD
:100E40000222AFE7002F18BF4FF0370C4FF0010719
:100E500008BF4FF0570C0146B0FBF2F002FB101533
:100E6000092D94BF303565448A42F5553D4607F15A
:100E70000107F0D99FE7732A1AD154F8047B019334
:100E8000002F3FF427AF38460B4B9847019B054690
:100E90001B1A2022404602A9C847013F17F8012F1C
:100EA000002A3FF417AF0123404602A9C847F5E7DF
:100EB000012341E7016008005D2D0000022110B50B
:100EC0000F4CD0B1C0F30B039BB1DAB23F2A4FEA0B
:100ED000132308BFD4F8982003F1FF33DBB215BF0A
:100EE0009200134302F18042C4F8983018BFC2F850
:100EF000603201294FEA203000D110BD0121E0E726
:100F000000000240B0F1004F01D0014B184770477C
:100F1000BD0E0000800000F180401AB14FF0005378
:100F2000C0F8003321B94FF08043C0F80033704758
:100F30000139C0F800137047154B984205D0154B86
:100F4000984202D0144B984220D14FF080434FF08A
:100F50000062C3F84821C3F82822202203F5003399
:100F6000C3F8C8200C4B98420C4B05D11A6942F0CB
:100F7000804200201A617047064A90421A6902D1E5
:100F800042F40042F5E742F48042F2E70120704764
:100F9000001BB700006CDC0200D8B805003001402F
:100FA00010B50F4B98470F4B98470BA3D3E900237D
:100FB0000D4CA0470D4B98470D4B98474FF0804282
:100FC000082828BF0820D2F8003423F4F83343EA75
:100FD0000030C2F8000410BDC19D76BEC028783E26
:100FE0005D2C0000A129000085240000512A00008A
:100FF0000D2D00000C4B984214D24FF480720B4B15
:10100000C3F8C8204FF48012C3F8C8204FF08042C4
:10101000D2F8183A43F02003C2F8183A044B18608B
:1010200000207047012070470048E801000002409E
:10103000080000200346002010B5074A52F8041BA0
:101040008B4208D001300928F8D15F21034B044AB4
:101050000448054CA04710BD54300000752E000018
:10106000642F00007B2E00006D0A000070B51F4B3E
:1010700005460C469847002832DB01264FF0804198
:101080001B4B33F810301A0ADBB206FA03F388322E
:1010900041F82230174B53F82000174B984754B1B2
:1010A000042C16D8D5F8F83FE21C96401E4214BF17
:1010B00001230023B3B1D5F8F83F1B0705D5D5F8B8
:1010C000F83F03F00703A3420ED10020C5F8F84F04
:1010D00070BD052C06D1D5F8F83FC3F3C013E9E77E
:1010E0000420F5E70320F3E70120F1E735100000C5
:1010F000783000008C300000A9130000074B10B5B9
:101100001B682BB9AF21064B064A0748074CA0477E
:10111000074A08481168BDE81040184750010020F0
:10112000A42E0000792F00007B2E00006D0A000025
:101130002C01002000600840074B10B55B682BB9FC
:10114000BC21064B064A0748074CA047074A0848F7
:101150005168BDE81040184750010020BC2E000027
:10116000942F00007B2E00006D0A00002C0100204F
:1011700000700840074B10B59B682BB9C921064B7E
:10118000064A0748074CA047074A08489168BDE847
:101190001040184750010020D42E0000AF2F00004F
:1011A0007B2E00006D0A00002C010020008008400A
:1011B000074B10B5DB682BB9D621064B064A07480A
:1011C000074CA047074A0848D168BDE810401847B7
:1011D00050010020EC2E0000CA2F00007B2E0000E2
:1011E0006D0A00002C01002000900840074B10B54C
:1011F0001B692BB9E321064B064A0748074CA04759
:10120000074A08481169BDE81040184750010020FE
:10121000042F0000E52F00007B2E00006D0A000067
:101220002C01002000A00840074B10B55B692BB9CA
:10123000F121064B064A0748074CA047074A0848D1
:101240005169BDE810401847500100201C2F0000D4
:10125000003000007B2E00006D0A00002C010020F1
:1012600000600940074B10B59B692BB9FE21064B66
:10127000064A0748074CA047074A08489169BDE855
:101280001040184750010020342F00001B30000090
:101290007B2E00006D0A00002C0100200070094028
:1012A000084B10B5DB6933B940F20B11064B074A06
:1012B0000748084CA047084A0848D169BDE81040D3
:1012C000184700BF500100204C2F000036300000AE
:1012D0007B2E00006D0A00002C01002000800940D8
:1012E00030B501241D7804FA02F28C003DB9204487
:1012F00000F50050036823EA0202026030BD5B780B
:101300004BB901F50A6140F82120204400F5005056
:1013100003681A43F1E701F50861F4E7012281B29D
:101320008A404FF6E071084210B54FEA104305D0ED
:101330003021074B074A0848084CA0479B0003F19F
:101340008043C3F82021D3F800111142FBD010BD17
:10135000B0300000E3300000BD3000006D0A000036
:10136000012281B28A404FF6E071084210B54FEA7F
:10137000104305D04921084B084A0948094CA047A9
:101380009B0003F18043C3F84021D3F8001132EAF7
:101390000101FAD010BD00BFB0300000FC300000E9
:1013A000BD3000006D0A000010B50446034B98479D
:1013B0002046BDE81040024B184700BF1D13000037
:1013C000611300004FF48002044BC3F8C8204FF0B3
:1013D00080434FF40052C3F82822704700000240B7
:1013E00073B5C8B1C1B1BAB10D4BD3F8B8305B0217
:1013F00014D40368032A019394BF1346042301AC59
:10140000CD1814F8016B01F8016BA942F9D1D21A79
:10141000EFD1104602B070BD0420FBE70120F9E7D0
:101420000000024010B530B940F20D11064B074ADA
:101430000748084CA0474FF480334FF4E132C0E92D
:1014400000230023836010BD3D310000F631000011
:10145000173100006D0A00002DE9F04108B101B11B
:1014600032B94FF49A71184B184A1948194CA047D1
:101470000F244FF0FF352746AC460E01B2FBF6F8BD
:1014800008F1FF3EBEF5803F04F101030CD203FBDF
:1014900008F3B2FBF3F3994234BF5B1ACB1A6345EE
:1014A0003EBF754627469C46013C072CA6EB01062D
:1014B000E4D1B5F5803F37BF876241F251600562E4
:1014C0000020BDE8F08100BF4C3100000D3200006B
:1014D000173100006D0A000070B50D46164604462F
:1014E00008B101B12AB9B7212F4B304A3048314CED
:1014F000A0470121304B9847002854D1324620465E
:1015000029682E4B984700284DD16B7AD3B1D4F877
:10151000003E43F00113C4F8003ED4F8083E23F423
:101520007063C4F8083EAB7AD4F8082E1B0203F4AB
:1015300070631343C4F8083ED4F8083E43F0010337
:10154000C4F8083E2B7AD3B1D4F8003E43F002131E
:10155000C4F8003ED4F8083E23F47023C4F8083ED3
:10156000EB7AD4F8082E1B0403F470231343C4F859
:10157000083ED4F8083E43F00203C4F8083E2B7935
:10158000AA791B01920002F00C0203F0300313430E
:10159000EA7943EAC2336A79920102F040021343C6
:1015A00043F00103236070BD8B310000EB3100007C
:1015B000173100006D0A00006D1000005914000082
:1015C00010B500B131B940F267110C4B0C4A0D480F
:1015D0000D4CA047D0F8003EDB0705D50A449142E8
:1015E00003D183681B07FCD510BDD0F8043E9C06D0
:1015F000FBD511F8013BC0F8203EF0E7C7310000F1
:101600001F320000173100006D0A000010B500B154
:1016100031B94FF4CA71244B244A2548254CA047C0
:10162000D0F8003E9C073CD50A44914201D10020ED
:101630000CE0D0F8043E5B06FBD583689C0406D51D
:10164000836843F40053836041F24F6010BD5C0433
:1016500006D5836843F48043836041F25060F5E728
:101660001C0406D5836843F40043836041F24E6056
:10167000ECE7D0F8043E9B070ED5D0F8003E43F4CB
:101680000033C0F8003ED0F8043E43F00203C0F837
:10169000043E41F24D60D9E7D0F8303E01F8013BFD
:1016A000C3E70120D2E700BFC7310000333200009A
:1016B000173100006D0A000070B504460D4631B9BF
:1016C00040F20A310E4B0F4A0F48104CA04720B988
:1016D00040F20F310E4B0B4AF6E70E4B1022002161
:1016E00098472B7A012B237306D1E96804F108008F
:1016F000094BBDE87040184743F2215070BD00BF50
:1017000045310000D7320000463200006D0A00006B
:10171000773200004D2D000085180000034610B5FB
:1017200030B940F2A631094B094A0A480A4CA04791
:1017300021B940F2A731094B054AF6E700200860BD
:101740005A6801325A600B6010BD00BF773200004A
:10175000EA320000463200006D0A000084320000C8
:1017600010B530B940F2D931094B0A4A0A480B4C3E
:10177000A04721B940F2DA31094B064AF6E703687F
:101780001BB901600860184610BD43F22250FBE708
:101790007732000008330000463200006D0A000076
:1017A0009732000010B530B940F2E721114B124AD0
:1017B0001248134CA04721B94FF43A71114B0E4A0D
:1017C000F6E722B940F2E9210F4B0B4AF0E7006837
:1017D00020B940F2EE210D4B074AE9E7037B012BCC
:1017E00004D1BDE810400A4B0830184743F221509D
:1017F00010BD00BF84320000B0320000463200004D
:101800006D0A0000A2320000A932000090320000F0
:10181000ED18000010B530B94FF43E71114B124A6B
:101820001248134CA04721B940F2F921114B0E4A3E
:10183000F6E722B940F2FA210F4B0B4AF0E70068B5
:1018400020B940F2FF210D4B074AE9E7037B012B4A
:1018500004D1BDE810400A4B0830184743F221502C
:1018600010BD00BF97320000C432000046320000B5
:101870006D0A0000A2320000A93200009032000080
:101880003D1900001FB529B98A21124B124A13488D
:10189000134CA04718B98B21124B0F4AF7E7CA7AAD
:1018A0004B688DF80A200A7B8DF80B200A68CDE979
:1018B00000230B89ADF808308B7A69468DF80C301F
:1018C000094B984743F22153002818BF184604B02B
:1018D00010BD00BF25330000653300003233000027
:1018E0006D0A0000773200008D19000010B530B984
:1018F00040F20D110A4B0B4A0B480C4CA04721B982
:101900004FF487710A4B074AF6E722B940F20F11EC
:10191000084B044AF0E7084BBDE81040184700BFE9
:101920007732000075330000323300006D0A00008A
:10193000A2320000A9320000BD1A000010B530B973
:1019400040F21B110A4B0B4A0B480C4CA04721B923
:101950004FF48E710A4B074AF6E722B940F21D1187
:10196000084B044AF0E7084BBDE81040184700BF99
:101970007732000086330000323300006D0A000029
:10198000A2320000A9320000591A00007FB50C46AF
:10199000054628B9DD21264B264A2748274CA04773
:1019A00019B9DE21264B234AF7E70B7B072B03D916
:1019B000DF21244B1F4AF0E7234E56F823301BB992
:1019C000E021224B1B4AE8E7214B01A898476368B6
:1019D0000193237A012B23D102238DF80830637AF7
:1019E00001A95A1E534253418DF80930A37A226847
:1019F000003B18BF01238DF80C30E37A003B18BF81
:101A000001238DF80D300023ADF80E30237B56F8FE
:101A10002300104B984740B9237B2B7004B070BD56
:101A2000022B0CBF03230023D7E742F6AF70F5E784
:101A30009032000037340000963300006D0A000039
:101A400045310000C6330000743400000D3400003E
:101A500025140000D914000010B530B94FF4987166
:101A60000E4B0F4A0F48104CA04721B940F23111DC
:101A70000E4B0B4AF6E722B94FF499710C4B084A0A
:101A8000F0E700780B4B53F820000B4B98470028E9
:101A900042F6AF7008BF002010BD00BF90320000BA
:101AA00044340000963300006D0A00003234000018
:101AB000A9320000743400000D16000010B530B9D2
:101AC00040F245110C4B0D4A0D480E4CA04721B970
:101AD0004FF4A3710C4B094AF6E722B940F24711C3
:101AE0000A4B064AF0E70078094B53F82000094BEF
:101AF0009847002010BD00BF903200005C34000009
:101B0000963300006D0A000032340000A932000054
:101B100074340000C1150000004B18472107000075
:101B20007047FFFF044A431E0F3013F8011F834222
:101B300002F8011BF9D17047780100207047704707
:101B40000146014A014B184778010020F5230000A7
:101B50007047FFFF70B50446044E00EB8105AC42B0
:101B600000D170BDB04744F8040BF8E7191B000022
:101B7000F0B5002427460438002540F8047F95423C
:101B800003D10134082CF7D1F0BD4B5D0668234129
:101B900003F00103AB40334303600135EFE7FFFF80
:101BA00070B504460E460C4B00211546984720465A
:101BB0000021A94200D170BD002256F822300478DD
:101BC000CB4003F00103934001322343082A037002
:101BD000F3D101310130ECE74D2D000070B5002448
:101BE0009C4200D170BD51F8245052F824607540D9
:101BF00040F824500134F3E7F0B5D1E905345C40F6
:101C000004600A6884EA020CC0F804C0CB6983EA65
:101C10000C0383600A698B685340C3604A68CE69CD
:101C2000564006610A69CD697340554045618F6829
:101C3000CA697A4082610F69036287EA0C07C7614B
:101C40004F688CEA0707476257408762CA6853406B
:101C5000C3628A685A4002638F697B4043630F689E
:101C60006B4057406240C2638763036409685C400D
:101C700059405A40C4647440416482640465F0BDB4
:101C8000F0B5D3E904468E4686EA040CC0F800C0DD
:101C90001C699F69674047601D6A1C686C40556BF2
:101CA0006C4084EA0C0484609669D56B7540DE69EB
:101CB00075401E6A75407D40C560D3E901164E40EF
:101CC000116D6C404E4086EA0C060661DEF81C1071
:101CD000D26C4A40D9685B684A4053407B404361BC
:101CE0008461F0BD2DE9F041069C9E69E56975406F
:101CF0000D605E696E404E601F697E408E609F6819
:101D0000566887EA060EC1F80CE0D4E90076774001
:101D10000F61A66887EA060CC1F818C0D4E90376FB
:101D2000774087EA0C0787EA0E08C1F81C8027680D
:101D300096687E4086EA0E060E62DF6887EA0C0C23
:101D4000C1F824C0176988EA07078F62A7697D4038
:101D50007540CD62266975400560CD69CE6A7540D3
:101D600045608E6A4D68D2687540554085600D6942
:101D70008A686A405D686A409D686A4002610D6ACF
:101D80005540C56064699B69D1E909657540654046
:101D90005D4045614B6A5A4082618B684A6A534094
:101DA000C361BDE8F0812DE9F04198B06C46A1F126
:101DB000040C2246634601F11C0E53F8045F734580
:101DC00042F8045BF9D1032365462246176855F8AB
:101DD000046F86EA4706754542F8046BF6D1013B6D
:101DE000F2D127461E463A68013602F08835AA0825
:101DF00042EA55022A4342EAD502082E47F8042B4C
:101E0000F1D1CA690D680892554009954D6808AE30
:101E10000A958D68B04655400B95CD684FF0000C83
:101E20006A4010ADAE460C920A690D924A690E9254
:101E30008A690F9258F8042B0CF1010CD700520854
:101E400007F0883702F077323A43BCF1080F4EF8BA
:101E5000042BEFD156F8047B54F8042B55F804CB2F
:101E60007A4051F823707A4082EA0C0240F823202D
:101E70000133082BEED118B0BDE8F0812DE9F8430D
:101E800007460E46DDE9080100EA030801EA0309F6
:101E9000074B02EA000502EA0104984785EA0905B2
:101EA00084EA0804454060403D603060BDE8F88346
:101EB000191B00002DE9F04F8946ADF52F7D8346B3
:101EC00009F120068E4C54A8A047314669A8A047C6
:101ED000779B8C4C0193629B5E9A00934BA9739BFA
:101EE00042A8A0477C9B589A0193679B4CA90093FA
:101EF00043A86D9BA0476A9B5D9A0193559B4DA992
:101F0000009344A8729BA0477A9B569A0193659BC5
:101F10004EA9009345A86B9BA047799B599A0193C2
:101F2000649B4FA9009346A86E9BA0477B9B579A42
:101F30000193669B50A9009347A86C9BA047789B90
:101F40005A9A0193639B51A9009348A86F9BA0479D
:101F5000D9F820305B9A0193D9F8003052A9009348
:101F600049A8709BA047759B5C9A0193609B53A9FD
:101F700000934AA8719BA047634D494642AB54AABF
:101F800016A8A84731464BAB69AA1DA8A847219BB4
:101F9000189A01931A9B07A9009306A81F9BA047B4
:101FA0001B9F069D079E87EA050305931A9B0AA9B6
:101FB0005F40199B08A85D40229B83EA06020492B9
:101FC000219A83EA0208209B1C9A5E40049B01939D
:101FD000059B0093239BA047CDE9007833462A4612
:101FE0000BA909A8A047199B089E1B9A5E40099B54
:101FF0000A9D82EA0308209B0B9F5D40229B049967
:102000005F407940019105990CA888EA010100918F
:1020100011A9A047D9F8203042460193D9F80030E1
:1020200012A900930DA83B46A0477A9B3246019324
:10203000659B13A900930EA82B46A047709B4246B0
:1020400001935B9B14A900930FA83B46A0476B9B91
:1020500032460193569B15A9009310A82B46A04722
:102060000C9B1A9A21995A4082EA0809029286EA40
:1020700008020392119A24A882EA0108049988EAC6
:10208000070A4A400192059A2BA953400093324611
:102090002B46A047779B4A460193629B2CA900934D
:1020A00025A85346A047759B029A0193609B2DA9D2
:1020B000009326A84346A047799B6F400193649BF9
:1020C000039A00932EA93B4627A8A047719B029A2A
:1020D00001935C9B2FA9009328A84346A047739BBC
:1020E0004A4601935E9B30A9009329A85346A04716
:1020F0006E9B039A0193599B31A9009306E000BFA0
:10210000F91B00007D1E0000811C00002AA83B4630
:10211000A047249A1C9B3AA982EA030888EA06038E
:102120000293039B88EA090989EA03032B9E039320
:10213000239B029A5E407C9B75400193679B32A86B
:1021400000932B46A0476A9B42460193559B3BA9AF
:10215000009333A83346A0477B9B86EA0A0A019383
:10216000669B8AEA0707039A00933CA93B4634A87A
:10217000A047789B4A460193639B3DA9009335A8ED
:102180005346A0476D9B029A0193589B3EA900932A
:1021900036A82B46A0476F9B4A4601935A9B3FA9FE
:1021A000009337A85346A047729B424601935D9B1C
:1021B00040A9009338A83346A0476C9B039A01932B
:1021C000579B41A9009339A83B46A04732AB5846DC
:1021D000124C00930CAA24AB7EA9A0473AAB009303
:1021E00011AA2BAB96A90BF12000A047DBF8003019
:1021F000DB43CBF80030DBF80430DB43CBF80430B2
:10220000DBF81430DB43CBF81430DBF81830DB4359
:10221000CBF818300DF52F7DBDE8F08FE51C0000E0
:10222000002330B551F8234052F823506C4040F859
:1022300023400133082BF5D101F120032032203057
:10224000403153F8044B52F8045B8B4284EA050496
:1022500040F8044BF5D130BD70B5002442FA04F5C6
:1022600015F0010F14BF1E46002651F8245075408A
:1022700040F824500134082CF0D170BD2DE9F04F06
:1022800003460446154691B001F1400251F8040B93
:10229000914243F8040BF9D101263746DFF840910B
:1022A000DFF838812A46214620464C4B9847DFF814
:1022B00034A121462046DFF830B1C84704F11C01A3
:1022C00004F15C0EA1F1200C5CF8043F1A0302F04B
:1022D00020200AEA1312024303F0113002431802CD
:1022E00000F044200243180A00F0441002430BEAB5
:1022F00003101B0B024303F008131A436145CCF88B
:102300000020E1D120318E45DCD10A2F08D02146B2
:102310002046DFF8D8A0D04704F120010846D04776
:1023200029466846C847DFF8C8A0324669464FF0DC
:1023300020236846D0476A46002113680131580AB5
:102340005B0B00F0081003F00713034342F8043B53
:10235000D36908294FEA53204FEA533300F008109D
:1023600003F0071343EA0003D361E6D16A46294626
:102370002846C047F20946F3060314BF1B26002671
:1023800004224FF00F1E86EA4306F6B205F11C0A3E
:1023900068460EFA02FC2B1F53F8041F0CEA011BBF
:1023A00081EA0B011960196A40F804BB0CEA011BB1
:1023B00081EA0B019A45C0F81CB01962ECD10432D5
:1023C000102AE5D10137FFB20B2F7FF46BAF2A46FD
:1023D00021462046C04711B0BDE8F08F2122000001
:1023E000B51E00002202220280888088A71D0000FE
:1023F000592200002DE9F0411546B4B004461022E0
:10240000DFF87C8014A8C047194F08211CA8B847E2
:1024100014A908230846174E1CAAB04710222946C3
:1024200024A8C04708212CA8B84724A90846082397
:102430002CAAB047104B24AA14A904A8984710222C
:1024400020460DEB02010D4DA847102268460CA94D
:10245000A8476B46621E0F3412F8010F13F8011BD8
:10246000A24281EA00011170F6D134B0BDE8F081DA
:10247000551B0000DD1B00007D220000A11B000099
:10248000711B000070B54FF0FF0C4CF4E06C1CEABF
:1024900011541DBF1CEA135594EA0C0F95EA0C0F5A
:1024A00000F0DEF82C4481EA030621EA4C5123EACD
:1024B0004C5350EA013518BF52EA033541F48011FC
:1024C00043F4801338D0A0FB02CE4FF00005E1FBAF
:1024D00002E506F00042E0FB03E54FF00006E1FBF9
:1024E00003569CF0000F18BF4EF0010EA4F1FF043C
:1024F000B6F5007F64F5407404D25FEA4E0E6D417C
:1025000046EB060642EAC62141EA55514FEAC5208C
:1025100040EA5E504FEACE2EB4F1FD0C88BFBCF508
:10252000E06F1ED8BEF1004F08BF5FEA500E50F1B9
:10253000000041EB045170BD06F0004646EA01017F
:1025400040EA020081EA0301B4EB5C04C2BFD4EBB1
:102550000C0541EA045170BD41F480114FF0000EAA
:10256000013C00F3AB8014F1360FDEBF002001F018
:10257000004170BDC4F10004203C35DA0C341BDC92
:1025800004F11404C4F1200500FA05F320FA04F064
:1025900001FA05F240EA020001F0004221F0004198
:1025A00010EBD37021FA04F642EB06015EEA430E0B
:1025B00008BF20EAD37070BDC4F10C04C4F120053B
:1025C00000FA04F320FA05F001FA04F240EA0200EE
:1025D00001F0004110EBD37041F100015EEA430EBF
:1025E00008BF20EAD37070BDC4F1200500FA05F2DF
:1025F0004EEA020E20FA04F301FA05F243EA02035E
:1026000021FA04F001F0004121FA04F220EA02006C
:1026100000EBD3705EEA430E08BF20EAD37070BDB2
:1026200094F0000F0FD101F00046400041EB010192
:1026300011F4801F08BF013CF7D041EA060195F074
:10264000000F18BF704703F00046520043EB03032E
:1026500013F4801F08BF013DF7D043EA060370471B
:1026600094EA0C0F0CEA135518BF95EA0C0F0CD026
:1026700050EA410618BF52EA4306D1D181EA03016C
:1026800001F000414FF0000070BD50EA410606BF66
:102690001046194652EA430619D094EA0C0F02D1AB
:1026A00050EA013613D195EA0C0F05D152EA0336F0
:1026B0001CBF104619460AD181EA030101F000410E
:1026C00041F0FE4141F470014FF0000070BD41F057
:1026D000FE4141F4780170BD81F0004102E000BF8D
:1026E00083F0004330B54FEA41044FEA430594EAD2
:1026F000050F08BF90EA020F1FBF54EA000C55EA0D
:10270000020C7FEA645C7FEA655C00F0E2804FEADD
:102710005454D4EB5555B8BF6D420CDD2C4480EABF
:10272000020281EA030382EA000083EA010180EAEF
:10273000020281EA0303362D88BF30BD11F0004F3D
:102740004FEA01314FF4801C4CEA113102D0404273
:1027500061EB410113F0004F4FEA03334CEA1333AE
:1027600002D0524263EB430394EA050F00F0A780C6
:10277000A4F10104D5F1200E0DDB02FA0EFC22FAC1
:1027800005F2801841F1000103FA0EF2801843FAB5
:1027900005F359410EE0A5F120050EF1200E012AA6
:1027A00003FA0EFC28BF4CF0020C43FA05F3C018E4
:1027B00051EBE37101F0004507D54FF0000EDCF15D
:1027C000000C7EEB00006EEB0101B1F5801F1BD306
:1027D000B1F5001F0CD349085FEA30004FEA3C0C0A
:1027E00004F101044FEA445212F5800F80F09A8000
:1027F000BCF1004F08BF5FEA500C50F1000041EB04
:10280000045141EA050130BD5FEA4C0C404141EB07
:102810000101013C28BFB1F5801FE9D291F0000F02
:1028200004BF01460020B1FA81F308BF2033A3F1B1
:102830000B03B3F120020CDA0C3208DD02F1140CA8
:10284000C2F10C0201FA0CF021FA02F10CE002F1E3
:102850001402D8BFC2F1200C01FA02F120FA0CFCDC
:10286000DCBF41EA0C019040E41AA2BF01EB045125
:10287000294330BD6FEA04041F3C1CDA0C340EDC23
:1028800004F11404C4F1200220FA04F001FA02F366
:1028900040EA030021FA04F345EA030130BDC4F124
:1028A0000C04C4F1200220FA02F001FA04F340EA19
:1028B0000300294630BD21FA04F0294630BD94F0CA
:1028C000000F83F4801306BF81F480110134013DB1
:1028D0004EE77FEA645C18BF7FEA655C29D094EA22
:1028E000050F08BF90EA020F05D054EA000C04BFA0
:1028F0001946104630BD91EA030F1EBF002100208B
:1029000030BD5FEA545C05D14000494128BF41F029
:10291000004130BD14F580043CBF01F5801130BD8D
:1029200001F0004545F0FE4141F470014FF0000018
:1029300030BD7FEA645C1ABF194610467FEA655CC9
:102940001CBF0B46024650EA013406BF52EA03356B
:1029500091EA030F41F4002130BD00BF90F0000F59
:1029600004BF0021704730B54FF4806404F1320495
:102970004FF000054FF0000150E700BF90F0000F4E
:1029800004BF0021704730B54FF4806404F1320475
:1029900010F0004548BF40424FF000013EE700BF45
:1029A00042004FEAE2014FEA31014FEA02701FBFD5
:1029B00012F07F4393F07F4F81F06051704732F007
:1029C0007F4208BF704793F07F4F04BF41F400215E
:1029D000704730B54FF4607401F0004521F00041BC
:1029E0001CE700BF50EA010208BF704730B54FF046
:1029F00000050AE050EA010208BF704730B511F047
:102A0000004502D5404261EB41014FF4806404F17E
:102A100032045FEA915C3FF4D8AE4FF003025FEA04
:102A2000DC0C18BF03325FEADC0C18BF033202EB88
:102A3000DC02C2F1200300FA03FC20FA02F001FAE2
:102A400003FE40EA0E0021FA02F11444BDE600BF85
:102A50004FEA4102B2F1E04324BFB3F5001CDCF1C0
:102A6000FE5C0DD901F0004C4FEAC0024CEA5070F8
:102A7000B2F1004F40EB830008BF20F00100704727
:102A800011F0804F21D113F13872BCBF01F000402A
:102A9000704741F480114FEA5252C2F11802C2F15C
:102AA000200C10FA0CF320FA02F018BF40F00100DD
:102AB0004FEAC1234FEAD32303FA0CFC40EA0C008F
:102AC00023FA02F34FEA4303CCE77FEA625307D1CC
:102AD00050EA01331EBF4FF0FE4040F44000704703
:102AE00001F0004040F0FE4040F40000704700BF9D
:102AF00080F0004002E000BF81F0004142001FBFB3
:102B00005FEA410392EA030F7FEA226C7FEA236CBB
:102B10006AD04FEA1262D2EB1363C1BFD2184140B0
:102B200048404140B8BF5B42192B88BF704710F046
:102B3000004F40F4000020F07F4018BF404211F0E9
:102B4000004F41F4000121F07F4118BF494292EA51
:102B5000030F3FD0A2F1010241FA03FC10EB0C007D
:102B6000C3F1200301FA03F100F0004302D549420A
:102B700060EB4000B0F5000F13D3B0F1807F06D3B7
:102B800040084FEA310102F10102FE2A51D2B1F1AF
:102B9000004F40EBC25008BF20F0010040EA0300A4
:102BA0007047490040EB0000013A28BFB0F5000F24
:102BB000EDD2B0FA80FCACF1080CB2EB0C0200FADA
:102BC0000CF0AABF00EBC25052421843BCBFD04029
:102BD0001843704792F0000F81F4000106BF80F4A3
:102BE00000000132013BB5E74FEA41037FEA226C66
:102BF00018BF7FEA236C21D092EA030F04D092F031
:102C0000000F08BF0846704790EA010F1CBF002064
:102C1000704712F07F4F04D1400028BF40F00040C1
:102C2000704712F100723CBF00F50000704700F0E1
:102C3000004343F0FE4040F4000070477FEA226208
:102C400016BF08467FEA23630146420206BF5FEAD9
:102C5000412390EA010F40F4800070474FF00003D9
:102C600004E000BF10F0004348BF40425FEA000CA0
:102C700008BF704743F0964301464FF000001CE048
:102C800050EA010208BF70474FF000030AE000BF9E
:102C900050EA010208BF704711F0004302D54042DC
:102CA00061EB41015FEA010C02BF8446014600204E
:102CB00043F0B64308BFA3F18053A3F50003BCFA69
:102CC0008CF2083AA3EBC25310DB01FA02FC634416
:102CD00000FA02FCC2F12002BCF1004F20FA02F21D
:102CE00043EB020008BF20F00100704702F1200210
:102CF00001FA02FCC2F1200250EA4C0021FA02F271
:102D000043EB020008BF20EADC70704742000ED29D
:102D1000B2F1FE4F0BD34FF09E03B3EB126209D416
:102D20004FEA002343F0004323FA02F070474FF0CC
:102D30000000704712F1610F01D1420202D14FF041
:102D4000FF3070474FF00000704700BF0244034659
:102D5000934200D1704703F8011BF9E7034613F8CB
:102D6000012B002AFBD1181A013870472B7E15164B
:102D700028AED2A6ABF7158809CF4F3C00303132D0
:102D8000333435363738394142434445464153534D
:102D9000455254204552524F522022202573202262
:102DA0003A2066696C652022257322204C696E6585
:102DB00020222564222066756E6374696F6E206E12
:102DC000616D652022257322200A004E554C4C204F
:102DD000213D206368002E2E2F2E2F68616C2F6CF2
:102DE000706335357336782F7574696C69746965ED
:102DF000732F66736C5F64656275675F636F6E7374
:102E00006F6C652E63003020213D2073697A650068
:102E10006B5374617475735F53657269616C4D6156
:102E20006E616765725F53756363657373203D3DC3
:102E30002073746174757300446267436F6E736FBF
:102E40006C655F53656E64446174610044626743FE
:102E50006F6E736F6C655F52656164436861726128
:102E60006374657200446267436F6E736F6C655F75
:102E7000496E69740066616C7365002E2E2F2E2FCB
:102E800068616C2F6C706335357336782F647269A6
:102E9000766572732F66736C5F666C6578636F6DB1
:102EA0006D2E6300735F666C6578636F6D6D49723C
:102EB0007148616E646C65725B305D00735F666C57
:102EC0006578636F6D6D49727148616E646C65728F
:102ED0005B315D00735F666C6578636F6D6D497221
:102EE0007148616E646C65725B325D00735F666C25
:102EF0006578636F6D6D49727148616E646C65725F
:102F00005B335D00735F666C6578636F6D6D4972EE
:102F10007148616E646C65725B345D00735F666CF2
:102F20006578636F6D6D49727148616E646C65722E
:102F30005B355D00735F666C6578636F6D6D4972BC
:102F40007148616E646C65725B365D00735F666CC0
:102F50006578636F6D6D49727148616E646C6572FE
:102F60005B375D00464C4558434F4D4D5F47657498
:102F7000496E7374616E636500464C4558434F4D0E
:102F80004D305F44726976657249525148616E6492
:102F90006C657200464C4558434F4D4D315F44724D
:102FA0006976657249525148616E646C657200467B
:102FB0004C4558434F4D4D325F44726976657249B6
:102FC000525148616E646C657200464C4558434FDF
:102FD0004D4D335F44726976657249525148616E56
:102FE000646C657200464C4558434F4D4D345F4408
:102FF000726976657249525148616E646C657200FF
:10300000464C4558434F4D4D355F44726976657265
:1030100049525148616E646C657200464C45584394
:103020004F4D4D365F447269766572495251486121
:103030006E646C657200464C4558434F4D4D375F8A
:1030400044726976657249525148616E646C65726A
:1030500000FFFFFF0060084000700840008008404B
:103060000090084000A0084000600940007009403E
:103070000080094000F009400B010C010D010E0118
:103080000F011001110112011C02FFFF0B000100D2
:103090000C0001000D0001000E0001000F000100F6
:1030A0001000010011000100120001001C000200CC
:1030B000626974506F73203C20333275002E2E2FBE
:1030C0002E2F68616C2F6C706335357336782F64E2
:1030D0007269766572732F66736C5F72657365745F
:1030E0002E630052455345545F53657450657269B1
:1030F00070686572616C5265736574005245534522
:10310000545F436C65617250657269706865726185
:103110006C5265736574002E2E2F2E2F68616C2FF4
:103120006C706335357336782F64726976657273A7
:103130002F66736C5F75736172742E63004E554C0D
:103140004C20213D20636F6E666967002128284E60
:10315000554C4C203D3D206261736529207C7C20CC
:103160002830203D3D2062617564726174655F4264
:10317000707329207C7C202830203D3D20737263B1
:10318000436C6F636B5F487A2929002128284E55CC
:103190004C4C203D3D206261736529207C7C2028B9
:1031A0004E554C4C203D3D20636F6E66696729206B
:1031B0007C7C202830203D3D20737263436C6F631C
:1031C0006B5F487A2929002128284E554C4C203D18
:1031D0003D206261736529207C7C20284E554C4C33
:1031E000203D3D20646174612929005553415254AA
:1031F0005F496E69740055534152545F476574448A
:10320000656661756C74436F6E66696700555341FE
:1032100052545F5365744261756452617465005520
:10322000534152545F5772697465426C6F636B69A6
:103230006E670055534152545F52656164426C6F32
:10324000636B696E67002E2E2F2E2F68616C2F6CBA
:10325000706335357336782F636F6D706F6E656E82
:10326000742F66736C5F73657269616C5F6D616EFC
:10327000616765722E630073657269616C48616E87
:10328000646C6500777269746548616E646C650092
:1032900068616E646C65007265616448616E646C3F
:1032A0006500627566666572006C656E67746800BD
:1032B00053657269616C4D616E616765725F5772CB
:1032C0006974650053657269616C4D616E61676513
:1032D000725F526561640053657269616C4D616E25
:1032E000616765725F496E69740053657269616CEC
:1032F0004D616E616765725F4F70656E577269747C
:103300006548616E646C650053657269616C4D61FE
:103310006E616765725F4F70656E5265616448618A
:103320006E646C650073657269616C436F6E66698B
:1033300067002E2E2F2E2F68616C2F6C7063353531
:103340007336782F636F6D706F6E656E742F667352
:103350006C5F73657269616C5F706F72745F7561C9
:1033600072742E630053657269616C5F556172748B
:10337000496E69740053657269616C5F556172745E
:1033800057726974650053657269616C5F5561724B
:103390007452656164002E2E2F2E2F68616C2F6C85
:1033A000706335357336782F636F6D706F6E656E31
:1033B000742F66736C5F75736172745F61646170A2
:1033C0007465722E6300636F6E6669672D3E696E69
:1033D0007374616E6365203C202873697A656F663B
:1033E00028735F55736172744164617074657242D1
:1033F00061736529202F2073697A656F662855539C
:103400004152545F54797065202A292900735F5511
:103410007361727441646170746572426173655B5B
:10342000636F6E6669672D3E696E7374616E636566
:103430005D00646174610048414C5F55617274497C
:103440006E69740048414C5F5561727452656365E2
:10345000697665426C6F636B696E670048414C5FCB
:103460005561727453656E64426C6F636B696E670D
:1034700000FFFFFF00600840007008400080084027
:103480000090084000A0084000600940007009401A
:04349000008009406F
:04349400F8B500BFC8
:04349800F8B500BFC4
:0C349C000A00FFFF001BB7000024F40032
:04000003000001B543
:00000001FF
